:020000040800F2
:10000000480C0024C10200085105000853050008EF
:1000100055050008570500085905000800000000B4
:100020000000000000000000000000005B05000868
:100030005D050008000000005F050008610500087C
:10004000DB020008DB020008DB020008DB0200081C
:10005000DB020008DB020008DB020008DB0200080C
:10006000DB020008DB020008DB020008DB020008FC
:10007000DB020008DB020008DB020008DB020008EC
:10008000DB020008DB020008DB020008DB020008DC
:10009000DB020008DB020008DB020008DB020008CC
:1000A000DB020008DB020008DB020008DB020008BC
:1000B000DB020008DB020008DB020008DB020008AC
:1000C000DB020008DB020008DB020008DB0200089C
:1000D000DB020008DB020008DB020008B58800082C
:1000E000DB020008DB020008DB020008DB0200087C
:1000F000DB020008DB020008DB020008DB0200086C
:10010000DB020008DB020008DB020008DB0200085B
:10011000DB020008DB020008DB020008DB0200084B
:10012000DB020008DB020008DB020008DB0200083B
:10013000DB0200080000000000000000DB020008F5
:10014000DB020008DB020008DB020008DB0200081B
:10015000DB020008DB020008DB020008DB0200080B
:10016000DB020008DB020008DB020008DB020008FB
:10017000DB020008DB020008DB02000800000000D0
:10018000DB020008DB020008DB020008DB020008DB
:10019000DB020008DB020008DB020008DB020008CB
:1001A000DB020008DB020008DB020008DB020008BB
:1001B000DB020008DB020008DB020008DB020008AB
:1001C000DB020008DB020008000000000000000065
:1001D0000000000000000000DB020008000000003A
:1001E000000000000000000000000000000000000F
:1001F0000000000000000000DB020008DB02000835
:10020000DB020008DB02000800000000DB0200083F
:10021000DB020008DB020008DB020008DB0200084A
:10022000DB020008DB020008DB020008000000001F
:10023000DB020008DB02000800000000DB0200080F
:10024000DB020008DB020008DB020008DB0200081A
:10025000DB020008DB020008DB020008DB0200080A
:10026000DB020008DB020008DB020008DB020008FA
:10027000DB020008DB020008DB02000800000000CF
:10028000DB020008DB02000800000000DB020008BF
:1002900000000000DB020008DB0200080000000094
:1002A00000000000DB020008DB020008DFF80CD0D1
:1002B00008F086FC00480047E7040008480C0024CA
:1002C0000648804706480047FEE7FEE7FEE7FEE7F0
:1002D000FEE7FEE7FEE7FEE7FEE7FEE7998300089C
:1002E000AD0200082DE9F04786B01421684608F0F9
:1002F0001FFC8348016841F004010160016801F0BE
:1003000004010591016841F020010160016801F0DC
:1003100020010591016841F080010160016801F050
:1003200080010591016841F002010160016801F05E
:1003300002010591016841F008010160016801F0C6
:1003400008010591016841F040010160016801F078
:1003500040010591016841F001010160016801F06F
:1003600001010591016841F01001016000684FF43E
:100370008067DFF89081002200F010003946059078
:10038000404605F060F9DFF8809144F20106002252
:100390003146484605F057F9DFF870A100220221E6
:1003A000504605F050F90024694670100294CDE9DA
:1003B0000004574804F0A4FF01250097CDE901543B
:1003C00069464046039404F09BFF00966946CDE9D8
:1003D00001544846039404F093FF80204FF48811A1
:1003E0008DE813004B48694604F08AFFDFF8288146
:1003F0006802CDE9000469464046029404F080FF9B
:100400000A20009702266946CDE90164CDE9034040
:10041000404604F075FF4FF4C0500090CDE90164F0
:1004200069464046039404F06BFF00966946CDE9A7
:1004300001545046039404F063FF06B0BDE8F08712
:1004400072B6FEE730B59DB04C21684608F070FBEF
:10045000202113A808F06CFB29494FF0FF30903998
:100460000860042007F09AFA2C48016841F44041E2
:1004700001600168002401F440411B910168890476
:10048000FCD50DF1280C212200924FF4A0230193FA
:10049000012106910220099046258CE823000422C0
:1004A0000FA90C23CDE90D0281E8190068461294CA
:1004B00002F016FE08B172B6FEE713AD40203F21F0
:1004C000032285E8160003011A90CDE916400621A3
:1004D000CDE9180313A803F070F9002801D072B613
:1004E000FEE71DB030BD07F05EFDFFF7ABFFFFF785
:1004F000F9FE08F097F80AA008F074FBFBE700008B
:1005000040450258001402580004025800100258D6
:1005100000080258001802580000025818480258F3
:100520002A2048414CBFE2B0E6B1BE20203A205616
:10053000312E332E30202853544D333248377878BB
:100540002048414C20447269766572290D0A0000EA
:10055000FEE7FEE7FEE7FEE7FEE7704770477047FD
:1005600007F075BD2C4808B5016841F00201016033
:10057000006800F00200009008BD10B5B6B0044657
:10058000142130A808F0D4FAC021684608F0D0FA47
:100590002249206888422CD1002020900221044664
:1005A000CDE90010684603F0BFFC08B1FFF748FF33
:1005B00019480C38016841F480210160006800F49A
:1005C0008020359014481438016841F0080101601A
:1005D000006830AB022100F0080035904FF4407005
:1005E000072283E813000E4830A9CDE9334204F016
:1005F00087FE36B010BD0068084988420AD1064817
:100600000C38016821F48021016005484FF44071E5
:1006100004F073BF70470000544502580048004082
:10062000000C0258A14900F0070210B54FF6FF0474
:1006300008689F4B204040EA02201843086010BD24
:100640009A4BF0B41B680D46C3F30223C3F10706AF
:10065000042E00D90426191D072901D2002300E029
:10066000DB1E012404FA06F19C40491E2940641E49
:10067000994014402143F0BC00F007B9002809DB81
:10068000410900F01F028900012001F1E0219040A2
:10069000C1F80001704700280DDB410900F01F027E
:1006A0008900012001F1E0219040C1F88001BFF3F1
:1006B0004F8FBFF36F8F7047BFF34F8F7B487C4ADC
:1006C000121D016801F4E06111430160BFF34F8F17
:1006D00000BFFDE7401EB0F1807F10B501D30120BF
:1006E00010BD4FF0E02460610F21601700F0CDF8DD
:1006F0000020A0610721216110BDBFF35F8F6B480F
:10070000183000210368694A23F48033036088327B
:1007100011607047654940F00100644A1831883221
:100720001060086840F480300860BFF34F8FBFF35B
:100730006F8F7047F0B55D4C43788C34211D0A1DD6
:1007400023600378F3B143680B60057BC67A817A36
:10075000437B2D07847B45EA0665C77B90F809C07B
:10076000067A90F800E045EAC14040EA834040EA5A
:10077000444040EA074040EA0C2040EA460040EA94
:100780000E0001E0002008601060F0BD47480068DE
:10079000C0F30220704770B5002804DB00F1E020B0
:1007A00090F8000405E000F00F0000F1E02090F860
:1007B000140D01F00704C4F107050009042D00D948
:1007C0000425211D072901D2002400E0E41E012197
:1007D00020FA04F601FA05F5A1406D1E2E401660C0
:1007E000491E0140196070BD002809DB410900F075
:1007F0001F028900012001F1E0219040C1F80002B0
:10080000704700280DDB410900F01F02890001F14B
:10081000E0210120D1F800129040014201D00120D6
:10082000704700207047002809DB410900F01F02D3
:100830008900012001F1E0219040C1F88002704759
:1008400000280DDB410900F01F02890001F1E021C1
:100850000120D1F800139040014201D001207047DF
:100860000020704704284FF0E020016903D021F0F8
:1008700004010161704741F00401FAE7704710B5C7
:10088000FFF7FCFF10BD03207047090700284FEA5F
:10089000116104DB00F1E02080F80014704700F0E3
:1008A0000F0000F1E02080F8141D70470CED00E00F
:1008B0000000FA0510B5026852E8001F21F490719B
:1008C00042E80013002BF6D1F74B0268083252E8D9
:1008D000001F194042E80014002CF6D1C16E012916
:1008E00008D1026852E8001F21F0100142E800130D
:1008F000002BF6D100212022C0F88C20C166416770
:1009000010BD2DE9F047994617460E460446089D4E
:100910004FF000082FE0681C2DD007F09EFBA0EBE5
:100920000900A84214D89DB120680168490722D562
:10093000C169C94309070DD4082505622046FFF7A0
:10094000B9FFC4F89050012084F88480BDE8F08796
:100950000320FBE7C069C04300050CD421684FF4B5
:10096000006008622046FFF7A5FF2021C4F8901020
:1009700084F88480ECE72068C06936EA000004D07F
:100980000020B842C7D00020E0E70120F9E72DE9B8
:10099000F84300250446C0F8905007F05EFB8046FF
:1009A000206820266FF07E470068000713D50022DC
:1009B0004346310420460097FFF7A3FF58B1216852
:1009C00051E8000F20F0800041E80002002AF6D133
:1009D000C4F8886021E020680068400722D5002222
:1009E00043464FF4800120460097FFF78AFFC8B1C5
:1009F000206850E8001F21F4907140E80012002A9E
:100A0000F6D12068083050E8001F21F0010140E8CD
:100A10000012002AF5D1C4F88C60032084F88450B9
:100A2000BDE8F883C4F88860C4F88C60E566256783
:100A3000002084F88450F3E790F82810C90706D006
:100A40000168C36A4A6822F400321A434A6090F887
:100A50002810890706D50168036B4A6822F48032A2
:100A60001A434A6090F82810490706D50168436B7D
:100A70004A6822F480221A434A6090F82810090735
:100A800006D50168836B4A6822F400421A434A6023
:100A900090F82810C90606D50168C36B8A6822F44D
:100AA00080521A438A6090F82810890606D501689A
:100AB000036C8A6822F400521A438A6090F8281066
:100AC000490611D50168436C4A6822F480121A4322
:100AD0004A60416CB1F5801F06D10168836C4A6899
:100AE00022F4C0021A434A6090F82810090606D57D
:100AF0000168C26C486820F40020104348607047C9
:100B00002DE9F04304468068684E87B0684B216841
:100B1000D4E90427D4F81CC010430A68002547EA2A
:100B20000C073843324002430A602068E26841689B
:100B300021F44051114341602268A1699A4201D0D9
:100B4000206A01439668DFF86CC15B4F5B4806EA98
:100B50000C060E4396602168666ACA6A22F00F028C
:100B60003243CA622268BA420ED1006800F03800EF
:100B700018286FD07ADCB8B308286CD010286BD155
:100B80008BE0282868D1ADE04D498A4209D1006840
:100B900000F0070006285FD2DFE800F0507D7F817B
:100BA00083A448498A4209D1006800F0070006285A
:100BB00052D2DFE800F043707274769742498A425D
:100BC00009D1006800F00700062845D2DFE800F0F0
:100BD00036636567698A3D498A420BD1006800F037
:100BE0000700062838D200E043E0DFE800F0275491
:100BF00056585A7B36498A4206D1006800F03800C0
:100C000018284CD0B7DD31E032498A4209D100685A
:100C100000F00700062867D2DFE800F0103D3F41F2
:100C200043642D498A420BD1006800F00700062872
:100C30005AD2DFE800F0033032343657002054E057
:100C400026498A4209D1006800F03800182826D0C9
:100C500091DD0BE023E01EE046E021498A420AD103
:100C6000006800F03800182819D084DD202888D1C9
:100C70003BE0012039E09A4236D11048001D00685F
:100C800000F0070006282FD2DFE800F0030507096F
:100C90000B2C022029E0042027E0082025E010206A
:100CA00023E0202021E00000FEFFFFEFF369FFCFEB
:100CB000000C0058FFF4FF1100100140544402588A
:100CC0000044004000480040004C004000500040FC
:100CD0000014014000780040007C004000180140F2
:100CE000001C0140402000E08020FE49DFF8F8832E
:100CF0009A42FE4A4FF400434FEA21174FF0000694
:100D00004ED110281AD006DC022809D004280BD0B6
:100D100008287CD10DE020283ED0402877D13DE046
:100D200004F04CF8014610E0684603F079FE0199A2
:100D30000BE003A803F0ADFF049906E010688006FD
:100D400005D51068C0F3C100C140002970D0606AA9
:100D5000676838F8102007EB4703B1FBF2F08342D5
:100D600055D8B0EB073F52D800230846194607F084
:100D7000A7FE02467808130E120243EA012110185A
:100D80003A467141002307F09BFED94AA0F5407115
:100D900091423CD821688FE03946D8E71946D6E71A
:100DA000D4F81CC04FF6EF799C4546D1082819D0DD
:100DB00005DC58B101280CD0042875D10DE01028AD
:100DC00015D0202835D040286ED134E002F095FEB1
:100DD00001E002F09FFE014610E0684603F020FEAD
:100DE00001990BE003A803F054FF049906E0106892
:100DF000800604D51068C0F3C100C140C1B1636A68
:100E0000606838F81330B1FBF3F1490000E04BE0C3
:100E100001EB5001B1FBF0F0A0F11001494543D8BE
:100E20004FF6F0732168C0F342021840104343E0CC
:100E300043E03946E3E71946E1E7082819D005DC25
:100E400058B101280CD004282ED10DE0102815D05F
:100E500020282BD0402827D12AE002F04EFE01E0C6
:100E600002F058FE014610E0684603F0D9FD0199F2
:100E70000BE003A803F00DFF049906E0106880065C
:100E800004D51068C0F3C100C140B1B1636A6068A5
:100E900038F81330B1FBF3F101EB5001B1FBF0F086
:100EA000A0F11001494505D9012506E03946EDE7D5
:100EB0001946EBE7216880B2C8600120A4F86A00F7
:100EC000A4F8680028466667A66707B0BDE8F08307
:100ED000704710B5040003D0D4F8880010B107E0C3
:100EE000012010BD002084F884002046FFF745FB58
:100EF0002420C4F888002068016821F00101016005
:100F00002046FFF7FDFD0128EBD0A06A10B1204676
:100F1000FFF792FD2068416821F49041416020680C
:100F2000816821F02A0181602068016841F0010197
:100F300001602046BDE8104029E510B5040003D04B
:100F4000D4F8880010B107E0012010BD002084F81B
:100F500084002046FFF711FB2420C4F88800206895
:100F6000016821F0010101602046FFF7C9FD012859
:100F7000EBD0A06A10B12046FFF75EFD2068416803
:100F800021F4904141602068816821F02201816054
:100F90002068816841F0080181602068016841F0A3
:100FA000010101602046BDE81040F0E470B5040086
:100FB0000D4605D0E069B0F5004F01D0A06808B13A
:100FC000012070BDD4F8880028B9002084F884007E
:100FD0002046FFF7D2FA2420C4F888002068016870
:100FE00021F0010101602046FFF78AFD0128E8D0C9
:100FF000A06A10B12046FFF71FFD2068416821F468
:10100000006141602068816821F02A0181602068C8
:10101000416841F4804141602068416821F020012D
:10102000294341602068016841F0010101602046C8
:10103000BDE87040ABE470B5040015460E4603D021
:10104000D4F8880010B107E0012070BD002084F8BA
:1010500084002046FFF791FA2420C4F88800206815
:10106000016821F0010101602046FFF749FD0128D8
:10107000EBD0A06A10B12046FFF7DEFC2068B5F582
:10108000006F416821F4904141602068816821F03F
:101090002A01816004D12068416866F31F614160C4
:1010A0002068016821F4006129430160206801681B
:1010B00041F0010101602046BDE8704067E47047DF
:1010C00070B5040026D02420C4F8880000252068CC
:1010D000016821F001010160206805602068456019
:1010E000206807E00090D003DC8D0008004402581F
:1010F000FFFC0F0085602046FFF77DFAC4F8905092
:10110000C4F88850C4F88C50E5662567002084F840
:10111000845070BD012070BD2DE9F8430446D0F81D
:101120008800984616460D46202801D0022077E414
:10113000A5B19EB10021C4F890102120C4F8880008
:10114000183406F08AFF814654F8100CA687E6870B
:101150002027183CB0F5805F02D003E001205FE457
:10116000206910B12E46002510E000260EE08021F7
:101170002046FFF7C6FBC0B9DEB116F8010B2168A7
:101180008862B4F85600401EA4F85600B4F8560021
:101190004B464FF00002CDF800800028E7D14FF019
:1011A00040012046FFF7ADFB48B1C4F8887003202A
:1011B00036E435F8020B2168C0F30800E0E7C4F814
:1011C000887000202CE42DE9F84F0446D0F88C00FC
:1011D0009B4616460D46202802D00220BDE8F88F17
:1011E000C5B1BEB10027C4F890702220C4F88C00AD
:1011F000E766203406F031FF824654F8180CA687C3
:101200004FF48053E687FF21203C984207D12269A2
:1012100012B11AE00120E1E740F2FF1115E04FF0B2
:101220007F0280B1B0F1805F12D0A4F8607000BF7F
:10123000B4F8607098424FF0200801D1206970B175
:101240002E4600250CE0266936B9A4F86010EFE7B9
:10125000216909B13F21F8E7A4F86020E8E70026FA
:1012600007F0FF09B4F85E00F0B1002253462021D8
:101270002046CDF800B0FFF744FB18B1C4F88C80CD
:101280000320ABE72068406A56B100EA090006F87F
:10129000010B00BFB4F85E00401EA4F85E00E1E759
:1012A000384025F8020BF5E7C4F88C80002095E75C
:1012B000D0F8881021290ED1B0F8561061B1016D17
:1012C000026809789162016D491C0165B0F85610F9
:1012D000491EA0F856107047026852E8001F21F01E
:1012E000800142E80013002BF6D1026852E8001F8B
:1012F00041F0400142E80013002BF6D17047D0F8CE
:101300008810212910D1B0F8561071B1016D026812
:101310000988C1F308019162016D891C0165B0F86B
:101320005610491EA0F856107047026852E8001F78
:1013300021F0800142E80013002BF6D1026852E848
:10134000001F41F0400142E80013002BF6D1704726
:10135000D0F88810212919D1B0F86A1014E000BF24
:10136000B0F856209AB10268D3691B060AD5036DFE
:101370001B789362026D521C0265B0F85620521E13
:10138000A0F85620491E89B20029E9D170470168AA
:10139000083151E8002F22F4000241E80023002B1D
:1013A000F5D1026852E8001F41F0400142E8001305
:1013B000002BF6D17047D0F8881021291AD1B0F847
:1013C0006A1015E0B0F85620AAB10268D3691B066E
:1013D0000CD5036D1B88C3F308039362026D921C46
:1013E0000265B0F85620521EA0F85620491E89B258
:1013F0000029E7D170470168083151E8002F22F435
:10140000000241E80023002BF5D1026852E8001FDA
:1014100041F0400142E80013002BF6D1704710B5AF
:10142000D0F88830202B01D0022010BD21B31AB390
:10143000A0F854200023A0F856204FF48054426EA8
:10144000016521218367C0F89030C0F88810B2F19F
:10145000005F816812D0A14201D1016909B3FE4940
:101460008167026852E8001F41F0800142E80013E2
:10147000002BF6D1002010BD012010BDA14201D1EA
:10148000016961B1F54981670168083151E8002FB0
:1014900042F4000241E80023002BF5D1EAE7F049CD
:1014A000F1E7F049DCE77047704710B5D0F88C10D1
:1014B000B0F860202229016804D0886940F0080053
:1014C000886110BD496A836D11401970816D491C96
:1014D0008165B0F85E10491EA0F85E10B0F85E108D
:1014E0000029EED1026852E8001F21F4907142E811
:1014F0000013002BF6D10168083151E8002F22F0CB
:10150000010241E80023002BF5D1D74B00210268EE
:101510002024C0F88C40416701679A420BD0526882
:10152000120208D5026852E8003F23F0806342E8C7
:101530000034002CF6D1C26E012A02D0FFF7B3FFAF
:1015400010BDC166026852E8001F21F0100142E898
:101550000013002BF6D10168CA69D243D20601D428
:1015600010220A62B0F85C10FFF79EFF10BD10B5A4
:10157000D0F88C10B0F860202229016804D0886966
:1015800040F00800886110BD496A836D11401980E0
:10159000816D891C8165B0F85E10491EA0F85E104F
:1015A000B0F85E100029EED1016851E8002F22F456
:1015B000907241E80023002BF6D10168083151E810
:1015C000002F22F0010241E80023002BF5D1A64BA9
:1015D000002102682024C0F88C40416701679A42CC
:1015E0000BD05268120208D5036853E8002F22F08E
:1015F000806243E80024002CF6D1C26E012A02D09A
:10160000FFF751FF10BDC166026852E8001F21F0CC
:10161000100142E80013002BF6D10168CA69D243D9
:10162000D20601D410220A62B0F85C10FFF73CFF2A
:1016300010BD70472DE9F04704460068C569D0F831
:1016400000A0D0F80880D4F88C10B4F8606022298B
:1016500005D0816941F008018161BDE8F087B4F8E7
:1016600068704FF0000975E02068A16D406A304055
:101670000870A06D401CA065B4F85E00401EA4F880
:101680005E002068C569690730D0E9070AD05FEAC3
:10169000CA5107D501210162D4F8900040F0010041
:1016A000C4F89000A8070BD55FEAC87008D021687D
:1016B00002200862D4F8900040F00400C4F89000C2
:1016C00068070BD55FEAC87008D02168042008625B
:1016D000D4F8900040F00200C4F89000D4F89000D4
:1016E00020B12046FFF7A5FFC4F89090B4F85E0043
:1016F00080BB216851E8000F20F4807041E80002AF
:10170000002AF6D1594A2068083050E8001F1140DD
:1017100040E80013002BF6D15349202320684A46A5
:10172000C4F88C30C4F87490C4F8709088420BD020
:101730004068000208D5216851E8000F20F0806061
:1017400041E80003002BF6D1E06E012825D02046A9
:10175000FFF7A9FE0FB1A80686D4B4F85E000028F2
:101760003FF47BAFB4F8681081427FF676AF206813
:10177000083050E8001F21F0805140E80012002A94
:10178000F5D13B486067206850E8001F41F0200118
:1017900040E80012002AF6D15FE7E266206850E8D0
:1017A000001F21F0100140E80012002AF6D1206845
:1017B000C169C943C90601D410210162B4F85C10A3
:1017C0002046FFF771FEC5E72DE9F04704460068A3
:1017D000C569D0F800A0D0F80880D4F88C10B4F80F
:1017E0006060222904D0816941F00801816134E7F9
:1017F000B4F868704FF0000984E02068A16D406A79
:1018000030400880A06D801CA065B4F85E00401ECA
:10181000A4F85E002068C56969073FD0E9070AD0CF
:101820005FEACA5107D501210162D4F8900040F067
:101830000100C4F89000A8070BD55FEAC87008D073
:10184000216802200862D4F8900040F00400C4F837
:10185000900068071AD50DE0B11200085113000876
:10186000B7130008FF120008000C0058FEFFFFEF3E
:10187000AB1400085FEAC87008D021680420086231
:10188000D4F8900040F00200C4F89000D4F8900022
:1018900020B12046FFF7CDFEC4F89090B4F85E006A
:1018A00080BB216851E8000F20F4807041E80002FD
:1018B000002AF6D1FE4A2068083050E8001F114087
:1018C00040E80013002BF6D1FA4B202120684A464D
:1018D000C4F88C10C4F87490C4F8709098420BD07F
:1018E0004068000208D5216851E8000F20F08060B0
:1018F00041E80003002BF6D1E06E012826D02046F7
:10190000FFF7D1FD17B1A8063FF577AFB4F85E0039
:1019100000283FF46CAFB4F8681081427FF667AFDF
:101920002068083050E8001F21F0805140E8001284
:10193000002AF5D1E0486067206850E8001F41F0B8
:10194000200140E80012002AF6D186E6E26620680F
:1019500050E8001F21F0100140E80012002AF6D1E3
:101960002068C169C943C90601D410210162B4F8D5
:101970005C102046FFF798FDC4E770B5836800242B
:1019800081654FF48056A0F85C20B342A0F85E2039
:101990004FF0FF01446704D1036903BB40F2FF111C
:1019A0001DE04FF07F05C3B1B3F1805F1AD0A0F8FE
:1019B00060402221C0F89040C0F88C1001680831C6
:1019C00051E8003F43F0010341E80034002CF5D119
:1019D000416EB1F1005F0CD02FE0036933B9A0F87C
:1019E0006010E6E7016909B13F21F8E7A0F860500F
:1019F000DFE7B0F8681091421FD88168B14201D189
:101A00000169B9B1AD490269416742B1026852E862
:101A1000001F41F4807142E80013002BF6D10168E9
:101A2000083151E8002F42F0805241E80023002B9A
:101A3000F5D120E0A2494167F1E78168B14201D1C7
:101A4000016969B19F49026941675AB1016851E86A
:101A5000002F42F4907241E80023002BF6D10AE0F7
:101A600095494167026852E8001F41F0200142E8B1
:101A70000013002BF6D1002070BD30B4D0F88C30AC
:101A8000202B02D0022030BC7047A1B19AB1894D01
:101A900000240368C466AB420BD05B681B0208D508
:101AA000046854E8003F43F0806344E80035002DAB
:101AB000F6D130BC61E70120E5E770B5846B002505
:101AC0002168D4F88800D4F88C608968090606D5A6
:101AD000212804D1A4F85650204600F0A1FF206828
:101AE0008068400606D5222E04D1A4F85E50204618
:101AF000FEF7E0FED4F8900040F01000C4F890002B
:101B00002046FFF796FD70BD704710B5806BFFF75C
:101B1000FBFF10BD704710B5C169806BB1F5807FC8
:101B200016D00021A0F856100168083151E8002FA6
:101B300022F0800241E80023002BF5D1026852E830
:101B4000001F41F0400142E80013002BF6D110BD08
:101B5000FFF7E0FF10BD70B50446D0F888002028DC
:101B600001D0022070BD39B332B3E06F002321658C
:101B70002125A4F85420A4F85620C4F89030C4F8C5
:101B80008850D8B15049C163E16F50480864E16F93
:101B90004F48C864E06F036513462068E56F00F1A5
:101BA0002802216D284604F099FB38B11021C4F8B1
:101BB00090102020C4F88800012070BD21684020CA
:101BC00008622068083050E8001F41F0800140E8BA
:101BD0000012002AF5D1002070BD704710B5806B4F
:101BE00001210167C16E012902D0FFF7F6FF10BD88
:101BF000B0F85C104908FFF757FC10BD10B5C1697B
:101C00000022806BB1F5807F2DD0A0F85E200368A4
:101C100053E8001F21F4807143E80014002CF6D132
:101C20000168083151E8003F23F0010341E8003426
:101C3000002CF5D10168083151E8003F23F0400342
:101C400041E80034002CF5D12021C0F88C10C16E81
:101C5000012908D1016851E8003F23F0100341E851
:101C60000034002CF6D10267C16E012902D0FFF7C3
:101C70001AFC10BDB0F85C10FFF716FC10BD70B573
:101C80000446D0F8800000232225A165A4F85C203A
:101C9000C4F89030C4F88C50A8B30E49C163D4F88E
:101CA00080100D480864D4F880100948C86415E015
:101CB000FEFFFFEF000C00586F15000835160008F6
:101CC000C9170008AB140008171B00080B1B0008FD
:101CD000BB1A0008FD1B0008DD1B0008D4F88000BB
:101CE00003651346A56D2168D4F880002A46243187
:101CF00004F0F4FA38B11021C4F890102020C4F890
:101D00008C00012070BDFFE7206940B1216851E8D7
:101D1000000F40F4807041E80002002AF6D12068EC
:101D2000083050E8001F41F0010140E80012002A8D
:101D3000F5D12068083050E8001F41F0400140E82C
:101D40000012002AF5D10020DCE730B4D0F88C3046
:101D5000202B01D0022096E6A1B19AB1FE4D0024BD
:101D60000368C466AB420BD05B681B0208D50468ED
:101D700054E8003F43F0806344E80035002DF6D17D
:101D800030BC7CE701207EE610B50368D0F88810EF
:101D9000D0F88C209B681B060BD5212909D101683E
:101DA000083151E8003F23F0800341E80034002C63
:101DB000F5D10168896849061ED5222A1CD102681E
:101DC00052E8001F21F4807142E80013002BF6D185
:101DD0000168083151E8002F22F0010241E8002398
:101DE000002BF5D10168083151E8002F22F04002A4
:101DF00041E80023002BF5D1002010BDD0F8881059
:101E0000212909D10168083151E8002F42F08002F0
:101E100041E80023002BF5D1D0F88C10222921D1E4
:101E2000026808211162016941B1026852E8001F8D
:101E300041F4807142E80013002BF6D101680831AB
:101E400051E8002F42F0010241E80023002BF5D1B8
:101E50000168083151E8002F42F0400241E80023B8
:101E6000002BF5D10020704770B501680446D0F80A
:101E700088001025D4F88C608968090618D52128B7
:101E800016D12068083050E8001F21F0800140E89A
:101E90000012002AF5D1E06F38B104F070FB20B1D8
:101EA000E06F05F070FC202823D0204600F0B8FD3C
:101EB0002068806840061AD5222E18D12068083084
:101EC00050E8001F21F0400140E80012002AF5D13F
:101ED000D4F8800040B104F052FB28B1D4F880005F
:101EE00005F051FC202804D02046FEF7E3FC00203A
:101EF00008E7C4F89050032004E770B50446206852
:101F000050E8001F21F4F07140E80012002AF6D1D9
:101F1000924A2068083050E8001F114040E8001342
:101F2000002BF6D1E06E012808D1216851E8000F9E
:101F300020F0100041E80002002AF6D120681026A7
:101F400000258068000615D52068083050E8001F7D
:101F500021F0800140E80012002AF5D1E06F48B17D
:101F60000565E06F04F00BFB20B1E06F05F00BFCA2
:101F7000202828D020688068400618D520680830BE
:101F800050E8001F21F0400140E80012002AF5D17E
:101F9000D4F8800058B10565D4F8800004F0EFFA59
:101FA00028B1D4F8800005F0EEFB20280BD00F20DC
:101FB000A4F85650A4F85E5021680862606EB0F133
:101FC000005F04D008E0C4F8906003209AE620681F
:101FD000816941F01001816120682021826942F00D
:101FE00008028261C4F88810C4F88C10E566C4F851
:101FF0009050002086E670B50446216851E8000F35
:1020000020F0C00041E80002002AF6D12068083024
:1020100050E8001F21F4000140E80012002AF5D129
:10202000206800258068000615D52068083050E833
:10203000001F21F0800140E80012002AF5D1E06F76
:1020400048B10565E06F04F09AFA20B1E06F05F041
:102050009AFB202806D0606EA4F85650B0F1005FBD
:1020600005D009E01020C4F8900003204AE620685B
:10207000816941F0100181612020C4F888000020AE
:1020800040E670B50446216851E8000F20F49070D6
:1020900041E80002002AF6D1314A2068083050E8B1
:1020A000001F114040E80013002BF6D1E06E01281C
:1020B00008D1216851E8000F20F0100041E800022B
:1020C000002AF6D1206800258068400618D52068CF
:1020D000083050E8001F21F0400140E80012002ABB
:1020E000F5D1D4F8800058B10565D4F8800004F02B
:1020F00046FA28B1D4F8800005F045FB20280FD01F
:102100000F20A4F85E5022682021106220688269A6
:1021100042F008028261C4F88C10E5660020F1E507
:102120001020C4F890000320ECE5704710B5806BD8
:102130000021D0F880201165C26F12B1126D002A03
:102140001CD1A0F85610A0F85E10C0F890100F2215
:1021500003681A62202305E0000C0058FEFF7FEFA1
:10216000FEFFFFEF0268946944F008049461C0F830
:102170008830C0F88C30C166FFF7D7FF10BD10B5AE
:10218000806B0021C26F1165D0F8802012B1126DF2
:10219000002A19D10F22A0F85610A0F85E10C0F83E
:1021A000901003681A62426EB2F1005F04D10268B7
:1021B000936943F0100393612022C0F88820C0F88F
:1021C0008C20C166FFF7B1FF10BD70B50126044633
:1021D000206850E8001F21F4F07140E80012002A46
:1021E000F6D1FC4A2068083050E8001F114040E852
:1021F0000013002BF6D1E06E012808D1216851E8C8
:10220000000F20F0100041E80002002AF6D1E06F34
:10221000002538B121688968090602D5EE490165B3
:1022200000E00565D4F8800038B121688968490666
:1022300002D5EA49016500E005652068806800066E
:1022400012D52068083050E8001F21F0800140E8D6
:102250000012002AF5D1E06F30B104F040FB10B15C
:10226000E06F056500E0002620688068400613D511
:102270002068083050E8001F21F0400140E80012BB
:10228000002AF5D1D4F8800030B104F028FB30B337
:10229000D4F88000056500E00EB30F20A4F8565076
:1022A000A4F85E506567A567C4F89050216808627D
:1022B000606EB0F1005F04D12068816941F01001C7
:1022C000816120682021826942F008028261C4F89D
:1022D0008810C4F88C10E5662046FFF726FF002022
:1022E00010E5704710B5806B0021A0F85610416EC4
:1022F000B1F1005F04D101688A6942F010028A617D
:102300002021C0F88810FFF7ECFF10BD70B504461F
:10231000216851E8000F20F0C00041E80002002AC7
:10232000F6D12068083050E8001F21F4000140E891
:102330000012002AF5D12168002020228B681B069C
:102340001BD52168083151E8003F23F0800341E8A4
:102350000035002DF5D1E16F49B1A1480865E06F66
:1023600004F0BDFAC8B1E06F016D884715E0A4F82C
:102370005600C4F88820A0670CE0636EA4F85600ED
:10238000B3F1005FA06703D1886940F01000886155
:10239000C4F888202046FFF7A4FF0020B2E470476D
:1023A00010B5806B00210F222023A0F85E10046876
:1023B00022620268946944F008049461C0F88C3089
:1023C000C166FFF7ECFF10BD70B50446206850E809
:1023D000001F21F4907140E80012002AF6D1814AD2
:1023E0002068083050E8001F114040E80013002B1F
:1023F000F6D1E06E012808D1206850E8001F21F0D6
:10240000100140E80012002AF6D1216800200F23B5
:1024100020228D686D062BD52168083151E8005FB8
:1024200025F0400541E80056002EF5D1D4F8801083
:1024300059B16D480865D4F8800004F050FAA8B18D
:10244000D4F88000016D884710E0A4F85E00A06514
:1024500021680B6221688B6943F00803C1F81830CA
:10246000C4F88C20E0662046FFF799FF002049E47D
:10247000A4F85E00A0650B62F2E710B5806B002146
:10248000A0F85E10A0F85610FFF7D3F810BD2DE9A4
:10249000F04107680025044640F60F030226F8695C
:1024A0003968BA6818420AD183067DD501F0200345
:1024B00002F0805C53EA0C0376D0616F85E1494BF2
:1024C000DFF828C1DB43134001EA0C0C53EA0C0C83
:1024D0006AD05FEAC07C0CD05FEAC15C09D54FF0DE
:1024E000010CC7F820C0D4F8907047F00107C4F879
:1024F0009070870709D5D70707D027683E62D4F8C0
:10250000906046F00406C4F8906046070AD5D607E6
:1025100008D0276804263E62D4F8906046F0020690
:10252000C4F8906006070CD501F020061E4308D0C1
:10253000266808233362D4F8903043F00803C4F8C7
:10254000903003050BD54B0109D526684FF4006385
:102550003362D4F8903043F02003C4F89030D4F8BC
:102560009030002B4DD0800609D501F0200002F0FC
:102570008051084303D0616F09B120468847216824
:10258000D4F890008968490602D410F0280F3AD098
:102590002046FEF78FF92068806840062ED5206817
:1025A000083050E8001F00E033E021F0400140E82F
:1025B0000012002AF3D1D4F88000F8B10C4901656B
:1025C000D4F8800004F08BF900281AD0D4F88000E9
:1025D000016D10E0FEFF7FEF7F2100082D21000834
:1025E000E5220008FEFFFFEFA12300082001000400
:1025F0007B2400082046BDE8F04108472046FFF74D
:1026000018F8BDE8F0812046FFF713F8C4F89050A1
:10261000F7E7D4F86CC02023BCF1010F7ED15FEA4C
:10262000C06C7BD55FEAC16C78D510203862206819
:102630008068400673D5D4F88010F54A0868904247
:1026400034D0F34A1832904230D0F14A30329042BE
:102650002CD0EF4A4832904228D0ED4A6032904266
:1026600024D0EB4A7832904220D0E94A903290420E
:102670001CD0E74AA832904218D0E64A904215D0C2
:10268000E44A1832904211D0E24A303290420DD0E2
:10269000E04A4832904209D0DE4A6032904205D08A
:1026A000DC4A7832904201D0DA4A90324068000425
:1026B000000CA6D0B4F85C208242A2D9A4F85E0037
:1026C000C869B0F5807F2FD0216851E8000F20F451
:1026D000807041E80002002AF6D12068083050E8F6
:1026E000001F21F0010140E80012002AF5D1206806
:1026F000083050E8001F21F0400140E80012002A95
:10270000F5D1C4F88C30E566216851E8000F20F05F
:10271000100041E80002002AF6D101E040E00BE0A1
:10272000D4F8800003F02BFF2667B4F85C00B4F8FF
:102730005E10401A81B22FE0B4F85C00B4F85E106D
:10274000B4F85E20401A81B2002AB2D00029B0D07D
:10275000226852E8000F20F4907042E80007002F32
:10276000F6D1AD4F206800F1080050E8002F02EAD2
:10277000070240E8002CBCF1000FF3D1C4F88C3004
:10278000E5666567206850E8002F22F0100240E8F7
:102790000023002BF6D126672046FEF785FE30E7A2
:1027A000C60209D5560207D54FF48010386220467C
:1027B000BDE8F04100F090B906060AD501F08006A8
:1027C00002F40002164304D0A16F00297FF412AF77
:1027D00017E7420611D54A060FD52046026852E88F
:1027E000001F21F0400142E80014002CF6D1C0F88F
:1027F00088308567FFF78EF903E7020206D54A00A5
:1028000004D52046BDE8F04100F068B9C001C6D546
:102810000029C4DA2046BDE8F04100F05EB9006846
:102820007E4A904204D0426902F07F420A434261EC
:10283000704710B5794A016891421BD0D0F88820C2
:10284000202A15D190F88420012A11D0012280F885
:1028500084202424C0F88840202300224C6844F4BB
:1028600000044C60C0F8883080F88420104610BD09
:10287000022010BD012010BD10B5684A01689142C8
:102880001BD0D0F88820202A15D190F88420012A66
:1028900011D0012280F884202424C0F8884020230D
:1028A00000224C6824F400044C60C0F8883080F8A2
:1028B0008420104610BD022010BD012010BD90F8EC
:1028C0008410012913D0012280F884202421C0F82B
:1028D0008810026852E8001F41F4005142E80013DA
:1028E000002BF6D12021C0F88810FEF750B8022046
:1028F000704790F88410012913D0012280F88420B9
:102900002421C0F88810026852E8001F21F4005109
:1029100042E80013002BF6D12021C0F88810FEF702
:1029200036B8022070470068816941F00401816176
:10293000704790F8841001291FD0012280F884206C
:102940002421C0F88810026852E8001F21F00C0111
:1029500042E80013002BF6D1026852E8001F41F054
:10296000080142E80013002BF6D12022C0F888208D
:10297000002180F88410084670470220704790F8C4
:10298000841001291FD0012280F884202421C0F85E
:102990008810026852E8001F21F00C0142E8001381
:1029A000002BF6D1026852E8001F41F0040142E812
:1029B0000013002BF6D12022C0F88820002180F8D7
:1029C0008410084670470220704710B590F88410B4
:1029D000012911D0012280F884202421C0F8881018
:1029E0002023002250F8841B8C6944F002048C617F
:1029F00043600270104610BD022010BD0146D0F8A1
:102A00008800D1F88C1008437047D0F890007047C8
:102A10001000024010040240FEFFFFEF000C0058BF
:102A2000026852E8001F21F0C00142E80013002BA9
:102A3000F6D10168083151E8002F22F4000241E884
:102A40000023002BF5D12021C0F88810704700002A
:102A50002DE9F04104001D4616460F4603D0D4F878
:102A6000880018B108E00120BDE8F081002084F85A
:102A700084002046FDF781FD2420C4F888002068EA
:102A8000016821F0010101602046FEF739F80128B4
:102A9000EAD0A06A10B12046FDF7CEFF206871058C
:102AA000F74A41EA0541836843F480438360206824
:102AB000836823F400433B4383602068036813402A
:102AC0000B4303602068016841F00101016020466A
:102AD000BDE8F041FDF75BBF704770477047A0B19C
:102AE0002422C0F888200268136823F001031360D1
:102AF0000268536823F010030B43536001680A68AF
:102B000042F001020A60FDF742BF0120704738B56C
:102B1000044690F884000025012813D0012384F88E
:102B200084302420C4F888002068036823F001035F
:102B300003602068836823F4401343EA0103836041
:102B400011B10EE0022038BD206893B2120C41682A
:102B500021F01001194341602068416862F31F6150
:102B600041602068016841F00101016005F075FADB
:102B700003466FF07E400090002220464FF4800113
:102B8000FDF7BFFE08B1032502E02020C4F888004D
:102B9000002084F88400284638BD90F8841001296C
:102BA00010D0012180F88410026852E8001F41F023
:102BB000020142E80013002BF6D1002180F88410B6
:102BC000084670470220704790F88410012910D001
:102BD000012180F88410026852E8001F21F00201F0
:102BE00042E80013002BF6D1002180F8841008463B
:102BF00070470220704730B5416EC1B10168A14BEA
:102C000003F108048A688968C2F34262490F5D5C77
:102C1000615C2D01B5FBF1F1A0F86A10995CA25C32
:102C20000901B1FBF2F100BFA0F8681030BD01212D
:102C3000A0F86A10F8E710B5044690F8840001285F
:102C40001BD02420012184F88410C206C4F8880017
:102C500020680168036841F0005123F0010303601C
:102C60006266206801602046FFF7C5FF2021C4F896
:102C70008810002084F8840010BD022010BD30B5FB
:102C800090F88410012918D0012280F88420242192
:102C9000C0F888100022202401680B680D6823F01A
:102CA000005325F001050D60426601680B60C0F815
:102CB000884080F88420104630BD022030BD70B5B9
:102CC000044690F8840001281DD0012284F8842055
:102CD0002420C4F8880020680568026822F00102F8
:102CE00002602068826822F060420A4382602046C7
:102CF000FFF781FF2268202100201560C4F88810AA
:102D000084F8840070BD022070BD70B5044690F850
:102D1000840001281DD0012284F884202420C4F8D6
:102D2000880020680568026822F0010202602068BD
:102D3000826822F060620A4382602046FFF75BFFF0
:102D40002268202100201560C4F8881084F88400CF
:102D500070BD022070BD2DE9F05F0446D0F88C00F4
:102D60001F461646DDF828900D46202802D0022086
:102D7000BDE8F09FE5B1DEB122214FF0000801224D
:102D8000C4F89080C4F88C10E266C4F870802034D7
:102D900005F063F9824654F8180CA6874FF4805367
:102DA000E687FF21203C984207D1226912B11CE03E
:102DB0000120DDE740F2FF1117E04FF07F0290B1F4
:102DC000B0F1805F14D0A4F8608000BFB4F860B0A8
:102DD000984201D1206990B12E46002540464FF01F
:102DE000200838803AE0266936B9A4F86010EDE78B
:102DF000216909B13F21F8E7A4F86020E6E7002641
:102E0000ECE72068C169C9060AD51021016238883B
:102E100030B1022140462167C4F88C000020A7E7AA
:102E20002068C16989060DD526B3416A01EA0B0104
:102E300006F8011B3888401C3880B4F85E00401E3C
:102E4000A4F85E00B9F1FF3F08D005F006F9A0EB49
:102E50000A01494518D8B9F1000F15D0B4F85E0041
:102E60000028CED1B4F85C10B4F85E204046891A30
:102E70003980D1E7406A00EA0B0025F8020BD9E758
:102E8000FFFF00FCF48D0008C4F88C8003206FE77E
:102E900010B50446D0F88C00202801D0022010BDC7
:102EA00061B15AB10123E366002020672046FEF796
:102EB00064FD0028F3D1E16E012901D0012010BD8D
:102EC000226810211162226852E8001F41F01001AF
:102ED00042E80013002BF6D110BD10B50446D0F81F
:102EE0008C00202801D0022010BD61B15AB101230D
:102EF000E366002020672046FEF7C1FE0028F3D1DC
:102F0000E16E012901D0012010BD2268102111625B
:102F1000226852E8001F41F0100142E80013002B24
:102F2000F6D110BD006F70472DE9F047FE4D2868BF
:102F300000F00F00032809D2286820F00F00C01C01
:102F40002860286800F00F00032871D105F085F88B
:102F5000F64C0646206840F00100206005E000BF06
:102F600005F07BF8801B022869D820684007F7D558
:102F7000EE484FF00008ED4F001D10370368EC4994
:102F800043F080430360C7F80080EA480160EA48E4
:102F90000160EA48006804F0EAFF002848D105F023
:102FA0005CF8064641F2883905E000BF05F055F8A7
:102FB000811B494543D8386810F0380FF6D105F029
:102FC0004CF8DF49064620680840206005E000BF55
:102FD00005F043F8801B642831D820688003F7D4BB
:102FE00005F03BF80646206820F08070206004E081
:102FF00005F033F8801B022821D820688001F7D41F
:1030000005F02BF80646206820F08060206004E080
:1030100005F023F8801B022811D820680001F7D49E
:1030200005F01BF80646206820F08050206009E07B
:1030300052E000BF05F011F8801B022802D90320DE
:10304000BDE8F08720688000F4D4B84B4046BD4905
:103050001833BD4A1F1D3E1DC3F80080DFF8CCC2E7
:10306000BA4B0CF1280CC7F800800CF10407C6F825
:1030700000803E1DCCF80020321D3B60131D3160E6
:103080001E1D371D10603A1D1960306039601060D8
:103090002268AF4922F48012226022684FF0FF3686
:1030A000A24BA24F22F4802260332260683718605E
:1030B0003E60086840F480300860286800F00F0027
:1030C00003280BD9286820F00F00C01C286028684E
:1030D00000F00F00032801D00120B1E70020AFE786
:1030E0002DE9F05F04007DD02078904FDFF83C821E
:1030F0008E4D2837C00708F1100867D0D8F80000B7
:10310000396800F03800102822D0182803D101F0C7
:10311000030002281CD06068B0F5803F1FD010B3B8
:10312000B0F5A02F2BD0B0F5A81F28682FD020F421
:1031300080302860286820F480202860286820F4E7
:10314000801028606068A0B304F087FF06462CE07A
:10315000286880033AD560680028C4D036E0286823
:1031600040F48030EDE7286820F48030286028683B
:1031700020F480102860286820F48020E1E7286887
:1031800040F480202860286820F4801005E040F496
:1031900080202860286840F480102860DFE700BFA6
:1031A00004F05BFF801B64287ED828688003F7D575
:1031B0000CE0FFE704F051FF064604E004F04DFF89
:1031C000801B6428F0D828688003F7D42078800713
:1031D00056D5D8F80000DFF8549110F0380009F106
:1031E000040900E0E7E039680ED0182801D188070B
:1031F0000AD0E06898B3296821F0190101432960D9
:1032000004F02BFF064626E02868400702D5E06858
:103210000028A2D0E168286820F01900084328603F
:1032200004F01BFF064604E004F017FF801B022891
:10323000BAD828684007F7D5217CD9F8002022F0B9
:10324000FE4242EA0161C9F8001019E004F005FFEE
:10325000801B0228A8D828684007F7D5ECE7FFE7CD
:10326000286820F00100286004F0F7FE064604E01C
:1032700004F0F3FE801B022896D828684007F7D494
:103280002078C00646D5D8F80000DFF8A09039684D
:1032900000F0380009F10C09082812D0182805D1CF
:1032A00001F00300012800E0FEE00AD0E0690028F8
:1032B000286820D040F08000286004F0CEFE06464A
:1032C00015E02868C00502D5E069802873D194F81C
:1032D0002010D9F8002022F07C5242EA0161C9F89E
:1032E000001017E004F0B9FE801B0228A0D828685F
:1032F000C005F7D5EBE720F08000286004F0ADFEB4
:10330000064604E004F0A9FE801B022890D8286835
:10331000C005F7D4207800073FD5044861697430B0
:1033200000298146016815E000200052004402583F
:103330000090D0030C00002410000024040000249E
:1033400045EDF6FF80020101000202020000FF01CC
:103350003045025810D041F00101016004F07DFEBB
:10336000064604E004F079FE801B022884D8D9F8D0
:1033700000008007F6D510E021F00101016004F0A3
:103380006CFE064605E000BF04F067FE801B0228C5
:10339000ACD8D9F800008007F6D42078800623D571
:1033A000A0690028286810D040F48050286004F0FC
:1033B00054FE064605E04EE104F04FFE801B022855
:1033C00072D828688004F7D50EE020F48050286079
:1033D00004F043FE064604E004F03FFE801B022892
:1033E00062D828688004F7D4207840076BD5DFF8CE
:1033F0002094D9F8001041F48071C9F8001004F04D
:103400002CFE064605E000BF04F027FE801B642862
:103410004AD8D9F80000C005F6D5A068FD4E0128AD
:1034200018D0D8B1052825D0852830682AD020F0BA
:1034300001003060306820F004003060306820F017
:1034400080003060A06841F2883A70B304F005FE55
:10345000814625E0306840F00100F2E7306820F056
:1034600001003060306820F080003060306820F06B
:103470000400E6E7306840F004003060306820F077
:10348000800005E040F004003060306840F08000CB
:103490003060DFE704F0E1FDA0EB0901514503D8FE
:1034A00030688007F6D50EE088E0FFE704F0D5FD30
:1034B000814605E004F0D1FDA0EB090151457DD81E
:1034C00030688007F6D4606AE8B34146DFF8448389
:1034D000A8F14008096808F10409A8F1040A4FF6A8
:1034E000F87BC1F3C201032969D00228286820F0C3
:1034F0008070286003D004F0B0FD044680E004F042
:10350000ACFD064605E000BF04F0A7FD801B0228C5
:1035100073D828688001F7D4E26A40F2F331386842
:1035200054F8283F884340EA021018433860217B52
:103530004FF4FE0C22894FF0FE47208A4346490291
:10354000267D521E00E0AAE0401EA1F50071C2F3E4
:1035500008088AB2761E0CEA004042EA08020243DA
:10356000504607EA06610A431A60DAF8002022F0A2
:103570000102CAF80020D9F80020266A22EA0B02CC
:1035800042EAC602C9F80020DAF80010A26921F068
:103590000C011143CAF800100168E26921F0020130
:1035A00011430160016841F480310160016841F418
:1035B00000310160016841F4802101E01DE023E059
:1035C0000160016841F001010160286840F08070ED
:1035D000286004F042FD044605E000BF04F03DFD14
:1035E000001B022809D828688001F7D557E000BFE2
:1035F00004F033FD001B022802D90320BDE8F09F30
:1036000028688001F4D44AE039680128D8F800001D
:1036100021D0A26A01F0030393421CD1E26AC1F3F4
:1036200005118A4217D1216BC0F30802491E8A4254
:1036300011D1616BC0F34622491E91420BD1A16B9F
:10364000C0F30642491E914205D1E16BC0F306600A
:10365000491E814201D00120D0E7A16C4E46D9F825
:103660000000C0F3CC00814219D0DAF800005546C2
:1036700020F00100CAF8000004F0EFFC4FEA000758
:1036800004F0EBFCB842FBD0A26C306820EA0B00DF
:1036900040EAC2003060286840F001002860002045
:1036A000ACE75C4970B560395B480968594B703BC1
:1036B00011F0380208D00111082A03D0102A0BD0CB
:1036C000182A0BD0084670BD19688906FBD5196801
:1036D000C1F3C101C84070BD504870BD4D494D4D4A
:1036E00048390C1D3C3D0A68096826682D6802F0BF
:1036F000030406F00102C1F30511C5F3CC0515FB67
:1037000002F200EE102AB8EE400AE9B3DFED440AF7
:10371000444AB7EE001A6CB1DFED431A012C01D018
:10372000022C43D002EE101A1068F8EE422A81EE05
:10373000A22A1EE01C68A40611D51B6801EE901A8F
:103740001168C3F3C103F8EE612AD84001EE900A74
:10375000C1F30800F8EE611A81EEA22A0BE001EE37
:10376000901ADFED322A00BFF8EE611A106882EE7F
:10377000A12AC0F3080001EE900AF8EE611A40EEAB
:10378000201A31EE810A00E015E022EE000A1068EE
:10379000C0F34620401C00EE900AF8EE600A80EE6E
:1037A000201ABCEEC10A10EE100A70BD01EE901A8C
:1037B000DFED1F2AD8E7002070BD2DE9F05F04007F
:1037C0000F467DD0DFF86C80D8F8000000F00F00C5
:1037D000B8420CD2D8F8001021F00F013943C8F8D4
:1037E0000010D8F8000000F00F00B84268D120782F
:1037F0000C4D183D40070AD52069296801F0700179
:10380000884204D9296821F070010143296013E03E
:1038100000480258704402580090D00300127A0009
:1038200000000039304402580024744A0024744CCB
:103830000024F44A002000522078FE4E00070AD5EA
:103840006069316801F07001884204D9316821F063
:103850007001014331602078C0060AD5A069316843
:1038600001F4E061884204D9316821F4E061014348
:1038700031602078DFF8BCB380060BF1040B0CD567
:10388000E1695846DBF8002002F07002914204D949
:10389000026822F070020A430260207880070AD58D
:1038A000E068296801F00F01884204D9296821F0F5
:1038B0000F01014329602078C0073DD0DD4900E0B9
:1038C00059E0A2681C39286820F470601043286011
:1038D0006068022816D0032817D00968012817D07D
:1038E0004907002947DADFF84CA3AAF10C0ADAF8F5
:1038F000002022F007020243CAF8002004F0ADFBCA
:10390000814611E009688903EBE709688901E8E766
:10391000C905E6E704F0A1FBA0EB090141F28830FC
:10392000814201D9032069E66168DAF8000000F0FD
:103930003800B0EBC10FEDD1207880070AD5E068E0
:10394000296801F00F01884204D2296821F00F0193
:1039500001432960D8F80010404601F00F01B94238
:103960000BD9016821F00F0139430160006800F0B4
:103970000F00B84201D0012040E6207840070AD568
:103980002069296801F07001884204D2296821F079
:10399000700101432960207800070AD56069316809
:1039A00001F07001884204D2316821F070010143B6
:1039B00031602078C0060AD5A069316801F4E06161
:1039C000884204D2316821F4E061014331602078FB
:1039D00080060CD5E1695846DBF8002002F0700241
:1039E000914204D2026822F070020A430260FFF79B
:1039F00058FE91492A682B68C2F3032203F00F0393
:103A00008A5CC95C02F01F0201F01F01D0408B4AA2
:103A100020FA01F111608A4908608A480068BDE80F
:103A2000F05F04F0A4BAF0B50D468749874C002832
:103A300087B016464FF000004FF002020F684FF0BB
:103A4000030319D047F004070F60096801F004016F
:103A5000059111020091CDE90120CDE903307C48A8
:103A6000694601F04DFC206845EAC61120F07E4011
:103A70000843206007B0F0BD47F001070F600968F8
:103A800001F0010105914FF480710091CDE9012011
:103A9000CDE903306F48694601F032FC20683543B8
:103AA00020F0FE702843E4E768481038016841F4CC
:103AB00000210160704765481038016821F4002139
:103AC0000160704730B5FFF7ECFD5A4A5A49121FA2
:103AD0005A4B15681468C5F3032204F00F048A5C7E
:103AE000095D02F01F0201F01F01D040544A20FA84
:103AF00001F119601060084630BD00B5FFF7E2FF24
:103B00004C4909684C4AC1F30211515C01F01F0194
:103B1000C84000BD00B5FFF7D5FF46490968464AD1
:103B2000C1F30221515C01F01F01C84000BD4749AB
:103B30003F2270B51039026000220B6803F4A01315
:103B4000B3F5802F0BD00C684FF4A013A34309D01A
:103B50000B68DB0309D54FF48033436006E04FF474
:103B6000A023FAE74FF4A813F7E742600B681B069F
:103B700002D58023C36100E0C261344B1B1F1C6867
:103B80000123C4F3056404620C68E40701D0C36038
:103B900000E0C2602D4D274C0C3D54342D68C5F318
:103BA00006650561256805F08405042D08D02668A2
:103BB0008425B54306D02468E40706D0836005E079
:103BC000052400E08524846000E08260194C5834AC
:103BD0002468E40701D0436100E042610C68E4041A
:103BE00001D5836100E082610968C90102D5022123
:103BF000416200E043620F4A0E490C3214311368EF
:103C000003F00304846212680B1F0C1DC2F305123B
:103C1000C2620A68C2F30802521C02630A68C2F355
:103C20000662521CC2630A68C2F34622521C4263F7
:103C3000096811E01C4402580C8E00081000002492
:103C40000C0000240400002440450258104402588F
:103C50000008025800000258C1F30641491C816364
:103C6000196801F00C0101641968C1F34001416455
:103C70002168C1F3CC01816470BD70B51B4C3F223B
:103C800002601A4A24680832131D194D04F0070413
:103C9000446016681C1D06F470668660166806F09F
:103CA0000F06C660126802F0700202611A6802F024
:103CB000700242611A6802F4E0628261226802F0D6
:103CC0007002C261286800F00F00086070BD704784
:103CD000064810B554300068400506D5FFF7F7FFD9
:103CE00002494FF480605831086010BD10440258FA
:103CF000002000522DE9F047FA4D044689464FF066
:103D0000000A2868C04380070AD0F64E283E306873
:103D100020F08050306004F0A0F90746B04608E07B
:103D20000120BDE8F08700BF04F097F9C01B02280E
:103D300067D8D8F800008000F6D4208829684FF4AE
:103D4000FE0721F07C713E0241EA00502860207A93
:103D5000A389B4F804C04002E24DE2495B1E227C14
:103D6000ACF1010C1835091DA0F5007080B2521E8F
:103D7000CCF3080C07EA034340EA0C00184306EAB8
:103D80000262104328600868626920F440601043B2
:103D900008600A68A06922F4007202430A60281DC4
:103DA0000A6822F480720A6002684FF6F873E469C8
:103DB0009A4342EAC40202600868B9F1000F40F475
:103DC00080720A6011D00868B9F1010F11D040F07B
:103DD00080700860D8F80000444640F08050C8F871
:103DE000000004F03AF905460DE0086840F4800050
:103DF000EFE740F40000ECE704F02FF9401B022845
:103E000001D903208DE720688000F5D5504688E76A
:103E10002DE9F047B34D044689464FF0000A286863
:103E2000C04380070AD0AF4E283E306820F0806043
:103E3000306004F012F90746B04606E0012070E752
:103E400004F00BF9C01B022867D8D8F80000000165
:103E5000F6D4206829684FF4FE0721F47C313E0235
:103E600041EA00302860207AA389B4F804C04002F7
:103E70009C4D9C495B1E227CACF1010C1035091D48
:103E8000A0F5007080B2521ECCF3080C07EA034381
:103E900040EA0C00184306EA0262104328600868F2
:103EA000626920F0C000104308600A68A06922F02F
:103EB000200202430A60281D0A6822F010020A60EC
:103EC00002684FF6F873E4699A4342EAC40202605A
:103ED0000868B9F1000F40F010020A6011D00868BC
:103EE000B9F1010F11D040F400100860D8F80000BB
:103EF000444640F08060C8F8000004F0AEF8054683
:103F00000DE0086840F40020EFE740F48010ECE793
:103F100004F0A3F8401B022801D9032001E7206820
:103F20000001F5D55046FCE62DE9FE4F05466D4FE4
:103F300050F8081BDFF8AC810024C94301903F1DF5
:103F4000264605F128000090080108F128081DD434
:103F5000E86E50B1B0F5801F0CD0B0F5001F0ED048
:103F6000B0F5401F1ED001240FE0386840F4003047
:103F7000386017E001980221FFF74AFF03E000983C
:103F80000221FFF7B7FE04000CD026462888C04364
:103F9000C00523D4A86D05281ED2DFE800F00C115F
:103FA000161B1B00EA6ED8F8001021F440111143D3
:103FB000C8F80010EAE7386840F40030386009E0DB
:103FC00001980021FFF724FF03E000980021FFF78C
:103FD00091FE044684B100E0012426462888C043AF
:103FE00080052BD4E86DC02826D00EDCA8B140286F
:103FF00018D080280FD11AE0AA6DD8F8001021F04F
:1040000007011143C8F80010E8E7B0F5807F13D02E
:10401000B0F5A07F10D001240FE0386840F40030E4
:10402000386009E001980021FFF7F2FE03E00098F4
:104030000021FFF75FFE04468CB126462888C04366
:1040400040052ED4286EB0F5C06F28D010DCB8B172
:10405000B0F5007F19D0B0F5806F0FD11AE0EA6D8E
:10406000D8F8001021F4E0711143C8F80010E5E71A
:10407000B0F5006F13D0B0F5206F10D001240FE021
:10408000386840F40030386009E001980021FFF7FB
:10409000BFFE03E000980021FFF72CFE044694B118
:1040A00026462868DFF83CB0C0430BF1240B8001A2
:1040B00021D4E86CE8B110280ED0202814D0302884
:1040C00017D0012416E02A6ED8F8001021F46061A0
:1040D0001143C8F80010E4E7386840F40030386055
:1040E00007E000002844025801980221FFF790FEE3
:1040F000044674B126462888C043C0042BD4686E99
:10410000B0F5005F20D00DDCA0B1B0F5805F0FD11D
:1041100015E0EA6CDBF8001021F030011143CBF818
:104120000010E8E7B0F5405F13D0B0F5804F10D035
:1041300001240FE0386840F40030386009E001984D
:104140000021FFF765FE03E000980021FFF7D2FD94
:1041500004468CB126462888C043800429D4A86E22
:10416000B0F5403F23D010DC08B3B0F5803F14D049
:10417000B0F5003F0FD115E06A6ED8F8001021F4B9
:10418000E0411143C8F80010E5E7B0F5802F0ED0EC
:10419000B0F5A02F0BD001240AE001980121FFF710
:1041A00037FE03E000980121FFF7A4FD044664B147
:1041B00026462888DFF8DCA4C043400425D4D5F87F
:1041C000B00030F0704109D01DE0AA6ED8F80010A0
:1041D00021F4E0211143C8F80010EAE7001707288E
:1041E00011D2DFE800F00E04090E0E0E0E00019849
:1041F0000121FFF70DFE03E000980121FFF77AFD92
:10420000044684B100E0012426462888C043000407
:104210001FD4A86FD8B1B0F1805F0ED0B0F1005FAD
:1042200010D0012414E0D5F8B020DAF8001021F005
:10423000E0411143CAF80010E7E7386840F4003065
:10424000386004E001980121FFF7E2FD044674B1F3
:1042500026462868C043C0011ED4A86CD0B10128EE
:104260000ED0022811D0032814D0012413E0AA6F25
:10427000D8F8001021F040511143C8F80010E8E7C9
:10428000386840F40030386004E001980221FFF7FC
:10429000BFFD04466CB126462868C04340024FD497
:1042A000FD48016841F48071016003F0D6FE81464B
:1042B0000EE0AA6CDBF8001021F003011143CBF8EB
:1042C0000010E9E703F0C9FEA0EB0900642835D827
:1042D000F1480068C005F5D58CBBDFF8B893B5F898
:1042E000B41009F11809D9F8000001F4407100F484
:1042F0004070884211D0D9F80010D9F8002021F47C
:10430000407142F48032C9F80020D9F8002022F42C
:104310008032C9F80020C9F80010D5F8B400B0F513
:10432000807F1AD103F099FE029012E003F095FE0F
:104330000299411A41F2883081420AD90324264663
:104340002878DFF85093C043A9F10409C00721D0B1
:104350003DE0D9F800008007E8D5D5F8B410C1F3E6
:1043600001200328CD480DD0016821F47C51016063
:10437000B5F8B420D9F80010C2F30B021143C9F804
:104380000010DDE7C64A036802EA111223F47C51EB
:104390001143ECE7D5F88400182816D005DCA0B14D
:1043A000082808D0102804D10AE020280DD0282899
:1043B0000BD001240AE001980121FFF729FD03E059
:1043C00000980121FFF796FC04466CB12646287838
:1043D000C043800720D4D5F8800006281AD2DFE831
:1043E00000F0170D12171717D5F88420D9F8001010
:1043F00021F038011143C9F80010E8E701980121C4
:10440000FFF706FD03E000980121FFF773FC044667
:104410007CB100E0012426462878C043400720D420
:10442000D5F89C0006281AD2DFE800F0170D121705
:104430001717D5F88020D9F8001021F00701114393
:10444000C9F80010E8E701980121FFF7E1FC03E05B
:1044500000980121FFF74EFC0446A4B100E00124BE
:1044600026462878C04380062BD4D5F89800B0F1B2
:10447000405F24D011DC10B3B0F1805F15D0B0F1F3
:10448000005F10D116E0D5F89C20DAF8001021F07A
:1044900007011143CAF80010E3E7B0F1804F0ED0D6
:1044A000B0F1A04F0BD001240AE001980021FFF7E2
:1044B000AFFC03E000980221FFF71CFC044694B116
:1044C00026462878C04340062BD4D5F8A400B0F582
:1044D000406F24D011DC10B3B0F5806F15D0B0F56B
:1044E000006F10D116E0D5F89820D9F8001021F00F
:1044F000E0411143C9F80010E3E7B0F5805F0ED04A
:10450000B0F5A05F0BD001240AE001980021FFF76D
:104510007FFC03E000980221FFF7ECFB044694B116
:1045200026462878C04300062BD4D5F8A800B0F55D
:10453000C04F24D011DC10B3B0F5005F15D0B0F53A
:10454000804F10D116E0D5F8A420DAF8001021F43D
:10455000E0511143CAF80010E3E7B0F5004F0ED068
:10456000B0F5204F0BD001240AE001980021FFF79D
:104570004FFC03E000980221FFF7BCFB044654B156
:1045800026462878C04300071ED4D5F88C00B0F525
:10459000805F0AD00FE0D5F8A820DAF8001021F4E7
:1045A00060411143CAF80010EBE700980221FFF7C1
:1045B000A1FB00B10126D5F88C20D9F8001021F418
:1045C00040511143C9F800102878C043C00613D4E5
:1045D000D5F8A000B0F5807F05D100980221FFF743
:1045E00089FB00B10126D5F8A020DAF8001021F4EB
:1045F00040711143CAF800102868C043000316D464
:10460000D5F8AC0038B1B0F5803F09D0B0F5003F27
:104610000BD001240AE001980021FFF7F9FB03E029
:1046200000980221FFF766FB04468CB126462868F5
:10463000C043400322D4D5F89000B0F5801F11D0BC
:10464000B0F5001F13D0B0F5401F15D0012414E0C1
:10465000D5F8AC20DAF8001021F440311143CAF843
:104660000010E4E7386840F40030386004E0009857
:104670000121FFF73FFB0446A4B126462868C0434A
:10468000C00325D4286DB8B1B0F5803F19D00124FE
:104690001DE00000584402580048025810440258D7
:1046A000CFFFFF00D5F89020D9F8001021F4401179
:1046B0001143C9F80010E1E7386840F40030386071
:1046C00004E001980221FFF7A3FB0446E4B126466B
:1046D0002868C043800005D400980221FFF70AFB38
:1046E00000B101262868C04380031CD4D5F8880097
:1046F000B8B1B0F5807F10D0B0F5007F11D0B0F523
:10470000407F0ED001240DE02A6DDBF8001021F46B
:1047100080311143CBF80010DAE7386840F40030FC
:104720003860E4B326462868C043C00207D4EA6F65
:10473000D8F8001021F000411143C8F80010286893
:10474000C043800207D42A6FD8F8001021F080718E
:104750001143C8F800102888C043000507D46A6FC9
:10476000DAF8001021F000611143CAF8001028683F
:10477000C043400009D4FE48016821F400410160B3
:104780000168D5F8B820114301602868C04309D4F6
:104790006A6DDBF8001021F04051114300E016E093
:1047A000CBF800102868C043000208D4D5F8942044
:1047B000D9F8001021F440011143C9F800102879FC
:1047C0000024C04300F0010020430AD00FE0D5F8D8
:1047D0008820D9F8001021F440711143C9F8001065
:1047E000A1E701980021FFF713FB00B106462879E5
:1047F000C04300F00200204305D101980121FFF7DA
:1048000007FB00B106462879C04300F004002043AE
:1048100005D101980221FFF7FBFA00B1064628797D
:10482000C04300F00800204305D100980021FFF7A5
:1048300061FA00B106462879C04300F01000204319
:1048400005D100980121FFF755FA00B106462879F5
:10485000C04300F02000044304D100980221FFF778
:1048600049FA00B916B10120BDE8FE8F0020FBE730
:10487000BF4A002330B518326FF0A051C0E90013D1
:104880001368BB493031C3F3055383620B68C3F32C
:1048900008035B1CC3620B68C3F306635B1C836382
:1048A0000B68C3F346235B1C03630968C1F306432B
:1048B000111D5B1C43630B68C3F38123C3630B6847
:1048C000C3F3402303641368A94A2832C3F30533B2
:1048D00083601368C3F308035B1CC3601368C3F3EE
:1048E00006635B1C83611368C3F346235B1C03618F
:1048F0001268C2F30642521C42610A68C2F3811276
:10490000C26109689A4A4432C1F3401101621168D8
:1049100001F03801C0F884101168131D01F007017F
:10492000C0F88010196801F00701C0F89C101168E8
:1049300001F44051C0F88C10116801F0E041C0F85A
:104940009810196801F4E051C0F8A4101C68111FF8
:1049500004F46044C0F8A8400C6804F007048465BF
:104960000C6804F4E074C4650C68814D04F4606460
:10497000046660352C6804F44074C0F8B4401568CF
:104980000C1F05F44015C0F89050256805F48035DB
:104990000565156805F44075C0F888501D6805F474
:1049A0004035C0F8AC500D6805F00045C5670D688E
:1049B00005F0807505671D6805F0006545670D68A1
:1049C00005F44015C5660D6805F4E04545660D68BB
:1049D00005F4E02585661B6803F0E043C0F8B030BD
:1049E000096801F040518167116801F44001C0F885
:1049F0009410216801F003018164216801F0300105
:104A0000C16421685A4A01F04051416511680A04A5
:104A10004FF0000101D54FF40041C0F8B81030BD8F
:104A2000534930B51831524C0B1D2C340A680968B3
:104A30001D68246802F00303C1F30531C5F30012B9
:104A4000C4F3CC04002914FB02F200EE102AF8EEA5
:104A5000400A74D09FED471A474AB7EE000A6BB17F
:104A6000DFED461A012B01D0022B63D002EE101AA3
:104A70001168F8EE422A81EEA22A20E03C4C103C5C
:104A800023689B0612D53E4B246801EE901A1168EC
:104A9000C4F3C104F8EE612AE34001EE903AC1F399
:104AA0000801F8EE611A81EEA22A0AE001EE901ADE
:104AB000DFED342A1168F8EE611A82EEA12AC1F303
:104AC000080101EE901A1168F8EE611A40EE811AA1
:104AD00071EE800A62EE200AC1F3462101EE101A3F
:104AE000B8EE411A31EE001AC0EE811ABCEEE11A9E
:104AF00080ED001A1168C1F3064101EE101AB8EEFC
:104B0000411A31EE001AC0EE811ABCEEE11A80EDB6
:104B1000011A1168C1F3066101EE101AB8EE411ACC
:104B200031EE000A80EE801ABCEEC10A80ED020A66
:104B300030BD04E001EE901ADFED132ABAE7002140
:104B4000016041608160F3E70B4930B510390A4CD0
:104B50000B1D241F0A6809681D68246802F00303FE
:104B6000C1F30511002905F00102C4F3CC040DE0E6
:104B70001044025800000039384402580024744A96
:104B80000090D0030024744C0024F44A14FB02F279
:104B900000EE102AF8EE400A76D0FA4A1FED0B1A02
:104BA0005FED081AB7EE000A23B1012B5AD0022B91
:104BB00018D15CE0F34C303C23689B0612D5F24BD5
:104BC000246801EE901A1168C4F3C104F8EE612A5A
:104BD000E34001EE903AC1F30801F8EE611A81EE6C
:104BE000A22A07E002EE101A1168F8EE422A81EEBE
:104BF000A22A45E001EE901A1168F8EE611A40EE23
:104C0000811A71EE800A62EE200AC1F3462101EE9C
:104C1000101AB8EE411A31EE001AC0EE811ABCEE3D
:104C2000E11A80ED001A1168C1F3064101EE101A75
:104C3000B8EE411A31EE001AC0EE811ABCEEE11A4C
:104C400080ED011A1168C1F3066101EE101AB8EE89
:104C5000411A31EE000A80EE801ABCEEC10A80EDE6
:104C6000020A65E701EE901A5FED3C2A03E001EECF
:104C7000901A5FED3B2A1168F8EE611A82EEA12AC4
:104C8000C1F30801B6E7FFE70021016041608160E0
:104C90004EE7BC4930B50839BA4C0B1D14340A68CC
:104CA00009681D68246802F00303C1F30551C5F3C8
:104CB0000022C4F3CC04002914FB02F200EE102AF7
:104CC000F8EE400A75D01FED551AB04AB7EE000A4B
:104CD0006BB15FED561A012B01D0022B64D002EEAE
:104CE000101A1168F8EE422A81EEA22A21E0A54CA2
:104CF000303C23689B0612D5A34B246801EE901A22
:104D00001168C4F3C104F8EE612AE34001EE903A61
:104D1000C1F30801F8EE611A81EEA22A0BE001EE60
:104D2000901A5FED682A00BFF8EE611A116882EEF2
:104D3000A12AC1F3080101EE901A1168F8EE611A78
:104D400040EE811A71EE800A62EE200AC1F346211C
:104D500001EE101AB8EE411A31EE001AC0EE811AB7
:104D6000BCEEE11A80ED001A1168C1F3064101EEB4
:104D7000101AB8EE411A31EE001AC0EE811ABCEEDC
:104D8000E11A80ED011A1168C1F3066101EE101AF3
:104D9000B8EE411A31EE000A80EE801ABCEEC10A6C
:104DA00080ED020AC4E604E001EE901A5FED8A2A63
:104DB000BAE70021016041608160B9E610B5FEF7F5
:104DC00081FE704910390968714AC1F30211515CC2
:104DD00001F01F01C84010BD2DE9F04F6B4E054694
:104DE000694A80F480701036DFF8A8A1371F6A4C3A
:104DF0001311084389B04FF080584FF000594FEA23
:104E0000E2002CD085F4007C5CEA010C55D085F4DE
:104E1000806C5CEA010C61D085F4805C5CEA010C7A
:104E200071D085F4005C5CEA010C4FF4803B69D0E2
:104E3000DFF858E185F4002C5CEA010C0EF1180E45
:104E400074D085F4803C5CEA010C70D085F4804716
:104E50000F436DD085F400420A436AD029E03168DF
:104E600001F00701052924D2DFE801F0FFB1642534
:104E7000A60006A8FFF768FE079809B0BDE8F08F06
:104E80006846FFF7CDFD0098F7E703A8FFF701FF9D
:104E90000398F2E72068C0F3C10022FA00F0ECE7C3
:104EA0002268D2056DD541456BD11846E5E74945E5
:104EB000E3D00020E1E75046DFE7316801F4E0711C
:104EC000802937D004DC002946D04029F1D17EE08A
:104ED000C029F0D0B1F5807FEBD16DE0316801F4ED
:104EE0006061B1F5806F25D004DCA9B3B1F5007F16
:104EF000DFD16CE0B1F5C06FDDD0B1F5006FD8D176
:104F00005AE000E01AE0316801F4E041B1F5005FD9
:104F100010D004DC01B3B1F5805FCAD157E0B1F520
:104F2000405FC8D0B1F5804FC3D145E03AE05EE0C4
:104F30006BE08EE020688000BBD5A6E7316801F405
:104F4000E021B1F5403F7CD007DC69B159456ED016
:104F5000B1F5003FADD170E087E0B1F5802F74D09E
:104F6000B1F5A02FA5D119E0FEF7C7FD85E768468A
:104F7000FFF756FD019880E703A8FFF78AFE049823
:104F80007BE730E0304402580090D00340440258A0
:104F90000C8E00080080BB00004402582168890381
:104FA00084D486E7DEF8001011F440310FD0594563
:104FB00011D0B1F5003FF4D13968256801F04051B6
:104FC0006D077FF56DAF00297FF46AAF62E7206857
:104FD0000001E6D554E720688000E2D503A8FFF77A
:104FE00058FE059849E722689203DAD55FE73868EA
:104FF00010F4803039D05845D3D120680001D0D585
:105000006846FFF70DFD029837E7DEF8001001F063
:10501000E04131F07045C4D109170729C1D2DFE85A
:1050200001F009200C101408040044E709E018E01E
:105030000BE0B3E7FFF7C2FE1FE7206880009BD4B8
:1050400037E720684007ACD524E72068C005A8D51D
:105050002BE7316811F04051A0D0414505D04945BA
:105060009FD12068000182D423E72068800198D571
:10507000FFE610B5FEF726FD9C4909689C4AC1F37E
:105080000211515C01F01F01C84010BD10B5FEF7C0
:1050900008FB964A964914681368C4F3032203F088
:1050A0000F038A5CC95C02F01F0201F01F01D040AF
:1050B000904A20FA01F111608F49086010BD8B48B9
:1050C0005830016841F020010160704787498748E6
:1050D000583148300A6822F020020A60016821F441
:1050E000007101607047814A804958324831136825
:1050F0004FF0B04043F0200313600A6842F400729E
:105100000A60D0F8801041F48021C0F88010016856
:1051100041F4802101607047744908390A6822F01F
:10512000400202430A607047704908390A6822F059
:10513000800202430A60704770B504466B487C30B9
:10514000016841F002010160016821F00201016083
:1051500002F0BBFF41F20301884203D86068B0F15E
:10516000405F17D094E80700084310436349258A3D
:10517000E2680B1D024342EA054018600868626954
:1051800020F47C5040EA02200860086840F060008B
:10519000086070BDA16820680843E7E757480168C8
:1051A00041F08001016070475449091D0B1F0A68D6
:1051B000091D92B202601A68C2F3052242600A68B1
:1051C000120C8260096801F40041C16070472DE94A
:1051D000F0470024064602F040FFDFF82091042744
:1051E000804609F1080909F10405701C07D002F096
:1051F00034FFA0EB0800B04200D806B90124D9F86A
:1052000000104846C90703D00121296044F0020478
:105210000168890703D50221296044F0040401686C
:10522000490502D544F020042F600168C90502D564
:1052300044F008042F600168890502D544F0100489
:105240002F600068000701D508202860002CCCD012
:105250002046BDE8F0877047704770477047274980
:10526000002010B50831254A0B1D0968126801EAB3
:105270000204E40704D001201860FFF7EFFF10BD1F
:105280008C0706D5940704D502201860FFF7E5FFC8
:1052900010BD0C0706D5140704D508201860FFF7C9
:1052A000DBFF10BD4C07FCD55207FAD5CA0500D567
:1052B00008208A0501D540F01000490501D540F0CD
:1052C000200004211960FFF7C6FF10BD7047074892
:1052D00010B54C300068800506D504494FF40070C5
:1052E00050310860FFF7F2FF10BD0000184402586B
:1052F0000C8E0008100000240C00002400840040E4
:105300002DE9F84F0324E54D00234FF001094FF03C
:10531000B04B4FF00F0AE9E009FA03F73A4076D0B4
:105320000E7906F00306012E01D0022E18D1D0F816
:1053300008C04FEA430ECE6804FA0EF82CEA080CB7
:1053400006FA0EF646EA0C068660D0F804C00E791E
:105350002CEA070CC6F300169E4046EA0C0646608F
:105360000E79F643B6070BD0C6684FEA43088F683C
:1053700004FA08FC26EA0C0607FA08F73743C76068
:105380000E7906F00306022E12D1DE080F694FEAED
:10539000437C00EB8606B646366A4FEADC6C0AFAB6
:1053A0000CF807FA0CF726EA08063743CEF8207007
:1053B0000F7906684FEA430807F0030704FA08FC70
:1053C00007FA08F726EA0C06374307604E6816F41A
:1053D000403F1CD0B24E376847F00207376036684E
:1053E0009F0706F00206009623F0030606F1B0467A
:1053F000B6463F0FD6F80864DFF8A8820AFA07FC21
:10540000404526EA0C0603D14FF0000C41E06CE069
:10541000DFF894C2604502D14FF0010C39E0DFF8AB
:105420008CC2604502D14FF0020C32E0DFF880C23E
:10543000604502D14FF0030C2BE0DFF878C26045E5
:1054400002D14FF0040C24E0DFF86CC2604502D1B9
:105450004FF0050C1DE0DFF864C2604502D14FF04B
:10546000060C16E0DFF858C2604502D14FF0070C79
:105470000FE0DFF850C2604502D14FF0080C08E0A1
:10548000DFF844C2604502D14FF0090C01E04FF053
:105490000A0C0CFA07FC4CEA060CCEF808C44F685C
:1054A000DBF80060FF0226EA020600D516435F46DD
:1054B000CBF80060D1F804C0DBF804605FEA8C2C04
:1054C00026EA020600D516437E606E684F6826EA1B
:1054D0000206BF0300D516436E602E684F6826EAA9
:1054E0000206FF0300D516432E605B1C0A6832FAE1
:1054F00003F67FF411AFBDE8F88F2DE9F04F674D4B
:1055000000224FF0010A4FF00F0B91E00AFA02F966
:1055100019EA01037ED022F0030606F1B046940793
:10552000D6F808C4270FDFF87C810BFA07FE404548
:105530000EEA0C0402D14FF0000C40E0DFF868C125
:10554000604502D14FF0010C39E0DFF860C16045E1
:1055500002D14FF0020C32E0DFF854C1604502D1B5
:105560004FF0030C2BE0DFF84CC1604502D14FF047
:10557000040C24E0DFF840C1604502D14FF0050C77
:105580001DE0DFF838C1604502D14FF0060C16E08F
:10559000DFF82CC1604502D14FF0070C0FE0DFF8B7
:1055A00024C1604502D14FF0080C08E0DFF818C1B3
:1055B000604502D14FF0090C01E04FF00A0C0CFAE3
:1055C00007FCA44513D12C689C432C606F684FF0F6
:1055D000B0449F436F6067689F43676027689F433D
:1055E0002760D6F8084424EA0E04C6F80844076881
:1055F0000323D4084FEA42084FEA427C03FA08F337
:105600004FEADC6C1F4307600BFA0CF600EB8404D6
:10561000276A00E00BE0B7432762C4689C43C4607C
:10562000446824EA0904446084689C438460521CF2
:1056300031FA02F37FF46AAFBDE8F08F00690840E9
:1056400000D0012070470AB1816170470904FBE76F
:10565000426921EA02030A4043EA0241816170473C
:1056600008B541F480320092C261C1610099C16104
:10567000C1690091C069C00301D5002008BD0120A7
:1056800008BD70474FF0B04110B5D1F888200242F4
:1056900003D0C1F88800FFF7F4FF10BD8000005868
:1056A00054450258000002580004025800080258ED
:1056B000000C02580010025800140258001802583A
:1056C000001C0258002002580024025810B502792C
:1056D000531E072B2DD8FE4C0168A1421BD0FC4C59
:1056E0001434A14217D0FA4C2834A14213D0F84CFC
:1056F0003C34A1420FD0F64C5034A1420BD0F44CB4
:105700006434A14207D0F24C7834A14203D0F04C6B
:105710008C34A14203D1EF49EE4C443102E0EE4912
:10572000ED4C443104EB8202C0E91B210121994078
:10573000416710BD30B5E64A012301689142CAB203
:105740001BD0E34C1434A14217D0E14C2834A142C1
:1057500013D0DF4C3C34A1420FD0DD4C5034A14279
:105760000BD0DB4C6434A14207D0D94C7834A14231
:1057700003D0D74C8C34A1420DD11421D54C083A1A
:10578000B2FBF1F1D34AFC3C7C3A01F01F0504EB7B
:105790008101AB4011E0D14D1824103A0D44B2FB09
:1057A000F4F1A82D00D80831CB4A01F01F04FC3ACF
:1057B00002EB8101C84AA3407C3A603080E80E00C9
:1057C00030BDC74A016891423AD0C54A1832914269
:1057D00036D0C34A3032914232D0C14A4832914227
:1057E0002ED0BF4A603291422AD0BD4A78329142CF
:1057F00026D0BB4A9032914222D0B94AA832914277
:105800001ED0B64A524291421AD0B64A914217D09F
:10581000B44A1832914213D0B24A303291420FD07A
:10582000B04A483291420BD0AE4A6032914207D022
:10583000AC4A7832914203D0AA4A9032914211D1B7
:10584000CAB21823103AB2FBF3F26FF30901032A2C
:1058500002F00703A44AD25CC26500D9091D816524
:105860000846704721F0FF01F9E72DE9F05F044693
:1058700002F0F3FB002C07467DD0994E02212068F0
:105880004FF00308DFF864924FF00005DFF860A2E4
:10589000B042DFF860B234D0914A1832904230D032
:1058A00048452ED050452CD058452AD0914A183220
:1058B000904226D08F4A3032904222D08D4A4832D0
:1058C00090421ED0874A183A90421AD0854A904298
:1058D00017D0844A1832904213D0824A3032904214
:1058E0000FD0804A483290420BD07E4A60329042BC
:1058F00007D07C4A7832904203D07A4A9032904264
:105900007ED184F83510B04284F834502ED07449DA
:10591000183188422AD0484528D0504526D05845CD
:1059200024D074491831884220D0724930318842DD
:105930001CD070494831884218D06A4918398842C9
:1059400014D06849884211D06649183188420DD078
:1059500064493031884209D062494831884205D0D3
:1059600060496031884201D05E497831016821F098
:105970000101016007E05DE102F06FFBC01B05283B
:1059800001D9202153E120680068C007F4D104F157
:1059900008002168D4E9053C8E4685C80968104393
:1059A000D4E907281F43636A3843534F40EA0C0089
:1059B0001043394040EA0800042B40EA010003D1BB
:1059C000D4E90B12114308436168A1F12902052AA9
:1059D0000BD9163A032A08D9083A012A05D9083AF8
:1059E000032A02D97439032901D840F48010CEF873
:1059F00000002068676A4069042F20F0070000E07B
:105A00001DE047EA00070DD1D4E90A01074349B177
:105A1000204601F0BAFE28B140206065012184F8DB
:105A2000351007E1206847612046FFF7CAFE94F869
:105A30005C203F2102F01F02914081608FE02F4ADD
:105A400090423AD02D4A1432904236D02B4A283216
:105A5000904232D0294A3C3290422ED0274A5032CE
:105A600090422AD0254A6432904226D0234A783286
:105A7000904222D0214A8C3290421ED0144A904249
:105A80001BD0134A1432904217D0114A2832904248
:105A900013D00F4A3C3290420FD00D4A5032904200
:105AA0000BD00B4A6432904207D0094A78329042B8
:105AB00003D0074A8C3290427ED1054A84F83510D3
:105AC00084F834500E4B0168A26801EA030E19E015
:105AD00008540258FC580258FC080240F0FBFDBF75
