:020000040800F2
:10000000580700244D030008832800080126000833
:10001000812800084305000831370008000000006F
:10002000000000000000000000000000C92A0008D5
:10003000450500080000000085280008CB2A0008BC
:1000400067030008670300086703000867030008E8
:1000500067030008670300086703000867030008D8
:1000600067030008670300086703000867030008C8
:1000700067030008670300086703000867030008B8
:1000800067030008670300086703000867030008A8
:100090006703000867030008670300086703000898
:1000A0006703000867030008670300086703000888
:1000B0006703000867030008670300086703000878
:1000C0006703000867030008670300086703000868
:1000D0006703000867030008670300086703000858
:1000E0006703000867030008670300086703000848
:1000F0006703000867030008670300086703000838
:100100006703000867030008670300086703000827
:100110006703000867030008670300086703000817
:100120006703000867030008670300086703000807
:1001300067030008000000000000000067030008DB
:1001400067030008670300086703000867030008E7
:1001500067030008670300086703000867030008D7
:1001600067030008670300086703000867030008C7
:100170006703000867030008670300080000000029
:1001800067030008670300086703000867030008A7
:100190006703000867030008670300086703000897
:1001A0006703000867030008670300086703000887
:1001B0006703000867030008670300086703000877
:1001C000670300086703000800000000000000004B
:1001D00000000000000000006703000800000000AD
:1001E000000000000000000000000000000000000F
:1001F000000000000000000067030008670300081B
:100200006703000867030008000000006703000898
:100210006703000867030008670300086703000816
:100220006703000867030008670300080000000078
:100230006703000867030008000000006703000868
:1002400067030008670300086703000867030008E6
:1002500067030008670300086703000867030008D6
:1002600067030008670300086703000867030008C6
:100270006703000867030008670300080000000028
:100280006703000867030008000000006703000818
:10029000000000006703000867030008000000007A
:1002A00000000000670300086703000800F002F880
:1002B00000F03CF80AA090E8000C82448344AAF1C4
:1002C0000107DA4501D100F031F8AFF2090EBAE8C2
:1002D0000F0013F0010F18BFFB1A43F0010318477A
:1002E000DC340000FC340000103A24BF78C878C128
:1002F000FAD8520724BF30C830C144BF04680C602C
:10030000704700000023002400250026103A28BF73
:1003100078C1FBD8520728BF30C148BF0B60704777
:100320001FB503F029FA1FBD10B510BD00F0CFF8BE
:100330001146FFF7F5FF03F00DFA00F0EDF803B4F6
:10034000FFF7F2FF03BC00F0F5F800000948804712
:1003500009480047FEE7FEE7FEE7FEE7FEE7FEE7A7
:10036000FEE7FEE7FEE7FEE704480549054A064BBF
:1003700070470000792B0008AD02000858010024E6
:1003800058070024580300245803002453EA020CA1
:1003900000F069802DE9F04B4FF00006002B1FBFE5
:1003A000B3FA83F503FA05F424FA05F65E4012BFAA
:1003B0001643B2FA82F502FA05F4C5F120051EBF14
:1003C00022FA05FC44EA0C04203556EA044C4FEAB4
:1003D000144418BF641C4FF000084FF0000990420D
:1003E00071EB030C39D3002919BFB1FA81F701FA77
:1003F00007F6B0FA80F700FA07F6C7F120071EBF2C
:1004000020FA07FC46EA0C062037B6FBF4FCA7EB03
:100410000507103F07F01F0BCBF120060CFA0BFB72
:100420002CFA06F644BFB3460026202FA4BF5E4632
:100430004FF0000B5BEA060C08BF4FF0010B19EB05
:100440000B09ABFB027C48EB0608C01B06FB02CC89
:100450000BFB03CC71EB0C01C1E70B460246414696
:100460004846BDE8F08B13B54FF000004FF0000197
:10047000AFF30080BDE81C4070474FF0000200B5AC
:10048000134694469646203922BFA0E80C50A0E8B7
:100490000C50B1F12001BFF4F7AF090728BFA0E865
:1004A0000C5048BF0CC05DF804EB890028BF40F831
:1004B000042B08BF704748BF20F8022B11F0804F73
:1004C00018BF00F8012B704770477047704775469A
:1004D00000F02CF8AE4605006946534620F00700B0
:1004E000854618B020B5FFF73FFFBDE820404FF02C
:1004F00000064FF000074FF000084FF0000B21F00E
:100500000701AC46ACE8C009ACE8C009ACE8C009DA
:10051000ACE8C0098D46704710B50446AFF30080C3
:100520002046BDE81040FFF70ABF000000487047B2
:10053000F400002401491820ABBEFEE726000200AB
:100540007047FEE7704772B6FEE700002DE9F84FEE
:1005500003247D4D00234FF001094FF0B04B4FF0C5
:100560000F0AE9E009FA03F73A4076D00E7906F06F
:100570000306012E01D0022E18D1D0F808C04FEA90
:10058000430ECE6804FA0EF82CEA080C06FA0EF6B2
:1005900046EA0C068660D0F804C00E792CEA070CF7
:1005A000C6F300169E4046EA0C0646600E79F643F6
:1005B000B6070BD0C6684FEA43088F6804FA08FCF8
:1005C00026EA0C0607FA08F73743C7600E7906F0EB
:1005D0000306022E12D1DE080F694FEA437C00EBBE
:1005E0008606B646366A4FEADC6C0AFA0CF807FA59
:1005F0000CF726EA08063743CEF820700F79066814
:100600004FEA430807F0030704FA08FC07FA08F763
:1006100026EA0C06374307604E6816F4403F1CD0AC
:100620004A4E376847F00207376036689F0706F082
:100630000206009623F0030606F1B046B6463F0FC9
:10064000D6F80864DFF808810AFA07FC404526EA74
:100650000C0603D14FF0000C41E06CE0DFF8F4C071
:10066000604502D14FF0010C39E0DFF8ECC0604585
:1006700002D14FF0020C32E0DFF8E0C0604502D159
:100680004FF0030C2BE0DFF8D8C0604502D14FF0EB
:10069000040C24E0DFF8CCC0604502D14FF0050C1B
:1006A0001DE0DFF8C4C0604502D14FF0060C16E033
:1006B000DFF8B8C0604502D14FF0070C0FE0DFF85B
:1006C000B0C0604502D14FF0080C08E0DFF8A4C0CC
:1006D000604502D14FF0090C01E04FF00A0C0CFA12
:1006E00007FC4CEA060CCEF808C44F68DBF8006043
:1006F000FF0226EA020600D516435F46CBF80060EB
:10070000D1F804C0DBF804605FEA8C2C26EA02060C
:1007100000D516437E606E684F6826EA0206BF0366
:1007200000D516436E602E684F6826EA0206FF0366
:1007300000D516432E605B1C0A6832FA03F67FF47C
:1007400011AFBDE8F88F00008000005854450258F2
:10075000000002580004025800080258000C025819
:10076000001002580014025800180258001C0258C9
:1007700000200258002402580AB181617047090420
:10078000FBE700000148806870470000000000247B
:10079000024881680278114481607047000000249B
:1007A000032010B500F078F801F03AF80F4A10492C
:1007B00014681368C4F3032203F00F038A5CC95C56
:1007C00002F01F0201F01F01D0400A4A20FA01F195
:1007D000116009490860002000F010F808B10120FC
:1007E00010BD00F02BF8002010BD00001844025886
:1007F000AA370008100000240C00002470B50D4D2D
:1008000004462878A0B14FF47A71B1FBF0F00A49A0
:100810000968B1FBF0F001F070FB48B9102C07D269
:1008200000222146501E00F017F800206C6070BDB9
:10083000012070BD000000240C000024054808B50C
:10084000016841F002010160006800F002000090C0
:1008500008BD0000544502580E4BF0B41B680D460D
:10086000C3F30223C3F10706042E00D90426191D81
:10087000072901D2002300E0DB1E012404FA06F15F
:100880009C40491E2940641E994014402143F0BCFD
:1008900002F04FBF0CED00E0064900F0070210B572
:1008A0004FF6FF040868044B204040EA022018433A
:1008B000086010BD0CED00E00000FA052DE9F041E4
:1008C0001E4C0546206800F007000628206804D06A
:1008D00000F03F00A84228D12EE020F03F0028433E
:1008E0002060FFF74FFF154F4FF47A780646083F18
:1008F00005E000BFFFF746FF801B404515D838686C
:10090000C0438004F6D41E2D05D02E2D03D01D2DFE
:1009100001D02D2D10D1FFF735FF0546464607E0E3
:10092000FFF730FF401BB04202D90120BDE8F08143
:100930002068C043C003F3D40020F7E70C480258F6
:1009400010B500F027FF05490968054AC1F30211F7
:10095000515C01F01F01C84010BD00002044025846
:10096000AA370008494930B5484C0B1D0A681434B1
:1009700009681D68246802F00303C5F30012C1F37F
:100980000531C4F3CC04002914FB02F200EE102A56
:10099000F8EE400A75D03F4A9FED3D1AB7EE000AC7
:1009A0006BB1DFED3D1A012B01D0022B64D002EEBA
:1009B000101A1168F8EE422A81EEA22A21E0334C87
:1009C000283C23689B0612D5344B246801EE901A0C
:1009D0001168C4F3C104F8EE612AE34001EE903AD5
:1009E000C1F30801F8EE611A81EEA22A0BE001EED4
:1009F000901ADFED2B2A00BFF8EE611A116882EE23
:100A0000A12AC1F3080101EE901A1168F8EE611AEB
:100A100040EE811A71EE800A62EE200AC1F346218F
:100A200001EE101AB8EE411A31EE001AC0EE811A2A
:100A3000BCEEE11A80ED001A1168C1F3064101EE27
:100A4000101AB8EE411A31EE001AC0EE811ABCEE4F
:100A5000E11A80ED011A1168C1F3066101EE101A66
:100A6000B8EE411A31EE000A80EE801ABCEEC10ADF
:100A700080ED020A30BD04E001EE901ADFED092A94
:100A8000BAE70021016041608160F3E72844025821
:100A900000000039384402580024744A0090D00302
:100AA0000024744C0024F44A494930B5484C0B1DCD
:100AB0000A681C3409681D68246802F00303C5F342
:100AC0000022C1F30551C4F3CC04002914FB02F247
:100AD00000EE102AF8EE400A75D03F4A9FED3D1A0D
:100AE000B7EE000A6BB1DFED3D1A012B01D0022BEE
:100AF00064D002EE101A1168F8EE422A81EEA22AA2
:100B000021E0334C283C23689B0612D5344B2468E3
:100B100001EE901A1168C4F3C104F8EE612AE340B3
:100B200001EE903AC1F30801F8EE611A81EEA22AB3
:100B30000BE001EE901ADFED2B2A00BFF8EE611AF0
:100B4000116882EEA12AC1F3080101EE901A116822
:100B5000F8EE611A40EE811A71EE800A62EE200A08
:100B6000C1F3462101EE101AB8EE411A31EE001A17
:100B7000C0EE811ABCEEE11A80ED001A1168C1F3D3
:100B8000064101EE101AB8EE411A31EE001AC0EE1D
:100B9000811ABCEEE11A80ED011A1168C1F30661F9
:100BA00001EE101AB8EE411A31EE000A80EE801AFA
:100BB000BCEEC10A80ED020A30BD04E001EE901ADD
:100BC000DFED092ABAE70021016041608160F3E7A7
:100BD0002844025800000039404402580024744A56
:100BE0000090D0030024744C0024F44A2DE9FE4FF9
:100BF0000546DFF8F88350F8081B0024FB4FC94373
:100C0000019005F12800264608F12408009008010B
:100C10001DD4E86E50B1B0F5801F0CD0B0F5001FA8
:100C20000ED0B0F5401F1ED001240FE0386840F40C
:100C30000030386017E00198022101F025FE03E042
:100C40000098022101F0B0FE04000CD0264628884E
:100C5000C043C00523D4A86D05281ED2DFE800F0EC
:100C60000C11161B1B00EA6ED8F8001021F440117D
:100C70001143C8F80010EAE7386840F400303860E3
:100C800009E00198002101F0FFFD03E00098002138
:100C900001F08AFE044684B100E00124264628883B
:100CA000C04380052BD4E86DC02826D00EDCA8B147
:100CB000402818D080280FD11AE0AA6DD8F800106B
:100CC00021F007011143C8F80010E8E7B0F5807F74
:100CD00013D0B0F5A07F10D001240FE0386840F4A5
:100CE0000030386009E00198002101F0CDFD03E0FB
:100CF0000098002101F058FE04468CB12646288851
:100D0000C04340052ED4286EB0F5C06F28D010DC4B
:100D1000B8B1B0F5007F19D0B0F5806F0FD11AE0EF
:100D2000EA6DD8F8001021F4E0711143C8F8001002
:100D3000E5E7B0F5006F13D0B0F5206F10D00124B7
:100D40000FE0386840F40030386009E00198002175
:100D500001F09AFD03E00098002101F025FE044611
:100D600094B126462868DFF884B2C0430BF1200B0B
:100D700080011ED4E86CD0B110280ED0202811D0EC
:100D8000302814D0012413E02A6ED8F8001021F482
:100D900060611143C8F80010E4E7386840F400309F
:100DA000386004E00198022101F06EFD044674B140
:100DB00026462888C043C0042BD4686EB0F5005F77
:100DC00020D00DDCA0B1B0F5805F0FD115E0EA6C4A
:100DD000DBF8001021F030011143CBF80010E8E7F8
:100DE000B0F5405F13D0B0F5804F10D001240FE074
:100DF000386840F40030386009E00198002101F0C3
:100E000043FD03E00098002101F0CEFD04468CB1C3
:100E100026462888C043800429D4A86EB0F5403FF8
:100E200023D010DC08B3B0F5803F14D0B0F5003FFC
:100E30000FD115E06A6ED8F8001021F4E04111439B
:100E4000C8F80010E5E7B0F5802F0ED0B0F5A02F60
:100E50000BD001240AE00198012101F015FD03E007
:100E60000098012101F0A0FD044674B126462888AF
:100E7000DFF878A1C0430AF12C0A400425D4D5F844
:100E8000B00030F0704109D01DE0AA6ED8F8001013
:100E900021F4E0211143C8F80010E8E70017072803
:100EA00011D2DFE800F00E04090E0E0E0E000198BC
:100EB000012101F0E9FC03E00098012101F074FD3B
:100EC000044684B100E0012426462888C04300047B
:100ED0001FD4A86FD8B1B0F1805F0ED0B0F1005F21
:100EE00010D0012414E0D5F8B020DAF8001021F079
:100EF000E0411143CAF80010E7E7386840F40030D9
:100F0000386004E00198012101F0BEFC044674B190
:100F100026462868C043C0011ED4A86CD0B1012861
:100F20000ED0022811D0032814D0012413E0AA6F98
:100F3000D8F8001021F040511143C8F80010E8E73C
:100F4000386840F40030386004E00198022101F074
:100F50009BFC04466CB126462868C043400255D429
:100F60002348016841F480710160FFF70BFC814662
:100F70000EE0AA6CDBF8001021F003011143CBF85E
:100F80000010E9E7FFF7FEFBA0EB090064283BD85F
:100F900017480068C005F5D564BBDFF85090B5F878
:100FA000B41009F14409D9F8000001F4407100F4CB
:100FB0004070884211D0D9F80010D9F8002021F4EF
:100FC000407142F48032C9F80020D9F8002022F4A0
:100FD0008032C9F80020C9F80010D5F8B400B0F587
:100FE000807F1ED1FFF7CEFB029016E02C44025802
:100FF0000048025809E000BFFFF7C4FB0299411AFC
:1010000041F28830814208D9032426462878DFF847
:101010001494C043C00721D03DE0D9F800008007F8
:10102000EAD5D5F8B410C1F301200328FE480DD04D
:10103000016821F47C510160B5F8B420D9F80010A2
:10104000C2F30B021143C9F80010DFE7F74A036847
:1010500002EA111223F47C511143ECE7D5F8840025
:10106000182816D005DCA0B1082808D0102804D113
:101070000AE020280DD028280BD001240AE001988E
:10108000012101F001FC03E00098012101F08CFC3A
:1010900004466CB126462878C043800720D4D5F892
:1010A000800006281AD2DFE800F0170D1217171774
:1010B000D5F88420D9F8001021F038011143C9F87F
:1010C0000010E8E70198012101F0DEFB03E0009841
:1010D000012101F069FC04467CB100E001242646B0
:1010E0002878C043400720D4D5F89C0006281AD29F
:1010F000DFE800F0170D12171717D5F88020D9F880
:10110000001021F007011143C9F80010E8E7019829
:10111000012101F0B9FB03E00098012101F044FC3A
:101120000446A4B100E0012426462878C043800686
:101130002BD4D5F89800B0F1405F24D011DC10B367
:10114000B0F1805F15D0B0F1005F10D116E0D5F896
:101150009C20DAF8001021F007011143CAF80010B2
:10116000E3E7B0F1804F0ED0B0F1A04F0BD00124D7
:101170000AE00198002101F087FB03E000980221BA
:1011800001F012FC044694B126462878C04340067C
:101190002BD4D5F8A400B0F5406F24D011DC10B3E7
:1011A000B0F5806F15D0B0F5006F10D116E0D5F80E
:1011B0009820D9F8001021F0E0411143C9F800103F
:1011C000E3E7B0F5805F0ED0B0F5A05F0BD001244F
:1011D0000AE00198002101F057FB03E0009802218A
:1011E00001F0E2FB044694B126462878C04300068D
:1011F0002BD4D5F8A800B0F5C04F24D011DC10B323
:10120000B0F5005F15D0B0F5804F10D116E0D5F8DD
:10121000A420DAF8001021F4E0511143CAF80010BC
:10122000E3E7B0F5004F0ED0B0F5204F0BD001240E
:101230000AE00198002101F027FB03E00098022159
:1012400001F0B2FB044654B126462878C04300079B
:101250001ED4D5F88C00B0F5805F0AD00FE0D5F829
:10126000A820DAF8001021F460411143CAF80010F8
:10127000EBE70098022101F097FB00B10126D5F8B9
:101280008C20D9F8001021F440511143C9F8001006
:101290002878C043C00613D4D5F8A000B0F5807FED
:1012A00005D10098022101F07FFB00B10126D5F89D
:1012B000A020DAF8001021F440711143CAF80010A0
:1012C0002868C043000316D4D5F8AC0038B1B0F597
:1012D000803F09D0B0F5003F0BD001240AE001980F
:1012E000002101F0D1FA03E00098022101F05CFB3B
:1012F00004468CB126462868C043400322D4D5F862
:101300009000B0F5801F11D0B0F5001F13D0B0F5DC
:10131000401F15D0012414E0D5F8AC20DAF80010F5
:1013200021F440311143CAF80010E4E7386840F472
:101330000030386004E00098012101F035FB0446DC
:101340005CB126462868C043C0031CD4286D70B128
:10135000B0F5803F10D0012414E0D5F89020D9F8E2
:10136000001021F440111143C9F80010EAE7386871
:1013700040F40030386004E00198022101F084FA62
:101380000446E4B126462868C043800005D400988E
:10139000022101F009FB00B101262868C043800347
:1013A0001CD4D5F88800B8B1B0F5807F10D0B0F566
:1013B000007F11D0B0F5407F0ED001240DE02A6DE2
:1013C000DBF8001021F480311143CBF80010DAE78C
:1013D000386840F4003038601CB326462868C043A3
:1013E000C00207D4EA6FD8F8001021F00041114381
:1013F000C8F800102868C043800207D42A6FD8F8C4
:10140000001021F080711143C8F800102888C043F3
:1014100000050FD46A6FDAF8001021F00061114363
:1014200006E035E05444025810440258CFFFFF0054
:10143000CAF800102868C043400009D43D4801683C
:1014400021F4004101600168D5F8B8201143016022
:101450002868C04307D46A6DDBF8001021F04051C2
:101460001143CBF800102868C043000208D4D5F817
:101470009420D9F8001021F440011143C9F800105C
:1014800028790024C04300F0010020430AD00FE077
:10149000D5F88820D9F8001021F440711143C9F81B
:1014A00000109BE70198002101F0EEF900B106461B
:1014B0002879C04300F00200204305D101980121A2
:1014C00001F0E2F900B106462879C04300F00400BB
:1014D000204305D10198022101F0D6F900B106465A
:1014E0002879C04300F00800204305D1009800216E
:1014F00001F05AFA00B106462879C04300F0100006
:10150000204305D10098012101F04EFA00B10646B2
:101510002879C04300F02000044304D10098022140
:1015200001F042FA00B916B10120BDE8FE8F00209B
:10153000FBE70000104402582DE9F05F04000F465D
:101540007ED0DFF83882D8F8000000F00F00B842F3
:101550000CD2D8F8001021F00F013943C8F8001060
:10156000D8F8000000F00F00B84269D12078844D0F
:1015700040070AD52069296801F07001884204D922
:10158000296821F070010143296020787C4E361DC6
:1015900000070AD56069316801F07001884204D9FA
:1015A000316821F07001014331602078C0060AD50E
:1015B000A069316801F4E061884204D9316821F4FE
:1015C000E061014331602078DFF8B4B180060BF1AF
:1015D000080B0CD5E1695846DBF8002002F07002D8
:1015E000914204D9026822F070020A430260207816
:1015F00080070AD5E068296801F00F01884204D904
:10160000296821F00F01014329602078C0073ED0EE
:101610005B49A2682868183920F47060104328607C
:101620006068022818D0032819D00968012819D049
:10163000490700294ADADFF848A1AAF1080A00E0C0
:1016400044E0DAF8002022F007020243CAF8002042
:10165000FFF798F8814612E009688903E9E709680D
:101660008901E6E7C905E4E7FFF78CF8A0EB09017B
:1016700041F28830814202D90320BDE8F09F6168C1
:10168000DAF8000000F03800B0EBC10FECD12078A0
:1016900080070AD5E068296801F00F01884204D26A
:1016A000296821F00F0101432960D8F80010404655
:1016B00001F00F01B9420BD9016821F00F01394344
:1016C0000160006800F00F00B84201D00120D4E7AB
:1016D000207840070AD52069296801F07001884206
:1016E00004D2296821F070010143296020780007A5
:1016F0000AD56069316801F07001884204D231680E
:1017000021F07001014331602078C0060AD5A0693C
:10171000316801F4E061884204D2316821F4E0616B
:1017200001433160207880060CD5E1695846DBF82A
:10173000002002F07002914204D2026822F070028E
:101740000A43026000F06CF80E492A682B68C2F365
:10175000032203F00F038A5CC95C02F01F0201F050
:101760001F01D040084A20FA01F1116007490860C2
:1017700007480068BDE8F05FFFF740B8002000525E
:1017800018440258AA370008100000240C00002456
:101790000400002430B500F043F80B4A0B490C4B11
:1017A00015681468C5F3032204F00F048A5C095D10
:1017B00002F01F0201F01F01D040064A20FA01F199
:1017C00019601060084630BD18440258AA37000856
:1017D000100000240C00002400B5FFF7DBFF0549D2
:1017E0000968054AC1F30211515C01F01F01C840AC
:1017F00000BD00001C440258AA37000800B5FFF7DE
:10180000C9FF05490968054AC1F30221515C01F08D
:101810001F01C84000BD00001C440258AA37000840
:10182000454970B545480968434B103B11F03802F3
:1018300008D00111082A03D0102A0BD0182A0BD087
:10184000084670BD19688906FBD51968C1F3C10146
:10185000C84070BD3A4870BD3749374D18310C1D2E
:1018600024350A68096826682D6802F0030406F02A
:101870000102C1F30511C5F3CC0515FB02F200EE20
:10188000102AB8EE400AE9B32F4ADFED2E0AB7EE70
:10189000001A6CB1DFED2D1A012C01D0022C43D0BF
:1018A00002EE101A1068F8EE422A81EEA22A1EE01B
:1018B0001C68A40611D51B6801EE901A1168C3F3C9
:1018C000C103F8EE612AD84001EE900AC1F3080086
:1018D000F8EE611A81EEA22A0BE001EE901ADFED1C
:1018E0001C2A00BFF8EE611A106882EEA12AC0F32C
:1018F000080001EE900AF8EE611A40EE201A31EE6F
:10190000810A00E015E022EE000A1068C0F34620CC
:10191000401C00EE900AF8EE600A80EE201ABCEE41
:10192000C10A10EE100A70BD01EE901ADFED092A0F
:10193000D8E7002070BD0000104402580090D0038A
:1019400000127A0000000039304402580024744A22
:101950000024744C0024F44A2DE9F05F04007DD08B
:10196000FB4F2078FA4D1837DFF8E483103DC007AD
:1019700066D0D8F80000396800F03800102822D06E
:10198000182803D101F0030002281CD06068B0F5CC
:10199000803F1FD010B3B0F5A02F2BD0B0F5A81FFB
:1019A00028682FD020F480302860286820F4802018
:1019B0002860286820F480102860606898B3FEF7DB
:1019C000E1FE06462BE02868800339D560680028D0
:1019D000C5D035E0286840F48030EDE7286820F471
:1019E00080302860286820F480102860286820F45F
:1019F0008020E1E7286840F480202860286820F4EF
:101A0000801005E040F480202860286840F48010B1
:101A10002860DFE7FEF7B6FE801B64287ED82868C2
:101A20008003F7D50CE0FFE7FEF7ACFE064604E0C6
:101A3000FEF7A8FE801B6428F0D828688003F7D43E
:101A40002078800756D5D8F80000DFF8049339686D
:101A500010F03800A9F10C0910D000E0F0E01828CF
:101A600001D188070AD0E06898B3296821F01901EC
:101A700001432960FEF786FE064626E028684007F7
:101A800002D5E0680028A3D0E168286820F019009A
:101A900008432860FEF776FE064604E0FEF772FE75
:101AA000801B0228BAD828684007F7D5217CD9F8CE
:101AB000002022F0FE4242EA0161C9F8001019E05C
:101AC000FEF760FE801B0228A8D828684007F7D5DB
:101AD000ECE7FFE7286820F001002860FEF752FEDF
:101AE000064604E0FEF74EFE801B022896D82868C2
:101AF0004007F7D42078C00646D5D8F80000DFF8B4
:101B00005092396800F03800A9F10409082812D071
:101B1000182805D101F00300012800E0ECE00AD00C
:101B2000E0690028286820D040F080002860FEF797
:101B300029FE064615E02868C00502D5E069802820
:101B40007ED194F82010D9F8002022F07C5242EA8D
:101B50000161C9F8001017E0FEF714FE801B02288F
:101B6000A0D82868C005F7D5EBE720F080002860F2
:101B7000FEF708FE064604E0FEF704FE801B02287E
:101B800090D82868C005F7D42078000729D5704878
:101B90006169643000298146016811D041F001017A
:101BA0000160FEF7EFFD064605E000BFFEF7EAFD27
:101BB000801B022888D8D9F800008007F6D510E0ED
:101BC00021F001010160FEF7DDFD064605E000BFE2
:101BD000FEF7D8FD801B022888D8D9F800008007BE
:101BE000F6D42078800623D5A0690028286810D074
:101BF00040F480502860FEF7C5FD064605E000BFB2
:101C0000FEF7C0FD801B022876D828688004F7D52F
:101C10000EE020F480502860FEF7B4FD064604E094
:101C2000FEF7B0FD801B022866D828688004F7D430
:101C3000207840076FD5DFF81C91D9F8001000E03C
:101C400035E141F48071C9F80010FEF79BFD0646AE
:101C500005E000BFFEF796FD801B64284CD8D9F83C
:101C60000000C005F6D53A4EA0686036012818D0AD
:101C7000D8B1052825D0852830682AD020F0010069
:101C80003060306820F004003060306820F0800060
:101C90003060A06841F2883A78B3FEF773FD814660
:101CA00026E0306840F00100F2E7306820F00100E3
:101CB0003060306820F080003060306820F0040030
:101CC000E6E7306840F004003060306820F08000C3
:101CD00005E040F004003060306840F08000306083
:101CE000DFE700BFFEF74EFDA0EB0901514503D829
:101CF00030688007F6D50EE088E0FFE7FEF742FD8A
:101D0000814605E0FEF73EFDA0EB090151457DD877
:101D100030688007F6D4606AF0B34146DFF830805F
:101D200008F12008096808F10409A8F1040A4FF62F
:101D3000F87BC1F3C201032969D00228286820F08A
:101D40008070286008D0FEF71DFD044684E0000086
:101D50001044025800480258FEF714FD064604E0FD
:101D6000FEF710FD801B022873D828688001F7D485
:101D7000E26A40F2F331386854F8283F884340EA79
:101D8000021018433860217B4FF4FE0C22894FF07B
:101D9000FE47208A267D00E0ADE049024346521E00
:101DA000401EA1F50071C2F308088AB2761E0CEA43
:101DB000004042EA08020243504607EA06610A432D
:101DC0001A60DAF8002022F00102CAF80020D9F8DF
:101DD0000020266A22EA0B0242EAC602C9F8002065
:101DE000DAF80010A26921F00C011143CAF80010C2
:101DF0000168E26921F0020111430160016841F4C8
:101E000080310160016841F4003101E021E027E008
:101E10000160016841F480210160016841F0010125
:101E20000160286840F080702860FEF7ABFC044633
:101E300005E000BFFEF7A6FC001B022809D82868B1
:101E40008001F7D557E000BFFEF79CFC001B02287D
:101E500002D90320BDE8F09F28688001F4D44AE04D
:101E600039680128D8F8000021D0A26A01F00303E4
:101E700093421CD1E26AC1F305118A4217D1216B4A
:101E8000C0F30802491E8A4211D1616BC0F3462299
:101E9000491E91420BD1A16BC0F30642491E9142EB
:101EA00005D1E16BC0F30660491E814201D00120DB
:101EB000D0E7A16C4E46D9F80000C0F3CC008142B7
:101EC00019D0DAF80000554620F00100CAF80000E9
:101ED000FEF758FC4FEA0007FEF754FCB842FBD06F
:101EE000A26C306820EA0B0040EAC200306028682B
:101EF00040F0010028600020ACE7401EB0F1807F78
:101F000010B501D3012010BD4FF0E02460610F2116
:101F1000601701F00EFC0020A0610721216110BDB7
:101F2000F0B590F83C20012A3BD01F4E012480F8E8
:101F30003C40022280F83D2002681C4D5368B242AA
:101F4000D2F808C001D0AA4203D14F6823F470032D
:101F50003B430F6823F070031F4357600268B2428F
:101F600013D0B2F1804F10D0114B9A420DD0114BCB
:101F70009A420AD0104B9A4207D0AA4205D00F4B82
:101F80009A4202D00E4B9A4204D189682CF0800309
:101F900019439160002180F83D4080F83C100846CC
:101FA000F0BD0220F0BD000000000140000401402F
:101FB0000004004000080040000C004000180040F1
:101FC0000040014010B5040003D094F83D0010B16A
:101FD00007E0012010BD002084F83C00204600F0FE
:101FE00023F8022084F83D002068211D00F024FE23
:101FF000012084F8480084F83E0084F83F0084F80B
:10200000400084F8410084F8420084F8430084F8DA
:10201000440084F8450084F8460084F8470084F8BA
:102020003D00002010BD000008B500680649884248
:1020300008D10648016841F002010160006800F023
:102040000200009008BD000000040040484502580E
:1020500070B5044690F83C000025012814D03A4B96
:10206000012684F83C60022084F83D0022689068D4
:10207000184020F47F409060086870282FD010DC52
:1020800010F00F0F03D022E04FF0020070BD4FEAB6
:102090002012072A1BD2DFE802F0535353534B3967
:1020A0004100B0F1101F4BD009DCB0F5805F0FD0BC
:1020B000B0F5005F1ED0B0F5801F08D140E0A0F55C
:1020C000801120393CD010293AD0202938D0012560
:1020D00084F83D60002084F83C00284670BD4A68C2
:1020E0002068D1E9021300F016FE2068816841F0F3
:1020F000770109E04A682068D1E9021300F00BFE7D
:102100002068816841F480418160E1E7CA684968DC
:10211000206800F0AFFF2068502106E0CA684968D7
:10212000206800F0B8FF2068602100F0FDFDCFE7D7
:10213000CA684968206800F09DFF20684021F4E7E4
:10214000226801461046F0E788FFCEFF10B586B042
:10215000044614216846FEF790F90D49206888422C
:1021600014D10C48016841F00201016000680021AF
:10217000012200F00200059002200092CDE9010149
:10218000CDE9031004486946FEF7E0F906B010BD3A
:1021900000040040404502580004025870B504464F
:1021A00090F83C0000260D4601280BD0012084F851
:1021B0003C000C2A4AD007DC82B1042A20D0082A2D
:1021C00006D131E0022070BD102A53D0142A63D00A
:1021D0000126002084F83C00304670BD206800F0E5
:1021E000ADFD2068816941F0080181612068816945
:1021F00021F00401816120682A698169114311E09D
:10220000206800F0EFFD2068816941F40061816180
:102210002068816921F4806181612068296982696F
:1022200042EA01218161D4E7206800F027FE20689E
:10223000C16941F00801C1612068C16921F0040150
:10224000C16120682A69C169114311E0206800F06A
:1022500061FE2068C16941F40061C1612068C16903
:1022600021F48061C16120682969C26942EA0121C3
:10227000C161AEE7206800F089FE2068416D41F041
:10228000080141652068416D21F004014165206825
:102290002A69416D114311E0206800F0B1FE206809
:1022A000416D41F4006141652068416D21F4806118
:1022B000416520682969426D42EA0121416588E74C
:1022C00010B5040003D094F83D0010B107E00120E0
:1022D00010BD002084F83C00204600F022F80220C7
:1022E00084F83D002068211D00F0A6FC012084F840
:1022F000480084F83E0084F83F0084F8400084F8E9
:10230000410084F8420084F8430084F8440084F8D3
:10231000450084F8460084F8470084F83D0000201A
:1023200010BD704730B504464FF0020269B1042970
:1023300012D0082917D00C291CD0102921D094F8CC
:102340004300012824D0012030BD94F83E0001282C
:10235000F9D184F83E201DE094F83F000128F2D125
:1023600084F83F2016E094F840000128EBD184F86F
:1023700040200FE094F841000128E4D184F8412086
:1023800008E094F842000128DDD184F8422001E001
:1023900084F843200122206800F0B0FC1B4B206829
:1023A0001B491C4A984209D0884207D0904205D068
:1023B000194DA84202D0194DA84203D1456C45F4ED
:1023C000004545642068984212D0B0F1804F0FD08C
:1023D000134B98420CD0134B984209D0124B9842A1
:1023E00006D0884204D01149884201D0904207D1DA
:1023F00081680F4A1140062906D0B1F5803F03D00D
:10240000016841F001010160002030BD0000014081
:1024100000040140004001400044014000480140E8
:102420000004004000080040000C0040001800407C
:102430000700010030B590F88410012918D001225E
:1024400080F884202421C0F888100022202401680C
:102450000B680D6823F0005325F001050D604266FE
:1024600001680B60C0F8884080F88420104630BDB9
:10247000022030BD70B5044690F8840001281DD0BC
:10248000012284F884202420C4F88800206805688C
:10249000026822F0010202602068826822F0606215
:1024A0000A438260204600F009FE226820210020B5
:1024B0001560C4F8881084F8840070BD022070BDD7
:1024C00070B5044690F8840001281DD0012284F8DC
:1024D00084202420C4F8880020680568026822F05F
:1024E000010202602068826822F060420A43826032
:1024F000204600F0E3FD2268202100201560C4F88A
:10250000881084F8840070BD022070BD10B50400EE
:1025100003D0D4F8880010B107E0012010BD0020DE
:1025200084F88400204600F027F82420C4F88800AE
:102530002068016821F001010160204600F0C4FE1E
:102540000128EBD0A06A10B1204600F0D9FD206828
:10255000416821F4904141602068816821F02A019E
:1025600081602068016841F0010101602046BDE8FA
:10257000104000F029BE000010B5B6B0044614218A
:1025800030A8FDF77AFFC0216846FDF776FF1949AC
:10259000206888422BD10020209002210446CDE9FA
:1025A00000106846FEF722FB08B1FDF7CCFF124889
:1025B000016841F480210160006800F480203590BA
:1025C0000D480838016841F008010160006830AB2F
:1025D000022100F0080035904FF44070072283E894
:1025E0001300064830A9CDE93342FDF7AFFF36B0FE
:1025F00010BD00000048004048450258000C025839
:10260000FEE700002DE9F04786B014216846FDF78B
:1026100034FF5348016841F004010160016801F092
:1026200004010591016841F020010160016801F099
:1026300020010591016841F080010160016801F00D
:1026400080010591016841F002010160016801F01B
:1026500002010591016841F008010160016801F083
:1026600008010591016841F040010160016801F035
:1026700040010591016841F001010160016801F02C
:1026800001010591016841F01001016000684FF4FB
:102690008067DFF8D080002200F0100039460590F6
:1026A0004046FEF769F8DFF8C0903E01002231464F
:1026B0004846FEF761F8DFF8B4A000220221504638
:1026C000FEF75AF80024694670100294CDE9000420
:1026D0002748FDF73BFF01250097CDE901546946E6
:1026E00040460394FDF732FF00966946CDE9015458
:1026F00048460394FDF72AFF80204FF488118DE8A7
:1027000013001C486946FDF721FFDFF86C80680262
:10271000CDE90004694640460294FDF717FF0A2000
:10272000009702266946CDE90164CDE903404046A1
:10273000FDF70CFF4FF4C0500090CDE901646946ED
:1027400040460394FDF702FF00966946CDE9015427
:1027500050460394FDF7FAFE06B0BDE8F08700008E
:102760004045025800140258000402580010025854
:1027700000080258001802580000025810B58EB028
:1027800000241C21009407A801940294039404944B
:1027900005940694FDF771FE1F4840F2F31140F2D4
:1027A00017121C4BC0E9024104618461C0E9003288
:1027B000FFF708FC08B172B6FEE74FF480500090B6
:1027C00015486946FFF744FC08B172B6FEE71248A7
:1027D000FFF776FD08B172B6FEE70F4804A904942E
:1027E0000694FFF79DFB08B172B6FEE707AA6020CA
:1027F000322182E813000848082207A90B94FFF74A
:10280000CDFC08B172B6FEE70348FFF79FFC0EB09F
:1028100010BD0000000400401400002417480021EF
:1028200010B5154C0C224FF4E1330460C0E90131BE
:10283000C160C0E904128161C161016241628162CB
:10284000FFF764FE08B172B6FEE70C480021FFF7FF
:1028500037FE08B172B6FEE708480021FFF70AFE0E
:1028600008B172B6FEE70548FFF7E4FD002801D085
:1028700072B6FEE710BD0000004800406000002472
:10288000FEE7FEE7704700002DE9F047454D04469E
:1028900089464FF0000A2868C04380070AD0414E9D
:1028A000283E306820F080603060FDF76BFF0746FF
:1028B000B04608E00120BDE8F08700BFFDF762FFE9
:1028C000C01B022867D8D8F800000001F6D42068A1
:1028D00029684FF4FE0721F47C313E0241EA0030C2
:1028E0002860207AA389B4F804C040022D4D2D49F8
:1028F0005B1E227CACF1010C1035091DA0F50070A7
:1029000080B2521ECCF3080C07EA034340EA0C00E5
:10291000184306EA0262104328600868626920F0E2
:10292000C000104308600A68A06922F02002024338
:102930000A60281D0A6822F010020A6002684FF639
:10294000F873E4699A4342EAC40202600868B9F184
:10295000000F40F010020A6011D00868B9F1010FB1
:1029600011D040F400100860D8F80000444640F050
:102970008060C8F80000FDF705FF05460DE0086817
:1029800040F40020EFE740F48010ECE7FDF7FAFE9A
:10299000401B022801D903208DE720680001F5D5EE
:1029A000504688E7284402582DE9F047454D044633
:1029B00089464FF0000A2868C04380070AD0414E7C
:1029C000283E306820F080503060FDF7DBFE07467F
:1029D000B04608E00120BDE8F08700BFFDF7D2FE59
:1029E000C01B022867D8D8F800008000F6D42088E1
:1029F00029684FF4FE0721F07C713E0241EA005045
:102A00002860207AA389B4F804C040022D4D2D49D6
:102A10005B1E227CACF1010C1835091DA0F500707D
:102A200080B2521ECCF3080C07EA034340EA0C00C4
:102A3000184306EA0262104328600868626920F4BD
:102A40004060104308600A68A06922F400720243E3
:102A50000A60281D0A6822F480720A6002684FF634
:102A6000F873E4699A4342EAC40202600868B9F163
:102A7000000F40F480720A6011D00868B9F1010FAC
:102A800011D040F080700860D8F80000444640F053
:102A90008050C8F80000FDF775FE05460DE0086897
:102AA00040F48000EFE740F40000ECE7FDF76AFE39
:102AB000401B022801D903208DE720688000F5D54E
:102AC000504688E7284402587047FDF761BE000071
:102AD00030B59DB04C216846FDF7CFFC202113A8EE
:102AE000FDF7CBFC22494FF0FF3008600420FDF7D2
:102AF000E5FE2048016841F440410160016800247E
:102B000001F440411B9101688904FCD50DF1280CAA
:102B1000212200924FF4A02301930121069102206B
:102B2000099046258CE8230004220FA90C23CDE947
:102B30000D0281E8190068461294FEF70DFF08B1F6
:102B400072B6FEE713AD40203F21032285E8160050
:102B500003011A90CDE916400721CDE9180313A807
:102B6000FEF7EAFC002801D072B6FEE71DB030BDCA
:102B7000B0440258184802582748F0B5274A01685F
:102B800041F470010160106800F00F00032804D2C6
:102B9000106820F00F00C01C106021490020204C5C
:102BA00010340B681F4D43F001030B6020600B686D
:102BB0002B400B60136803F00F03032B04D9136839
:102BC00023F00F03DB1C1360154C174A1834174B06
:102BD000261D371D2060124C154D28343060261DEF
:102BE0003860371D23603B1D35601C1D3A60251D74
:102BF0002E1D1860331D22602860326018600A683C
:102C000043F2D204064B0B4D22F4802260330A605B
:102C100018602C60F0BD000088ED00E0002000523C
:102C2000004402587FEDF6EA800201010002020230
:102C30000000FF01004000522DE9F047274B4FF004
:102C4000804A274D02689842264E274F274C09D0CC
:102C5000504507D0A84205D0B04203D0B84201D0B9
:102C6000A04205D1D1F804C022F070024CEA020261
:102C7000DFF87CC0DFF87C809842DFF87C900FD0D2
:102C800050450DD0A8420BD0B04209D0B84207D071
:102C9000A04205D0604503D0404501D0484503D14E
:102CA000CD6822F440722A434D6922F080022A4303
:102CB000026098428A68C2620A68826207D0A042B3
:102CC00005D0604503D0404501D0484501D1096990
:102CD000016301214161BDE8F0870000000001406F
:102CE0000004004000080040000C004000040140C7
:102CF00000400140004401400048014010B5046A12
:102D0000012301F01F018B409C4304628A40016A49
:102D10001143016210BD42EA032283680A4323F48F
:102D20007F410A4382607047034B82681A400A431E
:102D300042F00701816070478FFFCFFF2DE9F04F10
:102D4000026ADFF88880DFF8889022F00102DFF85D
:102D500084A0DFF884B0214F0262DFF884C0066AE5
:102D60004268836926F002060D68B8428C6803EA5F
:102D70000C0323F0030344EA060445EA030507D0E5
:102D8000404505D0484503D0504501D0584505D1B0
:102D9000CB6824F00804234323F00404B84207D08E
:102DA000404505D0484503D0504501D0584505D190
:102DB00022F44076D1E9053233431A4342608561FB
:102DC000496841630462BDE8F08F000000040140DF
:102DD0000040014000440140004801400000014023
:102DE0008FFFFEFFF0B5026A1E4E1F4C22F010024C
:102DF000DFF878E00262056A4368826925F0200501
:102E0000D1F808C0A0420F6802EA060222F440721C
:102E100045EA0C1542EA072201D0704506D1CE687A
:102E200025F0800545EA061525F04005A0420AD0A8
:102E3000704508D00E4CA04205D00E4CA04202D0E6
:102E40000D4CA04207D1D1E9054623F4406343EA83
:102E5000840343EA860343608261496881630562B3
:102E6000F0BD0000FF8FFFFE0000014000040140A4
:102E7000004001400044014000480140F0B5026AB2
:102E80001E4F1F4E22F48072DFF878E00262056A5E
:102E90004368C26925F40075D1F808C0B0420C68D7
:102EA00002EA070222F0030245EA0C2544EA020482
:102EB00001D0704506D1CF6825F4006242EA0722AE
:102EC00022F48065B0420AD0704508D00E4A904284
:102ED00005D00E4A904202D00D4A904207D123F409
:102EE0004052D1E9053642EA031242EA0613436032
:102EF000C4614968C1630562F0BD00008FFFFEFF39
:102F00000000014000040140004001400044014035
:102F100000480140F0B5026A174B164F22F4805268
:102F200098420262046A4268C36924F400548E68BD
:102F30000D6803EA070323F4407344EA063443EAC6
:102F400005230BD00D4DA84208D00D4DA84205D049
:102F50000C4DA84202D00C4DA84204D14D6922F478
:102F6000804242EA85124260C3614968016404629A
:102F7000F0BD0000FF8FFFFE000001400004014093
:102F8000004001400044014000480140F0B5026AA1
:102F9000DFF854C022F480320262056A4268446D50
:102FA00025F400350E896045104F0B6804EA0704CC
:102FB00045EA064543EA04030BD00D4CA04208D075
:102FC0000C4CA04205D00C4CA04202D00B4CA042AD
:102FD00004D14C6922F4803242EA04224260436503
:102FE000496881650562F0BD000001408FFFFEFF6A
:102FF00000040140004001400044014000480140FD
:10300000F0B5026ADFF854C022F480120262046A4A
:103010004268436D24F400140E896045104F0D681A
:1030200003EA070344EA065443EA05230BD00D4D97
:10303000A84208D00C4DA84205D00C4DA84202D0A1
:103040000B4DA84204D14D6922F4802242EA852228
:10305000426043654968C1650462F0BD00000140FB
:10306000FF8FFFFE0004014000400140004401408A
:103070000048014010B5036A046A23F00A0324F0F3
:103080000104046284690B4324F0F00141EA021157
:103090008161036210BD10B5036A23F0100303625F
:1030A0008369046A23F4704324F0A00443EA0232E3
:1030B000826144EA0111016210BD000030B5416E29
:1030C000B9B101680D4B03F108048A688968C2F33D
:1030D0004262490F5D5C615C2D01B5FBF1F1A0F826
:1030E0006A10995CA25C0901B1FBF2F1A0F86810CA
:1030F00030BD0121A0F86A10F8E700009A370008F7
:1031000090F82810C90706D00168C36A4A6822F4FB
:1031100000321A434A6090F82810890706D50168E2
:10312000036B4A6822F480321A434A6090F82810F0
:10313000490706D50168436B4A6822F480221A4386
:103140004A6090F82810090706D50168836B4A6821
:1031500022F400421A434A6090F82810C90606D5A6
:103160000168C36B8A6822F480521A438A6090F81F
:103170002810890606D50168036C8A6822F400527B
:103180001A438A6090F82810490611D50168436CEB
:103190004A6822F480121A434A60416CB1F5801FDC
:1031A00006D10168836C4A6822F4C0021A434A605F
:1031B00090F82810090606D50168C26C486820F40A
:1031C00000201043486070472DE9F843002504466D
:1031D000C0F89050FDF7D6FA8046206820266FF0A0
:1031E0007E470068000713D500224346310420467D
:1031F000009700F057FA58B1216851E8000F20F00D
:10320000800041E80002002AF6D1C4F8886021E07D
:1032100020680068400722D5002243464FF4800111
:103220002046009700F03EFAC8B1206850E8001F21
:1032300021F4907140E80012002AF6D1206808308D
:1032400050E8001F21F0010140E80012002AF5D1EA
:10325000C4F88C60032084F88450BDE8F883C4F877
:103260008860C4F88C60E5662567002084F8845087
:10327000F3E7000010B5026852E8001F21F49071D6
:1032800042E80013002BF6D10E4B0268083252E8D8
:10329000001F194042E80014002CF6D1C16E01292C
:1032A00008D1026852E8001F21F0100142E8001323
:1032B000002BF6D100212022C0F88C20C166416786
:1032C00010BD0000FEFFFFEF2DE9F04304468068CB
:1032D000E24E87B0E24B2168D4E90427D4F81CC041
:1032E00010430A68002547EA0C073843324002437E
:1032F0000A602068E268416821F44051114341604E
:103300002268A1699A4201D0206A01439668DFF8D9
:1033100054C3D54FD54806EA0C060E439660216883
:10332000666ACA6A22F00F023243CA622268BA424F
:103330000ED1006800F0380018286FD07ADCB8B3DE
:1033400008286CD010286BD18BE0282868D18EE03B
:10335000C7498A4209D1006800F0070006285FD2F9
:10336000DFE800F0507D7F818385C2498A4209D120
:10337000006800F0070006287BD2DFE800F0437009
:1033800072747678BC498A4209D1006800F007005F
:1033900006286ED2DFE800F036636567696BB749CF
:1033A0008A420BD1006800F00700062861D200E0D5
:1033B00043E0DFE800F0275456585A5CB0498A428F
:1033C00006D1006800F0380018284CD0B7DD31E095
:1033D000AC498A4209D1006800F00700062848D2AB
:1033E000DFE800F0103D3F414345A7498A420BD139
:1033F000006800F0070006283BD2DFE800F0033049
:1034000032343638002035E0A0498A4209D10068BC
:1034100000F03800182826D091DD0BE023E01EE0F4
:1034200027E09B498A420AD1006800F0380018283A
:1034300019D084DD202888D11CE001201AE09A42AE
:1034400017D18A48001D006800F00700062810D236
:10345000DFE800F0030507090B0D02200AE0042055
:1034600008E0082006E0102004E0202002E04020D0
:1034700000E080208749DFF820829A42874A4FF493
:1034800000434FEA21174FF000064ED110281AD002
:1034900006DC022809D004280BD008287ED10DE0D4
:1034A00020283ED0402879D13DE0FDF749FA014679
:1034B00010E06846FDF756FA01990BE003A8FDF706
:1034C000F3FA049906E01068800605D51068C0F389
:1034D000C100C140002970D0606A676838F81020C8
:1034E00007EB4703B1FBF2F0834257D8B0EB073F3D
:1034F00054D8002308461946FCF748FF02467808CE
:10350000130E120243EA012110183A4671410023BA
:10351000FCF73CFF624AA0F5407191423ED8216819
:103520008FE03946D8E71946D6E7D4F81CC04FF6E5
:10353000EF799C4546D1082819D005DC58B10128FF
:103540000CD0042875D10DE0102815D0202835D0D6
:1035500040286ED134E0FEF73FF901E0FEF74EF966
:10356000014610E06846FDF7FDF901990BE003A85C
:10357000FDF79AFA049906E01068800604D51068F1
:10358000C0F3C100C140C1B1636A606838F813304C
:10359000B1FBF3F1490001EB500100E049E0B1FB60
:1035A000F0F0A0F11001494543D84FF6F0732168BF
:1035B000C0F342021840104343E043E03946E3E7DA
:1035C0001946E1E7082819D005DC58B101280CD0CC
:1035D00004282ED10DE0102815D020282BD040280B
:1035E00027D12AE0FEF7F8F801E0FEF707F90146D7
:1035F00010E06846FDF7B6F901990BE003A8FDF766
:1036000053FA049906E01068800604D51068C0F3E8
:10361000C100C140B1B1636A606838F81330B1FBD2
:10362000F3F101EB5001B1FBF0F0A0F110014945BD
:1036300005D9012506E03946EDE71946EBE7216893
:1036400080B2C8600120A4F86A00A4F86800284687
:103650006667A66707B0BDE8F0830000F369FFCF97
:10366000000C0058FFF4FF110010014054440258B0
:103670000044004000480040004C00400050004022
:103680000014014000780040007C00400018014018
:10369000001C01400090D00382370008004402580B
:1036A000FFFC0F002DE9F047994617460E460446E9
:1036B000089D4FF000082FE0681C2DD0FDF762F840
:1036C000A0EB0900A84214D89DB120680168490701
:1036D00022D5C169C94309070DD4082505622046D2
:1036E000FFF7C8FDC4F89050012084F88480BDE83D
:1036F000F0870320FBE7C069C04300050CD42168B4
:103700004FF4006008622046FFF7B4FD2021C4F8A2
:10371000901084F88480ECE72068C06936EA0000E5
:1037200004D00020B842C7D00020E0E70120F9E72C
:10373000FEE7090700284FEA116104DB00F1E020F1
:1037400080F80014704700F00F0000F1E02080F8CE
:10375000141D7047FDF724F8FFF7BAF9FEF752FF82
:10376000FFF70CF8FFF75AF802480821FEF7DAFDD8
:10377000FEE70000140000244FF04070E1EE100A54
:103780007047010002000400060008000A000C0057
:10379000100020004000800000010101010307012A
:1037A00000000804020408010101000000000102F9
:1037B000030401020304060708090000DC370008BF
:1037C0000000002414000000E8020008F0370008A0
:1037D0001400002444070000040300080100000056
:1037E00010000000000000000090D0030090D00303
:04000005080002AD40
:00000001FF
