:020000040800F2
:10000000A84400248103000869250008592300083A
:1000100067250008B1040008BD300008000000009A
:10002000000000000000000000000000C102000805
:10003000B3040008000000001D030008D1270008D9
:100040009B0300089B0300089B0300089B03000818
:100050009B0300089B0300089B0300089B03000808
:100060009B0300089B0300089B0300089B030008F8
:100070009B0300089B0300089B0300089B030008E8
:100080009B0300089B0300089B0300089B030008D8
:100090009B0300089B0300089B0300089B030008C8
:1000A0009B0300089B0300089B0300089B030008B8
:1000B0009B0300089B0300089B0300089B030008A8
:1000C0009B0300089B0300089B0300089B03000898
:1000D0009B0300089B0300089B0300089B03000888
:1000E0009B0300089B0300089B0300089B03000878
:1000F0009B0300089B0300089B0300089B03000868
:100100009B0300089B0300089B0300089B03000857
:100110009B0300089B030008652900089B03000857
:100120009B0300089B0300089B0300089B03000837
:100130009B03000800000000000000009B03000873
:100140009B0300089B0300089B0300089B03000817
:100150009B0300089B0300089B0300089B03000807
:100160009B0300089B0300089B0300089B030008F7
:100170009B0300089B0300089B030008000000008D
:100180009B0300089B0300089B0300089B030008D7
:100190009B0300089B0300089B0300089B030008C7
:1001A0009B0300089B0300089B0300089B030008B7
:1001B0009B0300089B0300089B0300089B030008A7
:1001C0009B0300089B0300080000000000000000E3
:1001D00000000000000000009B0300080000000079
:1001E000000000000000000000000000000000000F
:1001F00000000000000000009B0300089B030008B3
:100200009B0300089B030008000000009B030008FC
:100210009B0300089B0300089B0300089B03000846
:100220009B0300089B0300089B03000800000000DC
:100230009B0300089B030008000000009B030008CC
:100240009B0300089B0300089B0300089B03000816
:100250009B0300089B0300089B0300089B03000806
:100260009B0300089B0300089B0300089B030008F6
:100270009B0300089B0300089B030008000000008C
:100280009B0300089B030008000000009B0300087C
:10029000000000009B0300089B0300080000000012
:1002A000000000009B0300089B030008DFF80CD04F
:1002B00000F0ECF80048004749310008A844002449
:1002C0002C4B19680868B0E8F04F80F30988BFF339
:1002D0006F8F4FF0000080F311887047000000001E
:1002E00008480068006880F308884FF0000080F339
:1002F000148862B661B6BFF34F8FBFF36F8F00DF14
:1003000000BF00BF08ED00E0DFF80C00016841F419
:1003100070010160704700BF88ED00E0EFF30980D5
:10032000BFF36F8F134B1A681EF0100F08BF20ED3C
:10033000108A20E9F04F106009B44FF0500080F3AC
:100340001188BFF34F8FBFF36F8F03F0A7FA4FF001
:10035000000080F3118809BC19680868B0E8F04F04
:100360001EF0100F08BFB0EC108A80F30988BFF3AD
:100370006F8F704718000024EFF30580704700006E
:100380000648804706480047FEE7FEE7FEE7FEE72F
:10039000FEE7FEE7FEE7FEE7FEE7FEE7A52800082A
:1003A000AD0200082DE9F05F0546002092469B460D
:1003B00088460646814640241BE02846414647467B
:1003C000224600F053F853465A46C01A914110D3C2
:1003D00011461846224600F03AF82D1A67EB01083C
:1003E0004F4622460120002100F031F817EB0009AA
:1003F0004E41201EA4F10104DFDC484631462A4666
:100400004346BDE8F09F40EA01039B0703D009E0A3
:1004100008C9121F08C0042AFAD203E011F8013BF0
:1004200000F8013B521EF9D27047D2B201E000F849
:10043000012B491EFBD270470022F6E710B5134688
:100440000A4604461946FFF7F0FF204610BD202A51
:1004500004DB203A00FA02F1002070479140C2F11B
:10046000200320FA03F3194390407047202A04DB4D
:10047000203A21FA02F00021704721FA02F3D0401D
:10048000C2F120029140084319467047064C074DBF
:1004900006E0E06840F0010394E807009847103454
:1004A000AC42F6D3FFF706FF8C3C0008AC3C0008DA
:1004B000FEE7704772B6FEE72DE9F84F03247D4D45
:1004C00000234FF001094FF0B04B4FF00F0AE9E065
:1004D00009FA03F73A4076D00E7906F00306012EAA
:1004E00001D0022E18D1D0F808C04FEA430ECE68D2
:1004F00004FA0EF82CEA080C06FA0EF646EA0C0688
:100500008660D0F804C00E792CEA070CC6F30016FA
:100510009E4046EA0C0646600E79F643B6070BD0BD
:10052000C6684FEA43088F6804FA08FC26EA0C06FE
:1005300007FA08F73743C7600E7906F00306022E64
:1005400012D1DE080F694FEA437C00EB8606B646FF
:10055000366A4FEADC6C0AFA0CF807FA0CF726EA5E
:1005600008063743CEF820700F7906684FEA430833
:1005700007F0030704FA08FC07FA08F726EA0C0656
:10058000374307604E6816F4403F1CD04A4E376828
:1005900047F00207376036689F0706F002060096AC
:1005A00023F0030606F1B046B6463F0FD6F80864BE
:1005B000DFF808810AFA07FC404526EA0C0603D159
:1005C0004FF0000C41E06CE0DFF8F4C0604502D170
:1005D0004FF0010C39E0DFF8ECC0604502D14FF07C
:1005E000020C32E0DFF8E0C0604502D14FF0030CAE
:1005F0002BE0DFF8D8C0604502D14FF0040C24E0B6
:10060000DFF8CCC0604502D14FF0050C1DE0DFF8EB
:10061000C4C0604502D14FF0060C16E0DFF8B8C048
:10062000604502D14FF0070C0FE0DFF8B0C0604525
:1006300002D14FF0080C08E0DFF8A4C0604502D1F9
:100640004FF0090C01E04FF00A0C0CFA07FC4CEAE1
:10065000060CCEF808C44F68DBF80060FF0226EAFB
:10066000020600D516435F46CBF80060D1F804C0FF
:10067000DBF804605FEA8C2C26EA020600D51643FC
:100680007E606E684F6826EA0206BF0300D51643F7
:100690006E602E684F6826EA0206FF0300D51643F7
:1006A0002E605B1C0A6832FA03F67FF411AFBDE8D6
:1006B000F88F00008000005854450258000002588E
:1006C0000004025800080258000C0258001002589A
:1006D0000014025800180258001C0258002002584A
:1006E000002402580AB1816170470904FBE7000049
:1006F00001488068704700000400002402488168B7
:10070000027811448160704704000024032010B572
:1007100000F0B0F801F0A0F80F4A1049146813680F
:10072000C4F3032203F00F038A5CC95C02F01F02CA
:1007300001F01F01D0400A4A20FA01F11160094975
:1007400008600F2000F010F808B1012010BD00F083
:1007500051F8002010BD000018440258703C0008F9
:10076000140000241000002410B5102804468AB09C
:100770002CD200220146362000F05CF8362000F032
:100780004BF8174804601748016841F010010160F8
:10079000006809A900F010000890684600F0E8FF22
:1007A0000598B0B101F034F840000F4900220F4C19
:1007B000B0FBF1F10E4840F2E7330460C0E90332C8
:1007C000491EC0E9011201F0B7FB28B101200AB0AF
:1007D00010BD01F01DF8E8E7054801F0DFFBF6E782
:1007E000080000244845025840420F000010004015
:1007F0006C030024074882B0016841F002010160E7
:10080000006800220F2100F002000090901E02B04C
:1008100000F010B854450258002809DB410900F0E7
:100820001F028900012001F1E0219040C1F8000180
:10083000704700000E4BF0B41B680D46C3F3022353
:10084000C3F10706042E00D90426191D072901D279
:10085000002300E0DB1E012404FA06F19C40491E3F
:100860002940641E994014402143F0BC02F030BC82
:100870000CED00E0064900F0070210B54FF6FF044A
:100880000868044B204040EA02201843086010BD6D
:100890000CED00E00000FA052DE9F0411E4C054684
:1008A000206800F007000628206804D000F03F0010
:1008B000A84228D12EE020F03F0028432060FFF717
:1008C00017FF154F4FF47A780646083F05E000BF42
:1008D000FFF70EFF801B404515D83868C0438004E1
:1008E000F6D41E2D05D02E2D03D01D2D01D02D2D7B
:1008F00010D1FFF7FDFE0546464607E0FFF7F8FE7C
:10090000401BB04202D90120BDE8F0812068C043FD
:10091000C003F3D40020F7E70C48025810B500F0EC
:1009200055FF05490968054AC1F30211515C01F000
:100930001F01C84010BD000020440258703C000850
:10094000494930B5484C0B1D0A68143409681D68C4
:10095000246802F00303C5F30012C1F30531C4F3A8
:10096000CC04002914FB02F200EE102AF8EE400A33
:1009700075D03F4A9FED3D1AB7EE000A6BB1DFED2F
:100980003D1A012B01D0022B64D002EE101A11681F
:10099000F8EE422A81EEA22A21E0334C283C23685B
:1009A0009B0612D5344B246801EE901A1168C4F3EB
:1009B000C104F8EE612AE34001EE903AC1F3080168
:1009C000F8EE611A81EEA22A0BE001EE901ADFED3B
:1009D0002B2A00BFF8EE611A116882EEA12AC1F33A
:1009E000080101EE901A1168F8EE611A40EE811AC2
:1009F00071EE800A62EE200AC1F3462101EE101A60
:100A0000B8EE411A31EE001AC0EE811ABCEEE11ABE
:100A100080ED001A1168C1F3064101EE101AB8EE1C
:100A2000411A31EE001AC0EE811ABCEEE11A80EDD7
:100A3000011A1168C1F3066101EE101AB8EE411AED
:100A400031EE000A80EE801ABCEEC10A80ED020A87
:100A500030BD04E001EE901ADFED092ABAE700216B
:100A6000016041608160F3E72844025800000039CA
:100A7000384402580024744A0090D0030024744C77
:100A80000024F44A494930B5484C0B1D0A681C340F
:100A900009681D68246802F00303C5F30022C1F34E
:100AA0000551C4F3CC04002914FB02F200EE102A15
:100AB000F8EE400A75D03F4A9FED3D1AB7EE000AA6
:100AC0006BB1DFED3D1A012B01D0022B64D002EE99
:100AD000101A1168F8EE422A81EEA22A21E0334C66
:100AE000283C23689B0612D5344B246801EE901AEB
:100AF0001168C4F3C104F8EE612AE34001EE903AB4
:100B0000C1F30801F8EE611A81EEA22A0BE001EEB2
:100B1000901ADFED2B2A00BFF8EE611A116882EE01
:100B2000A12AC1F3080101EE901A1168F8EE611ACA
:100B300040EE811A71EE800A62EE200AC1F346216E
:100B400001EE101AB8EE411A31EE001AC0EE811A09
:100B5000BCEEE11A80ED001A1168C1F3064101EE06
:100B6000101AB8EE411A31EE001AC0EE811ABCEE2E
:100B7000E11A80ED011A1168C1F3066101EE101A45
:100B8000B8EE411A31EE000A80EE801ABCEEC10ABE
:100B900080ED020A30BD04E001EE901ADFED092A73
:100BA000BAE70021016041608160F3E72844025800
:100BB00000000039404402580024744A0090D003D9
:100BC0000024744C0024F44A2DE9FE4F0546DFF85A
:100BD000F88350F8081B0024FB4FC943019005F12E
:100BE0002800264608F12408009008011DD4E86E6C
:100BF00050B1B0F5801F0CD0B0F5001F0ED0B0F58D
:100C0000401F1ED001240FE0386840F400303860E7
:100C100017E00198022101F0A9FC03E000980221ED
:100C200001F034FD04000CD026462888C043C005DE
:100C300023D4A86D05281ED2DFE800F00C11161B86
:100C40001B00EA6ED8F8001021F440111143C8F8D7
:100C50000010EAE7386840F40030386009E0019895
:100C6000002101F083FC03E00098002101F00EFD5B
:100C7000044684B100E0012426462888C04380054C
:100C80002BD4E86DC02826D00EDCA8B1402818D09F
:100C900080280FD11AE0AA6DD8F8001021F00701C2
:100CA0001143C8F80010E8E7B0F5807F13D0B0F525
:100CB000A07F10D001240FE0386840F40030386085
:100CC00009E00198002101F051FC03E000980021A7
:100CD00001F0DCFC04468CB126462888C043400560
:100CE0002ED4286EB0F5C06F28D010DCB8B1B0F5A6
:100CF000007F19D0B0F5806F0FD11AE0EA6DD8F8F7
:100D0000001021F4E0711143C8F80010E5E7B0F5D8
:100D1000006F13D0B0F5206F10D001240FE03868B9
:100D200040F40030386009E00198002101F01EFC19
:100D300003E00098002101F0A9FC044694B1264686
:100D40002868DFF884B2C0430BF1200B80011ED469
:100D5000E86CD0B110280ED0202811D0302814D043
:100D6000012413E02A6ED8F8001021F460611143C9
:100D7000C8F80010E4E7386840F40030386004E058
:100D80000198022101F0F2FB044674B1264628883E
:100D9000C043C0042BD4686EB0F5005F20D00DDCDA
:100DA000A0B1B0F5805F0FD115E0EA6CDBF8001060
:100DB00021F030011143CBF80010E8E7B0F5405FB7
:100DC00013D0B0F5804F10D001240FE0386840F404
:100DD0000030386009E00198002101F0C7FB03E012
:100DE0000098002101F052FC04468CB12646288868
:100DF000C043800429D4A86EB0F5403F23D010DC56
:100E000008B3B0F5803F14D0B0F5003F0FD115E026
:100E10006A6ED8F8001021F4E0411143C8F80010C0
:100E2000E5E7B0F5802F0ED0B0F5A02F0BD0012450
:100E30000AE00198012101F099FB03E000980121EB
:100E400001F024FC044674B126462888DFF878A116
:100E5000C0430AF12C0A400425D4D5F8B00030F084
:100E6000704109D01DE0AA6ED8F8001021F4E021ED
:100E70001143C8F80010E8E70017072811D2DFE88F
:100E800000F00E04090E0E0E0E000198012101F073
:100E90006DFB03E00098012101F0F8FB044684B1EA
:100EA00000E0012426462888C04300041FD4A86F10
:100EB000D8B1B0F1805F0ED0B0F1005F10D0012446
:100EC00014E0D5F8B020DAF8001021F0E041114329
:100ED000CAF80010E7E7386840F40030386004E0F2
:100EE0000198012101F042FB044674B126462868AE
:100EF000C043C0011ED4A86CD0B101280ED0022876
:100F000011D0032814D0012413E0AA6FD8F80010E0
:100F100021F040511143C8F80010E8E7386840F468
:100F20000030386004E00198022101F01FFB044604
:100F30006CB126462868C043400255D42348016856
:100F400041F480710160FFF7D3FB81460EE0AA6C8B
:100F5000DBF8001021F003011143CBF80010E9E7A2
:100F6000FFF7C6FBA0EB090064283BD817480068D0
:100F7000C005F5D564BBDFF85090B5F8B41009F1A1
:100F80004409D9F8000001F4407100F4407088422F
:100F900011D0D9F80010D9F8002021F4407142F4A2
:100FA0008032C9F80020D9F8002022F48032C9F834
:100FB0000020C9F80010D5F8B400B0F5807F1ED12C
:100FC000FFF796FB029016E02C44025800480258A6
:100FD00009E000BFFFF78CFB0299411A41F288300B
:100FE000814208D9032426462878DFF81494C043A8
:100FF000C00721D03DE0D9F800008007EAD5D5F838
:10100000B410C1F301200328FE480DD0016821F47B
:101010007C510160B5F8B420D9F80010C2F30B027E
:101020001143C9F80010DFE7F74A036802EA11121A
:1010300023F47C511143ECE7D5F88400182816D02E
:1010400005DCA0B1082808D0102804D10AE0202827
:101050000DD028280BD001240AE00198012101F0CD
:1010600085FA03E00098012101F010FB04466CB101
:1010700026462878C043800720D4D5F8800006286B
:101080001AD2DFE800F0170D12171717D5F88420D1
:10109000D9F8001021F038011143C9F80010E8E731
:1010A0000198012101F062FA03E00098012101F0AA
:1010B000EDFA04467CB100E0012426462878C043BE
:1010C000400720D4D5F89C0006281AD2DFE800F0AB
:1010D000170D12171717D5F88020D9F8001021F036
:1010E00007011143C9F80010E8E70198012101F058
:1010F0003DFA03E00098012101F0C8FA0446A4B1CA
:1011000000E0012426462878C04380062BD4D5F879
:101110009800B0F1405F24D011DC10B3B0F1805FD3
:1011200015D0B0F1005F10D116E0D5F89C20DAF8A8
:10113000001021F007011143CAF80010E3E7B0F1F5
:10114000804F0ED0B0F1A04F0BD001240AE00198DF
:10115000002101F00BFA03E00098022101F096FA59
:10116000044694B126462878C04340062BD4D5F8CF
:10117000A400B0F5406F24D011DC10B3B0F5806F3F
:1011800015D0B0F5006F10D116E0D5F89820D9F839
:10119000001021F0E0411143C9F80010E3E7B0F579
:1011A000805F0ED0B0F5A05F0BD001240AE001985B
:1011B000002101F0DBF903E00098022101F066FA5A
:1011C000044694B126462878C04300062BD4D5F8AF
:1011D000A800B0F5C04F24D011DC10B3B0F5005F0B
:1011E00015D0B0F5804F10D116E0D5F8A420DAF86C
:1011F000001021F4E0511143CAF80010E3E7B0F504
:10120000004F0ED0B0F5204F0BD001240AE001981A
:10121000002101F0ABF903E00098022101F036FA59
:10122000044654B126462878C04300071ED4D5F89A
:101230008C00B0F5805F0AD00FE0D5F8A820DAF86E
:10124000001021F460411143CAF80010EBE7009848
:10125000022101F01BFA00B10126D5F88C20D9F843
:10126000001021F440511143C9F800102878C04300
:10127000C00613D4D5F8A000B0F5807F05D1009842
:10128000022101F003FA00B10126D5F8A020DAF816
:10129000001021F440711143CAF800102868C043BF
:1012A000000316D4D5F8AC0038B1B0F5803F09D0B2
:1012B000B0F5003F0BD001240AE00198002101F0B5
:1012C00055F903E00098022101F0E0F904468CB1E1
:1012D00026462868C043400322D4D5F89000B0F5D4
:1012E000801F11D0B0F5001F13D0B0F5401F15D0EE
:1012F000012414E0D5F8AC20DAF8001021F44031D4
:101300001143CAF80010E4E7386840F40030386050
:1013100004E00098012101F0B9F904465CB12646C9
:101320002868C043C0031CD4286D70B1B0F5803F5D
:1013300010D0012414E0D5F89020D9F8001021F441
:1013400040111143C9F80010EAE7386840F4003052
:10135000386004E00198022101F008F90446E4B184
:1013600026462868C043800005D40098022101F079
:101370008DF900B101262868C04380031CD4D5F83C
:101380008800B8B1B0F5807F10D0B0F5007F11D0E3
:10139000B0F5407F0ED001240DE02A6DDBF800107F
:1013A00021F480311143CBF80010DAE7386840F4BB
:1013B000003038601CB326462868C043C00207D4FA
:1013C000EA6FD8F8001021F000411143C8F800106E
:1013D0002868C043800207D42A6FD8F8001021F093
:1013E00080711143C8F800102888C04300050FD44D
:1013F0006A6FDAF8001021F00061114306E035E071
:101400005444025810440258CFFFFF00CAF800109D
:101410002868C043400009D43D48016821F40041D8
:1014200001600168D5F8B820114301602868C04305
:1014300007D46A6DDBF8001021F040511143CBF85E
:1014400000102868C043000208D4D5F89420D9F8C9
:10145000001021F440011143C9F80010287900243C
:10146000C04300F0010020430AD00FE0D5F88820E7
:10147000D9F8001021F440711143C9F800109BE71E
:101480000198002101F072F800B106462879C043A6
:1014900000F00200204305D10198012101F066F817
:1014A00000B106462879C04300F00400204305D16E
:1014B0000198022101F05AF800B106462879C0438C
:1014C00000F00800204305D10098002101F0DEF86B
:1014D00000B106462879C04300F01000204305D132
:1014E0000098012101F0D2F800B106462879C043E6
:1014F00000F02000044304D10098022101F0C6F856
:1015000000B916B10120BDE8FE8F0020FBE7000006
:10151000104402582DE9F05F04000F467ED0DFF83A
:101520003882D8F8000000F00F00B8420CD2D8F88A
:10153000001021F00F013943C8F80010D8F800005E
:1015400000F00F00B84269D12078844D40070AD5D9
:101550002069296801F07001884204D9296821F0C6
:1015600070010143296020787C4E361D00070AD5A2
:101570006069316801F07001884204D9316821F056
:101580007001014331602078C0060AD5A069316836
:1015900001F4E061884204D9316821F4E06101433B
:1015A00031602078DFF8B4B180060BF1080B0CD560
:1015B000E1695846DBF8002002F07002914204D93C
:1015C000026822F070020A430260207880070AD580
:1015D000E068296801F00F01884204D9296821F0E8
:1015E0000F01014329602078C0073ED05B49A26803
:1015F0002868183920F47060104328606068022859
:1016000018D0032819D00968012819D049070029E2
:101610004ADADFF848A1AAF1080A00E044E0DAF863
:10162000002022F007020243CAF80020FFF760F80A
:10163000814612E009688903E9E709688901E6E75C
:10164000C905E4E7FFF754F8A0EB090141F288303F
:10165000814202D90320BDE8F09F6168DAF80000FA
:1016600000F03800B0EBC10FECD1207880070AD52C
:10167000E068296801F00F01884204D2296821F04E
:101680000F0101432960D8F80010404601F00F0116
:10169000B9420BD9016821F00F013943016000689C
:1016A00000F00F00B84201D00120D4E720784007B5
:1016B0000AD52069296801F07001884204D229689E
:1016C00021F0700101432960207800070AD5606984
:1016D000316801F07001884204D2316821F0700154
:1016E000014331602078C0060AD5A069316801F451
:1016F000E061884204D2316821F4E0610143316045
:10170000207880060CD5E1695846DBF8002002F00D
:101710007002914204D2026822F070020A43026011
:1017200000F09AF80E492A682B68C2F3032203F0EE
:101730000F038A5CC95C02F01F0201F01F01D04058
:10174000084A20FA01F1116007490860074800685B
:10175000BDE8F05FFFF708B80020005218440258B7
:10176000703C00081400002410000024080000242D
:1017700070B5144C3F220260124A24680832131DCF
:10178000114D04F00704446016681C1D06F47066D1
:101790008660166806F00F06C660126802F07002D6
:1017A00002611A6802F0700242611A6802F4E06293
:1017B0008261226802F07002C261286800F00F00A6
:1017C000086070BD104402580020005230B500F08F
:1017D00043F80B4A0B490C4B15681468C5F30322F8
:1017E00004F00F048A5C095D02F01F0201F01F0182
:1017F000D040064A20FA01F119601060084630BD59
:1018000018440258703C0008140000241000002402
:1018100000B5FFF7DBFF05490968054AC1F302116E
:10182000515C01F01F01C84000BD00001C4402587B
:10183000703C000800B5FFF7C9FF05490968054A73
:10184000C1F30221515C01F01F01C84000BD00003E
:101850001C440258703C0008454970B54548096869
:10186000434B103B11F0380208D00111082A03D075
:10187000102A0BD0182A0BD0084670BD19688906AB
:10188000FBD51968C1F3C101C84070BD3A4870BDAD
:101890003749374D18310C1D24350A680968266808
:1018A0002D6802F0030406F00102C1F30511C5F32F
:1018B000CC0515FB02F200EE102AB8EE400AE9B39F
:1018C0002F4ADFED2E0AB7EE001A6CB1DFED2D1AAC
:1018D000012C01D0022C43D002EE101A1068F8EE51
:1018E000422A81EEA22A1EE01C68A40611D51B68BC
:1018F00001EE901A1168C3F3C103F8EE612AD840D3
:1019000001EE900AC1F30800F8EE611A81EEA22AF6
:101910000BE001EE901ADFED1C2A00BFF8EE611A11
:10192000106882EEA12AC0F3080001EE900AF8EEDA
:10193000611A40EE201A31EE810A00E015E022EE35
:10194000000A1068C0F34620401C00EE900AF8EE32
:10195000600A80EE201ABCEEC10A10EE100A70BDBB
:1019600001EE901ADFED092AD8E7002070BD0000D3
:10197000104402580090D00300127A000000003991
:10198000304402580024744A0024744C0024F44A61
:101990002DE9F05F04007DD0FB4F2078FA4D183719
:1019A000DFF8E483103DC00766D0D8F8000039683E
:1019B00000F03800102822D0182803D101F00300CD
:1019C00002281CD06068B0F5803F1FD010B3B0F57E
:1019D000A02F2BD0B0F5A81F28682FD020F480307E
:1019E0002860286820F480202860286820F480106F
:1019F0002860606898B3FEF77BFE06462BE02868F7
:101A0000800339D560680028C5D035E0286840F4E7
:101A10008030EDE7286820F480302860286820F4C2
:101A200080102860286820F48020E1E7286840F4CE
:101A300080202860286820F4801005E040F4802091
:101A40002860286840F480102860DFE7FEF750FE29
:101A5000801B64287ED828688003F7D50CE0FFE758
:101A6000FEF746FE064604E0FEF742FE801B6428B1
:101A7000F0D828688003F7D42078800756D5D8F8A6
:101A80000000DFF80493396810F03800A9F10C0960
:101A900010D000E0F0E0182801D188070AD0E068F3
:101AA00098B3296821F0190101432960FEF720FE4F
:101AB000064626E02868400702D5E0680028A3D043
:101AC000E168286820F0190008432860FEF710FE3E
:101AD000064604E0FEF70CFE801B0228BAD82868F0
:101AE0004007F7D5217CD9F8002022F0FE4242EAD7
:101AF0000161C9F8001019E0FEF7FAFD801B022809
:101B0000A8D828684007F7D5ECE7FFE7286820F059
:101B100001002860FEF7ECFD064604E0FEF7E8FD54
:101B2000801B022896D828684007F7D42078C00682
:101B300046D5D8F80000DFF85092396800F0380038
:101B4000A9F10409082812D0182805D101F00300D2
:101B5000012800E0ECE00AD0E0690028286820D0E5
:101B600040F080002860FEF7C3FD064615E02868B7
:101B7000C00502D5E06980287ED194F82010D9F8FC
:101B8000002022F07C5242EA0161C9F8001017E0FF
:101B9000FEF7AEFD801B0228A0D82868C005F7D547
:101BA000EBE720F080002860FEF7A2FD064604E087
:101BB000FEF79EFD801B022890D82868C005F7D448
:101BC0002078000729D57048616964300029814672
:101BD000016811D041F001010160FEF789FD064660
:101BE00005E000BFFEF784FD801B022888D8D9F8E5
:101BF00000008007F6D510E021F001010160FEF73A
:101C000077FD064605E000BFFEF772FD801B022847
:101C100088D8D9F800008007F6D42078800623D52C
:101C2000A0690028286810D040F480502860FEF792
:101C30005FFD064605E000BFFEF75AFD801B022847
:101C400076D828688004F7D50EE020F4805028600C
:101C5000FEF74EFD064604E0FEF74AFD801B022813
:101C600066D828688004F7D4207840076FD5DFF85D
:101C70001C91D9F8001000E035E141F48071C9F8F9
:101C80000010FEF735FD064605E000BFFEF730FD0B
:101C9000801B64284CD8D9F80000C005F6D53A4E10
:101CA000A0686036012818D0D8B1052825D085282D
:101CB00030682AD020F001003060306820F0040045
:101CC0003060306820F080003060A06841F2883ACF
:101CD00078B3FEF70DFD814626E0306840F0010044
:101CE000F2E7306820F001003060306820F08000BA
:101CF0003060306820F00400E6E7306840F004000F
:101D00003060306820F0800005E040F00400306072
:101D1000306840F080003060DFE700BFFEF7E8FC8D
:101D2000A0EB0901514503D830688007F6D50EE0D5
:101D300088E0FFE7FEF7DCFC814605E0FEF7D8FC13
:101D4000A0EB090151457DD830688007F6D4606A60
:101D5000F0B34146DFF8308008F12008096808F147
:101D60000409A8F1040A4FF6F87BC1F3C201032964
:101D700069D00228286820F08070286008D0FEF71B
:101D8000B7FC044684E000001044025800480258A2
:101D9000FEF7AEFC064604E0FEF7AAFC801B022814
:101DA00073D828688001F7D4E26A40F2F3313868CA
:101DB00054F8283F884340EA021018433860217BDA
:101DC0004FF4FE0C22894FF0FE47208A267D00E06A
:101DD000ADE049024346521E401EA1F50071C2F318
:101DE00008088AB2761E0CEA004042EA0802024362
:101DF000504607EA06610A431A60DAF8002022F02A
:101E00000102CAF80020D9F80020266A22EA0B0253
:101E100042EAC602C9F80020DAF80010A26921F0EF
:101E20000C011143CAF800100168E26921F00201B7
:101E300011430160016841F480310160016841F49F
:101E4000003101E021E027E00160016841F48021D8
:101E50000160016841F001010160286840F0807074
:101E60002860FEF745FC044605E000BFFEF740FC95
:101E7000001B022809D828688001F7D557E000BF69
:101E8000FEF736FC001B022802D90320BDE8F09FB4
:101E900028688001F4D44AE039680128D8F80000A5
:101EA00021D0A26A01F0030393421CD1E26AC1F37C
:101EB00005118A4217D1216BC0F30802491E8A42DC
:101EC00011D1616BC0F34622491E91420BD1A16B27
:101ED000C0F30642491E914205D1E16BC0F3066092
:101EE000491E814201D00120D0E7A16C4E46D9F8AD
:101EF0000000C0F3CC00814219D0DAF8000055464A
:101F000020F00100CAF80000FEF7F2FB4FEA0007DC
:101F1000FEF7EEFBB842FBD0A26C306820EA0B0063
:101F200040EAC2003060286840F0010028600020CC
:101F3000ACE770477047704710B5040003D094F8C1
:101F40003D0010B107E0012010BD002084F83C00E6
:101F5000204600F022F8022084F83D002068211D70
:101F600000F006FD012084F8480084F83E0084F863
:101F70003F0084F8400084F8410084F8420084F86F
:101F8000430084F8440084F8450084F8460084F84F
:101F9000470084F83D00002010BD704790F83D10C8
:101FA000012901D001207047174A022180F83D1015
:101FB0000168CB6843F00103CB600068904214D005
:101FC000B0F1804F11D0114988420ED0104988429B
:101FD0000BD01049884208D00F49884205D00F49DC
:101FE000884202D00E49884207D181680D4A1140CB
:101FF000062906D0B1F5803F03D0016841F0010108
:102000000160002070470000000001400004004013
:1020100000080040000C004000040140001800408F
:10202000004001400700010070472DE9F0410446DF
:1020300000680027C6680569A90713D5B10711D53F
:10204000FA1E0261012121772068806980072046FD
:1020500002D0FFF7E9FF04E000F08BF8204600F023
:1020600089F82777680716D5700714D522680220EB
:102070006FF00401116120772068806910F4407FBF
:10208000204602D0FFF7D0FF04E000F072F82046AF
:1020900000F070F82777280715D5300713D5226888
:1020A00004206FF00801116120772068C069800763
:1020B000204602D0FFF7B8FF04E000F05AF82046AF
:1020C00000F058F82777E80616D5F00614D52268F0
:1020D00008206FF01001116120772068C06910F4AA
:1020E000407F204602D0FFF79FFF04E000F041F858
:1020F000204600F03FF82777E80708D0F00706D021
:1021000021686FF001000861204600F035F82806CC
:1021100001D4A80408D5300606D521686FF4025012
:1021200008612046FFF706FFE80508D5300606D50A
:1021300021686FF4807008612046FFF7FAFE680698
:1021400008D5700606D521686FF04000086120466A
:1021500000F01CF8A8060AD5B00608D521686FF073
:10216000200008612046BDE8F041FFF7E4BEBDE86D
:10217000F08170477047000000680349884201D130
:10218000FEF7BCBA7047000000100040704730B541
:1021900090F88410012918D0012280F8842024218D
:1021A000C0F888100022202401680B680D6823F015
:1021B000005325F001050D60426601680B60C0F810
:1021C000884080F88420104630BD022030BD70B5B4
:1021D000044690F8840001281DD0012284F8842050
:1021E0002420C4F8880020680568026822F00102F3
:1021F00002602068826822F060620A4382602046A2
:1022000000F01EFC2268202100201560C4F8881010
:1022100084F8840070BD022070BD70B5044690F84B
:10222000840001281DD0012284F884202420C4F8D1
:10223000880020680568026822F0010202602068B8
:10224000826822F060420A438260204600F0F8FB78
:102250002268202100201560C4F8881084F88400CA
:1022600070BD022070BD10B5040003D0D4F8880002
:1022700010B107E0012010BD002084F88400204642
:1022800000F026F82420C4F888002068016821F0B6
:1022900001010160A06A10B1204600F0F3FB204666
:1022A00000F0D4FC0128E6D02068416821F4904178
:1022B00041602068816821F02A01816020680168FE
:1022C00041F0010101602046BDE8104000F03EBC35
:1022D00010B5B6B00446142130A8FEF7ADF8C02101
:1022E0006846FEF7A9F81949206888422BD10020DA
:1022F000209002210446CDE900106846FEF764FCF8
:1023000008B1FEF7D7F81248016841F48021016056
:10231000006800F4802035900D480838016841F0CD
:1023200008010160006830AB022100F00800359020
:102330004FF44070072283E81300064830A9CDE926
:102340003342FEF7B9F836B010BD00000048004037
:1023500048450258000C0258FEE7000000B587B05F
:1023600006491C226846FEF74EF80021684600F038
:102370000DFF0349086007B000BD00002C3C0008B9
:10238000000000242DE9F04786B014216846FEF7CE
:1023900053F85348016841F004010160016801F0FD
:1023A00004010591016841F020010160016801F01C
:1023B00020010591016841F080010160016801F090
:1023C00080010591016841F002010160016801F09E
:1023D00002010591016841F008010160016801F006
:1023E00008010591016841F040010160016801F0B8
:1023F00040010591016841F001010160016801F0AF
:1024000001010591016841F01001016000684FF47D
:102410008067DFF8D080002200F010003946059078
:102420004046FEF75FF9DFF8C09044F20106002253
:1024300031464846FEF756F9DFF8B0A000220221E7
:102440005046FEF74FF90024694670100294CDE91A
:1024500000042748FEF730F801250097CDE9015424
:10246000694640460394FEF727F800966946CDE991
:10247000015448460394FEF71FF880204FF488115A
:102480008DE813001B486946FEF716F8DFF86880F0
:102490006802CDE90004694640460294FEF70CF854
:1024A0000A20009702266946CDE90164CDE9034080
:1024B0004046FEF701F84FF4C0500090CDE90164AA
:1024C000694640460394FDF7F7FF00966946CDE95B
:1024D000015450460394FDF7EFFF06B0BDE8F087C6
:1024E00040450258001402580004025800100258D7
:1024F000000802580018025800000258184800212D
:1025000010B5164C0C224FF4E1330460C0E90131E0
:10251000C160C0E904128161C161016241628162EE
:10252000FFF7A1FE08B1FDF7C5FF0D480021FFF739
:1025300074FE08B1FDF7BEFF09480021FFF747FE12
:1025400008B1FDF7B7FF0648FFF721FE002803D0CA
:10255000BDE81040FDF7AEBF10BD000000480040D0
:10256000D80200247047FEE7FEE700002DE9F0479F
:10257000454D044689464FF0000A2868C04380074D
:102580000AD0414E283E306820F080603060FEF76F
:10259000AFF80746B04608E00120BDE8F08700BF6D
:1025A000FEF7A6F8C01B022867D8D8F80000000183
:1025B000F6D4206829684FF4FE0721F47C313E02EE
:1025C00041EA00302860207AA389B4F804C04002B0
:1025D0002D4D2D495B1E227CACF1010C1035091DDF
:1025E000A0F5007080B2521ECCF3080C07EA03433A
:1025F00040EA0C00184306EA0262104328600868AB
:10260000626920F0C000104308600A68A06922F0E7
:10261000200202430A60281D0A6822F010020A60A4
:1026200002684FF6F873E4699A4342EAC402026012
:102630000868B9F1000F40F010020A6011D0086874
:10264000B9F1010F11D040F400100860D8F8000073
:10265000444640F08060C8F80000FEF749F805469F
:102660000DE0086840F40020EFE740F48010ECE74C
:10267000FEF73EF8401B022801D903208DE72068B1
:102680000001F5D5504688E7284402582DE9F04767
:10269000454D044689464FF0000A2868C04380072C
:1026A0000AD0414E283E306820F080503060FEF75E
:1026B0001FF80746B04608E00120BDE8F08700BFDC
:1026C000FEF716F8C01B022867D8D8F80000800073
:1026D000F6D4208829684FF4FE0721F07C713E0271
:1026E00041EA00502860207AA389B4F804C040026F
:1026F0002D4D2D495B1E227CACF1010C1835091DB6
:10270000A0F5007080B2521ECCF3080C07EA034318
:1027100040EA0C00184306EA026210432860086889
:10272000626920F44060104308600A68A06922F4DE
:10273000007202430A60281D0A6822F480720A604F
:1027400002684FF6F873E4699A4342EAC4020260F1
:102750000868B9F1000F40F480720A6011D008686F
:10276000B9F1010F11D040F080700860D8F8000076
:10277000444640F08050C8F80000FDF7B9FF054618
:102780000DE0086840F48000EFE740F40000ECE75B
:10279000FDF7AEFF401B022801D903208DE720681A
:1027A0008000F5D5504688E7284402584FF47A74E3
:1027B00003A000F085FC204600F0DCFCF8E70000F8
:1027C00048656C6C6F20776F726C64200D0A000096
:1027D000502010B580F31188BFF34F8FBFF36F8F78
:1027E00001F05CF918B104494FF0805008600020F6
:1027F00080F3118810BD000004ED00E030B59DB0FD
:102800004C216846FDF718FE202113A8FDF714FEA1
:1028100022494FF0FF3008600420FEF73DF82048C1
:10282000016841F4404101600168002401F4404125
:102830001B9101688904FCD50DF1280C212200921E
:102840004FF4A02301930121069102200990322523
:102850008CE8230004220FA90C23CDE90D0281E8A6
:10286000190068461294FFF793F808B172B6FEE7B4
:1028700013AD40203F21032285E8160003011A9082
:10288000CDE916400421CDE9180313A8FEF742FE56
:10289000002801D072B6FEE71DB030BDB04402582A
:1028A000184802582748F0B5274A016841F47001DA
:1028B0000160106800F00F00032804D2106820F0B7
:1028C0000F00C01C106021490020204C10340B6800
:1028D0001F4D43F001030B6020600B682B400B6021
:1028E000136803F00F03032B04D9136823F00F03BD
:1028F000DB1C1360154C174A1834174B261D371D67
:102900002060124C154D28343060261D3860371D6C
:1029100023603B1D35601C1D3A60251D2E1D18606F
:10292000331D22602860326018600A6843F2D204C6
:10293000064B0B4D22F4802260330A6018602C6035
:10294000F0BD000088ED00E0002000520044025875
:102950007FEDF6EA80020101000202020000FF01A1
:10296000004000520148FFF760BB00006C030024E8
:102970002DE9F0472A4B4FF0804A2A4D02689842D1
:10298000294E2A4F2A4C09D0504507D0A84205D0DD
:10299000B04203D0B84201D0A04205D1D1F804C062
:1029A00022F070024CEA0202DFF888C0DFF888806B
:1029B0009842DFF888900FD050450DD0A8420BD038
:1029C000B04209D0B84207D0A04205D0604503D03C
:1029D000404501D0484503D1CD6822F440722A43D6
:1029E0004D6922F080022A43026098428A68C262DE
:1029F0000A68826207D0A04205D0604503D04045F6
:102A000001D0484501D10969016301214161016992
:102A1000C90703D0016921F001010161BDE8F08718
:102A2000000001400004004000080040000C00408D
:102A300000040140004001400044014000480140C2
:102A400030B5416EB9B101680D4B03F108048A68D5
:102A50008968C2F34262490F5D5C615C2D01B5FB80
:102A6000F1F1A0F86A10995CA25C0901B1FBF2F1E6
:102A7000A0F8681030BD0121A0F86A10F8E7000046
:102A8000603C000890F82810090706D50168836BA0
:102A90004A6822F400421A434A6090F82810C90795
:102AA00006D00168C36A4A6822F400321A434A60B9
:102AB00090F82810890706D50168036B4A6822F44C
:102AC00080321A434A6090F82810490706D50168F9
:102AD000436B4A6822F480221A434A6090F8281017
:102AE000C90606D50168C36B8A6822F480521A436E
:102AF0008A6090F82810890606D50168036C8A68F8
:102B000022F400521A438A6090F82810490611D521
:102B10000168436C4A6822F480121A434A60416C8F
:102B2000B1F5801F06D10168836C4A6822F4C002A7
:102B30001A434A6090F82810090606D50168C26C4D
:102B4000486820F400201043486070472DE9F8439E
:102B500000250446C0F89050FDF7CAFD8046206865
:102B600020266FF07E470068000713D500224346F9
:102B700031042046009700F057FA58B1216851E817
:102B8000000F20F0800041E80002002AF6D1C4F8CE
:102B9000886021E020680068400722D50022434673
:102BA0004FF480012046009700F03EFAC8B120683B
:102BB00050E8001F21F4907140E80012002AF6D17D
:102BC0002068083050E8001F21F0010140E80012A1
:102BD000002AF5D1C4F88C60032084F88450BDE845
:102BE000F883C4F88860C4F88C60E5662567002027
:102BF00084F88450F3E7000010B5026852E8001F23
:102C000021F4907142E80013002BF6D10E4B0268BC
:102C1000083252E8001F194042E80014002CF6D197
:102C2000C16E012908D1026852E8001F21F010018D
:102C300042E80013002BF6D100212022C0F88C209E
:102C4000C166416710BD0000FEFFFFEF2DE9F043B4
:102C500004468068E24E87B0E24B2168D4E904273D
:102C6000D4F81CC010430A68002547EA0C07384313
:102C7000324002430A602068E268416821F4405112
:102C8000114341602268A1699A4201D0206A014340
:102C90009668DFF854C3D54FD54806EA0C060E43B4
:102CA00096602168666ACA6A22F00F023243CA62DD
:102CB0002268BA420ED1006800F0380018286FD0A0
:102CC0007ADCB8B308286CD010286BD18BE02828A8
:102CD00068D18EE0C7498A4209D1006800F0070038
:102CE00006285FD2DFE800F0507D7F818385C249EE
:102CF0008A4209D1006800F0070006287BD2DFE88D
:102D000000F0437072747678BC498A4209D1006839
:102D100000F0070006286ED2DFE800F03663656732
:102D2000696BB7498A420BD1006800F0070006289A
:102D300061D200E043E0DFE800F0275456585A5CC7
:102D4000B0498A4206D1006800F0380018284CD0FB
:102D5000B7DD31E0AC498A4209D1006800F00700D4
:102D6000062848D2DFE800F0103D3F414345A7491F
:102D70008A420BD1006800F0070006283BD2DFE84A
:102D800000F0033032343638002035E0A0498A4262
:102D900009D1006800F03800182826D091DD0BE03A
:102DA00023E01EE027E09B498A420AD1006800F038
:102DB0003800182819D084DD202888D11CE0012093
:102DC0001AE09A4217D18A48001D006800F00700F7
:102DD000062810D2DFE800F0030507090B0D0220DA
:102DE0000AE0042008E0082006E0102004E020208B
:102DF00002E0402000E080208749DFF820829A42EC
:102E0000874A4FF400434FEA21174FF000064ED196
:102E100010281AD006DC022809D004280BD0082874
:102E20007ED10DE020283ED0402879D13DE0FDF74D
:102E300075FD014610E06846FDF782FD01990BE043
:102E400003A8FDF71FFE049906E01068800605D56B
:102E50001068C0F3C100C140002970D0606A676883
:102E600038F8102007EB4703B1FBF2F0834257D844
:102E7000B0EB073F54D8002308461946FDF792FAF5
:102E800002467808130E120243EA012110183A464E
:102E900071410023FDF786FA624AA0F54071914224
:102EA0003ED821688FE03946D8E71946D6E7D4F8EE
:102EB0001CC04FF6EF799C4546D1082819D005DC97
:102EC00058B101280CD0042875D10DE0102815D078
:102ED000202835D040286ED134E0FEF799FC01E07F
:102EE000FEF7A8FC014610E06846FDF729FD0199B0
:102EF0000BE003A8FDF7C6FD049906E01068800604
:102F000004D51068C0F3C100C140C1B1636A6068F4
:102F100038F81330B1FBF3F1490001EB500100E048
:102F200049E0B1FBF0F0A0F11001494543D84FF65C
:102F3000F0732168C0F342021840104343E043E0BD
:102F40003946E3E71946E1E7082819D005DC58B10E
:102F500001280CD004282ED10DE0102815D02028EF
:102F60002BD0402827D12AE0FEF752FC01E0FEF7E3
:102F700061FC014610E06846FDF7E2FC01990BE0B8
:102F800003A8FDF77FFD049906E01068800604D5CC
:102F90001068C0F3C100C140B1B1636A606838F81D
:102FA0001330B1FBF3F101EB5001B1FBF0F0A0F1F4
:102FB0001001494505D9012506E03946EDE71946D6
:102FC000EBE7216880B2C8600120A4F86A00A4F889
:102FD000680028466667A66707B0BDE8F083000072
:102FE000F369FFCF000C0058FFF4FF1100100140FF
:102FF000544402580044004000480040004C004047
:10300000005000400014014000780040007C004067
:1030100000180140001C01400090D003483C00080B
:1030200000440258FFFC0F002DE9F047994617466F
:103030000D460446089E4FF0000833E0701C31D066
:10304000FDF756FBA0EB0900B04218D8BEB12068CE
:103050000168490726D5802D24D0402D22D0C16992
:10306000C94309070DD4082505622046FFF7C4FDB2
:10307000C4F89050012084F88480BDE8F0870320D4
:10308000FBE7C069C04300050CD421684FF4006021
:1030900008622046FFF7B0FD2021C4F8901084F8A4
:1030A0008480ECE72068C06935EA000004D0002085
:1030B000B842C3D00020E0E70120F9E7FEE70000B6
:1030C000014A024900F024B835310008800000248C
:1030D000090700284FEA116104DB00F1E02080F8C5
:1030E0000014704700F00F0000F1E02080F8141D7C
:1030F000704702E008C8121F08C1002AFAD17047C1
:103100007047002001E001C1121F002AFBD1704767
:103110002DE9F04116460F460446002503E03946E6
:10312000B047641C6D1C20780028F8D12846BDE803
:10313000F0810000034A03490C3910600A68520606
:10314000FCD5704728480040FDF7E0FAFFF756FB32
:10315000FFF718F9FFF7D2F9FFF704FAFFF7FEF8C7
:1031600000F00FF8FEE7842801464FF0000000D081
:10317000C81C704710B500B9012000F02BFB0020DF
:1031800010BD10B500F04CFB002010BD7FB50D4602
:1031900041690446B0F9080081B1A16971B1FFF736
:1031A000E2FFD4E905122B468DE807002269D4E935
:1031B000001000F048FC039004B070BDFFF7D3FF8F
:1031C00003A92B46CDE90001228AD4E9001092B26E
:1031D00000F00CFC012801D00020EDE70398EBE79C
:1031E0002DE9F041184C0F460546E6682068001DA1
:1031F00000F026FA38B922680121206992F82C20C3
:10320000914088432061681C07D137B12168BDE82F
:10321000F0410E48091D00F059BA20683544B54206
:103220004560216805D2A06B091DBDE8F04100F0A2
:1032300035BA606B091D00F031FAA06A854200D2F0
:10324000A562BDE8F0810000180000249404002469
:103250002DE9F041054600F045FA2E4C2E4FA068AE
:10326000401CA060206810B1606940B32DE025606B
:10327000A068012829D1002606EB860007EB800014
:1032800000F0FEF9761C072EF6D323488C3000F0B0
:10329000F7F92148A03000F0F3F91F48B43000F0EE
:1032A000EFF91D48C83000F0EBF91B48DC3000F0A6
:1032B000E7F919488C3060631430A06305E0E86AD0
:1032C0002168C96A814200D825600120616A491CD1
:1032D0006162E96A226988401043206101EB810044
:1032E000291D07EB800000F0F1F900F01BFA60697E
:1032F00000280CD02068E96AC06A884207D20749D2
:103300004FF080500860BFF34F8FBFF36F8FBDE861
:10331000F081000018000024B803002404ED00E050
:1033200010B5044690F8510058B101280CD002287D
:103330000FD0502080F31188BFF34F8FBFF36F8FF2
:10334000FEE7206B00F002FA2046BDE8104000F0D6
:10335000FDB910BD11484FF4705110B5420706D0A9
:103360000E49C01D20F00700411AC1F570510C4CE8
:10337000002301440839A4F1180221F00701C4E92F
:1033800000030C1A11604B600B60C0E900149460DC
:103390004FF000415460516110BD0000A8040024AA
:1033A0006C000024144E4FF08058144CDFF85090FD
:1033B000A6F1C80712E000BF00F094F9F068C568F4
:1033C000281D00F03DF9A068401EA0606068401E06
:1033D000606000F0A7F92846FFF7A2FF60680028A8
:1033E000EAD138680128F9D9C9F80080BFF34F8FB6
:1033F000BFF36F8FF2E70000800400241800002460
:1034000004ED00E02DE9F0479A4681466FF0030392
:10341000DDE9098403EB8202089E206B104420F052
:103420000707780707D0502080F31188BFF34F8F2C
:10343000BFF36F8FFEE74FF0000561B10020231846
:103440000A5C83F834200A5C12B1401C1028F6D3C1
:1034500084F8435001E084F83450072E00D3062648
:10346000E662201DC4E9116500F015F904F11800A9
:1034700000F011F9E564C6F10700A06184F850502E
:103480005246246149463846646200F0C1F8B8F1FA
:10349000000F206001D0C8F80040BDE8F0870000B0
:1034A00030B5114900E011460A688242FBD34B68EF
:1034B0005C18844203D14468084623444B60436847
:1034C0001D18954209D1084C183C2468A24209D025
:1034D00052681A4442600A6812680260814200D051
:1034E000086030BD0460F9E76C0000240648416BB9
:1034F000096829B1416BC968C96849688162704728
:103500004FF0FF31FAE70000180000240848406837
:10351000401C4FF0500080F3118804D0BFF34F8F50
:10352000BFF36F8FFEE7BFF34F8FBFF36F8FFEE7E1
:10353000740000242DE9F0410027044600F0A6F9AC
:10354000324E306808B9FFF705FF706904424ED16A
:10355000C4B3083460070ED004F00700C0F10800BF
:103560000444600707D0502080F31188BFF34F8FC9
:10357000BFF36F8FFEE72CB37068844237D82348BF
:10358000183001460D6801E028460D466968A142E1
:1035900002D229680029F7D131688D4227D0076807
:1035A0002968016008376868011B10290FD928199C
:1035B000420708D0502080F31188BFF34F8FBFF32C
:1035C0006F8FFEE713E041606C60FFF769FF696889
:1035D0007068401A7060B268904200D2B0600020FB
:1035E00072691143C5E90001F068401CF06000F009
:1035F000BBFA780707D0502080F31188BFF34F8FB4
:10360000BFF36F8FFEE73846BDE8F0815400002419
:1036100070B5041F094E231F4FF0807521F0010182
:1036200025601C1F1960A0F120010B1F2660443883
:103630000A606FF002051D6070BD00000D350008C6
:10364000D0E9013201699A60D0E901235A604A68E1
:10365000824201D182684A60002202610868401EED
:10366000086008687047000010B5044C80230460AF
:1036700004F154000860136010BD000084000024B1
:103680004FF0FF3300F108010022C0E9011302608E
:10369000C1600161704700210161704730B50B685E
:1036A0005A1C02D000F1080202E0026904E022463E
:1036B000546825689D42FAD953684B6099608A60C6
:1036C000516008610168491C016030BD42684A6070
:1036D00093688B6093685960916008610168491C28
:1036E00001607047502080F31188BFF34F8FBFF304
:1036F0006F8F0A494868401C486001280CD108486F
:10370000006810F0FF0F07D0502080F31188BFF33E
:103710004F8FBFF36F8FFEE77047000074000024E7
:1037200004ED00E00849486828B1401E486001D116
:1037300080F311887047502080F31188BFF34F8FBA
:10374000BFF36F8FFEE700007400002470B50028FF
:103750002AD0164DA0F1080461686869014207D1BA
:10376000502080F31188BFF34F8FBFF36F8FFEE7B8
:1037700022683AB1502080F31188BFF34F8FBFF316
:103780006F8FFEE78143616000F080F860686968D0
:10379000084468602046FFF783FE2869401C2861C2
:1037A000BDE8704000F0E0B970BD00005400002496
:1037B0004FF0E020002101614FF47A72816107230C
:1037C00003490968B1FBF2F1491E41610361704789
:1037D00010000024020010B514D00F48006B38B15F
:1037E000502080F31188BFF34F8FBFF36F8FFEE738
:1037F00000F04CF800211046FFF7F2FC00F0B4F99D
:10380000002807D105494FF080500860BFF34F8F63
:10381000BFF36F8F10BD00001800002404ED00E01E
:1038200010B586B0002405AA04A9039403A8049443
:10383000FFF71AFFDDE9030100940023CDE9011031
:1038400010480EA1059A00F0FEF80F490028C86242
:1038500011D0502080F31188BFF34F8FBFF36F8FCB
:1038600001224FF0FF3088624A61CC6006B0BDE8AB
:10387000104000F041B806B010BD000049444C456E
:1038800000000000A5330008180000240248016B66
:10389000491C016370470000180000241448016BA4
:1038A00011B10121C16170470021C1611149026953
:1038B000B2FA82F2C2F11F0202EB820251F8223008
:1038C0006BB101EB820101F108034A6852684A605A
:1038D0009A4201D152684A60D16801607047502015
:1038E00080F31188BFF34F8FBFF36F8FFEE70000A7
:1038F00018000024B803002437481CB53749026873
:103900008A4207D1502080F31188BFF34F8FBFF355
:103910006F8FFEE731490068491E884207D1502069
:1039200080F31188BFF34F8FBFF36F8FFEE72C49F1
:10393000FF200A780192087008788DF800009DF841
:1039400000209DF8000002F0F002824207D05020D3
:1039500080F31188BFF34F8FBFF36F8FFEE79DF8A1
:10396000002007201F4C02F050022270A06005E0EA
:103970009DF8002052008DF80020401E9DF8002088
:103980001206F5D40328A06007D0502080F31188D8
:10399000BFF34F8FBFF36F8FFEE74FF44070A0600F
:1039A000019808700C482030016841F470010160F2
:1039B000016841F070410160FFF7FAFE002060608D
:1039C000FCF7A2FC0848016841F040410160FCF7A7
:1039D00087FC00201CBD000000ED00E071C20F411B
:1039E00000E400E07400002434EF00E02DE9FF5F04
:1039F000994616468A4683469000DDE90E87FFF712
:103A000099FD05001CD05420FFF794FD040014D04C
:103A10000020256384F851004B46CDE90087CDE9AD
:103A20000240324651465846FFF7ECFC2046FFF76D
:103A30000FFC012004B0BDE8F09F2846FFF786FE8A
:103A40004FF0FF30F6E7F0B585B0DDE90B740A9D65
:103A5000A7B1DCB154262763022684F85160002701
:103A600003970DF1100C0095CDE901C4FFF7CAFCD6
:103A70002046FFF7EDFB049805B0F0BD502080F321
:103A80001188BFF34F8FBFF36F8FFEE7502080F395
:103A90001188BFF34F8FBFF36F8FFEE72DE9F04121
:103AA0002F4C206B002728B1A069401CA06138462C
:103AB000BDE8F081E668761CE66013D1606B0068B3
:103AC00038B1502080F31188BFF34F8FBFF36F8F51
:103AD000FEE7606BA16B6163A063206A401C2062FB
:103AE000FFF704FDDFF87C80A06A864209D3606B93
:103AF0000068A0B1606BC068C5686868864211D272
:103B0000A0622068C06A00EB800158F821000128FB
:103B100000D90127E0690028C9D00127C7E74FF085
:103B2000FF30EDE7281DFFF78BFDA86A18B105F1FE
:103B30001800FFF785FDE96A0120226988401043DB
:103B4000206101EB810108EB8100291DFFF7BEFD1B
:103B50002068E96AC06A8142C9D30127C7E700002B
:103B600018000024B80300242DE9F0472C4D286BE1
:103B70000024264638B1FFF7B5FD286B401E2863A8
:103B8000286B40B147E0502080F31188BFF34F8F7E
:103B9000BFF36F8FFEE7234F0120A968D9B3A7F1C8
:103BA000B40980463868E8B1F868C46804F11800C0
:103BB000FFF746FD201DFFF743FDE16A2A6908FA79
:103BC00001F01043286101EB810109EB8100211D07
:103BD000FFF77CFD2968E06AC96A8842E2D3C5F82C
:103BE0001C80DFE70CB1FFF781FCAC6944B14746AC
:103BF000FFF754FF00B1EF61641EF9D10020A86106
:103C0000E86940B1084901264FF080500860BFF3D1
:103C10004F8FBFF36F8FFFF785FD3046BDE8F0870C
:103C2000180000246C04002404ED00E0803C00082F
:103C3000AD27000800000000000000008000000028
:103C40000000000000000000010002000400060067
:103C500008000A000C001000200040008000000155
:103C60000101010307010000080402040801010129
:103C70000000000001020304010203040607080912
:103C800048656C6C6F5F576F726C6400AC3C0008E9
:103C90000000002484000000F2300008303D0008DD
:103CA00084000024244400000231000800000000C9
:103CB0000100000010000000000000000090D00390
:103CC0000090D00300000000000000000000000091
:103CD00000000000000000000000000000000000E4
:103CE00000000000000000000000000000000000D4
:103CF00000000000000000000000000000000000C4
:103D000000000000000000000000000000000000B3
:103D100000000000000000000000000000000000A3
:103D200000000000AAAAAAAA0000000000000000EB
:04000005080002AD40
:00000001FF
