:020000040800F2
:10000000D0040024C1020008E7210008592000089C
:10001000E5210008D5030008312C0008000000008D
:100020000000000000000000000000002D24000877
:10003000D703000800000000E92100082F24000871
:10004000DF020008DF020008DF020008DF0200080C
:10005000DF020008DF020008DF020008DF020008FC
:10006000DF020008DF020008DF020008DF020008EC
:10007000DF020008DF020008DF020008DF020008DC
:10008000DF020008DF020008DF020008DF020008CC
:10009000DF020008DF020008DF020008DF020008BC
:1000A000DF020008DF020008DF020008DF020008AC
:1000B000DF020008DF020008DF020008DF0200089C
:1000C000DF020008DF020008DF020008DF0200088C
:1000D000DF020008DF020008DF020008DF0200087C
:1000E000DF020008DF020008DF020008DF0200086C
:1000F000DF020008DF020008DF020008DF0200085C
:10010000DF020008DF020008DF020008DF0200084B
:10011000DF020008DF020008DF020008DF0200083B
:10012000DF020008DF020008DF020008DF0200082B
:10013000DF0200080000000000000000DF020008ED
:10014000DF020008DF020008DF020008DF0200080B
:10015000DF020008DF020008DF020008DF020008FB
:10016000DF020008DF020008DF020008DF020008EB
:10017000DF020008DF020008DF02000800000000C4
:10018000DF020008DF020008DF020008DF020008CB
:10019000DF020008DF020008DF020008DF020008BB
:1001A000DF020008DF020008DF020008DF020008AB
:1001B000DF020008DF020008DF020008DF0200089B
:1001C000DF020008DF02000800000000000000005D
:1001D0000000000000000000DF0200080000000036
:1001E000000000000000000000000000000000000F
:1001F0000000000000000000DF020008DF0200082D
:10020000DF020008DF02000800000000DF02000833
:10021000DF020008DF020008DF020008DF0200083A
:10022000DF020008DF020008DF0200080000000013
:10023000DF020008DF02000800000000DF02000803
:10024000DF020008DF020008DF020008DF0200080A
:10025000DF020008DF020008DF020008DF020008FA
:10026000DF020008DF020008DF020008DF020008EA
:10027000DF020008DF020008DF02000800000000C3
:10028000DF020008DF02000800000000DF020008B3
:1002900000000000DF020008DF020008000000008C
:1002A00000000000DF020008DF020008DFF80CD0C9
:1002B00000F07EF800480047B52E0008D004002466
:1002C000074880470748804707480047FEE7FEE7A2
:1002D000FEE7FEE7FEE7FEE7FEE7FEE7FEE7FEE7F6
:1002E000DD030008D9240008AD0200082DE9F05F05
:1002F0000546002092469B46884606468146402495
:100300001BE0284641464746224600F041F8534646
:100310005A46C01A914110D311461846224600F0A1
:1003200028F82D1A67EB01084F46224601200021CC
:1003300000F01FF817EB00094E41201EA4F1010444
:10034000DFDC484631462A464346BDE8F09FD2B23C
:1003500001E000F8012B491EFBD270470022F6E7AE
:1003600010B513460A4604461946FFF7F0FF20462B
:1003700010BD202A04DB203A00FA02F10020704769
:100380009140C2F1200320FA03F3194390407047D3
:10039000202A04DB203A21FA02F00021704721FADA
:1003A00002F3D040C2F12002914008431946704741
:1003B000064C074D06E0E06840F0010394E80700B2
:1003C00098471034AC42F6D3FFF774FFC02F0008F3
:1003D000E02F0008FEE7704772B6FEE705480549C2
:1003E0000839026822F00202026008688004FCD525
:1003F000704700000C48025870B5044600F02AF916
:100400000546601C02D004480078044400F022F93C
:10041000401BA042FAD370BD040000242DE9F84F20
:1004200003247D4D00234FF001094FF0B04B4FF0F6
:100430000F0AE9E009FA03F73A4076D00E7906F0A0
:100440000306012E01D0022E18D1D0F808C04FEAC1
:10045000430ECE6804FA0EF82CEA080C06FA0EF6E3
:1004600046EA0C068660D0F804C00E792CEA070C28
:10047000C6F300169E4046EA0C0646600E79F64327
:10048000B6070BD0C6684FEA43088F6804FA08FC29
:1004900026EA0C0607FA08F73743C7600E7906F01C
:1004A0000306022E12D1DE080F694FEA437C00EBEF
:1004B0008606B646366A4FEADC6C0AFA0CF807FA8A
:1004C0000CF726EA08063743CEF820700F79066845
:1004D0004FEA430807F0030704FA08FC07FA08F795
:1004E00026EA0C06374307604E6816F4403F1CD0DE
:1004F0004A4E376847F00207376036689F0706F0B4
:100500000206009623F0030606F1B046B6463F0FFA
:10051000D6F80864DFF808810AFA07FC404526EAA5
:100520000C0603D14FF0000C41E06CE0DFF8F4C0A2
:10053000604502D14FF0010C39E0DFF8ECC06045B6
:1005400002D14FF0020C32E0DFF8E0C0604502D18A
:100550004FF0030C2BE0DFF8D8C0604502D14FF01C
:10056000040C24E0DFF8CCC0604502D14FF0050C4C
:100570001DE0DFF8C4C0604502D14FF0060C16E064
:10058000DFF8B8C0604502D14FF0070C0FE0DFF88C
:10059000B0C0604502D14FF0080C08E0DFF8A4C0FD
:1005A000604502D14FF0090C01E04FF00A0C0CFA43
:1005B00007FC4CEA060CCEF808C44F68DBF8006074
:1005C000FF0226EA020600D516435F46CBF800601C
:1005D000D1F804C0DBF804605FEA8C2C26EA02063E
:1005E00000D516437E606E684F6826EA0206BF0398
:1005F00000D516436E602E684F6826EA0206FF0398
:1006000000D516432E605B1C0A6832FA03F67FF4AD
:1006100011AFBDE8F88F0000800000585445025823
:10062000000002580004025800080258000C02584A
:10063000001002580014025800180258001C0258FA
:1006400000200258002402580AB181617047090451
:10065000FBE70000014880687047000004000024A8
:1006600002488168027811448160704704000024C8
:10067000032010B500F0C6F801F088F80F4A1049C1
:1006800014681368C4F3032203F00F038A5CC95C87
:1006900002F01F0201F01F01D0400A4A20FA01F1C6
:1006A000116009490860002000F010F808B101202D
:1006B00010BD00F079F8002010BD00001844025869
:1006C000A82F0008140000241000002470B50D4D60
:1006D00004462878A0B14FF47A71B1FBF0F00A49D2
:1006E0000968B1FBF0F001F0BEFB48B9102C07D24D
:1006F00000222146501E00F065F800206C6070BD9D
:10070000012070BD0400002410000024154BF0B53A
:10071000083B427813491A600B680A1F23F0010353
:100720000B6043681360057BC67A827A437B2D0792
:10073000847B45EA0665C77B90F809C0067A90F885
:1007400000E045EAC24040EA834040EA444040EAD3
:10075000074040EA0C2040EA460040EA0E000860EC
:10076000F0BD0000A0ED00E0BFF35F8F0448002162
:100770000368034A23F480330360703211607047CA
:1007800024ED00E0074A40F0010006497032106095
:10079000086840F480300860BFF34F8FBFF36F8F5D
:1007A0007047000024ED00E0054808B5016841F0FD
:1007B00002010160006800F00200009008BD000026
:1007C000544502580E4BF0B41B680D46C3F3022388
:1007D000C3F10706042E00D90426191D072901D2EA
:1007E000002300E0DB1E012404FA06F19C40491EB0
:1007F0002940641E994014402143F0BC02F022BA03
:100800000CED00E0064900F0070210B54FF6FF04BA
:100810000868044B204040EA02201843086010BDDD
:100820000CED00E00000FA052DE9F0411E4C0546F4
:10083000206800F007000628206804D000F03F0080
:10084000A84228D12EE020F03F0028432060FFF787
:1008500001FF154F4FF47A780646083F05E000BFC8
:10086000FFF7F8FE801B404515D83868C043800468
:10087000F6D41E2D05D02E2D03D01D2D01D02D2DEB
:1008800010D1FFF7E7FE0546464607E0FFF7E2FE18
:10089000401BB04202D90120BDE8F0812068C0436E
:1008A000C003F3D40020F7E70C48025810B500F05D
:1008B00027FF05490968054AC1F30211515C01F09F
:1008C0001F01C84010BD000020440258A82F000896
:1008D000494930B5484C0B1D0A68143409681D6835
:1008E000246802F00303C5F30012C1F30531C4F319
:1008F000CC04002914FB02F200EE102AF8EE400AA4
:1009000075D03F4A9FED3D1AB7EE000A6BB1DFED9F
:100910003D1A012B01D0022B64D002EE101A11688F
:10092000F8EE422A81EEA22A21E0334C283C2368CB
:100930009B0612D5344B246801EE901A1168C4F35B
:10094000C104F8EE612AE34001EE903AC1F30801D8
:10095000F8EE611A81EEA22A0BE001EE901ADFEDAB
:100960002B2A00BFF8EE611A116882EEA12AC1F3AA
:10097000080101EE901A1168F8EE611A40EE811A32
:1009800071EE800A62EE200AC1F3462101EE101AD0
:10099000B8EE411A31EE001AC0EE811ABCEEE11A2F
:1009A00080ED001A1168C1F3064101EE101AB8EE8D
:1009B000411A31EE001AC0EE811ABCEEE11A80ED48
:1009C000011A1168C1F3066101EE101AB8EE411A5E
:1009D00031EE000A80EE801ABCEEC10A80ED020AF8
:1009E00030BD04E001EE901ADFED092ABAE70021DC
:1009F000016041608160F3E728440258000000393B
:100A0000384402580024744A0090D0030024744CE7
:100A10000024F44A494930B5484C0B1D0A681C347F
:100A200009681D68246802F00303C5F30022C1F3BE
:100A30000551C4F3CC04002914FB02F200EE102A85
:100A4000F8EE400A75D03F4A9FED3D1AB7EE000A16
:100A50006BB1DFED3D1A012B01D0022B64D002EE09
:100A6000101A1168F8EE422A81EEA22A21E0334CD6
:100A7000283C23689B0612D5344B246801EE901A5B
:100A80001168C4F3C104F8EE612AE34001EE903A24
:100A9000C1F30801F8EE611A81EEA22A0BE001EE23
:100AA000901ADFED2B2A00BFF8EE611A116882EE72
:100AB000A12AC1F3080101EE901A1168F8EE611A3B
:100AC00040EE811A71EE800A62EE200AC1F34621DF
:100AD00001EE101AB8EE411A31EE001AC0EE811A7A
:100AE000BCEEE11A80ED001A1168C1F3064101EE77
:100AF000101AB8EE411A31EE001AC0EE811ABCEE9F
:100B0000E11A80ED011A1168C1F3066101EE101AB5
:100B1000B8EE411A31EE000A80EE801ABCEEC10A2E
:100B200080ED020A30BD04E001EE901ADFED092AE3
:100B3000BAE70021016041608160F3E72844025870
:100B400000000039404402580024744A0090D00349
:100B50000024744C0024F44A2DE9FE4F0546DFF8CA
:100B6000F88350F8081B0024FB4FC943019005F19E
:100B70002800264608F12408009008011DD4E86EDC
:100B800050B1B0F5801F0CD0B0F5001F0ED0B0F5FD
:100B9000401F1ED001240FE0386840F40030386058
:100BA00017E00198022101F021FB03E000980221E7
:100BB00001F0ACFB04000CD026462888C043C005D9
:100BC00023D4A86D05281ED2DFE800F00C11161BF7
:100BD0001B00EA6ED8F8001021F440111143C8F848
:100BE0000010EAE7386840F40030386009E0019806
:100BF000002101F0FBFA03E00098002101F086FBE0
:100C0000044684B100E0012426462888C0438005BC
:100C10002BD4E86DC02826D00EDCA8B1402818D00F
:100C200080280FD11AE0AA6DD8F8001021F0070132
:100C30001143C8F80010E8E7B0F5807F13D0B0F595
:100C4000A07F10D001240FE0386840F400303860F5
:100C500009E00198002101F0C9FA03E000980021A1
:100C600001F054FB04468CB126462888C043400559
:100C70002ED4286EB0F5C06F28D010DCB8B1B0F516
:100C8000007F19D0B0F5806F0FD11AE0EA6DD8F867
:100C9000001021F4E0711143C8F80010E5E7B0F549
:100CA000006F13D0B0F5206F10D001240FE038682A
:100CB00040F40030386009E00198002101F096FA14
:100CC00003E00098002101F021FB044694B1264680
:100CD0002868DFF884B2C0430BF1200B80011ED4DA
:100CE000E86CD0B110280ED0202811D0302814D0B4
:100CF000012413E02A6ED8F8001021F4606111433A
:100D0000C8F80010E4E7386840F40030386004E0C8
:100D10000198022101F06AFA044674B12646288837
:100D2000C043C0042BD4686EB0F5005F20D00DDC4A
:100D3000A0B1B0F5805F0FD115E0EA6CDBF80010D0
:100D400021F030011143CBF80010E8E7B0F5405F27
:100D500013D0B0F5804F10D001240FE0386840F474
:100D60000030386009E00198002101F03FFA03E00B
:100D70000098002101F0CAFA04468CB12646288862
:100D8000C043800429D4A86EB0F5403F23D010DCC6
:100D900008B3B0F5803F14D0B0F5003F0FD115E097
:100DA0006A6ED8F8001021F4E0411143C8F8001031
:100DB000E5E7B0F5802F0ED0B0F5A02F0BD00124C1
:100DC0000AE00198012101F011FA03E000980121E5
:100DD00001F09CFA044674B126462888DFF878A111
:100DE000C0430AF12C0A400425D4D5F8B00030F0F5
:100DF000704109D01DE0AA6ED8F8001021F4E0215E
:100E00001143C8F80010E8E70017072811D2DFE8FF
:100E100000F00E04090E0E0E0E000198012101F0E3
:100E2000E5F903E00098012101F070FA044684B16D
:100E300000E0012426462888C04300041FD4A86F80
:100E4000D8B1B0F1805F0ED0B0F1005F10D00124B6
:100E500014E0D5F8B020DAF8001021F0E041114399
:100E6000CAF80010E7E7386840F40030386004E062
:100E70000198012101F0BAF9044674B126462868A8
:100E8000C043C0011ED4A86CD0B101280ED00228E6
:100E900011D0032814D0012413E0AA6FD8F8001051
:100EA00021F040511143C8F80010E8E7386840F4D9
:100EB0000030386004E00198022101F097F90446FF
:100EC0006CB126462868C043400255D423480168C7
:100ED00041F480710160FFF7BDFB81460EE0AA6C12
:100EE000DBF8001021F003011143CBF80010E9E713
:100EF000FFF7B0FBA0EB090064283BD81748006857
:100F0000C005F5D564BBDFF85090B5F8B41009F111
:100F10004409D9F8000001F4407100F4407088429F
:100F200011D0D9F80010D9F8002021F4407142F412
:100F30008032C9F80020D9F8002022F48032C9F8A4
:100F40000020C9F80010D5F8B400B0F5807F1ED19C
:100F5000FFF780FB029016E02C440258004802582C
:100F600009E000BFFFF776FB0299411A41F2883091
:100F7000814208D9032426462878DFF81494C04318
:100F8000C00721D03DE0D9F800008007EAD5D5F8A8
:100F9000B410C1F301200328FE480DD0016821F4EC
:100FA0007C510160B5F8B420D9F80010C2F30B02EF
:100FB0001143C9F80010DFE7F74A036802EA11128B
:100FC00023F47C511143ECE7D5F88400182816D09F
:100FD00005DCA0B1082808D0102804D10AE0202898
:100FE0000DD028280BD001240AE00198012101F03E
:100FF000FDF803E00098012101F088F904466CB186
:1010000026462878C043800720D4D5F880000628DB
:101010001AD2DFE800F0170D12171717D5F8842041
:10102000D9F8001021F038011143C9F80010E8E7A1
:101030000198012101F0DAF803E00098012101F0A4
:1010400065F904467CB100E0012426462878C043B7
:10105000400720D4D5F89C0006281AD2DFE800F01B
:10106000170D12171717D5F88020D9F8001021F0A6
:1010700007011143C9F80010E8E70198012101F0C8
:10108000B5F803E00098012101F040F90446A4B14D
:1010900000E0012426462878C04380062BD4D5F8EA
:1010A0009800B0F1405F24D011DC10B3B0F1805F44
:1010B00015D0B0F1005F10D116E0D5F89C20DAF819
:1010C000001021F007011143CAF80010E3E7B0F166
:1010D000804F0ED0B0F1A04F0BD001240AE0019850
:1010E000002101F083F803E00098022101F00EF9DD
:1010F000044694B126462878C04340062BD4D5F840
:10110000A400B0F5406F24D011DC10B3B0F5806FAF
:1011100015D0B0F5006F10D116E0D5F89820D9F8A9
:10112000001021F0E0411143C9F80010E3E7B0F5E9
:10113000805F0ED0B0F5A05F0BD001240AE00198CB
:10114000002101F053F803E00098022101F0DEF8DD
:10115000044694B126462878C04300062BD4D5F81F
:10116000A800B0F5C04F24D011DC10B3B0F5005F7B
:1011700015D0B0F5804F10D116E0D5F8A420DAF8DC
:10118000001021F4E0511143CAF80010E3E7B0F574
:10119000004F0ED0B0F5204F0BD001240AE001988B
:1011A000002101F023F803E00098022101F0AEF8DD
:1011B000044654B126462878C04300071ED4D5F80B
:1011C0008C00B0F5805F0AD00FE0D5F8A820DAF8DF
:1011D000001021F460411143CAF80010EBE70098B9
:1011E000022101F093F800B10126D5F88C20D9F83E
:1011F000001021F440511143C9F800102878C04371
:10120000C00613D4D5F8A000B0F5807F05D10098B2
:10121000022101F07BF800B10126D5F8A020DAF810
:10122000001021F440711143CAF800102868C0432F
:10123000000316D4D5F8AC0038B1B0F5803F09D022
:10124000B0F5003F0BD001240AE00198002100F026
:10125000CDFF03E00098022101F058F804468CB15C
:1012600026462868C043400322D4D5F89000B0F544
:10127000801F11D0B0F5001F13D0B0F5401F15D05E
:10128000012414E0D5F8AC20DAF8001021F4403144
:101290001143CAF80010E4E7386840F400303860C1
:1012A00004E00098012101F031F804465CB12646C3
:1012B0002868C043C0031CD4286D70B1B0F5803FCE
:1012C00010D0012414E0D5F89020D9F8001021F4B2
:1012D00040111143C9F80010EAE7386840F40030C3
:1012E000386004E00198022100F080FF0446E4B178
:1012F00026462868C043800005D40098022101F0EA
:1013000005F800B101262868C04380031CD4D5F835
:101310008800B8B1B0F5807F10D0B0F5007F11D053
:10132000B0F5407F0ED001240DE02A6DDBF80010EF
:1013300021F480311143CBF80010DAE7386840F42B
:10134000003038601CB326462868C043C00207D46A
:10135000EA6FD8F8001021F000411143C8F80010DE
:101360002868C043800207D42A6FD8F8001021F003
:1013700080711143C8F800102888C04300050FD4BD
:101380006A6FDAF8001021F00061114306E035E0E1
:101390005444025810440258CFFFFF00CAF800100E
:1013A0002868C043400009D43D48016821F4004149
:1013B00001600168D5F8B820114301602868C04376
:1013C00007D46A6DDBF8001021F040511143CBF8CF
:1013D00000102868C043000208D4D5F89420D9F83A
:1013E000001021F440011143C9F8001028790024AD
:1013F000C04300F0010020430AD00FE0D5F8882058
:10140000D9F8001021F440711143C9F800109BE78E
:101410000198002100F0EAFE00B106462879C04399
:1014200000F00200204305D10198012100F0DEFE0A
:1014300000B106462879C04300F00400204305D1DE
:101440000198022100F0D2FE00B106462879C0437F
:1014500000F00800204305D10098002100F056FF5D
:1014600000B106462879C04300F01000204305D1A2
:101470000098012100F04AFF00B106462879C043D8
:1014800000F02000044304D10098022100F03EFF48
:1014900000B916B10120BDE8FE8F0020FBE7000077
:1014A000104402582DE9F05F04000F467ED0DFF8AB
:1014B0003882D8F8000000F00F00B8420CD2D8F8FB
:1014C000001021F00F013943C8F80010D8F80000CF
:1014D00000F00F00B84269D12078844D40070AD54A
:1014E0002069296801F07001884204D9296821F037
:1014F00070010143296020787C4E361D00070AD513
:101500006069316801F07001884204D9316821F0C6
:101510007001014331602078C0060AD5A0693168A6
:1015200001F4E061884204D9316821F4E0610143AB
:1015300031602078DFF8B4B180060BF1080B0CD5D0
:10154000E1695846DBF8002002F07002914204D9AC
:10155000026822F070020A430260207880070AD5F0
:10156000E068296801F00F01884204D9296821F058
:101570000F01014329602078C0073ED05B49A26873
:101580002868183920F470601043286060680228C9
:1015900018D0032819D00968012819D04907002953
:1015A0004ADADFF848A1AAF1080A00E044E0DAF8D4
:1015B000002022F007020243CAF80020FFF74AF891
:1015C000814612E009688903E9E709688901E6E7CD
:1015D000C905E4E7FFF73EF8A0EB090141F28830C6
:1015E000814202D90320BDE8F09F6168DAF800006B
:1015F00000F03800B0EBC10FECD1207880070AD59D
:10160000E068296801F00F01884204D2296821F0BE
:101610000F0101432960D8F80010404601F00F0186
:10162000B9420BD9016821F00F013943016000680C
:1016300000F00F00B84201D00120D4E72078400725
:101640000AD52069296801F07001884204D229680E
:1016500021F0700101432960207800070AD56069F4
:10166000316801F07001884204D2316821F07001C4
:10167000014331602078C0060AD5A069316801F4C1
:10168000E061884204D2316821F4E06101433160B5
:10169000207880060CD5E1695846DBF8002002F07E
:1016A0007002914204D2026822F070020A43026082
:1016B00000F06CF80E492A682B68C2F3032203F08D
:1016C0000F038A5CC95C02F01F0201F01F01D040C9
:1016D000084A20FA01F111600749086007480068CC
:1016E000BDE8F05FFEF7F2BF002000521844025838
:1016F000A82F000814000024100000240800002473
:1017000030B500F043F80B4A0B490C4B15681468D0
:10171000C5F3032204F00F048A5C095D02F01F0286
:1017200001F01F01D040064A20FA01F11960106053
:10173000084630BD18440258A82F000814000024A1
:101740001000002400B5FFF7DBFF05490968054AD2
:10175000C1F30211515C01F01F01C84000BD00003F
:101760001C440258A82F000800B5FFF7C9FF05491F
:101770000968054AC1F30221515C01F01F01C8400C
:1017800000BD00001C440258A82F0008454970B550
:1017900045480968434B103B11F0380208D001114D
:1017A000082A03D0102A0BD0182A0BD0084670BD87
:1017B00019688906FBD51968C1F3C101C84070BD1D
:1017C0003A4870BD3749374D18310C1D24350A6829
:1017D000096826682D6802F0030406F00102C1F3CF
:1017E0000511C5F3CC0515FB02F200EE102AB8EE88
:1017F000400AE9B32F4ADFED2E0AB7EE001A6CB1AA
:10180000DFED2D1A012C01D0022C43D002EE101A6C
:101810001068F8EE422A81EEA22A1EE01C68A40697
:1018200011D51B6801EE901A1168C3F3C103F8EEDD
:10183000612AD84001EE900AC1F30800F8EE611A5F
:1018400081EEA22A0BE001EE901ADFED1C2A00BF08
:10185000F8EE611A106882EEA12AC0F3080001EECA
:10186000900AF8EE611A40EE201A31EE810A00E08B
:1018700015E022EE000A1068C0F34620401C00EE7E
:10188000900AF8EE600A80EE201ABCEEC10A10EE53
:10189000100A70BD01EE901ADFED092AD8E700208A
:1018A00070BD0000104402580090D00300127A006E
:1018B00000000039304402580024744A0024744C5B
:1018C0000024F44A2DE9F05F04007DD0FB4F20781E
:1018D000FA4D1837DFF8E483103DC00766D0D8F81A
:1018E0000000396800F03800102822D0182803D1F1
:1018F00001F0030002281CD06068B0F5803F1FD0C3
:1019000010B3B0F5A02F2BD0B0F5A81F28682FD0AA
:1019100020F480302860286820F48020286028681F
:1019200020F480102860606898B3FEF793FE0646A6
:101930002BE02868800339D560680028C5D035E0E1
:10194000286840F48030EDE7286820F48030286073
:10195000286820F480102860286820F48020E1E7BF
:10196000286840F480202860286820F4801005E072
:1019700040F480202860286840F480102860DFE769
:10198000FEF768FE801B64287ED828688003F7D5A0
:101990000CE0FFE7FEF75EFE064604E0FEF75AFEA7
:1019A000801B6428F0D828688003F7D4207880074B
:1019B00056D5D8F80000DFF80493396810F03800E5
:1019C000A9F10C0910D000E0F0E0182801D1880737
:1019D0000AD0E06898B3296821F019010143296011
:1019E000FEF738FE064626E02868400702D5E06884
:1019F0000028A3D0E168286820F019000843286077
:101A0000FEF728FE064604E0FEF724FE801B0228AF
:101A1000BAD828684007F7D5217CD9F8002022F0F1
:101A2000FE4242EA0161C9F8001019E0FEF712FE19
:101A3000801B0228A8D828684007F7D5ECE7FFE705
:101A4000286820F001002860FEF704FE064604E046
:101A5000FEF700FE801B022896D828684007F7D4BE
:101A60002078C00646D5D8F80000DFF850923968D3
:101A700000F03800A9F10409082812D0182805D16F
:101A800001F00300012800E0ECE00AD0E069002842
:101A9000286820D040F080002860FEF7DBFD064675
:101AA00015E02868C00502D5E06980287ED194F849
:101AB0002010D9F8002022F07C5242EA0161C9F8D6
:101AC000001017E0FEF7C6FD801B0228A0D828688A
:101AD000C005F7D5EBE720F080002860FEF7BAFDDF
:101AE000064604E0FEF7B6FD801B022890D8286861
:101AF000C005F7D42078000729D5704861696430A3
:101B000000298146016811D041F001010160FEF712
:101B1000A1FD064605E000BFFEF79CFD801B0228E4
:101B200088D8D9F800008007F6D510E021F001012F
:101B30000160FEF78FFD064605E000BFFEF78AFD57
:101B4000801B022888D8D9F800008007F6D42078B6
:101B5000800623D5A0690028286810D040F4805062
:101B60002860FEF777FD064605E000BFFEF772FD30
:101B7000801B022876D828688004F7D50EE020F470
:101B800080502860FEF766FD064604E0FEF762FD21
:101B9000801B022866D828688004F7D42078400784
:101BA0006FD5DFF81C91D9F8001000E035E141F461
:101BB0008071C9F80010FEF74DFD064605E000BF34
:101BC000FEF748FD801B64284CD8D9F80000C005FA
:101BD000F6D53A4EA0686036012818D0D8B105284D
:101BE00025D0852830682AD020F001003060306888
:101BF00020F004003060306820F080003060A06881
:101C000041F2883A78B3FEF725FD814626E0306838
:101C100040F00100F2E7306820F0010030603068E9
:101C200020F080003060306820F00400E6E7306883
:101C300040F004003060306820F0800005E040F0A3
:101C400004003060306840F080003060DFE700BFA3
:101C5000FEF700FDA0EB0901514503D8306880076D
:101C6000F6D50EE088E0FFE7FEF7F4FC814605E0DC
:101C7000FEF7F0FCA0EB090151457DD830688007E4
:101C8000F6D4606AF0B34146DFF8308008F12008EE
:101C9000096808F10409A8F1040A4FF6F87BC1F3BA
:101CA000C201032969D00228286820F080702860CA
:101CB00008D0FEF7CFFC044684E000001044025830
:101CC00000480258FEF7C6FC064604E0FEF7C2FCD8
:101CD000801B022873D828688001F7D4E26A40F29A
:101CE000F331386854F8283F884340EA021018431B
:101CF0003860217B4FF4FE0C22894FF0FE47208A8A
:101D0000267D00E0ADE049024346521E401EA1F58B
:101D10000071C2F308088AB2761E0CEA004042EA5B
:101D200008020243504607EA06610A431A60DAF8DD
:101D3000002022F00102CAF80020D9F80020266A0B
:101D400022EA0B0242EAC602C9F80020DAF80010C3
:101D5000A26921F00C011143CAF800100168E26980
:101D600021F0020111430160016841F480310160FA
:101D7000016841F4003101E021E027E001600168E1
:101D800041F480210160016841F00101016028688F
:101D900040F080702860FEF75DFC044605E000BF5F
:101DA000FEF758FC001B022809D828688001F7D5E7
:101DB00057E000BFFEF74EFC001B022802D90320AB
:101DC000BDE8F09F28688001F4D44AE03968012812
:101DD000D8F8000021D0A26A01F0030393421CD17D
:101DE000E26AC1F305118A4217D1216BC0F30802E0
:101DF000491E8A4211D1616BC0F34622491E9142AD
:101E00000BD1A16BC0F30642491E914205D1E16B93
:101E1000C0F30660491E814201D00120D0E7A16CC9
:101E20004E46D9F80000C0F3CC00814219D0DAF850
:101E30000000554620F00100CAF80000FEF70AFC39
:101E40004FEA0007FEF706FCB842FBD0A26C3068F0
:101E500020EA0B0040EAC2003060286840F0010030
:101E600028600020ACE7401EB0F1807F10B501D3A0
:101E7000012010BD4FF0E02460610F21601700F0D9
:101E8000E1FE0020A0610721216110BD30B590F86E
:101E90008410012918D0012280F884202421C0F860
:101EA00088100022202401680B680D6823F000537D
:101EB00025F001050D60426601680B60C0F888409E
:101EC00080F88420104630BD022030BD70B5044635
:101ED00090F8840001281DD0012284F88420242059
:101EE000C4F8880020680568026822F001020260D8
:101EF0002068826822F060620A438260204600F017
:101F000059FB2268202100201560C4F8881084F84D
:101F1000840070BD022070BD70B5044690F8840046
:101F200001281DD0012284F884202420C4F88800D0
:101F300020680568026822F0010202602068826859
:101F400022F060420A438260204600F033FB2268A0
:101F5000202100201560C4F8881084F8840070BD2A
:101F6000022070BD10B5040003D0D4F8880010B171
:101F700007E0012010BD002084F88400204600F016
:101F800027F82420C4F888002068016821F00101A6
:101F90000160A06A10B1204600F02EFB204600F040
:101FA0000FFC0128E6D02068416821F4904141608F
:101FB0002068816821F02A0181602068016841F071
:101FC000010101602046BDE8104000F079BB00002F
:101FD00010B5B6B00446142130A8FEF7BFF9C021F1
:101FE0006846FEF7BBF91949206888422BD10020CA
:101FF000209002210446CDE900106846FEF7ACFDB2
:1020000008B1FEF7E9F91248016841F48021016046
:10201000006800F4802035900D480838016841F0D0
:1020200008010160006830AB022100F00800359023
:102030004FF44070072283E81300064830A9CDE929
:102040003342FEF7EBF936B010BD00000048004007
:1020500048450258000C0258FEE70000F0B5E0B910
:1020600000220F4BFF24114603EBC10653F83150F9
:102070002D69B7883D4000D00125B679AE4202D126
:10208000521C0C46D2B2491C11F0FF01ECD0012ABF
:1020900003D1844201D10120F0BD0020F0BD000039
:1020A000B82F00082DE9F04186B014216846FEF7EC
:1020B00055F92B48016841F004010160016801F005
:1020C00004010591016841F080010160016801F09F
:1020D00080010591016841F002010160016801F091
:1020E00002010591016841F008010160016801F0F9
:1020F00008010591016841F010010160006844F297
:102100000106184F002200F01000314605903846B5
:10211000FEF79AFADFF85080002202214046FEF7CF
:1021200093FA0024694670100294CDE900040F4828
:10213000FEF774F901250096CDE901546946384649
:102140000394FEF76BF902200090CDE90154694633
:1021500040460394FEF762F906B0BDE8F081000046
:102160004045025800040258001002580008025866
:1021700070B51B484FF4E134184B0C220021C0E924
:10218000003481604FF48054C1603023C0E90412F0
:1021900081616500C1610162C0E90913C0E90F45B1
:1021A000FFF7E0FE08B1FEF717F90D480021FFF731
:1021B000B3FE08B1FEF710F909480021FFF786FECB
:1021C00008B1FEF709F90648FFF760FE002803D0C2
:1021D000BDE87040FEF700B970BD00000048004047
:1021E0001C000024FEE7FEE7704700002DE9F047E1
:1021F000454D044689464FF0000A2868C0438007D1
:102200000AD0414E283E306820F080603060FEF7F2
:1022100021FA0746B04608E00120BDE8F08700BF7C
:10222000FEF718FAC01B022867D8D8F80000000192
:10223000F6D4206829684FF4FE0721F47C313E0271
:1022400041EA00302860207AA389B4F804C0400233
:102250002D4D2D495B1E227CACF1010C1035091D62
:10226000A0F5007080B2521ECCF3080C07EA0343BD
:1022700040EA0C00184306EA02621043286008682E
:10228000626920F0C000104308600A68A06922F06B
:10229000200202430A60281D0A6822F010020A6028
:1022A00002684FF6F873E4699A4342EAC402026096
:1022B0000868B9F1000F40F010020A6011D00868F8
:1022C000B9F1010F11D040F400100860D8F80000F7
:1022D000444640F08060C8F80000FEF7BBF90546B0
:1022E0000DE0086840F40020EFE740F48010ECE7D0
:1022F000FEF7B0F9401B022801D903208DE72068C2
:102300000001F5D5504688E7284402582DE9F047EA
:10231000454D044689464FF0000A2868C0438007AF
:102320000AD0414E283E306820F080503060FEF7E1
:1023300091F90746B04608E00120BDE8F08700BFEC
:10234000FEF788F9C01B022867D8D8F80000800083
:10235000F6D4208829684FF4FE0721F07C713E02F4
:1023600041EA00502860207AA389B4F804C04002F2
:102370002D4D2D495B1E227CACF1010C1835091D39
:10238000A0F5007080B2521ECCF3080C07EA03439C
:1023900040EA0C00184306EA02621043286008680D
:1023A000626920F44060104308600A68A06922F462
:1023B000007202430A60281D0A6822F480720A60D3
:1023C00002684FF6F873E4699A4342EAC402026075
:1023D0000868B9F1000F40F480720A6011D00868F3
:1023E000B9F1010F11D040F080700860D8F80000FA
:1023F000444640F08050C8F80000FEF72BF905462F
:102400000DE0086840F48000EFE740F40000ECE7DE
:10241000FEF720F9401B022801D903208DE7206830
:102420008000F5D5504688E7284402587047FEF7EB
:1024300017B9000030B59DB04C216846FDF78EFFFE
:10244000202113A8FDF78AFF21494FF0FF300860D3
:102450000420FEF7E9F91F48016841F4404101609A
:102460000168002501F440411B9101688904FCD5F5
:102470001923022000904024049404210122039295
:10248000CDE90905CDE90B13CDE90D010FA90C220A
:1024900081E8250068461295FFF714FA08B172B674
:1024A000FEE713AB3F20032183E823004FF4806253
:1024B0001A940421CDE91654CDE9184213A8FEF769
:1024C000F1FF002801D072B6FEE71DB030BD00005C
:1024D000B0440258184802582D48F0B52D4A0168FA
:1024E00041F470010160106800F00F00032804D26D
:1024F000106820F00F00C01C106027490020264CF7
:1025000010340B68254D43F001030B6020600B680D
:102510002B400B60136803F00F03032B04D91368DF
:1025200023F00F03DB1C13601B4C1D4A18341D4B9A
:10253000261D371D2060184C1B4D28343060261D89
:102540003860371D23603B1D35601C1D3A60251D1A
:102550002E1D1860331D22602860326018600B68E1
:102560000D4C124A23F4802360340B602060106805
:10257000C0040BD4136843F2D2000D4943F48053D6
:1025800013600860106820F480501060F0BD0000F7
:1025900088ED00E000200052004402587FEDF6EA8A
:1025A00080020101000202020000FF0134450258CE
:1025B0000040005230B5416EB9B101680D4B03F1D6
:1025C00008048A688968C2F34262490F5D5C615CF5
:1025D0002D01B5FBF1F1A0F86A10995CA25C09012C
:1025E000B1FBF2F1A0F8681030BD0121A0F86A102B
:1025F000F8E70000982F000890F82810090706D582
:102600000168836B4A6822F400421A434A6090F8DA
:102610002810C90706D00168C36A4A6822F400324C
:102620001A434A6090F82810890706D50168036BA1
:102630004A6822F480321A434A6090F82810490709
:1026400006D50168436B4A6822F480221A434A6027
:1026500090F82810C90606D50168C36B8A6822F471
:1026600080521A438A6090F82810890606D50168BE
:10267000036C8A6822F400521A438A6090F828108A
:10268000490611D50168436C4A6822F480121A4346
:102690004A60416CB1F5801F06D10168836C4A68BD
:1026A00022F4C0021A434A6090F82810090606D5A1
:1026B0000168C26C486820F40020104348607047ED
:1026C0002DE9F84300250446C0F89050FDF7C2FFFD
:1026D0008046206820266FF07E470068000713D5EB
:1026E0000022434631042046009700F057FA58B1C3
:1026F000216851E8000F20F0800041E80002002A24
:10270000F6D1C4F8886021E020680068400722D52F
:10271000002243464FF480012046009700F03EFA25
:10272000C8B1206850E8001F21F4907140E8001201
:10273000002AF6D12068083050E8001F21F001017E
:1027400040E80012002AF5D1C4F88C60032084F818
:102750008450BDE8F883C4F88860C4F88C60E566EE
:102760002567002084F88450F3E7000010B5026864
:1027700052E8001F21F4907142E80013002BF6D1BB
:102780000E4B0268083252E8001F194042E800145C
:10279000002CF6D1C16E012908D1026852E8001F51
:1027A00021F0100142E80013002BF6D10021202275
:1027B000C0F88C20C166416710BD0000FEFFFFEF2E
:1027C0002DE9F04304468068E24E87B0E24B216871
:1027D000D4E90427D4F81CC010430A68002547EA4E
:1027E0000C073843324002430A602068E2684168BF
:1027F00021F44051114341602268A1699A4201D0FD
:10280000206A01439668DFF854C3D54FD54806EADD
:102810000C060E4396602168666ACA6A22F00F02AF
:102820003243CA622268BA420ED1006800F0380012
:1028300018286FD07ADCB8B308286CD010286BD178
:102840008BE0282868D18EE0C7498A4209D1006808
:1028500000F0070006285FD2DFE800F0507D7F819E
:102860008385C2498A4209D1006800F00700062822
:102870007BD2DFE800F0437072747678BC498A42FC
:1028800009D1006800F0070006286ED2DFE800F0EA
:1028900036636567696BB7498A420BD1006800F0FF
:1028A0000700062861D200E043E0DFE800F027548B
:1028B00056585A5CB0498A4206D1006800F0380088
:1028C00018284CD0B7DD31E0AC498A4209D1006804
:1028D00000F00700062848D2DFE800F0103D3F4135
:1028E0004345A7498A420BD1006800F0070006283B
:1028F0003BD2DFE800F0033032343638002035E0D8
:10290000A0498A4209D1006800F03800182826D072
:1029100091DD0BE023E01EE027E09B498A420AD1CB
:10292000006800F03800182819D084DD202888D1EC
:102930001CE001201AE09A4217D18A48001D006865
:1029400000F00700062810D2DFE800F003050709B1
:102950000B0D02200AE0042008E0082006E0102009
:1029600004E0202002E0402000E080208749DFF8DA
:1029700020829A42874A4FF400434FEA21174FF0D2
:1029800000064ED110281AD006DC022809D00428EF
:102990000BD008287ED10DE020283ED0402879D1E8
:1029A0003DE0FDF783FF014610E06846FDF790FF2C
:1029B00001990BE003A8FEF72DF8049906E01068D2
:1029C000800605D51068C0F3C100C140002970D051
:1029D000606A676838F8102007EB4703B1FBF2F034
:1029E000834257D8B0EB073F54D800230846194616
:1029F000FDF77CFC02467808130E120243EA01211F
:102A000010183A4671410023FDF770FC624AA0F5A8
:102A1000407191423ED821688FE03946D8E7194687
:102A2000D6E7D4F81CC04FF6EF799C4546D108286C
:102A300019D005DC58B101280CD0042875D10DE05F
:102A4000102815D0202835D040286ED134E0FEF76C
:102A500079FE01E0FEF788FE014610E06846FDF7CA
:102A600037FF01990BE003A8FDF7D4FF049906E0B6
:102A70001068800604D51068C0F3C100C140C1B120
:102A8000636A606838F81330B1FBF3F1490001EB79
:102A9000500100E049E0B1FBF0F0A0F11001494520
:102AA00043D84FF6F0732168C0F342021840104338
:102AB00043E043E03946E3E71946E1E7082819D047
:102AC00005DC58B101280CD004282ED10DE01028C7
:102AD00015D020282BD0402827D12AE0FEF732FE3F
:102AE00001E0FEF741FE014610E06846FDF7F0FE0A
:102AF00001990BE003A8FDF78DFF049906E010682B
:102B0000800604D51068C0F3C100C140B1B1636A4A
:102B1000606838F81330B1FBF3F101EB5001B1FB01
:102B2000F0F0A0F11001494505D9012506E039462C
:102B3000EDE71946EBE7216880B2C8600120A4F8F0
:102B40006A00A4F8680028466667A66707B0BDE873
:102B5000F0830000F369FFCF000C0058FFF4FF1171
:102B60000010014054440258004400400048004016
:102B7000004C00400050004000140140007800402C
:102B8000007C004000180140001C01400090D00370
:102B9000802F000800440258FFFC0F002DE9F04789
:102BA000994617460D460446089E4FF0000833E04C
:102BB000701C31D0FDF74EFDA0EB0900B04218D8D3
:102BC000BEB120680168490726D5802D24D0402D4C
:102BD00022D0C169C94309070DD4082505622046E2
:102BE000FFF7C4FDC4F89050012084F88480BDE84C
:102BF000F0870320FBE7C069C04300050CD42168BF
:102C00004FF4006008622046FFF7B0FD2021C4F8B1
:102C1000901084F88480ECE72068C06935EA0000F1
:102C200004D00020B842C3D00020E0E70120F9E73B
:102C3000FEE70000014A024900F024B89D2E00087A
:102C400018000024090700284FEA116104DB00F195
:102C5000E02080F80014704700F00F0000F1E02041
:102C600080F8141D704702E008C8121F08C1002A2E
:102C7000FAD170477047002001E001C1121F002AFD
:102C8000FBD170472DE9F04116460F46044600255A
:102C900003E03946B047641C6D1C20780028F8D149
:102CA0002846BDE8F081000070B50646294800EBD3
:102CB00006143046FFF7D2F90028207906EB4603C8
:102CC0004FF005014FF0000531D0052801D22171E8
:102CD00070BD0A2802D2401C207170BDA07A06EB9C
:102CE0004606761C20B90120A072F0B200F0BCF8B4
:102CF00021890029F1D0E088884208D2401C89B29D
:102D000080B2E0808842E8D1DB1CD8B20BE0E07AE8
:102D10000028E2D0207BE17A401CC0B220738842B8
:102D2000DBD32573F0B2BDE8704000F09DB80528F4
:102D300001D921710BE010B1401E207107E0A07A8B
:102D4000012804D19B1CA572D8B200F08DF8E58053
:102D5000257370BDB00000240749887ACA7A904272
:102D600001D100207047421C085CD2B28A720A2A44
:102D7000F8D300228A727047C000002410B500F01A
:102D80004BF8BDE8104000F001B80000204830B515
:102D900087B0016841F002010160016801F00201A1
:102DA0000091016841F004010160016801F0040133
:102DB0000091016841F040010160016801F04001AB
:102DC0000091016841F080010160016801F080011B
:102DD0000091016841F48071016000680D4D00F4BC
:102DE000807000900020029003210446CDE9030189
:102DF00005EBC40001A98088019055F83400FDF767
:102E00000DFB641C14F0FF04F2D007B030BD0000CD
:102E100040450258B82F00080D49002270B46423C1
:102E200010468A720225CA72A1F110040A7304EBDB
:102E30000011461C16F0FF000B810D718A72CA72D8
:102E40000A73F4D070BC06226421002000F01AB886
:102E5000C000002410B500242046FFF725FF641CA5
:102E600014F0FF04F8D010BD0549CA7A8854C87A16
:102E7000401CC0B2C8720A2801D30020C872704733
:102E8000C0000024044B10B503EB001000240181A6
:102E9000C272047310BD0000B000002404490A6827
:102EA0005206FCD5024AC1B20C32116070470000D4
:102EB0001C4800401FB50024009401940294039420
:102EC000FDF752FC01208DF80C001F218DF8081031
:102ED00087228DF809208DF80D008DF800006846D6
:102EE0008DF80A408DF80E408DF8014001948DF860
:102EF0000B408DF80F40FDF709FC0420FDF742FC64
:102F0000FDF7B6FBFFF796FAFFF7CCF8FFF730F9BD
:102F1000FFF734FF0E4C0A20FDF76EFAFFF79AFF19
:102F2000FFF71AFF00282070F5D0012802D109A070
:102F3000FFF780FE2078022802D10AA0FFF77AFE70
:102F400020780328E7D10AA0FFF774FEE3E700002A
:102F5000000000244B6579203120646F776E0D0AE4
:102F6000000000004B657920312075700D0A0000CB
:102F70004B65792031206C6F6E670D0A00000000F0
:102F8000010002000400060008000A000C00100006
:102F90002000400080000001010101030701000042
:102FA00008040204080101010000000001020304FA
:102FB0000102030406070809000802580020010066
:102FC000E02F0008000000241C000000662C000810
:102FD000FC2F00081C000024B4040000762C00081C
:102FE00000000000010000001000000000000000D0
:0C2FF0000090D0030090D003000000000F
:04000005080002AD40
:00000001FF
