:020000040800F2
:10000000D0040024C1020008FB2B00088929000845
:10001000F92B0008CD030008253C00080000000073
:10002000000000000000000000000000412E000859
:10003000CF03000800000000FD2B0008432E00083D
:10004000DB020008DB020008DB020008DB0200081C
:10005000DB020008DB020008DB020008DB0200080C
:10006000DB020008DB020008DB020008DB020008FC
:10007000DB020008DB020008DB020008DB020008EC
:10008000DB020008DB020008DB020008DB020008DC
:10009000DB020008DB020008DB020008DB020008CC
:1000A000DB020008DB020008DB020008DB020008BC
:1000B000DB020008DB020008DB020008DB020008AC
:1000C000DB020008DB020008DB020008DB0200089C
:1000D000DB020008DB020008DB020008193C000814
:1000E000DB020008DB020008DB020008DB0200087C
:1000F000DB020008DB020008DB020008DB0200086C
:10010000DB020008DB020008DB020008DB0200085B
:10011000DB020008DB020008DB020008DB0200084B
:10012000DB020008DB020008DB020008DB0200083B
:10013000DB0200080000000000000000DB020008F5
:10014000DB020008DB020008DB020008DB0200081B
:10015000DB020008DB020008DB020008DB0200080B
:10016000DB020008DB020008DB020008DB020008FB
:10017000DB020008DB020008DB02000800000000D0
:10018000DB020008DB020008DB020008DB020008DB
:10019000DB020008DB020008DB020008DB020008CB
:1001A000DB020008DB020008DB020008DB020008BB
:1001B000DB020008DB020008DB020008DB020008AB
:1001C000DB020008DB020008000000000000000065
:1001D0000000000000000000DB020008000000003A
:1001E000000000000000000000000000000000000F
:1001F0000000000000000000DB020008DB02000835
:10020000DB020008DB02000800000000DB0200083F
:10021000DB020008DB020008DB020008DB0200084A
:10022000DB020008DB020008DB020008000000001F
:10023000DB020008DB02000800000000DB0200080F
:10024000DB020008DB020008DB020008DB0200081A
:10025000DB020008DB020008DB020008DB0200080A
:10026000DB020008DB020008DB020008DB020008FA
:10027000DB020008DB020008DB02000800000000CF
:10028000DB020008DB02000800000000DB020008BF
:1002900000000000DB020008DB0200080000000094
:1002A00000000000DB020008DB020008DFF80CD0D1
:1002B00000F07AF800480047A93E0008D004002466
:1002C0000648804706480047FEE7FEE7FEE7FEE7F0
:1002D000FEE7FEE7FEE7FEE7FEE7FEE7F12E000899
:1002E000AD0200082DE9F05F0546002092469B46CE
:1002F00088460646814640241BE02846414647463C
:10030000224600F041F853465A46C01A914110D394
:1003100011461846224600F028F82D1A67EB01080E
:100320004F4622460120002100F01FF817EB00097C
:100330004E41201EA4F10104DFDC484631462A4626
:100340004346BDE8F09FD2B201E000F8012B491E00
:10035000FBD270470022F6E710B513460A46044662
:100360001946FFF7F0FF204610BD202A04DB203A93
:1003700000FA02F1002070479140C2F1200320FAF8
:1003800003F3194390407047202A04DB203A21FAF6
:1003900002F00021704721FA02F3D040C2F120029E
:1003A0009140084319467047064C074D06E0E06847
:1003B00040F0010394E8070098471034AC42F6D3AC
:1003C000FFF778FF543F0008743F0008FEE77047CE
:1003D00072B6FEE72DE9F84F044600F01BFC0090D2
:1003E0003CB194F83500022806D0802161650020D8
:1003F000E4E00120BDE8F88FC74DC74EC649183567
:1004000020683036DFF81483DFF814938842DFF871
:1004100014A3DFF814B32ED0A8422CD0B0422AD0B7
:10042000404528D0484526D0504524D0584522D0B4
:10043000BD4A183290421ED0BC4A90421BD0BB4AE3
:100440001832904217D0B94A3032904213D0B74A8E
:10045000483290420FD0B54A603290420BD0B34A36
:100460007832904207D0B14A9032904203D0AF4ADE
:10047000A832904209D1026822F01E020260206870
:10048000426922F08002426103E0026822F00E021B
:10049000026027688F4238464DD0A8424BD0B04208
:1004A00049D0404547D0484545D0504543D05845B0
:1004B00041D09D4A183290423DD09C4A90423AD059
:1004C0009A4A1832904236D0984A3032904232D00E
:1004D000964A483290422ED0944A603290422AD0B6
:1004E000924A7832904226D0904A9032904222D05E
:1004F0008E4AA83290421ED08D4A90421BD08C4A20
:100500001432904217D08A4A2832904213D0884A37
:100510003C3290420FD0864A503290420BD0844AEF
:100520006432904207D0824A7832904203D0804AA7
:100530008C32974204D1206E026822F480720260ED
:1005400075492068884228D0A84226D0B04224D0DD
:10055000404522D0484520D050451ED058451CD09B
:1005600071491831884218D07049884215D06F49B6
:100570001831884211D06D49303188420DD06B4915
:100580004831884209D069496031884205D06749BD
:100590007831884201D065499031016821F001012C
:1005A00001600EE000F036FB0099401A052808D9DA
:1005B000202262650321002084F8351084F834007D
:1005C00017E73868C007EDD1534A012120689042EF
:1005D0002ED0A8422CD0B0422AD0404528D0484541
:1005E00026D0504524D0584522D04F4B183398423E
:1005F0001ED04E4B98421BD04C4B1833984217D00C
:100600004A4B3033984213D0484B483398420FD06E
:10061000464B603398420BD0444B7833984207D016
:10062000424B9033984203D0404BA833984208D1B4
:1006300094F85C703F23A06D07F01F07BB408360F8
:1006400007E094F85C30A06D03F01F0301FA03F398
:100650004360206890424DD0A8424BD0B04249D070
:10066000404547D0484545D0504543D0584541D0F6
:100670002D4A183290423DD02C4A90423AD02B4A13
:100680001832904236D0294A3032904232D0274A2E
:10069000483290422ED0254A603290422AD0234AD6
:1006A0007832904226D0214A9032904222D01F4A7E
:1006B000A83290421ED01E4A90421BD01C4A1432CF
:1006C000904217D01A4A2832904213D0184A3C322E
:1006D00090420FD0164A503290420BD0144A6432E6
:1006E000904207D0124A7832904203D0104A8C329E
:1006F00090420BD1D4E919024260E06E30B1026839
:1007000022F480720260D4E91C024260002084F866
:10071000351084F834006DE61000024058000240A5
:100720007000024088000240A00002401004024015
:10073000085402582DE9F05F28B190F835100229CD
:1007400004D0802141650120BDE8F09F904C904B82
:100750000168183C18338E4ADFF83C92A1428D4C58
:10076000DFF838E28E4FDFF83CB2DFF83CA28F4D65
:100770008F4E31D091422FD099422DD0A1422BD013
:10078000494529D0714527D0B94225D0DFF810C29C
:100790000CF1180C61451FD0DFF808C2ACF1600CF9
:1007A000614519D0DFF8FCC1ACF1480C614513D0AC
:1007B000DFF8F0C1ACF1300C61450DD0DFF8E4C1D9
:1007C000ACF1180C614507D0594505D0514503D00F
:1007D000A94201D0B1422CD1DFF8B4C14FF00408D6
:1007E00080F83580ACF1180C61451DD091421BD0CA
:1007F000994219D0A14217D0494515D0714513D05F
:10080000B94211D06648183081420DD06548603831
:10081000814209D063484838814205D06148303868
:10082000814201D05F481838086820F00100086054
:10083000ABE0D1F800C02CF00E08DFF854C1C1F8CD
:100840000080ACF1180C0168614527D0914225D099
:10085000994223D0A14221D049451FD071451DD0D6
:10086000B9421BD0DFF838C10CF1180C614515D026
:10087000DFF830C1ACF1600C61450FD0DFF824C166
:10088000ACF1480C614509D0DFF818C1ACF1300C6F
:10089000614503D0DFF80CC1ACF1180CD1F800C0F1
:1008A0002CF0010CC1F800C0DFF8E4804FF0010C1F
:1008B0000168A8F11808414546D0914244D09942B8
:1008C00042D0A14240D049453ED071453CD0B942CA
:1008D0003AD0334A1832914236D0324A603A914285
:1008E00032D0304A483A91422ED02E4A303A914284
:1008F0002AD02C4A183A914226D0594524D0514545
:1009000022D0A94220D0B1421ED02A4A91421BD007
:10091000284A1432914217D0264A2832914213D0E5
:10092000244A3C3291420FD0224A503291420BD09D
:10093000204A6432914207D01E4A7832914203D055
:100940001C4A8C32914218D1016E0A6822F48072DE
:100950000A6090F85C20816D02F01F020CFA02F22E
:100960004A60D0E919124A60C16E31B10A6822F4B6
:1009700080720A60D0E91C124A600022016D80F882
:1009800035C080F8342001B188470020DCE6000043
:1009900028000240580002407000024088000240D7
:1009A000A00002407004024088040240A0040240FB
:1009B000B80402400854025870B5044600F02AF901
:1009C0000546601C02D004480078044400F022F977
:1009D000401BA042FAD370BD040000242DE9F84F5B
:1009E00003247D4D00234FF001094FF0B04B4FF031
:1009F0000F0AE9E009FA03F73A4076D00E7906F0DB
:100A00000306012E01D0022E18D1D0F808C04FEAFB
:100A1000430ECE6804FA0EF82CEA080C06FA0EF61D
:100A200046EA0C068660D0F804C00E792CEA070C62
:100A3000C6F300169E4046EA0C0646600E79F64361
:100A4000B6070BD0C6684FEA43088F6804FA08FC63
:100A500026EA0C0607FA08F73743C7600E7906F056
:100A60000306022E12D1DE080F694FEA437C00EB29
:100A70008606B646366A4FEADC6C0AFA0CF807FAC4
:100A80000CF726EA08063743CEF820700F7906687F
:100A90004FEA430807F0030704FA08FC07FA08F7CF
:100AA00026EA0C06374307604E6816F4403F1CD018
:100AB0004A4E376847F00207376036689F0706F0EE
:100AC0000206009623F0030606F1B046B6463F0F35
:100AD000D6F80864DFF808810AFA07FC404526EAE0
:100AE0000C0603D14FF0000C41E06CE0DFF8F4C0DD
:100AF000604502D14FF0010C39E0DFF8ECC06045F1
:100B000002D14FF0020C32E0DFF8E0C0604502D1C4
:100B10004FF0030C2BE0DFF8D8C0604502D14FF056
:100B2000040C24E0DFF8CCC0604502D14FF0050C86
:100B30001DE0DFF8C4C0604502D14FF0060C16E09E
:100B4000DFF8B8C0604502D14FF0070C0FE0DFF8C6
:100B5000B0C0604502D14FF0080C08E0DFF8A4C037
:100B6000604502D14FF0090C01E04FF00A0C0CFA7D
:100B700007FC4CEA060CCEF808C44F68DBF80060AE
:100B8000FF0226EA020600D516435F46CBF8006056
:100B9000D1F804C0DBF804605FEA8C2C26EA020678
:100BA00000D516437E606E684F6826EA0206BF03D2
:100BB00000D516436E602E684F6826EA0206FF03D2
:100BC00000D516432E605B1C0A6832FA03F67FF4E8
:100BD00011AFBDE8F88F000080000058544502585E
:100BE000000002580004025800080258000C025885
:100BF000001002580014025800180258001C025835
:100C000000200258002402580AB18161704709048B
:100C1000FBE70000014880687047000004000024E2
:100C20000248816802781144816070470400002402
:100C3000032010B500F086F801F048F80F4A10497B
:100C400014681368C4F3032203F00F038A5CC95CC1
:100C500002F01F0201F01F01D0400A4A20FA01F100
:100C6000116009490860002000F010F808B1012067
:100C700010BD00F02BF8002010BD000018440258F1
:100C80003C3F0008140000241000002470B50D4DF6
:100C900004462878A0B14FF47A71B1FBF0F00A490C
:100CA0000968B1FBF0F001F07EFB48B9102C07D2C7
:100CB00000222146501E00F025F800206C6070BD17
:100CC000012070BD0400002410000024054808B570
:100CD000016841F002010160006800F0020000902C
:100CE00008BD000054450258002809DB410900F006
:100CF0001F028900012001F1E0219040C1F80001AC
:100D0000704700000E4BF0B41B680D46C3F302237E
:100D1000C3F10706042E00D90426191D072901D2A4
:100D2000002300E0DB1E012404FA06F19C40491E6A
:100D30002940641E994014402143F0BC02F07CBF5E
:100D40000CED00E0064900F0070210B54FF6FF0475
:100D50000868044B204040EA02201843086010BD98
:100D60000CED00E00000FA052DE9F0411E4C0546AF
:100D7000206800F007000628206804D000F03F003B
:100D8000A84228D12EE020F03F0028432060FFF742
:100D900041FF154F4FF47A780646083F05E000BF43
:100DA000FFF738FF801B404515D83868C0438004E2
:100DB000F6D41E2D05D02E2D03D01D2D01D02D2DA6
:100DC00010D1FFF727FF0546464607E0FFF722FF51
:100DD000401BB04202D90120BDE8F0812068C04329
:100DE000C003F3D40020F7E70C48025810B500F018
:100DF00027FF05490968054AC1F30211515C01F05A
:100E00001F01C84010BD0000204402583C3F0008AC
:100E1000494930B5484C0B1D0A68143409681D68EF
:100E2000246802F00303C5F30012C1F30531C4F3D3
:100E3000CC04002914FB02F200EE102AF8EE400A5E
:100E400075D03F4A9FED3D1AB7EE000A6BB1DFED5A
:100E50003D1A012B01D0022B64D002EE101A11684A
:100E6000F8EE422A81EEA22A21E0334C283C236886
:100E70009B0612D5344B246801EE901A1168C4F316
:100E8000C104F8EE612AE34001EE903AC1F3080193
:100E9000F8EE611A81EEA22A0BE001EE901ADFED66
:100EA0002B2A00BFF8EE611A116882EEA12AC1F365
:100EB000080101EE901A1168F8EE611A40EE811AED
:100EC00071EE800A62EE200AC1F3462101EE101A8B
:100ED000B8EE411A31EE001AC0EE811ABCEEE11AEA
:100EE00080ED001A1168C1F3064101EE101AB8EE48
:100EF000411A31EE001AC0EE811ABCEEE11A80ED03
:100F0000011A1168C1F3066101EE101AB8EE411A18
:100F100031EE000A80EE801ABCEEC10A80ED020AB2
:100F200030BD04E001EE901ADFED092ABAE7002196
:100F3000016041608160F3E72844025800000039F5
:100F4000384402580024744A0090D0030024744CA2
:100F50000024F44A494930B5484C0B1D0A681C343A
:100F600009681D68246802F00303C5F30022C1F379
:100F70000551C4F3CC04002914FB02F200EE102A40
:100F8000F8EE400A75D03F4A9FED3D1AB7EE000AD1
:100F90006BB1DFED3D1A012B01D0022B64D002EEC4
:100FA000101A1168F8EE422A81EEA22A21E0334C91
:100FB000283C23689B0612D5344B246801EE901A16
:100FC0001168C4F3C104F8EE612AE34001EE903ADF
:100FD000C1F30801F8EE611A81EEA22A0BE001EEDE
:100FE000901ADFED2B2A00BFF8EE611A116882EE2D
:100FF000A12AC1F3080101EE901A1168F8EE611AF6
:1010000040EE811A71EE800A62EE200AC1F3462199
:1010100001EE101AB8EE411A31EE001AC0EE811A34
:10102000BCEEE11A80ED001A1168C1F3064101EE31
:10103000101AB8EE411A31EE001AC0EE811ABCEE59
:10104000E11A80ED011A1168C1F3066101EE101A70
:10105000B8EE411A31EE000A80EE801ABCEEC10AE9
:1010600080ED020A30BD04E001EE901ADFED092A9E
:10107000BAE70021016041608160F3E7284402582B
:1010800000000039404402580024744A0090D00304
:101090000024744C0024F44A2DE9FE4F0546DFF885
:1010A000F88350F8081B0024FB4FC943019005F159
:1010B0002800264608F12408009008011DD4E86E97
:1010C00050B1B0F5801F0CD0B0F5001F0ED0B0F5B8
:1010D000401F1ED001240FE0386840F40030386013
:1010E00017E00198022101F08BFD03E00098022136
:1010F00001F016FE04000CD026462888C043C00527
:1011000023D4A86D05281ED2DFE800F00C11161BB1
:101110001B00EA6ED8F8001021F440111143C8F802
:101120000010EAE7386840F40030386009E00198C0
:10113000002101F065FD03E00098002101F0F0FDC1
:10114000044684B100E0012426462888C043800577
:101150002BD4E86DC02826D00EDCA8B1402818D0CA
:1011600080280FD11AE0AA6DD8F8001021F00701ED
:101170001143C8F80010E8E7B0F5807F13D0B0F550
:10118000A07F10D001240FE0386840F400303860B0
:1011900009E00198002101F033FD03E000980021EF
:1011A00001F0BEFD04468CB126462888C0434005A8
:1011B0002ED4286EB0F5C06F28D010DCB8B1B0F5D1
:1011C000007F19D0B0F5806F0FD11AE0EA6DD8F822
:1011D000001021F4E0711143C8F80010E5E7B0F504
:1011E000006F13D0B0F5206F10D001240FE03868E5
:1011F00040F40030386009E00198002101F000FD62
:1012000003E00098002101F08BFD044694B12646CE
:101210002868DFF884B2C0430BF1200B80011ED494
:10122000E86CD0B110280ED0202811D0302814D06E
:10123000012413E02A6ED8F8001021F460611143F4
:10124000C8F80010E4E7386840F40030386004E083
:101250000198022101F0D4FC044674B12646288886
:10126000C043C0042BD4686EB0F5005F20D00DDC05
:10127000A0B1B0F5805F0FD115E0EA6CDBF800108B
:1012800021F030011143CBF80010E8E7B0F5405FE2
:1012900013D0B0F5804F10D001240FE0386840F42F
:1012A0000030386009E00198002101F0A9FC03E05A
:1012B0000098002101F034FD04468CB126462888B0
:1012C000C043800429D4A86EB0F5403F23D010DC81
:1012D00008B3B0F5803F14D0B0F5003F0FD115E052
:1012E0006A6ED8F8001021F4E0411143C8F80010EC
:1012F000E5E7B0F5802F0ED0B0F5A02F0BD001247C
:101300000AE00198012101F07BFC03E00098012133
:1013100001F006FD044674B126462888DFF878A15E
:10132000C0430AF12C0A400425D4D5F8B00030F0AF
:10133000704109D01DE0AA6ED8F8001021F4E02118
:101340001143C8F80010E8E70017072811D2DFE8BA
:1013500000F00E04090E0E0E0E000198012101F09E
:101360004FFC03E00098012101F0DAFC044684B14F
:1013700000E0012426462888C04300041FD4A86F3B
:10138000D8B1B0F1805F0ED0B0F1005F10D0012471
:1013900014E0D5F8B020DAF8001021F0E041114354
:1013A000CAF80010E7E7386840F40030386004E01D
:1013B0000198012101F024FC044674B126462868F6
:1013C000C043C0011ED4A86CD0B101280ED00228A1
:1013D00011D0032814D0012413E0AA6FD8F800100C
:1013E00021F040511143C8F80010E8E7386840F494
:1013F0000030386004E00198022101F001FC04464D
:101400006CB126462868C043400255D42348016881
:1014100041F480710160FFF7FDFB81460EE0AA6C8C
:10142000DBF8001021F003011143CBF80010E9E7CD
:10143000FFF7F0FBA0EB090064283BD817480068D1
:10144000C005F5D564BBDFF85090B5F8B41009F1CC
:101450004409D9F8000001F4407100F4407088425A
:1014600011D0D9F80010D9F8002021F4407142F4CD
:101470008032C9F80020D9F8002022F48032C9F85F
:101480000020C9F80010D5F8B400B0F5807F1ED157
:10149000FFF7C0FB029016E02C44025800480258A7
:1014A00009E000BFFFF7B6FB0299411A41F288300C
:1014B000814208D9032426462878DFF81494C043D3
:1014C000C00721D03DE0D9F800008007EAD5D5F863
:1014D000B410C1F301200328FE480DD0016821F4A7
:1014E0007C510160B5F8B420D9F80010C2F30B02AA
:1014F0001143C9F80010DFE7F74A036802EA111246
:1015000023F47C511143ECE7D5F88400182816D059
:1015100005DCA0B1082808D0102804D10AE0202852
:101520000DD028280BD001240AE00198012101F0F8
:1015300067FB03E00098012101F0F2FB04466CB167
:1015400026462878C043800720D4D5F88000062896
:101550001AD2DFE800F0170D12171717D5F88420FC
:10156000D9F8001021F038011143C9F80010E8E75C
:101570000198012101F044FB03E00098012101F0F2
:10158000CFFB04467CB100E0012426462878C04306
:10159000400720D4D5F89C0006281AD2DFE800F0D6
:1015A000170D12171717D5F88020D9F8001021F061
:1015B00007011143C9F80010E8E70198012101F083
:1015C0001FFB03E00098012101F0AAFB0446A4B12F
:1015D00000E0012426462878C04380062BD4D5F8A5
:1015E0009800B0F1405F24D011DC10B3B0F1805FFF
:1015F00015D0B0F1005F10D116E0D5F89C20DAF8D4
:10160000001021F007011143CAF80010E3E7B0F120
:10161000804F0ED0B0F1A04F0BD001240AE001980A
:10162000002101F0EDFA03E00098022101F078FBBF
:10163000044694B126462878C04340062BD4D5F8FA
:10164000A400B0F5406F24D011DC10B3B0F5806F6A
:1016500015D0B0F5006F10D116E0D5F89820D9F864
:10166000001021F0E0411143C9F80010E3E7B0F5A4
:10167000805F0ED0B0F5A05F0BD001240AE0019886
:10168000002101F0BDFA03E00098022101F048FBBF
:10169000044694B126462878C04300062BD4D5F8DA
:1016A000A800B0F5C04F24D011DC10B3B0F5005F36
:1016B00015D0B0F5804F10D116E0D5F8A420DAF897
:1016C000001021F4E0511143CAF80010E3E7B0F52F
:1016D000004F0ED0B0F5204F0BD001240AE0019846
:1016E000002101F08DFA03E00098022101F018FBBF
:1016F000044654B126462878C04300071ED4D5F8C6
:101700008C00B0F5805F0AD00FE0D5F8A820DAF899
:10171000001021F460411143CAF80010EBE7009873
:10172000022101F0FDFA00B10126D5F88C20D9F88C
:10173000001021F440511143C9F800102878C0432B
:10174000C00613D4D5F8A000B0F5807F05D100986D
:10175000022101F0E5FA00B10126D5F8A020DAF85F
:10176000001021F440711143CAF800102868C043EA
:10177000000316D4D5F8AC0038B1B0F5803F09D0DD
:10178000B0F5003F0BD001240AE00198002101F0E0
:1017900037FA03E00098022101F0C2FA04468CB146
:1017A00026462868C043400322D4D5F89000B0F5FF
:1017B000801F11D0B0F5001F13D0B0F5401F15D019
:1017C000012414E0D5F8AC20DAF8001021F44031FF
:1017D0001143CAF80010E4E7386840F4003038607C
:1017E00004E00098012101F09BFA04465CB1264612
:1017F0002868C043C0031CD4286D70B1B0F5803F89
:1018000010D0012414E0D5F89020D9F8001021F46C
:1018100040111143C9F80010EAE7386840F400307D
:10182000386004E00198022101F0EAF90446E4B1CD
:1018300026462868C043800005D40098022101F0A4
:101840006FFA00B101262868C04380031CD4D5F884
:101850008800B8B1B0F5807F10D0B0F5007F11D00E
:10186000B0F5407F0ED001240DE02A6DDBF80010AA
:1018700021F480311143CBF80010DAE7386840F4E6
:10188000003038601CB326462868C043C00207D425
:10189000EA6FD8F8001021F000411143C8F8001099
:1018A0002868C043800207D42A6FD8F8001021F0BE
:1018B00080711143C8F800102888C04300050FD478
:1018C0006A6FDAF8001021F00061114306E035E09C
:1018D0005444025810440258CFFFFF00CAF80010C9
:1018E0002868C043400009D43D48016821F4004104
:1018F00001600168D5F8B820114301602868C04331
:1019000007D46A6DDBF8001021F040511143CBF889
:1019100000102868C043000208D4D5F89420D9F8F4
:10192000001021F440011143C9F800102879002467
:10193000C04300F0010020430AD00FE0D5F8882012
:10194000D9F8001021F440711143C9F800109BE749
:101950000198002101F054F900B106462879C043EE
:1019600000F00200204305D10198012101F048F95F
:1019700000B106462879C04300F00400204305D199
:101980000198022101F03CF900B106462879C043D4
:1019900000F00800204305D10098002101F0C0F9B3
:1019A00000B106462879C04300F01000204305D15D
:1019B0000098012101F0B4F900B106462879C0432E
:1019C00000F02000044304D10098022101F0A8F99E
:1019D00000B916B10120BDE8FE8F0020FBE7000032
:1019E000104402582DE9F05F04000F467ED0DFF866
:1019F0003882D8F8000000F00F00B8420CD2D8F8B6
:101A0000001021F00F013943C8F80010D8F8000089
:101A100000F00F00B84269D12078844D40070AD504
:101A20002069296801F07001884204D9296821F0F1
:101A300070010143296020787C4E361D00070AD5CD
:101A40006069316801F07001884204D9316821F081
:101A50007001014331602078C0060AD5A069316861
:101A600001F4E061884204D9316821F4E061014366
:101A700031602078DFF8B4B180060BF1080B0CD58B
:101A8000E1695846DBF8002002F07002914204D967
:101A9000026822F070020A430260207880070AD5AB
:101AA000E068296801F00F01884204D9296821F013
:101AB0000F01014329602078C0073ED05B49A2682E
:101AC0002868183920F47060104328606068022884
:101AD00018D0032819D00968012819D0490700290E
:101AE0004ADADFF848A1AAF1080A00E044E0DAF88F
:101AF000002022F007020243CAF80020FFF78AF80C
:101B0000814612E009688903E9E709688901E6E787
:101B1000C905E4E7FFF77EF8A0EB090141F2883040
:101B2000814202D90320BDE8F09F6168DAF8000025
:101B300000F03800B0EBC10FECD1207880070AD557
:101B4000E068296801F00F01884204D2296821F079
:101B50000F0101432960D8F80010404601F00F0141
:101B6000B9420BD9016821F00F01394301600068C7
:101B700000F00F00B84201D00120D4E720784007E0
:101B80000AD52069296801F07001884204D22968C9
:101B900021F0700101432960207800070AD56069AF
:101BA000316801F07001884204D2316821F070017F
:101BB000014331602078C0060AD5A069316801F47C
:101BC000E061884204D2316821F4E0610143316070
:101BD000207880060CD5E1695846DBF8002002F039
:101BE0007002914204D2026822F070020A4302603D
:101BF00000F06CF80E492A682B68C2F3032203F048
:101C00000F038A5CC95C02F01F0201F01F01D04083
:101C1000084A20FA01F11160074908600748006886
:101C2000BDE8F05FFFF732B80020005218440258B8
:101C30003C3F000814000024100000240800002489
:101C400030B500F043F80B4A0B490C4B156814688B
:101C5000C5F3032204F00F048A5C095D02F01F0241
:101C600001F01F01D040064A20FA01F1196010600E
:101C7000084630BD184402583C3F000814000024B8
:101C80001000002400B5FFF7DBFF05490968054A8D
:101C9000C1F30211515C01F01F01C84000BD0000FA
:101CA0001C4402583C3F000800B5FFF7C9FF054936
:101CB0000968054AC1F30221515C01F01F01C840C7
:101CC00000BD00001C4402583C3F0008454970B567
:101CD00045480968434B103B11F0380208D0011108
:101CE000082A03D0102A0BD0182A0BD0084670BD42
:101CF00019688906FBD51968C1F3C101C84070BDD8
:101D00003A4870BD3749374D18310C1D24350A68E3
:101D1000096826682D6802F0030406F00102C1F389
:101D20000511C5F3CC0515FB02F200EE102AB8EE42
:101D3000400AE9B32F4ADFED2E0AB7EE001A6CB164
:101D4000DFED2D1A012C01D0022C43D002EE101A27
:101D50001068F8EE422A81EEA22A1EE01C68A40652
:101D600011D51B6801EE901A1168C3F3C103F8EE98
:101D7000612AD84001EE900AC1F30800F8EE611A1A
:101D800081EEA22A0BE001EE901ADFED1C2A00BFC3
:101D9000F8EE611A106882EEA12AC0F3080001EE85
:101DA000900AF8EE611A40EE201A31EE810A00E046
:101DB00015E022EE000A1068C0F34620401C00EE39
:101DC000900AF8EE600A80EE201ABCEEC10A10EE0E
:101DD000100A70BD01EE901ADFED092AD8E7002045
:101DE00070BD0000104402580090D00300127A0029
:101DF00000000039304402580024744A0024744C16
:101E00000024F44A2DE9F05F04007DD0FB4F2078D8
:101E1000FA4D1837DFF8E483103DC00766D0D8F8D4
:101E20000000396800F03800102822D0182803D1AB
:101E300001F0030002281CD06068B0F5803F1FD07D
:101E400010B3B0F5A02F2BD0B0F5A81F28682FD065
:101E500020F480302860286820F4802028602868DA
:101E600020F480102860606898B3FEF7D3FE064621
:101E70002BE02868800339D560680028C5D035E09C
:101E8000286840F48030EDE7286820F4803028602E
:101E9000286820F480102860286820F48020E1E77A
:101EA000286840F480202860286820F4801005E02D
:101EB00040F480202860286840F480102860DFE724
:101EC000FEF7A8FE801B64287ED828688003F7D51B
:101ED0000CE0FFE7FEF79EFE064604E0FEF79AFEE2
:101EE000801B6428F0D828688003F7D42078800706
:101EF00056D5D8F80000DFF80493396810F03800A0
:101F0000A9F10C0910D000E0F0E0182801D18807F1
:101F10000AD0E06898B3296821F0190101432960CB
:101F2000FEF778FE064626E02868400702D5E068FE
:101F30000028A3D0E168286820F019000843286031
:101F4000FEF768FE064604E0FEF764FE801B0228EA
:101F5000BAD828684007F7D5217CD9F8002022F0AC
:101F6000FE4242EA0161C9F8001019E0FEF752FE94
:101F7000801B0228A8D828684007F7D5ECE7FFE7C0
:101F8000286820F001002860FEF744FE064604E0C1
:101F9000FEF740FE801B022896D828684007F7D439
:101FA0002078C00646D5D8F80000DFF8509239688E
:101FB00000F03800A9F10409082812D0182805D12A
:101FC00001F00300012800E0ECE00AD0E0690028FD
:101FD000286820D040F080002860FEF71BFE0646EF
:101FE00015E02868C00502D5E06980287ED194F804
:101FF0002010D9F8002022F07C5242EA0161C9F891
:10200000001017E0FEF706FE801B0228A0D8286803
:10201000C005F7D5EBE720F080002860FEF7FAFD59
:10202000064604E0FEF7F6FD801B022890D82868DB
:10203000C005F7D42078000729D57048616964305D
:1020400000298146016811D041F001010160FEF7CD
:10205000E1FD064605E000BFFEF7DCFD801B02281F
:1020600088D8D9F800008007F6D510E021F00101EA
:102070000160FEF7CFFD064605E000BFFEF7CAFD92
:10208000801B022888D8D9F800008007F6D4207871
:10209000800623D5A0690028286810D040F480501D
:1020A0002860FEF7B7FD064605E000BFFEF7B2FD6B
:1020B000801B022876D828688004F7D50EE020F42B
:1020C00080502860FEF7A6FD064604E0FEF7A2FD5C
:1020D000801B022866D828688004F7D4207840073F
:1020E0006FD5DFF81C91D9F8001000E035E141F41C
:1020F0008071C9F80010FEF78DFD064605E000BFAF
:10210000FEF788FD801B64284CD8D9F80000C00574
:10211000F6D53A4EA0686036012818D0D8B1052807
:1021200025D0852830682AD020F001003060306842
:1021300020F004003060306820F080003060A0683B
:1021400041F2883A78B3FEF765FD814626E03068B3
:1021500040F00100F2E7306820F0010030603068A4
:1021600020F080003060306820F00400E6E730683E
:1021700040F004003060306820F0800005E040F05E
:1021800004003060306840F080003060DFE700BF5E
:10219000FEF740FDA0EB0901514503D830688007E8
:1021A000F6D50EE088E0FFE7FEF734FD814605E056
:1021B000FEF730FDA0EB090151457DD8306880075E
:1021C000F6D4606AF0B34146DFF8308008F12008A9
:1021D000096808F10409A8F1040A4FF6F87BC1F375
:1021E000C201032969D00228286820F08070286085
:1021F00008D0FEF70FFD044684E0000010440258AA
:1022000000480258FEF706FD064604E0FEF702FD10
:10221000801B022873D828688001F7D4E26A40F254
:10222000F331386854F8283F884340EA02101843D5
:102230003860217B4FF4FE0C22894FF0FE47208A44
:10224000267D00E0ADE049024346521E401EA1F546
:102250000071C2F308088AB2761E0CEA004042EA16
:1022600008020243504607EA06610A431A60DAF898
:10227000002022F00102CAF80020D9F80020266AC6
:1022800022EA0B0242EAC602C9F80020DAF800107E
:10229000A26921F00C011143CAF800100168E2693B
:1022A00021F0020111430160016841F480310160B5
:1022B000016841F4003101E021E027E0016001689C
:1022C00041F480210160016841F00101016028684A
:1022D00040F080702860FEF79DFC044605E000BFDA
:1022E000FEF798FC001B022809D828688001F7D562
:1022F00057E000BFFEF78EFC001B022802D9032026
:10230000BDE8F09F28688001F4D44AE039680128CC
:10231000D8F8000021D0A26A01F0030393421CD137
:10232000E26AC1F305118A4217D1216BC0F308029A
:10233000491E8A4211D1616BC0F34622491E914267
:102340000BD1A16BC0F30642491E914205D1E16B4E
:10235000C0F30660491E814201D00120D0E7A16C84
:102360004E46D9F80000C0F3CC00814219D0DAF80B
:102370000000554620F00100CAF80000FEF74AFCB4
:102380004FEA0007FEF746FCB842FBD0A26C30686B
:1023900020EA0B0040EAC2003060286840F00100EB
:1023A00028600020ACE7401EB0F1807F10B501D35B
:1023B000012010BD4FF0E02460610F21601701F093
:1023C0003BFC0020A0610721216110BD30B590F8D1
:1023D0008410012918D0012280F884202421C0F81B
:1023E00088100022202401680B680D6823F0005338
:1023F00025F001050D60426601680B60C0F8884059
:1024000080F88420104630BD022030BD70477047F0
:1024100070B5044690F8840001281DD0012284F88C
:1024200084202420C4F8880020680568026822F00F
:10243000010202602068826822F060620A438260C2
:10244000204600F0B5FD2268202100201560C4F868
:10245000881084F8840070BD022070BD70B50446F9
:1024600090F8840001281DD0012284F884202420C3
:10247000C4F8880020680568026822F00102026042
:102480002068826822F060420A438260204600F0A1
:102490008FFD2268202100201560C4F8881084F880
:1024A000840070BD022070BD704770477047000007
:1024B0002DE9F04107680025044640F60F03022687
:1024C000F8693968BA6818420AD183067ED501F0E6
:1024D000200302F0805C53EA0C0377D0616F74E153
:1024E000CF4BDFF840C3134001EA0C0C53EA0C0C4D
:1024F0006CD05FEAC07C0CD05FEAC15C09D54FF0BC
:10250000010CC7F820C0D4F8907047F00107C4F858
:102510009070870709D5D70707D027683E62D4F89F
:10252000906046F00406C4F8906046070AD5D607C6
:1025300008D0276804263E62D4F8906046F0020670
:10254000C4F8906006070CD501F020061E4308D0A1
:10255000266808233362D4F8903043F00803C4F8A7
:10256000903003050BD54B0109D526684FF4006365
:102570003362D4F8903043F02003C4F89030D4F89C
:102580009030002B3DD0800609D501F0200002F0EC
:102590008051084303D0616F09B120468847216804
:1025A000D4F890008968490602D410F0280F2AD088
:1025B000204600F0E3FD2068806840061ED52068B4
:1025C000083050E8001F21F0400100E021E040E821
:1025D0000012002AF3D1D4F8800078B19249016545
:1025E000D4F88000FEF7A6F800280AD0D4F88000BE
:1025F000016D00E02046BDE8F04108472046FFF7A6
:1026000055FFBDE8F0812046FFF750FFC4F8905019
:10261000F7E7D4F86CC02023BCF1010F7ED15FEA4C
:10262000C06C7BD55FEAC16C78D510203862206819
:102630008068400673D5D4F880107C4A08689042C0
:1026400034D07A4A1832904230D0784A30329042B0
:102650002CD0764A4832904228D0744A6032904258
:1026600024D0724A7832904220D0704A9032904200
:102670001CD06E4AA832904218D06D4A904215D0B4
:102680006B4A1832904211D0694A303290420DD0D4
:10269000674A4832904209D0654A6032904205D07C
:1026A000634A7832904201D0614A90324068000417
:1026B000000CA6D0B4F85C208242A2D9A4F85E0037
:1026C000C869B0F5807F2FD0216851E8000F20F451
:1026D000807041E80002002AF6D12068083050E8F6
:1026E000001F21F0010140E80012002AF5D1206806
:1026F000083050E8001F21F0400140E80012002A95
:10270000F5D1C4F88C30E566216851E8000F20F05F
:10271000100041E80002002AF6D101E040E00BE0A1
:10272000D4F88000FDF756FE2667B4F85C00B4F8D4
:102730005E10401A81B22FE0B4F85C00B4F85E106D
:10274000B4F85E20401A81B2002AB2D00029B0D07D
:10275000226852E8000F20F4907042E80007002F32
:10276000F6D1344F206800F1080050E8002F02EA4B
:10277000070240E8002CBCF1000FF3D1C4F88C3004
:10278000E5666567206850E8002F22F0100240E8F7
:102790000023002BF6D126672046FFF737FE30E7EF
:1027A000C60209D5560207D54FF48010386220467C
:1027B000BDE8F041FFF779BE06060AD501F08006B4
:1027C00002F40002164304D0A16F00297FF412AF77
:1027D00017E7420611D54A060FD52046026852E88F
:1027E000001F21F0400142E80014002CF6D1C0F88F
:1027F0008830856700F0C7F803E7020206D54A0073
:1028000004D52046BDE8F041FFF74EBEC001C6D555
:102810000029C4DA2046BDE8F041FFF7F8BD00000A
:102820000100001020010004673100081000024080
:1028300010040240FEFFFFEF10B5040003D0D4F8EF
:10284000880010B107E0012010BD002084F884004A
:10285000204600F027F82420C4F88800206801688A
:1028600021F001010160204600F01AFF0128EBD0A1
:10287000A06A10B1204600F0BDFB2068416821F439
:10288000904141602068816821F02A0181602068C0
:10289000016841F0010101602046BDE8104000F0F0
:1028A0000DBC000010B5B6B00446142130A8FDF7E9
:1028B00051FDC0216846FDF74DFD1D492068884245
:1028C00033D10020209002210446CDE90010684653
:1028D000FEF7E2FB08B1FDF77BFD1648016841F405
:1028E00080210160006800F480203590114808388C
:1028F000016841F008010160006830AB022100F07E
:10290000080035904FF44070072283E813000A480E
:1029100030A9CDE93342FEF761F8002202212720D9
:10292000FEF7F0F92720FEF7DFF936B010BD000002
:102930000048004048450258000C025830B4D0F816
:102940008C30202B02D0022030BC7047A9B1A2B13C
:102950000B4D00240368C466AB420BD05B681B02BE
:1029600008D5046854E8003F43F0806344E800352C
:10297000002DF6D130BC01F081B80120E4E7000061
:10298000000C005870477047FEE72DE9F041060043
:1029900004D0012E15D0022819D023E00025FF27EE
:1029A0002C46204600F020F810B16D1C2746EDB2F1
:1029B000641C14F0FF04F4D0012D13D1B7420ED0E3
:1029C00010E0002000F010F860B1012004E00120C8
:1029D00000F00AF830B1022000F006F810B1012032
:1029E000BDE8F0810020FBE7084951F8302001EBF9
:1029F000C00110698A88104000D001208979814285
:102A000001D1012070470020704700004C3F0008B2
:102A10002DE9F04786B014216846FDF79BFC53482A
:102A2000016841F004010160016801F004010591B1
:102A3000016841F020010160016801F02001059169
:102A4000016841F080010160016801F08001059199
:102A5000016841F002010160016801F00201059185
:102A6000016841F008010160016801F00801059169
:102A7000016841F040010160016801F040010591E9
:102A8000016841F001010160016801F00101059157
:102A9000016841F01001016000684FF48067DFF8C1
:102AA000D080002200F01000394605904046FEF725
:102AB000ABF8DFF8C09044F20106002231464846E8
:102AC000FEF7A2F8DFF8B0A0002202215046FEF780
:102AD0009BF80024694670100294CDE90004274851
:102AE000FDF77CFF01250097CDE90154694640467A
:102AF0000394FDF773FF00966946CDE901544846FB
:102B00000394FDF76BFF80204FF488118DE81300CC
:102B10001B486946FDF762FFDFF868806802CDE96F
:102B20000004694640460294FDF758FF0A200097CA
:102B300002266946CDE90164CDE903404046FDF730
:102B40004DFF4FF4C0500090CDE901646946404606
:102B50000394FDF743FF00966946CDE901545046C2
:102B60000394FDF73BFF06B0BDE8F08740450258EF
:102B700000140258000402580010025800080258BD
:102B800000180258000002581948002110B5174CCF
:102B90000C224FF4E1330460C0E90131C160C0E9A7
:102BA00004128161C161016241628162FFF744FEEA
:102BB00008B172B6FEE70E480021FFF74FFC08B1DE
:102BC00072B6FEE70A480021FFF722FC08B172B690
:102BD000FEE70748FFF7FAFB08B172B6FEE7BDE86B
:102BE0001040044901220248FFF7A8BE00480040F7
:102BF0001C00002400000024FEE7FEE770470000F0
:102C00002DE9F047454D044689464FF0000A2868F3
:102C1000C04380070AD0414E283E306820F08060D3
:102C20003060FDF7F7FF0746B04608E00120BDE839
:102C3000F08700BFFDF7EEFFC01B022867D8D8F869
:102C400000000001F6D4206829684FF4FE0721F443
:102C50007C313E0241EA00302860207AA389B4F832
:102C600004C040022D4D2D495B1E227CACF1010CAD
:102C70001035091DA0F5007080B2521ECCF3080C6F
:102C800007EA034340EA0C00184306EA02621043D5
:102C900028600868626920F0C000104308600A6874
:102CA000A06922F0200202430A60281D0A6822F06F
:102CB00010020A6002684FF6F873E4699A4342EA28
:102CC000C40202600868B9F1000F40F010020A6007
:102CD00011D00868B9F1010F11D040F4001008605C
:102CE000D8F80000444640F08060C8F80000FDF7C6
:102CF00091FF05460DE0086840F40020EFE740F43E
:102D00008010ECE7FDF786FF401B022801D9032065
:102D10008DE720680001F5D5504688E72844025821
:102D20002DE9F047454D044689464FF0000A2868D2
:102D3000C04380070AD0414E283E306820F08050C2
:102D40003060FDF767FF0746B04608E00120BDE8A8
:102D5000F08700BFFDF75EFFC01B022867D8D8F8D8
:102D600000008000F6D4208829684FF4FE0721F087
:102D70007C713E0241EA00502860207AA389B4F8B1
:102D800004C040022D4D2D495B1E227CACF1010C8C
:102D90001835091DA0F5007080B2521ECCF3080C46
:102DA00007EA034340EA0C00184306EA02621043B4
:102DB00028600868626920F44060104308600A686F
:102DC000A06922F4007202430A60281D0A6822F4F6
:102DD00080720A6002684FF6F873E4699A4342EA27
:102DE000C40202600868B9F1000F40F480720A6002
:102DF00011D00868B9F1010F11D040F0807008605F
:102E0000D8F80000444640F08050C8F80000FDF7B4
:102E100001FF05460DE0086840F48000EFE740F44C
:102E20000000ECE7FDF7F6FE401B022801D9032065
:102E30008DE720688000F5D5504688E72844025881
:102E40007047FDF7EDBE000030B59DB04C216846DF
:102E5000FDF780FA202113A8FDF77CFA22494FF0F4
:102E6000FF3008600420FDF77FFF2048016841F42F
:102E7000404101600168002401F440411B91016858
:102E80008904FCD50DF1280C212200924FF4A023D7
:102E90000193012106910220099032258CE823003C
:102EA00004220FA90C23CDE90D0281E81900684620
:102EB0001294FEF7A7FF08B172B6FEE713AD4020EB
:102EC0003F21032285E8160003011A90CDE9164040
:102ED0000421CDE9180313A8FEF784FD002801D0D2
:102EE00072B6FEE71DB030BDB04402581848025813
:102EF0002748F0B5274A016841F470010160106865
:102F000000F00F00032804D2106820F00F00C01C4E
:102F1000106021490020204C10340B681F4D43F0F5
:102F200001030B6020600B682B400B60136803F0FB
:102F30000F03032B04D9136823F00F03DB1C13606A
:102F4000154C174A1834174B261D371D2060124C9C
:102F5000154D28343060261D3860371D23603B1D19
:102F600035601C1D3A60251D2E1D1860331D226022
:102F70002860326018600A6843F2D204064B0B4D99
:102F800022F4802260330A6018602C60F0BD0000DB
:102F900088ED00E000200052004402587FEDF6EA80
:102FA00080020101000202020000FF010040005205
:102FB00030B5416EB9B101680D4B03F108048A6860
:102FC0008968C2F34262490F5D5C615C2D01B5FB0B
:102FD000F1F1A0F86A10995CA25C0901B1FBF2F171
:102FE000A0F8681030BD0121A0F86A10F8E70000D1
:102FF0002C3F000890F82810C90706D00168C36A62
:103000004A6822F400321A434A6090F8281089076F
:1030100006D50168036B4A6822F480321A434A607D
:1030200090F82810490706D50168436B4A6822F4D6
:1030300080221A434A6090F82810090706D50168D3
:10304000836B4A6822F400421A434A6090F82810C1
:10305000C90606D50168C36B8A6822F480521A43F8
:103060008A6090F82810890606D50168036C8A6882
:1030700022F400521A438A6090F82810490611D5AC
:103080000168436C4A6822F480121A434A60416C1A
:10309000B1F5801F06D10168836C4A6822F4C00232
:1030A0001A434A6090F82810090606D50168C26CD8
:1030B000486820F400201043486070472DE9F84329
:1030C00000250446C0F89050FDF7A4FD8046206816
:1030D00020266FF07E470068000713D50022434684
:1030E00031042046009700F051FD58B1216851E8A5
:1030F000000F20F0800041E80002002AF6D1C4F859
:10310000886021E020680068400722D500224346FD
:103110004FF480012046009700F038FDC8B12068C8
:1031200050E8001F21F4907140E80012002AF6D107
:103130002068083050E8001F21F0010140E800122B
:10314000002AF5D1C4F88C60032084F88450BDE8CF
:10315000F883C4F88860C4F88C60E56625670020B1
:1031600084F88450F3E710B5806B0021A0F85E105E
:10317000A0F85610FFF79AF910BD000010B50268CC
:1031800052E8001F21F4907142E80013002BF6D1A1
:103190000E4B0268083252E8001F194042E8001442
:1031A000002CF6D1C16E012908D1026852E8001F37
:1031B00021F0100142E80013002BF6D1002120225B
:1031C000C0F88C20C166416710BD0000FEFFFFEF14
:1031D00010B5D0F88C10B0F860202229016804D016
:1031E000886940F00800886110BD496A836D11400C
:1031F0001980816D891C8165B0F85E10491EA0F8A8
:103200005E10B0F85E100029EED1016851E8002F81
:1032100022F4907241E80023002BF6D101680831B6
:1032200051E8002F22F0010241E80023002BF5D1E4
:10323000184B002102682024C0F88C4041670167C8
:103240009A420BD05268120208D5036853E8002F47
:1032500022F0806243E80024002CF6D1C26E012ADD
:1032600002D0FFF78FFB10BDC166026852E8001F55
:1032700021F0100142E80013002BF6D10168CA6961
:10328000D243D20601D410220A62B0F85C10FFF7D4
:10329000BDF810BD000C00582DE9F0470446006849
:1032A000C569D0F800A0D0F80880D4F88C10B4F824
:1032B0006060222905D0816941F008018161BDE883
:1032C000F087B4F868704FF0000975E02068A16DD0
:1032D000406A30400880A06D801CA065B4F85E0094
:1032E000401EA4F85E002068C569690730D0E90770
:1032F0000AD05FEACA5107D501210162D4F89000D3
:1033000040F00100C4F89000A8070BD55FEAC87030
:1033100008D0216802200862D4F8900040F0040030
:10332000C4F8900068070BD55FEAC87008D0216820
:1033300004200862D4F8900040F00200C4F8900025
:10334000D4F8900020B12046FFF7B0F8C4F8909070
:10335000B4F85E0080BB216851E8000F20F4807053
:1033600041E80002002AF6D1304A2068083050E8CF
:10337000001F114040E80013002BF6D12C4B2021F8
:1033800020684A46C4F88C10C4F87490C4F8709051
:1033900098420BD04068000208D5216851E8000F20
:1033A00020F0806041E80003002BF6D1E06E012898
:1033B00025D02046FFF7E6FA0FB1A80686D4B4F868
:1033C0005E0000283FF47BAFB4F8681081427FF6BE
:1033D00076AF2068083050E8001F21F0805140E8A7
:1033E0000012002AF5D113486067206850E8001FDA
:1033F00041F0200140E80012002AF6D15FE7E266C2
:10340000206850E8001F21F0100140E80012002A57
:10341000F6D12068C169C943C90601D410210162EF
:10342000B4F85C102046FEF7F1FFC5E7FEFFFFEFA2
:10343000000C0058D131000810B5D0F88C10B0F84D
:1034400060202229016804D0886940F00800886162
:1034500010BD496A836D11401970816D491C8165E9
:10346000B0F85E10491EA0F85E10B0F85E1000299A
:10347000EED1026852E8001F21F4907142E8001377
:10348000002BF6D10168083151E8002F22F001022B
:1034900041E80023002BF5D1184B002102682024BD
:1034A000C0F88C40416701679A420BD05268120203
:1034B00008D5026852E8003F23F0806342E80034F8
:1034C000002CF6D1C26E012A02D0FFF75BFA10BDC4
:1034D000C166026852E8001F21F0100142E80013A3
:1034E000002BF6D10168CA69D243D20601D410225A
:1034F0000A62B0F85C10FEF789FF10BD000C00589E
:103500002DE9F04704460068C569D0F800A0D0F85E
:103510000880D4F88C10B4F86060222905D0816945
:1035200041F008018161BDE8F087B4F868704FF0A0
:10353000000975E02068A16D406A30400870A06DF8
:10354000401CA065B4F85E00401EA4F85E00206830
:10355000C569690730D0E9070AD05FEACA5107D5C3
:1035600001210162D4F8900040F00100C4F89000FD
:10357000A8070BD55FEAC87008D02168022008624E
:10358000D4F8900040F00400C4F8900068070BD510
:103590005FEAC87008D0216804200862D4F890005F
:1035A00040F00200C4F89000D4F8900020B120460A
:1035B000FEF77CFFC4F89090B4F85E0080BB2168F1
:1035C00051E8000F20F4807041E80002002AF6D193
:1035D000304A2068083050E8001F114040E80013CE
:1035E000002BF6D12C49202320684A46C4F88C30A1
:1035F000C4F87490C4F8709088420BD04068000200
:1036000008D5216851E8000F20F0806041E80003F0
:10361000002BF6D1E06E012825D02046FFF7B2F945
:103620000FB1A80686D4B4F85E0000283FF47BAF43
:10363000B4F8681081427FF676AF2068083050E811
:10364000001F21F0805140E80012002AF5D11348F4
:103650006067206850E8001F41F0200140E8001238
:10366000002AF6D15FE7E266206850E8001F21F0EB
:10367000100140E80012002AF6D12068C169C94350
:10368000C90601D410210162B4F85C102046FEF78F
:10369000BDFEC5E7FEFFFFEF000C005839340008FF
:1036A0002DE9F04304468068E24E87B0E24B216882
:1036B000D4E90427D4F81CC010430A68002547EA5F
:1036C0000C073843324002430A602068E2684168D0
:1036D00021F44051114341602268A1699A4201D00E
:1036E000206A01439668DFF854C3D54FD54806EAEF
:1036F0000C060E4396602168666ACA6A22F00F02C1
:103700003243CA622268BA420ED1006800F0380023
:1037100018286FD07ADCB8B308286CD010286BD189
:103720008BE0282868D18EE0C7498A4209D1006819
:1037300000F0070006285FD2DFE800F0507D7F81AF
:103740008385C2498A4209D1006800F00700062833
:103750007BD2DFE800F0437072747678BC498A420D
:1037600009D1006800F0070006286ED2DFE800F0FB
:1037700036636567696BB7498A420BD1006800F010
:103780000700062861D200E043E0DFE800F027549C
:1037900056585A5CB0498A4206D1006800F0380099
:1037A00018284CD0B7DD31E0AC498A4209D1006815
:1037B00000F00700062848D2DFE800F0103D3F4146
:1037C0004345A7498A420BD1006800F0070006284C
:1037D0003BD2DFE800F0033032343638002035E0E9
:1037E000A0498A4209D1006800F03800182826D084
:1037F00091DD0BE023E01EE027E09B498A420AD1DD
:10380000006800F03800182819D084DD202888D1FD
:103810001CE001201AE09A4217D18A48001D006876
:1038200000F00700062810D2DFE800F003050709C2
:103830000B0D02200AE0042008E0082006E010201A
:1038400004E0202002E0402000E080208749DFF8EB
:1038500020829A42874A4FF400434FEA21174FF0E3
:1038600000064ED110281AD006DC022809D0042800
:103870000BD008287ED10DE020283ED0402879D1F9
:103880003DE0FDF7B3FA014610E06846FDF7C0FAE7
:1038900001990BE003A8FDF75DFB049906E01068B1
:1038A000800605D51068C0F3C100C140002970D062
:1038B000606A676838F8102007EB4703B1FBF2F045
:1038C000834257D8B0EB073F54D800230846194627
:1038D000FCF708FD02467808130E120243EA0121A4
:1038E00010183A4671410023FCF7FCFC624AA0F52F
:1038F000407191423ED821688FE03946D8E7194699
:10390000D6E7D4F81CC04FF6EF799C4546D108287D
:1039100019D005DC58B101280CD0042875D10DE070
:10392000102815D0202835D040286ED134E0FEF77D
:10393000A9F901E0FEF7B8F9014610E06846FDF785
:1039400067FA01990BE003A8FDF704FB049906E070
:103950001068800604D51068C0F3C100C140C1B131
:10396000636A606838F81330B1FBF3F1490001EB8A
:10397000500100E049E0B1FBF0F0A0F11001494531
:1039800043D84FF6F0732168C0F342021840104349
:1039900043E043E03946E3E71946E1E7082819D058
:1039A00005DC58B101280CD004282ED10DE01028D8
:1039B00015D020282BD0402827D12AE0FEF762F925
:1039C00001E0FEF771F9014610E06846FDF720FAC4
:1039D00001990BE003A8FDF7BDFA049906E0106811
:1039E000800604D51068C0F3C100C140B1B1636A5C
:1039F000606838F81330B1FBF3F101EB5001B1FB13
:103A0000F0F0A0F11001494505D9012506E039463D
:103A1000EDE71946EBE7216880B2C8600120A4F801
:103A20006A00A4F8680028466667A66707B0BDE884
:103A3000F0830000F369FFCF000C0058FFF4FF1182
:103A40000010014054440258004400400048004027
:103A5000004C00400050004000140140007800403D
:103A6000007C004000180140001C01400090D00381
:103A7000143F000800440258FFFC0F0070B5836833
:103A8000002481654FF48056A0F85C20B342A0F872
:103A90005E204FF0FF01446704D1036903BB40F28D
:103AA000FF111DE04FF07F05C3B1B3F1805F1AD065
:103AB000A0F860402221C0F89040C0F88C10016846
:103AC000083151E8003F43F0010341E80034002C85
:103AD000F5D1416EB1F1005F0CD02FE0036933B92D
:103AE000A0F86010E6E7016909B13F21F8E7A0F806
:103AF0006050DFE7B0F8681091421FD88168B1428A
:103B000001D10169B9B11D490269416742B1026839
:103B100052E8001F41F4807142E80013002BF6D1F7
:103B20000168083151E8002F42F0805241E800233B
:103B3000002BF5D120E012494167F1E78168B142DD
:103B400001D1016969B10F49026941675AB1016840
:103B500051E8002F42F4907241E80023002BF6D187
:103B60000AE009494167026852E8001F41F020015C
:103B700042E80013002BF6D1002070BD013500088B
:103B80009932000839340008D13100082DE9F04796
:103B9000994617460E460446089D4FF000082FE050
:103BA000681C2DD0FDF736F8A0EB0900A84214D808
:103BB0009DB120680168490722D5C169C943090739
:103BC0000DD4082505622046FFF7D8FAC4F89050B6
:103BD000012084F88480BDE8F0870320FBE7C069FA
:103BE000C04300050CD421684FF4006008622046F1
:103BF000FFF7C4FA2021C4F8901084F88480ECE721
:103C00002068C06936EA000004D00020B842C7D05E
:103C10000020E0E70120F9E70148FEF749BC000079
:103C20001C000024FEE70000014A024900F024B80D
:103C3000913E000818000024090700284FEA11618E
:103C400004DB00F1E02080F80014704700F00F0062
:103C500000F1E02080F8141D704702E008C8121F30
:103C600008C1002AFAD170477047002001E001C165
:103C7000121F002AFBD170472DE9F04116460F466E
:103C80000446002503E03946B047641C6D1C2078CB
:103C90000028F8D12846BDE8F081000070B506463E
:103CA000294800EB06143046FEF76FFE0028207905
:103CB00006EB46034FF005014FF0000531D0052813
:103CC00001D2217170BD0A2802D2401C207170BD42
:103CD000A07A06EB4606761C20B90120A072F0B24D
:103CE00000F0BCF821890029F1D0E088884208D290
:103CF000401C89B280B2E0808842E8D1DB1CD8B297
:103D00000BE0E07A0028E2D0207BE17A401CC0B2D0
:103D100020738842DBD32573F0B2BDE8704000F019
:103D20009DB8052801D921710BE010B1401E20710A
:103D300007E0A07A012804D19B1CA572D8B200F03C
:103D40008DF8E580257370BDB00000240749887A9E
:103D5000CA7A904201D100207047421C085CD2B25E
:103D60008A720A2AF8D300228A727047C00000249F
:103D700010B500F04BF8BDE8104000F001B80000AD
:103D8000204830B587B0016841F002010160016848
:103D900001F002010091016841F004010160016835
:103DA00001F004010091016841F0400101600168E7
:103DB00001F040010091016841F08001016001685B
:103DC00001F080010091016841F480710160006898
:103DD0000D4D00F4807000900020029003210446F5
:103DE000CDE9030105EBC40001A98088019055F8D5
:103DF0003400FCF7F3FD641C14F0FF04F2D007B0AC
:103E000030BD0000404502584C3F00080D490022DB
:103E100070B4642310468A720225CA72A1F110049C
:103E20000A7304EB0011461C16F0FF000B810D71A4
:103E30008A72CA720A73F4D070BC06226421002010
:103E400000F01AB8C000002410B500242046FFF787
:103E500025FF641C14F0FF04F8D010BD0549CA7A90
:103E60008854C87A401CC0B2C8720A2801D3002006
:103E7000C8727047C0000024044B10B503EB00105B
:103E800000240181C272047310BD0000B000002440
:103E900004490A685206FCD5024AC1B20C321160CC
:103EA000704700001C480040FCF7C2FEFEF7CCFF44
:103EB000FEF7AEFDFEF768FEFFF75AFF0AA00FE01F
:103EC0000A20FCF779FDFFF7BFFFFFF73FFF00284F
:103ED000F6D0022803D00328F2D107A000E00AA000
:103EE000FFF7A2FEECE70000496E6974205375638A
:103EF00063657373210D0A004B65792031206C6F67
:103F00006E670D0A000000004B6579203120757046
:103F10000D0A0000010002000400060008000A006B
:103F20000C0010002000400080000001010101038E
:103F3000070100000804020408010101000000005C
:103F400001020304010203040607080900080258DD
:103F500000200100743F0008000000241C00000045
:103F60005A3C0008903F00081C000024B4040000E4
:103F70006A3C000800000000010000001000000082
:103F8000000000000090D0030090D003000000006B
:04000005080002AD40
:00000001FF
