:020000040800F2
:10000000080700244D030008672200088520000827
:1000100065220008430500081F2C000800000000AE
:10002000000000000000000000000000AD240008F7
:10003000450500080000000069220008AF24000800
:1000400067030008670300086703000867030008E8
:1000500067030008670300086703000867030008D8
:1000600067030008670300086703000867030008C8
:1000700067030008670300086703000867030008B8
:1000800067030008670300086703000867030008A8
:100090006703000867030008670300086703000898
:1000A0006703000867030008670300086703000888
:1000B0006703000867030008670300086703000878
:1000C0006703000867030008670300086703000868
:1000D0006703000867030008670300086703000858
:1000E0006703000867030008670300086703000848
:1000F0006703000867030008670300086703000838
:100100006703000867030008670300086703000827
:100110006703000867030008670300086703000817
:100120006703000867030008670300086703000807
:1001300067030008000000000000000067030008DB
:1001400067030008670300086703000867030008E7
:1001500067030008670300086703000867030008D7
:1001600067030008670300086703000867030008C7
:100170006703000867030008670300080000000029
:1001800067030008670300086703000867030008A7
:100190006703000867030008670300086703000897
:1001A0006703000867030008670300086703000887
:1001B0006703000867030008670300086703000877
:1001C000670300086703000800000000000000004B
:1001D00000000000000000006703000800000000AD
:1001E000000000000000000000000000000000000F
:1001F000000000000000000067030008670300081B
:100200006703000867030008000000006703000898
:100210006703000867030008670300086703000816
:100220006703000867030008670300080000000078
:100230006703000867030008000000006703000868
:1002400067030008670300086703000867030008E6
:1002500067030008670300086703000867030008D6
:1002600067030008670300086703000867030008C6
:100270006703000867030008670300080000000028
:100280006703000867030008000000006703000818
:10029000000000006703000867030008000000007A
:1002A00000000000670300086703000800F002F880
:1002B00000F03CF80AA090E8000C82448344AAF1C4
:1002C0000107DA4501D100F031F8AFF2090EBAE8C2
:1002D0000F0013F0010F18BFFB1A43F0010318477A
:1002E000202A0000402A0000103A24BF78C878C1B4
:1002F000FAD8520724BF30C830C144BF04680C602C
:10030000704700000023002400250026103A28BF73
:1003100078C1FBD8520728BF30C148BF0B60704777
:100320001FB502F0CBFC1FBD10B510BD00F0CFF81B
:100330001146FFF7F5FF02F085FC00F0EDF803B47D
:10034000FFF7F2FF03BC00F0F5F800000948804712
:1003500009480047FEE7FEE7FEE7FEE7FEE7FEE7A7
:10036000FEE7FEE7FEE7FEE704480549054A064BBF
:10037000704700004D250008AD0200080801002468
:1003800008070024080300240803002453EA020C91
:1003900000F069802DE9F04B4FF00006002B1FBFE5
:1003A000B3FA83F503FA05F424FA05F65E4012BFAA
:1003B0001643B2FA82F502FA05F4C5F120051EBF14
:1003C00022FA05FC44EA0C04203556EA044C4FEAB4
:1003D000144418BF641C4FF000084FF0000990420D
:1003E00071EB030C39D3002919BFB1FA81F701FA77
:1003F00007F6B0FA80F700FA07F6C7F120071EBF2C
:1004000020FA07FC46EA0C062037B6FBF4FCA7EB03
:100410000507103F07F01F0BCBF120060CFA0BFB72
:100420002CFA06F644BFB3460026202FA4BF5E4632
:100430004FF0000B5BEA060C08BF4FF0010B19EB05
:100440000B09ABFB027C48EB0608C01B06FB02CC89
:100450000BFB03CC71EB0C01C1E70B460246414696
:100460004846BDE8F08B13B54FF000004FF0000197
:10047000AFF30080BDE81C4070474FF0000200B5AC
:10048000134694469646203922BFA0E80C50A0E8B7
:100490000C50B1F12001BFF4F7AF090728BFA0E865
:1004A0000C5048BF0CC05DF804EB890028BF40F831
:1004B000042B08BF704748BF20F8022B11F0804F73
:1004C00018BF00F8012B704770477047704775469A
:1004D00000F02CF8AE4605006946534620F00700B0
:1004E000854618B020B5FFF73FFFBDE820404FF02C
:1004F00000064FF000074FF000084FF0000B21F00E
:100500000701AC46ACE8C009ACE8C009ACE8C009DA
:10051000ACE8C0098D46704710B50446AFF30080C3
:100520002046BDE81040FFF70ABF000000487047B2
:10053000A400002401491820ABBEFEE726000200FB
:100540007047FEE7704772B6FEE7000070B50446DC
:1005500000F032F90546601C02D0044800780444DB
:1005600000F02AF9401BA042FAD370BD000000241D
:100570002DE9F84F03247D4D00234FF001094FF082
:10058000B04B4FF00F0AE9E009FA03F73A4076D092
:100590000E7906F00306012E01D0022E18D1D0F8F4
:1005A00008C04FEA430ECE6804FA0EF82CEA080C95
:1005B00006FA0EF646EA0C068660D0F804C00E79FC
:1005C0002CEA070CC6F300169E4046EA0C0646606D
:1005D0000E79F643B6070BD0C6684FEA43088F681A
:1005E00004FA08FC26EA0C0607FA08F73743C76046
:1005F0000E7906F00306022E12D1DE080F694FEACB
:10060000437C00EB8606B646366A4FEADC6C0AFA93
:100610000CF807FA0CF726EA08063743CEF82070E4
:100620000F7906684FEA430807F0030704FA08FC4D
:1006300007FA08F726EA0C06374307604E6816F4F7
:10064000403F1CD04A4E376847F002073760366893
:100650009F0706F00206009623F0030606F1B04657
:10066000B6463F0FD6F80864DFF808810AFA07FC9F
:10067000404526EA0C0603D14FF0000C41E06CE047
:10068000DFF8F4C0604502D14FF0010C39E0DFF82B
:10069000ECC0604502D14FF0020C32E0DFF8E0C060
:1006A000604502D14FF0030C2BE0DFF8D8C0604565
:1006B00002D14FF0040C24E0DFF8CCC0604502D139
:1006C0004FF0050C1DE0DFF8C4C0604502D14FF0CB
:1006D000060C16E0DFF8B8C0604502D14FF0070CF9
:1006E0000FE0DFF8B0C0604502D14FF0080C08E021
:1006F000DFF8A4C0604502D14FF0090C01E04FF0D3
:100700000A0C0CFA07FC4CEA060CCEF808C44F6839
:10071000DBF80060FF0226EA020600D516435F46BA
:10072000CBF80060D1F804C0DBF804605FEA8C2CE1
:1007300026EA020600D516437E606E684F6826EAF8
:100740000206BF0300D516436E602E684F6826EA86
:100750000206FF0300D516432E605B1C0A6832FABE
:1007600003F67FF411AFBDE8F88F00008000005859
:10077000544502580000025800040258000802586C
:10078000000C0258001002580014025800180258B9
:10079000001C02580020025800240258426921EA35
:1007A00002030A4043EA0241816170470AB1816154
:1007B00070470904FBE700000148806870470000AB
:1007C000000000240248816802781144816070476B
:1007D00000000024032010B500F0C6F801F01AF85C
:1007E0000F4A104914681368C4F3032203F00F037F
:1007F0008A5CC95C02F01F0201F01F01D0400A4A66
:1008000020FA01F1116009490860002000F010F899
:1008100008B1012010BD00F079F8002010BD0000E3
:1008200018440258EE2C0008100000240C0000248C
:1008300070B50D4D04462878A0B14FF47A71B1FB24
:10084000F0F00A490968B1FBF0F001F027FB48B964
:10085000102C07D200222146501E00F065F800201F
:100860006C6070BD012070BD000000240C000024ED
:10087000F0B5154C4378211D0A1D23600378F3B1B0
:1008800043680B60057BC67A817A437B2D07847BA6
:1008900045EA0665C77B90F809C0067A90F800E043
:1008A00045EAC14040EA834040EA444040EA07400C
:1008B00040EA0C2040EA460040EA0E0001E0002039
:1008C00008601060F0BD000098ED00E0BFF35F8F9E
:1008D000044800210368034A23F480330360703224
:1008E0001160704724ED00E0074A40F0010006491E
:1008F00070321060086840F480300860BFF34F8F9A
:10090000BFF36F8F7047000024ED00E0054808B585
:10091000016841F002010160006800F002000090EF
:1009200008BD0000544502580E4BF0B41B680D463C
:10093000C3F30223C3F10706042E00D90426191DB0
:10094000072901D2002300E0DB1E012404FA06F18E
:100950009C40491E2940641E994014402143F0BC2C
:1009600002F05EB90CED00E0064900F0070210B598
:100970004FF6FF040868044B204040EA0220184369
:10098000086010BD0CED00E00000FA052DE9F04113
:100990001E4C0546206800F007000628206804D099
:1009A00000F03F00A84228D12EE020F03F0028436D
:1009B0002060FFF701FF154F4FF47A780646083F95
:1009C00005E000BFFFF7F8FE801B404515D83868EA
:1009D000C0438004F6D41E2D05D02E2D03D01D2D2E
:1009E00001D02D2D10D1FFF7E7FE0546464607E062
:1009F000FFF7E2FE401BB04202D90120BDE8F081C2
:100A00002068C043C003F3D40020F7E70C48025825
:100A100010B500F0B9FE05490968054AC1F3021195
:100A2000515C01F01F01C84010BD00002044025875
:100A3000EE2C0008494930B5484C0B1D0A681434A7
:100A400009681D68246802F00303C5F30012C1F3AE
:100A50000531C4F3CC04002914FB02F200EE102A85
:100A6000F8EE400A75D03F4A9FED3D1AB7EE000AF6
:100A70006BB1DFED3D1A012B01D0022B64D002EEE9
:100A8000101A1168F8EE422A81EEA22A21E0334CB6
:100A9000283C23689B0612D5344B246801EE901A3B
:100AA0001168C4F3C104F8EE612AE34001EE903A04
:100AB000C1F30801F8EE611A81EEA22A0BE001EE03
:100AC000901ADFED2B2A00BFF8EE611A116882EE52
:100AD000A12AC1F3080101EE901A1168F8EE611A1B
:100AE00040EE811A71EE800A62EE200AC1F34621BF
:100AF00001EE101AB8EE411A31EE001AC0EE811A5A
:100B0000BCEEE11A80ED001A1168C1F3064101EE56
:100B1000101AB8EE411A31EE001AC0EE811ABCEE7E
:100B2000E11A80ED011A1168C1F3066101EE101A95
:100B3000B8EE411A31EE000A80EE801ABCEEC10A0E
:100B400080ED020A30BD04E001EE901ADFED092AC3
:100B5000BAE70021016041608160F3E72844025850
:100B600000000039384402580024744A0090D00331
:100B70000024744C0024F44A494930B5484C0B1DFC
:100B80000A681C3409681D68246802F00303C5F371
:100B90000022C1F30551C4F3CC04002914FB02F276
:100BA00000EE102AF8EE400A75D03F4A9FED3D1A3C
:100BB000B7EE000A6BB1DFED3D1A012B01D0022B1D
:100BC00064D002EE101A1168F8EE422A81EEA22AD1
:100BD00021E0334C283C23689B0612D5344B246813
:100BE00001EE901A1168C4F3C104F8EE612AE340E3
:100BF00001EE903AC1F30801F8EE611A81EEA22AE3
:100C00000BE001EE901ADFED2B2A00BFF8EE611A1F
:100C1000116882EEA12AC1F3080101EE901A116851
:100C2000F8EE611A40EE811A71EE800A62EE200A37
:100C3000C1F3462101EE101AB8EE411A31EE001A46
:100C4000C0EE811ABCEEE11A80ED001A1168C1F302
:100C5000064101EE101AB8EE411A31EE001AC0EE4C
:100C6000811ABCEEE11A80ED011A1168C1F3066128
:100C700001EE101AB8EE411A31EE000A80EE801A29
:100C8000BCEEC10A80ED020A30BD04E001EE901A0C
:100C9000DFED092ABAE70021016041608160F3E7D6
:100CA0002844025800000039404402580024744A85
:100CB0000090D0030024744C0024F44A2DE9FC5F1A
:100CC000044650F8241B002500902E460801FE4FD4
:100CD000DFF8F8831DD5A06E50B1B0F5801F0CD0A1
:100CE000B0F5001F0ED0B0F5401F1DD001250FE05C
:100CF000386840F40030386016E00221201D01F011
:100D0000B5FA03E00098022101F040FB05000BD08A
:100D10002E462088C00523D5606D05281ED2DFE849
:100D200000F00C11161B1B00A26ED8F8001021F465
:100D300040111143C8F80010EBE7386840F4003068
:100D4000386009E00021201D01F090FA03E00098CE
:100D5000002101F01BFB05467DB100E001252E4678
:100D6000208880052BD5A06DC02826D00EDCA8B128
:100D7000402818D080280FD11AE0626DD8F80010F2
:100D800021F007011143C8F80010E9E7B0F5807FB2
:100D900013D0B0F5A07F10D001250FE0386840F4E3
:100DA0000030386009E00021201D01F05FFA03E007
:100DB0000098002101F0EAFA054685B12E46208808
:100DC00040052ED5E06DB0F5C06F28D010DCB8B16D
:100DD000B0F5007F19D0B0F5806F0FD11AE0A26D89
:100DE000D8F8001021F4E0711143C8F80010E6E7CC
:100DF000B0F5006F13D0B0F5206F10D001250FE0D3
:100E0000386840F40030386009E00021201D01F00E
:100E10002DFA03E00098002101F0B8FA05468DB1E3
:100E20002E462068DFF8A4B28001ABF1040B1ED57A
:100E3000A06CD0B110280ED0202811D0302814D0AA
:100E4000012513E0E26DD8F8001021F46061114330
:100E5000C8F80010E5E7386840F40030386004E076
:100E60000221201D01F002FA05466DB12E462088B0
:100E7000C0042BD5206EB0F5005F20D00DDCA0B1F2
:100E8000B0F5805F0FD115E0A26CDBF8001021F007
:100E900030011143CBF80010E9E7B0F5405F13D003
:100EA000B0F5804F10D001250FE0386840F40030D5
:100EB000386009E00021201D01F0D8F903E0009816
:100EC000002101F063FA054685B12E462088800492
:100ED00029D5606EB0F5403F23D010DC08B3B0F5E3
:100EE000803F14D0B0F5003F0FD115E0226ED8F846
:100EF000001021F4E0411143C8F80010E6E7B0F516
:100F0000802F0ED0B0F5A02F0BD001250AE00121D3
:100F1000201D01F0ABF903E00098012101F036FA41
:100F200005466DB12E462088DFF8A0A140040AF1E5
:100F3000080A25D5D4F8AC0030F0704109D01DE086
:100F4000626ED8F8001021F4E0211143C8F80010B7
:100F5000E9E70017072811D2DFE800F00E04090EB8
:100F60000E0E0E000121201D01F080F903E0009813
:100F7000012101F00BFA05467DB100E001252E4666
:100F8000208800041FD5606FD8B1B0F1805F0ED00B
:100F9000B0F1005F10D0012514E0D4F8AC20DAF8ED
:100FA000001021F0E0411143CAF80010E8E738686A
:100FB00040F40030386004E00121201D01F056F9B2
:100FC00005466DB12E462068C0011ED5606CD0B1BB
:100FD00001280ED0022811D0032814D0012513E0D7
:100FE000626FD8F8001021F040511143C8F800108A
:100FF000E9E7386840F40030386004E00221201D41
:1010000001F034F9054665B12E46206840024FD5FF
:101010002F48016841F480710160FFF7CDFB8146E4
:101020000EE0626CDBF8001021F003011143CBF8F5
:101030000010EAE7FFF7C0FBA0EB0900642835D8F1
:1010400023480068C005F5D58DBBDFF88090B4F863
:10105000B01009F12009D9F8000001F4407100F442
:101060004070884211D0D9F80010D9F8002021F43E
:10107000407142F48032C9F80020D9F8002022F4EF
:101080008032C9F80020C9F80010D4F8B000B0F5DB
:10109000807F2AD1FFF790FB019022E0FFF78CFBC5
:1010A0000199411A41F2883081421AD903252E460E
:1010B0002078DFF81890C00709F1040945D0D4F86A
:1010C000800018283FD005E02C44025850440258B4
:1010D0000048025826DC80B3082829D0102825D1E2
:1010E0002CE0D9F800008007D8D5D4F8B010C1F3AF
:1010F00001200328FE480DD0016821F47C510160D5
:10110000B4F8B020D9F80010C2F30B021143C9F8AB
:101110000010CDE7F74A036802EA111223F47C516C
:101120001143ECE720280ED028280CD001250BE035
:101130000121201D01F09AF804E004E0009801214B
:1011400001F024F905465DB12E46207880071FD5B1
:10115000E06F06281AD2DFE800F0170D12171717F4
:10116000D4F88020D9F8001021F038011143C9F8D3
:101170000010EAE70121201D01F078F803E0009853
:10118000012101F003F9054675B100E001252E4665
:10119000207840071FD5D4F89800062819D2DFE838
:1011A00000F0160C11161616E26FD9F8001021F097
:1011B00007011143C9F80010EAE70121201D01F0E1
:1011C00055F803E00098012101F0E0F805469DB1D3
:1011D00000E001252E46207880062BD5D4F8940017
:1011E000B0F1405F24D011DC10B3B0F1805F15D0B6
:1011F000B0F1005F10D116E0D4F89820DAF80010B2
:1012000021F007011143CAF80010E4E7B0F1804F64
:101210000ED0B0F1A04F0BD001250AE00021201D17
:1012200001F024F803E00098022101F0AFF8054630
:101230008DB12E46207840062BD5D4F8A000B0F50D
:10124000406F24D011DC10B3B0F5806F15D0B0F52D
:10125000006F10D116E0D4F89420D9F8001021F0D6
:10126000E0411143C9F80010E4E7B0F5805F0ED00B
:10127000B0F5A05F0BD001250AE00021201D00F091
:10128000F5FF03E00098022101F080F805468DB1DA
:101290002E46207800062BD5D4F8A400B0F5C04F18
:1012A00024D011DC10B3B0F5005F15D0B0F5804F3D
:1012B00010D116E0D4F8A020DAF8001021F4E051A3
:1012C0001143CAF80010E4E7B0F5004F0ED0B0F5B6
:1012D000204F0BD001250AE00021201D00F0C6FFA1
:1012E00003E00098022101F051F805464DB12E4669
:1012F000207800071ED5D4F88800B0F5805F0AD0AA
:101300000FE0D4F8A420DAF8001021F46041114372
:10131000CAF80010ECE70098022101F037F800B19C
:101320000126D4F88820D9F8001021F44051114347
:10133000C9F800102078C00613D5D4F89C00B0F589
:10134000807F05D10098022101F020F800B101262C
:10135000D4F89C20DAF8001021F440711143CAF847
:1013600000102068000316D5D4F8A80038B1B0F5F5
:10137000803F09D0B0F5003F0BD001250AE00021E5
:10138000201D00F073FF03E00098022100F0FEFF33
:10139000054685B12E462068400322D5D4F88C003E
:1013A000B0F5801F11D0B0F5001F13D0B0F5401F6D
:1013B00015D0012514E0D4F8A820DAF8001021F4A3
:1013C00040311143CAF80010E5E7386840F40030B6
:1013D000386004E00098012100F0D8FF054655B1BF
:1013E0002E462068C0031CD5E06C70B1B0F5803F7C
:1013F00010D0012514E0D4F88C20D9F8001021F485
:1014000040111143C9F80010EBE7386840F4003090
:10141000386004E00221201D00F028FF0546D5B108
:101420002E462068800005D50098022100F0AEFF0E
:1014300000B10126206880031CD5D4F88400B8B11F
:10144000B0F5807F10D0B0F5007F11D0B0F5407FAF
:101450000ED001250DE0E26CDBF8001021F48031A4
:101460001143CBF80010DCE7386840F400303860F6
:10147000E5B32E462068C00207D5A26FD8F8001049
:1014800021F000411143C8F800102068800207D500
:10149000E26ED8F8001021F080711143C8F80010F6
:1014A0002088000507D5226FDAF8001021F00061CE
:1014B0001143CAF800102068400009D50C480168A3
:1014C00021F4004101600168D4F8B42011430160A7
:1014D0002068002807DA226DDBF8001021F0405167
:1014E0001143CBF800102068000205E012E0000074
:1014F00010440258CFFFFF0008D5D4F89020D9F847
:10150000001021F440011143C9F8001066B1012018
:10151000BDE8FC9FD4F88420D9F8001021F4407174
:101520001143C9F80010A5E70020F1E72DE9F05FAD
:1015300004000F467ED0DFF83882D8F8000000F0B3
:101540000F00B8420CD2D8F8001021F00F01394337
:10155000C8F80010D8F8000000F00F00B84269D1B8
:101560002078844D40070AD52069296801F0700170
:10157000884204D9296821F070010143296020784C
:101580007C4E361D00070AD56069316801F0700194
:10159000884204D9316821F070010143316020781C
:1015A000C0060AD5A069316801F4E061884204D917
:1015B000316821F4E061014331602078DFF8B4B193
:1015C00080060BF1080B0CD5E1695846DBF80020CA
:1015D00002F07002914204D9026822F070020A43BC
:1015E0000260207880070AD5E068296801F00F01C1
:1015F000884204D9296821F00F010143296020782D
:10160000C0073ED05B49A2682868183920F4706092
:10161000104328606068022818D0032819D0096890
:10162000012819D0490700294ADADFF848A1AAF1B0
:10163000080A00E044E0DAF8002022F00702024342
:10164000CAF80020FFF7B8F8814612E0096889035C
:10165000E9E709688901E6E7C905E4E7FFF7ACF8BF
:10166000A0EB090141F28830814202D90320BDE894
:10167000F09F6168DAF8000000F03800B0EBC10FAD
:10168000ECD1207880070AD5E068296801F00F01C5
:10169000884204D2296821F00F0101432960D8F85B
:1016A0000010404601F00F01B9420BD9016821F04A
:1016B0000F0139430160006800F00F00B84201D00B
:1016C0000120D4E7207840070AD52069296801F075
:1016D0007001884204D2296821F070010143296019
:1016E000207800070AD56069316801F070018842EE
:1016F00004D2316821F07001014331602078C006C6
:101700000AD5A069316801F4E061884204D23168E9
:1017100021F4E06101433160207880060CD5E16955
:101720005846DBF8002002F07002914204D20268B1
:1017300022F070020A43026000F06CF80E492A6839
:101740002B68C2F3032203F00F038A5CC95C02F02A
:101750001F0201F01F01D040084A20FA01F1116078
:101760000749086007480068BDE8F05FFFF760B808
:101770000020005218440258EE2C000810000024EB
:101780000C0000240400002430B500F043F80B4A9C
:101790000B490C4B15681468C5F3032204F00F04C1
:1017A0008A5C095D02F01F0201F01F01D040064A69
:1017B00020FA01F119601060084630BD1844025843
:1017C000EE2C0008100000240C00002400B5FFF7E8
:1017D000DBFF05490968054AC1F30211515C01F0BC
:1017E0001F01C84000BD00001C440258EE2C000838
:1017F00000B5FFF7C9FF05490968054AC1F3022191
:10180000515C01F01F01C84000BD00001C4402589B
:10181000EE2C0008454970B545480968434B103B1C
:1018200011F0380208D00111082A03D0102A0BD079
:10183000182A0BD0084670BD19688906FBD51968AF
:10184000C1F3C101C84070BD3A4870BD3749374D3A
:1018500018310C1D24350A68096826682D6802F0C5
:10186000030406F00102C1F30511C5F3CC0515FB15
:1018700002F200EE102AB8EE400AE9B32F4ADFED7B
:101880002E0AB7EE001A6CB1DFED2D1A012C01D033
:10189000022C43D002EE101A1068F8EE422A81EEB4
:1018A000A22A1EE01C68A40611D51B6801EE901A3E
:1018B0001168C3F3C103F8EE612AD84001EE900A23
:1018C000C1F30800F8EE611A81EEA22A0BE001EEE6
:1018D000901ADFED1C2A00BFF8EE611A106882EE44
:1018E000A12AC0F3080001EE900AF8EE611A40EE5A
:1018F000201A31EE810A00E015E022EE000A10689D
:10190000C0F34620401C00EE900AF8EE600A80EE1C
:10191000201ABCEEC10A10EE100A70BD01EE901A3A
:10192000DFED092AD8E7002070BD000010440258FE
:101930000090D00300127A000000003930440258B1
:101940000024744A0024744C0024F44A2DE9F04722
:1019500004007DD0F84F2078F74D1837DFF8D88392
:10196000103DC00766D0D8F80000396800F0380094
:10197000102822D0182803D101F0030002281CD01F
:101980006068B0F5803F1FD010B3B0F5A02F2BD00A
:10199000B0F5A81F28682FD020F480302860286870
:1019A00020F480202860286820F480102860606877
:1019B00098B3FEF701FF06462BE02868800339D56F
:1019C00060680028C5D035E0286840F48030EDE735
:1019D000286820F480302860286820F4801028606F
:1019E000286820F48020E1E7286840F480202860FF
:1019F000286820F4801005E040F4802028602868E2
:101A000040F480102860DFE7FEF7D6FE801B6428D4
:101A10007ED828688003F7D50CE0FFE7FEF7CCFE00
:101A2000064604E0FEF7C8FE801B6428F0D828684C
:101A30008003F7D42078800756D5D8F80000DFF867
:101A4000F892396810F03800A9F10C0910D000E0C4
:101A5000F0E0182801D188070AD0E06898B3296817
:101A600021F0190101432960FEF7A6FE064626E093
:101A70002868400702D5E0680028A3D0E1682868FC
:101A800020F0190008432860FEF796FE064604E0A1
:101A9000FEF792FE801B0228BAD828684007F7D5C7
:101AA000217CD9F8002022F0FE4242EA0161C9F807
:101AB000001019E0FEF780FE801B0228A8D82868D5
:101AC0004007F7D5ECE7FFE7286820F00100286021
:101AD000FEF772FE064604E0FEF76EFE801B02284B
:101AE00096D828684007F7D42078C00646D5D8F89D
:101AF0000000DFF84492396800F03800A9F10409C9
:101B0000082812D0182805D101F00300012800E0B0
:101B1000ECE00AD0E0690028286820D040F080007E
:101B20002860FEF749FE064615E02868C00502D584
:101B3000E06980287ED194F82010D9F8002022F0A6
:101B40007C5242EA0161C9F8001017E0FEF734FE4A
:101B5000801B0228A0D82868C005F7D5EBE720F045
:101B600080002860FEF728FE064604E0FEF724FE0B
:101B7000801B022890D82868C005F7D42078000779
:101B800029D56D486169643000298146016811D00A
:101B900041F001010160FEF70FFE064605E000BFBF
:101BA000FEF70AFE801B022888D8D9F800008007BB
:101BB000F6D510E021F001010160FEF7FDFD0646BB
:101BC00005E000BFFEF7F8FD801B022888D8D9F891
:101BD00000008007F6D42078800623D5A06900286D
:101BE000286810D040F480502860FEF7E5FD0646D6
:101BF00005E000BFFEF7E0FD801B022876D82868CC
:101C00008004F7D50EE020F480502860FEF7D4FD64
:101C1000064604E0FEF7D0FD801B022866D828683F
:101C20008004F7D4207840076FD5DFF81091D9F8F9
:101C3000001000E02BE141F48071C9F80010FEF7BC
:101C4000BBFD064605E000BFFEF7B6FD801B64281D
:101C50004CD8D9F80000C005F6D5374EA0686036DC
:101C6000012818D0D8B1052825D0852830682AD079
:101C700020F001003060306820F0040030603068EF
:101C800020F080003060A06841F2883A78B3FEF717
:101C900093FD814626E0306840F00100F2E73068AD
:101CA00020F001003060306820F080003060306843
:101CB00020F00400E6E7306840F00400306030684F
:101CC00020F0800005E040F004003060306840F013
:101CD00080003060DFE700BFFEF76EFDA0EB09017A
:101CE000514503D830688007F6D50EE088E0FFE75D
:101CF000FEF762FD814605E0FEF75EFDA0EB0901FF
:101D000051457DD830688007F6D4606AF0B341460B
:101D1000DFF8248008F120080968C1F3C201032913
:101D20006FD00228286820F08070286008D0FEF765
:101D300043FD044680E00000104402580048025869
:101D4000FEF73AFD064604E0FEF736FD801B02284A
:101D50006FD828688001F7D4E26A40F2F33138681E
:101D600054F8283F884340EA021018433860217B2A
:101D70004FF4FE0C22894FF0FE47208A4902267D4F
:101D8000521EA1F50071C2F3080200E081E089B2A1
:101D9000401E1143761E0CEA004001433E4807EA0C
:101DA000066211433C4AC8F800100832016821F06D
:101DB0000101016011684FF6F876236AB14341EAE8
:101DC000C30111600168A26921F00C011143016097
:101DD0000168E26921F0020111430160016841F4E8
:101DE00080310160016841F400310160016841F413
:101DF00080210160016841F001010160286801E073
:101E000017E01DE040F080702860FEF7D5FC044626
:101E100005E000BFFEF7D0FC001B022809D82868A7
:101E20008001F7D535E000BFFEF7C6FC001B022895
:101E300002D90320BDE8F08728688001F4D428E0A7
:101E400039680128D8F8000021D0A26A01F0030304
:101E500093421CD1E26AC1F305118A4217D1216B6A
:101E6000C0F30802491E8A4211D1616BC0F34622B9
:101E7000491E91420BD1A16BC0F30642491E91420B
:101E800005D1E16BC0F30660491E814201D00120FB
:101E9000D0E70020CEE700002C440258401EB0F1ED
:101EA000807F10B501D3012010BD4FF0E0246061A8
:101EB0000F21601700F0B4FE0020A061072121610E
:101EC00010BD30B590F88010012918D0012280F89B
:101ED00080202421C0F884100022202450F8641BA4
:101EE0000B680D6823F0005325F001050D600260BA
:101EF00050F8641C0B6004620277104630BD02206B
:101F000030BD70B5044690F8800001281DD0012234
:101F100084F880202420C4F88400206805680268C2
:101F200022F0010202602068826822F060620A43A7
:101F30008260204600F06AFB2268202100201560A4
:101F4000C4F8841084F8800070BD022070BD70B5A4
:101F5000044690F8800001281DD0012284F88020DA
:101F60002420C4F8840020680568026822F0010279
:101F700002602068826822F060420A438260204644
:101F800000F044FB2268202100201560C4F8841072
:101F900084F8800070BD022070BD10B5040003D02D
:101FA000D4F8840010B107E0012010BD002084F8AF
:101FB0008000204600F026F82420C4F88400206821
:101FC000016821F001010160204600F0D5FB0128E5
:101FD000EBD0A06A10B1204600F03AFB20684168BF
:101FE00021F4904141602068816821F02A018160DC
:101FF0002068016841F0010101602046BDE8104001
:1020000000F08ABB30B5B5B0044614212EA8FEF707
:1020100034FAB8216846FEF730FA1749206888423A
:1020200028D102256846002400951F94FEF746FE3D
:1020300008B1FEF788FA1148016841F48021016077
:10204000006800F4802033900C480838016841F0A3
:10205000080101600068072100F0080033904FF488
:1020600040702E90CDE92F54CDE9314104482EA97E
:10207000FEF77EFA35B030BD0048004048450258B2
:10208000000C0258FEE700002DE9F04786B014214D
:102090006846FEF7F2F95348016841F00401016017
:1020A000016801F004010591016841F0200101601F
:1020B000016801F020010591016841F08001016093
:1020C000016801F080010591016841F002010160A1
:1020D000016801F002010591016841F00801016009
:1020E000016801F008010591016841F040010160BB
:1020F000016801F040010591016841F001010160B2
:10210000016801F001010591016841F010010160D1
:1021100000684FF48067DFF8D080002200F01000E4
:10212000394605904046FEF741FBDFF8C09044F287
:102130000106002231464846FEF738FBDFF8B0A022
:10214000002202215046FEF731FB00246946701040
:102150000294CDE900042748FEF70AFA012500970A
:10216000CDE90154694640460394FEF701FA009612
:102170006946CDE9015448460394FEF7F9F98020F9
:102180004FF488118DE813001B486946FEF7F0F9FB
:10219000DFF868806802CDE9000469464046029491
:1021A000FEF7E6F90A20009702266946CDE90164A8
:1021B000CDE903404046FEF7DBF94FF4C0500090F4
:1021C000CDE90164694640460394FEF7D1F90096D3
:1021D0006946CDE9015450460394FEF7C9F906B0AB
:1021E000BDE8F08740450258001402580004025828
:1021F0000010025800080258001802580000025847
:102200001748002110B5154C0C224FF4E13304603F
:10221000C0E90131C160C0E904128161C16101629C
:1022200041628162FFF7B9FE08B172B6FEE70C4861
:102230000021FFF78CFE08B172B6FEE708480021C6
:10224000FFF75FFE08B172B6FEE70548FFF739FEFB
:10225000002801D072B6FEE710BD00000048004023
:1022600014000024FEE7FEE7704700002DE9F04768
:10227000454D044689464FF0000A2868C043800750
:102280000AD0414E283E306820F080603060FEF772
:1022900093FA0746B04608E00120BDE8F08700BF8A
:1022A000FEF78AFAC01B022867D8D8F800000001A0
:1022B000F6D4206829684FF4FE0721F47C313E02F1
:1022C00041EA00302860207AA389B4F804C04002B3
:1022D0002D4D2D495B1E227CACF1010C1035091DE2
:1022E000A0F5007080B2521ECCF3080C07EA03433D
:1022F00040EA0C00184306EA0262104328600868AE
:10230000626920F0C000104308600A68A06922F0EA
:10231000200202430A60281D0A6822F010020A60A7
:1023200002684FF6F873E4699A4342EAC402026015
:102330000868B9F1000F40F010020A6011D0086877
:10234000B9F1010F11D040F400100860D8F8000076
:10235000444640F08060C8F80000FEF72DFA0546BC
:102360000DE0086840F40020EFE740F48010ECE74F
:10237000FEF722FA401B022801D903208DE72068CE
:102380000001F5D5504688E7284402582DE9F0476A
:10239000454D044689464FF0000A2868C04380072F
:1023A0000AD0414E283E306820F080503060FEF761
:1023B00003FA0746B04608E00120BDE8F08700BFF9
:1023C000FEF7FAF9C01B022867D8D8F80000800091
:1023D000F6D4208829684FF4FE0721F07C713E0274
:1023E00041EA00502860207AA389B4F804C0400272
:1023F0002D4D2D495B1E227CACF1010C1835091DB9
:10240000A0F5007080B2521ECCF3080C07EA03431B
:1024100040EA0C00184306EA02621043286008688C
:10242000626920F44060104308600A68A06922F4E1
:10243000007202430A60281D0A6822F480720A6052
:1024400002684FF6F873E4699A4342EAC4020260F4
:102450000868B9F1000F40F480720A6011D0086872
:10246000B9F1010F11D040F080700860D8F8000079
:10247000444640F08050C8F80000FEF79DF905463C
:102480000DE0086840F48000EFE740F40000ECE75E
:10249000FEF792F9401B022801D903208DE720683E
:1024A0008000F5D5504688E7284402587047FEF76B
:1024B00089B9000030B59DB04C216846FDF7DDFFBD
:1024C000202113A8FDF7D9FF0420FEF75FFA1E486C
:1024D000016841F4404101600168002401F4404179
:1024E0001B9101688904FCD50DF1280C2122009272
:1024F0004FF4A02301930121069102200990182591
:102500008CE8230004220FA90C23CDE90D0281E8F9
:10251000190068461294FFF719FA08B172B6FEE77F
:1025200013AA3F20032182E813000221169413A866
:102530001794189419941A94FEF7F8FF002801D004
:1025400072B6FEE71DB030BD184802582748F0B5F6
:10255000274A016841F470010160106800F00F0023
:10256000032804D2106820F00F00C01C106021491D
:102570000020204C10340B681F4D43F001030B600A
:1025800020600B682B400B60136803F00F03032BD4
:1025900004D9136823F00F03DB1C1360154C174A92
:1025A0001834174B261D371D2060124C154D28344A
:1025B0003060261D3860371D23603B1D35601C1DB3
:1025C0003A60251D2E1D1860331D22602860326080
:1025D00018600A6843F2D204064B0B4D22F48022A5
:1025E00060330A6018602C60F0BD000088ED00E0E8
:1025F00000200052004402587FEDF6EA80020101FB
:10260000000202020000FF010040005230B5416E9E
:10261000B9B101680D4B03F108048A688968C2F3F7
:102620004262490F5D5C615C2D01B5FBF1F1A0F8E0
:102630006A10995CA25C0901B1FBF2F1A0F8681084
:1026400030BD0121A0F86A10F8E70000DE2C000878
:1026500090F82810C90706D00168C36A4A6822F4B6
:1026600000321A434A6090F82810890706D501689D
:10267000036B4A6822F480321A434A6090F82810AB
:10268000490706D50168436B4A6822F480221A4341
:102690004A6090F82810090706D50168836B4A68DC
:1026A00022F400421A434A6090F82810C90606D561
:1026B0000168C36B8A6822F480521A438A6090F8DA
:1026C0002810890606D50168036C8A6822F4005236
:1026D0001A438A6090F82810490611D50168436CA6
:1026E0004A6822F480121A434A60416CB1F5801F97
:1026F00006D10168836C4A6822F4C0021A434A601A
:1027000090F82810090606D50168C26C486820F4C4
:102710000020104348607047F8B500260446C0F812
:102720008C60FEF749F8054620686FF07E47006828
:10273000000708D500222B464FF4001120460097D1
:1027400000F008FA60B92068006840070AD5002246
:102750002B464FF480012046009700F0FBF908B1AA
:102760000320F8BD2020C4F88400C4F88800E66681
:10277000002084F88060F8BD2DE9F04304468068AD
:10278000E24E87B0E24B2168D4E90427D4F81CC09C
:1027900010430A68002547EA0C07384332400243D9
:1027A0000A602068E268416821F4405111434160A9
:1027B0002268A1699A4201D0206A01439668DFF835
:1027C00054C3D54FD54806EA0C060E4396602168DF
:1027D000666ACA6A22F00F023243CA622268BA42AB
:1027E0000ED1006800F0380018286FD07ADCB8B33A
:1027F00008286CD010286BD18BE0282868D18EE097
:10280000C7498A4209D1006800F0070006285FD254
:10281000DFE800F0507D7F818385C2498A4209D17B
:10282000006800F0070006287BD2DFE800F0437064
:1028300072747678BC498A4209D1006800F00700BA
:1028400006286ED2DFE800F036636567696BB7492A
:102850008A420BD1006800F00700062861D200E030
:1028600043E0DFE800F0275456585A5CB0498A42EA
:1028700006D1006800F0380018284CD0B7DD31E0F0
:10288000AC498A4209D1006800F00700062848D206
:10289000DFE800F0103D3F414345A7498A420BD194
:1028A000006800F0070006283BD2DFE800F00330A4
:1028B00032343638002035E0A0498A4209D1006818
:1028C00000F03800182826D091DD0BE023E01EE050
:1028D00027E09B498A420AD1006800F03800182896
:1028E00019D084DD202888D11CE001201AE09A420A
:1028F00017D18A48001D006800F00700062810D292
:10290000DFE800F0030507090B0D02200AE00420B0
:1029100008E0082006E0102004E0202002E040202B
:1029200000E080208749DFF820829A42874A4FF4EE
:1029300000434FEA21174FF000064ED110281AD05D
:1029400006DC022809D004280BD008287ED10DE02F
:1029500020283ED0402879D13DE0FEF759F80146C5
:1029600010E06846FEF766F801990BE003A8FEF751
:1029700003F9049906E01068800605D51068C0F3D5
:10298000C100C140002970D0606A676838F8102023
:1029900007EB4703B1FBF2F0834257D8B0EB073F98
:1029A00054D8002308461946FDF7F0FC0246780883
:1029B000130E120243EA012110183A467141002316
:1029C000FDF7E4FC624AA0F5407191423ED82168CF
:1029D0008FE03946D8E71946D6E7D4F81CC04FF641
:1029E000EF799C4546D1082819D005DC58B101285B
:1029F0000CD0042875D10DE0102815D0202835D032
:102A000040286ED134E0FEF7E1FE01E0FEF7F0FE73
:102A1000014610E06846FEF70DF801990BE003A8A7
:102A2000FEF7AAF8049906E01068800604D510683D
:102A3000C0F3C100C140C1B1636A606838F81330A7
:102A4000B1FBF3F1490001EB500100E049E0B1FBBB
:102A5000F0F0A0F11001494543D84FF6F07321681A
:102A6000C0F342021840104343E043E03946E3E735
:102A70001946E1E7082819D005DC58B101280CD027
:102A800004282ED10DE0102815D020282BD0402866
:102A900027D12AE0FEF79AFE01E0FEF7A9FE0146E3
:102AA00010E06846FDF7C6FF01990BE003A8FEF7AA
:102AB00063F8049906E01068800604D51068C0F336
:102AC000C100C140B1B1636A606838F81330B1FB2E
:102AD000F3F101EB5001B1FBF0F0A0F11001494519
:102AE00005D9012506E03946EDE71946EBE72168EF
:102AF00080B2C8600120A4F86A00A4F868002846E3
:102B00002667666707B0BDE8F0830000F369FFCF72
:102B1000000C0058FFF4FF1100100140544402580B
:102B20000044004000480040004C0040005000407D
:102B30000014014000780040007C00400018014073
:102B4000001C01400090D003C62C0008004402582D
:102B5000FFFC0F002DE9F0479A4617460E46044643
:102B6000089D4FF000094FF020084CE0681C4AD047
:102B7000FDF722FEA0EB0A00A8422AD84DB3206838
:102B8000016849073FD5C069C04300053BD42168AF
:102B90004FF400600862216851E8000F20F4D07003
:102BA00041E80002002AF6D12068083050E8001FF2
:102BB00021F0010140E80012002AF5D1C4F8848018
:102BC00084F88090C4F88880C4F88C800320BDE825
:102BD000F087206850E8001F21F4D07140E800120F
:102BE000002AF6D12068083050E8001F21F00101CA
:102BF00040E80012002AF5D1C4F8848084F880905F
:102C0000C4F88880E2E72068C06936EA000004D092
:102C10000020B842AAD00020D9E70120F9E7FEE75A
:102C2000090700284FEA116104DB00F1E02080F879
:102C30000014704700F00F0000F1E02080F8141D30
:102C4000704700001FB5002400940194029403947F
:102C5000FDF73CFE01208DF80C001F218DF80810B7
:102C600087228DF809208DF80D008DF80000684648
:102C70008DF80A408DF80E408DF8014001948DF8D2
:102C80000B408DF80F40FDF7F3FD0420FDF72CFEFF
:102C9000FDF7A0FDFFF70EFCFFF7F6F9FFF7B0FA1E
:102CA000054C4FF4FA7501212046FDF777FD2846C3
:102CB000FDF74CFCF7E70000000402584FF04070AD
:102CC000E1EE100A7047010002000400060008004F
:102CD0000A000C00100020004000800000010101EB
:102CE00001030701000008040204080101010000BB
:102CF00000000102030401020304060708090000A2
:102D0000202D00080000002414000000E802000844
:102D1000342D000814000024F40600000403000809
:102D20000100000010000000000000000090D0032F
:042D30000090D0033C
:04000005080002AD40
:00000001FF
