:020000040800F2
:10000000A8040024010010087B1810080918100823
:10001000A1120008AD030008451C00080000000004
:10002000000000000000000000000000FF191008A0
:100030004900100800000000A51200080D14000877
:100040001B0010081B0010081B0010081B001008E4
:100050001B0010081B0010081B0010081B001008D4
:100060001B0010081B0010081B0010081B001008C4
:100070001B0010081B0010081B0010081B001008B4
:100080001B0010081B0010081B0010081B001008A4
:100090001B0010081B0010081B0010081B00100894
:1000A0001B0010081B0010081B0010081B00100884
:1000B0001B0010081B0010081B0010081B00100874
:1000C0001B0010081B0010081B0010081B00100864
:1000D0001B0010081B0010081B0010081B00100854
:1000E0001B0010081B0010081B0010081B00100844
:1000F0001B0010081B0010081B0010081B00100834
:100100001B0010081B0010081B0010081B00100823
:100110001B0010081B0010081B0010081B00100813
:100120001B0010081B0010081B0010081B00100803
:100130001B00100800000000000000001B00100859
:100140001B0010081B0010081B0010081B001008E3
:100150001B0010081B0010081B0010081B001008D3
:100160001B0010081B0010081B0010081B001008C3
:100170001B0010081B0010081B00100800000000E6
:100180001B0010081B0010081B0010081B001008A3
:100190001B0010081B0010081B0010081B00100893
:1001A0001B0010081B0010081B0010081B00100883
:1001B0001B0010081B0010081B0010081B00100873
:1001C0001B0010081B0010080000000000000000C9
:1001D00000000000000000001B00100800000000EC
:1001E000000000000000000000000000000000000F
:1001F00000000000000000001B0010081B00100899
:100200001B0010081B001008000000001B00100855
:100210001B0010081B0010081B0010081B00100812
:100220001B0010081B0010081B0010080000000035
:100230001B0010081B001008000000001B00100825
:100240001B0010081B0010081B0010081B001008E2
:100250001B0010081B0010081B0010081B001008D2
:100260001B0010081B0010081B0010081B001008C2
:100270001B0010081B0010081B00100800000000E5
:100280001B0010081B001008000000001B001008D5
:10029000000000001B0010081B00100800000000F8
:1002A000000000001B0010081B001008DFF80CD035
:1002B00000F06AF800480047791C0008A8040024F0
:1002C0002DE9F05F0546002092469B46884606468B
:1002D000814640241BE0284641464746224600F01E
:1002E00042F853465A46C01A914110D31146184657
:1002F000224600F029F82D1A67EB01084F462246E6
:100300000120002100F020F817EB00094E41201ECB
:10031000A4F10104DFDC484631462A464346BDE8E5
:10032000F09F00000649074A0868504343F239022B
:100330001044086040087047014908607047000099
:10034000140000246D4EC641202A04DB203A00FA36
:1003500002F1002070479140C2F1200320FA03F31C
:10036000194390407047202A04DB203A21FA02F01A
:100370000021704721FA02F3D040C2F120029140DF
:100380000843194670470000064C074D06E0E06838
:1003900040F0010394E8070098471034AC42F6D3CC
:1003A000FFF788FFF81C0008181D000800BFFEE7D3
:1003B00070B50446FFF054FF06462546681C10B190
:1003C00004480078054400BFFFF04AFF801BA842A4
:1003D000FAD370BD080000240AB1816101E00B046A
:1003E000836170470348006803490978084401495C
:1003F00008607047000000240800002410B50320A6
:10040000FFF09EFF00F0FCF810490968C1F30321DA
:100410000F4A515C01F01F0120FA01F40B480068FB
:1004200000F00F001146085C00F01F0024FA00F0F5
:1004300008490860084804600020FFF017FF08B171
:10044000012010BD00F06EF80020FAE718440258B1
:10045000C61C1008100000240C0000244178154A26
:1004600011600178F9B1121D41681160017B090723
:10047000C27A41EA0261827A41EAC241427B41EAA0
:100480008241827B41EA4241C27B41EA0241427A97
:1004900041EA0221027A41EA420102781143054A07
:1004A0000832116005E00021024A121D1160121D80
:1004B0001160704798ED00E000BF00BF00BFBFF3C0
:1004C0005F8F00BF00BF00BF0548006820F4803088
:1004D000034908600020024970310860704700003D
:1004E00024ED00E040F001010D4A11600C49703923
:1004F000096841F480310A4A703A116000BF00BFB8
:1005000000BFBFF34F8F00BF00BF00BF00BF00BFE1
:1005100000BFBFF36F8F00BF00BF00BF7047000078
:1005200094ED00E008B500BF0648006840F0020006
:10053000044908600846006800F00200009000BF0F
:1005400000BF08BD5445025870B5044622480068F3
:1005500000F00700062809D01F48006800F03F009F
:10056000A04201D0012070BD0020FCE71A480068BD
:1005700020F03F00204318490860FFF071FE054657
:1005800007E0FFF06DFE401BB0F57A7F01D9012036
:10059000E9E7114808380068C0F340300028F0D07F
:1005A0001E2C05D02E2C03D01D2C01D02D2C11D1AA
:1005B000FFF056FE054607E0FFF052FE401BB0F587
:1005C0007A7F01D90120CEE703480068C0F30040DC
:1005D0000028F1D00020C6E70C48025800B501F110
:1005E00007F805490968C1F30221044A515C01F08A
:1005F0001F01C84000BD00001C440258C61C100862
:10060000F0B5824E366806F0380636B1082E15D0A1
:10061000102E15D0182E7DD114E07C4E103E366879
:10062000C6F3401646B1794E103E3668C6F3C10790
:10063000774E26FA07F000E07548E5E07548E3E0FC
:100640007548E1E0714E1836366806F003046F4EC7
:1006500018363668C6F305116C4E1C36366806F03F
:1006600001056A4E24363668C6F3CC0616FB05F63D
:1006700001EE106AB8EE410A002971D024B1012CB4
:1006800050D0022C6DD16DE0604E103E3668C6F33E
:1006900040163EB35D4E103E3668C6F3C1075C4E51
:1006A00026FA07F301EE103AF8EE411A01EE101A9D
:1006B000B8EE411A81EE812A9FED581AC0EE011A58
:1006C000524E20363668C6F3080601EE106AB8EEC0
:1006D000411A31EE811AF7EE001A31EE211A62EE5C
:1006E000010A1EE001EE101AB8EE411ADFED4C1AB5
:1006F00081EE812A9FED491AC0EE011A434E203641
:100700003668C6F3080601EE106AB8EE411A31EEFB
:10071000811A00E076E0F7EE001A31EE211A62EE5F
:10072000010A5BE001EE101AB8EE411A9FED3D2A76
:10073000C2EE011A9FED391A80EE012A334E20369F
:100740003668C6F3080601EE106AB8EE411A32EEBA
:10075000011AB7EE002A31EE021A61EE810A3DE07D
:100760004EE01DE001EE101AB8EE411ADFED2E1A30
:1007700081EE812A9FED291AC0EE011A234E203600
:100780003668C6F3080601EE106AB8EE411A31EE7B
:10079000811AF7EE001A31EE211A62EE010A1DE00D
:1007A00001EE101AB8EE411A9FED1E2AC2EE011A90
:1007B0009FED1A1A80EE012A144E20363668C6F3D1
:1007C000080601EE106AB8EE411A32EE011AB7EED1
:1007D000002A31EE021A61EE810A00BF00BF0B4E03
:1007E00020363668C6F34626721C01EE102AB8EE93
:1007F000411AC0EE811ABCEEE11A11EE100A00E0B7
:10080000002001E0034800BF00BFF0BD10440258C3
:100810000090D00300093D0000127A00000000465D
:100820000024744C0024744A0024F44A2DE9F04753
:10083000044614B90120BDE8F087207800F00100DB
:1008400000286ED0FE48006800F03808FC481830D8
:10085000D0F80090B8F1100F06D0B8F1180F0FD1F2
:1008600009F0030002280BD1F54810380068C0F3E6
:10087000404000286FD0606800286CD10120DAE782
:1008800000BF6068B0F5803F08D1ED4810380068BF
:1008900040F48030EA491039086055E0606890B94A
:1008A000E7481038006820F48030E54910390860C6
:1008B0000846006820F4801008600846006820F4AC
:1008C0008020086040E06068B0F5A02F12D1DC48BD
:1008D0001038006840F48020D94910390860084673
:1008E000006820F4801008600846006840F48030FA
:1008F000086029E06068B0F5A81F13D1D04810380F
:10090000006840F48020CE4910390860084600682D
:1009100040F4801008600846006840F480300860A9
:1009200012E03BE0C6481038006820F48030C4492B
:10093000103908600846006820F4802008600846E6
:10094000006820F48010086000BF606898B1FFF074
:1009500087FC054607E020E0FFF082FC401B64288E
:1009600001D9032067E7B64810380068C0F340405B
:100970000028F1D011E0FFF073FC054606E0FFF01F
:100980006FFC401B642801D9032054E7AC481038A1
:100990000068C0F340400028F1D100BF207800F08B
:1009A0000200022879D1A648006800F03808A4485F
:1009B0001830D0F80090B8F1000F05D0B8F1180F3A
:1009C00035D109F0030088BB9D4810380068C0F39A
:1009D000800018B1E06808B901202CE79848103869
:1009E000006820F01900E168084395491039086053
:1009F000FFF036FC054606E0FFF032FC401B022803
:100A000001D9032017E78E4810380068C0F3800032
:100A10000028F1D08A480C38006820F0FE40217C84
:100A200040EA016086490C39086045E0FFE7E0686C
:100A300038B383481038006820F01900E168084393
:100A40007F4910390860FFF00BFC054606E0FFF017
:100A500007FC401B022801D90320ECE67848103837
:100A60000068C0F380000028F1D075480C38006899
:100A700020F0FE40217C40EA016071490C39086099
:100A80001AE06F481038006820F001006C491039F6
:100A90000860FFF0E5FB054607E00EE0FFF0E0FB35
:100AA000401B022801D90320C5E6654810380068BC
:100AB000C0F380000028F1D100BF207800F01000C2
:100AC00010286FD15E48006800F038085C48183084
:100AD000D0F80090B8F1080F06D0B8F1180F1CD16B
:100AE00009F00300012818D1554810380068C0F3F8
:100AF000002020B1E069802801D001209BE600BFE2
:100B00004F48001F006820F07C5094F8201040EA05
:100B100001604B49091F086043E0E06938B3484869
:100B20001038006840F08000454910390860FFF037
:100B300097FB054606E0FFF093FB401B022801D916
:100B4000032078E63E4810380068C0F300200028F3
:100B5000F1D000BF3A48001F006820F07C5094F8A4
:100B6000201040EA01603649091F086019E0344846
:100B70001038006820F08000314910390860FFF01B
:100B80006FFB054606E0FFF06BFB401B022801D916
:100B9000032050E62A4810380068C0F300200028DF
:100BA000F1D100BF207800F00800082836D1606934
:100BB000D0B123486430006840F00100204964311E
:100BC0000860FFF04DFB054606E0FFF049FB401BC7
:100BD000022801D903202EE6194864300068C0F3CA
:100BE00040000028F1D019E015486430006820F07A
:100BF0000100134964310860FFF032FB054606E04E
:100C0000FFF02EFB401B022801D9032013E60C48FD
:100C100064300068C0F340000028F1D1207800F073
:100C20002000202835D1A069E0B1054810380068BF
:100C300040F48050024910390860FFF011FB01E0D8
:100C400010440258054606E0FFF00AFB401B02284C
:100C500001D90320EFE5D9480068C0F340300028EF
:100C6000F2D016E0D548006820F48050D3490860DF
:100C7000FFF0F6FA054606E0FFF0F2FA401B022804
:100C800001D90320D7E5CD480068C0F340300028E3
:100C9000F2D1207800F0040004287DD1C848006813
:100CA00040F48070C6490860FFF0DAFA054606E0B5
:100CB000FFF0D6FA401B642801D90320BBE5C048E9
:100CC000006800F480700028F2D000BFA0680128FE
:100CD00008D1BA487030006840F00100B74970315F
:100CE000086052E0A06890B9B4487030006820F005
:100CF0000100B249703108600846006820F08000A9
:100D000008600846006820F0040008603DE0A06824
:100D1000052812D1A9487030006840F00400A749A6
:100D2000703108600846006820F0800008600846BE
:100D3000006840F00100086027E0A068852812D113
:100D40009E487030006840F004009C497031086093
:100D50000846006840F0800008600846006840F0DF
:100D60000100086011E095487030006820F0010033
:100D70009249703108600846006820F0040008605D
:100D80000846006820F08000086000BFA068A8B195
:100D9000FFF066FA054609E024E0FFF061FA401B27
:100DA00041F28831884201D9032044E583487030FC
:100DB0000068C0F340000028EFD013E0FFF050FAC5
:100DC000054608E0FFF04CFA401B41F288318842AA
:100DD00001D903202FE5794870300068C0F3400046
:100DE0000028EFD1606A00287DD074481030006878
:100DF00000F03800182877D0606A022875D16F4853
:100E0000006820F080706D490860FFF029FA0546FF
:100E100006E0FFF025FA401B022801D903200AE56D
:100E200066480068C0F340600028F2D100BFD4E9F2
:100E30000A1041EA001061492831096840F2F33292
:100E4000914308435D4928310860208E401EC0F35D
:100E50000800616B491E4FF47E4202EA41210843BB
:100E6000218F491ED20102EA014108433C21095D5C
:100E7000491E120202EA01610843504930310860FC
:100E800000BF081F006820F00100091F08604B48E0
:100E9000343000684FF6F8718843A16C40EAC10015
:100EA00046493431086045482C30006820F00C0079
:100EB000216C084341492C3108600846006820F045
:100EC0000200616C08433D492C3108600846006807
:100ED00040F4803008600846006840F40030086044
:100EE0000846006802E066E038E01FE040F4802039
:100EF00008600846006840F0010008602F4800685C
:100F000040F080702D490860FFF0AAF9054606E020
:100F1000FFF0A6F9401B022801D903208BE42748E3
:100F20000068C0F340600028F2D044E02348006825
:100F300020F0807021490860FFF092F9054606E034
:100F4000FFF08EF9401B022801D9032073E41B48EF
:100F50000068C0F340600028F2D12CE01748283028
:100F60000768164830300668606A012821D007F00B
:100F70000301A06A81421CD1C7F30511E06A8842CF
:100F800017D1C6F30801206B401E814211D1606B5E
:100F9000401EC6F3462188420BD1A06B401EC6F30B
:100FA0000641884205D1E06B401EC6F306618842C7
:100FB00001D001203FE400203DE40000004402583D
:100FC0000048025870B504462546681EB0F1807F7F
:100FD00001D301200FE0681E4FF0E02148610F218E
:100FE0004FF0FF3000F136FE00204FF0E021886125
:100FF00007200861002070BD10B504460CB901201F
:1010000010BDA06900B100E000BFD4F8840028B989
:10101000002084F88000204600F1A8FB2420C4F8BA
:1010200084002068006820F00100216808602046E4
:1010300000F0F4FA012800D1E2E7A06A10B12046DE
:1010400000F070FA2068406820F490402168486001
:101050002068806820F02A00216888602068006885
:1010600040F0010021680860204600F139FDC7E723
:101070001FB500200090019002900390FFF71CFA2A
:1010800001208DF8000000208DF8010001901F2044
:101090008DF8080087208DF8090000208DF80A00DF
:1010A0008DF80B0001208DF80C008DF80D0000204C
:1010B0008DF80E008DF80F006846FFF7CFF9042079
:1010C000FFF710FA1FBD000000B587B0142102A879
:1010D000FEF0AFFF00BF6B48006840F004006949B4
:1010E00008600846006800F00400019000BF00BFDF
:1010F00000BF0846006840F020000860084600680D
:1011000000F02000019000BF00BF00BF084600684B
:1011100040F0800008600846006800F08000019000
:1011200000BF00BF00BF0846006840F00200086032
:101130000846006800F00200019000BF00BF00BF39
:101140000846006840F0080008600846006800F0A3
:101150000800019000BF00BF00BF0846006840F0D3
:10116000400008600846006800F04000019000BFA1
:1011700000BF00BF0846006840F001000860084654
:10118000006800F00100019000BF00BF00BF0846EA
:10119000006840F0100008600846006800F0100089
:1011A000019000BF00BF00224FF480613648FFF776
:1011B00013F9002244F201013448FFF70DF900222F
:1011C00002213348FFF708F94FF400500290002045
:1011D0000390049002A92F48FEF03AFF4FF480607C
:1011E00002900120039000200490059002A9264857
:1011F000FEF02EFF44F20100029001200390002037
:101200000490059002A92148FEF022FF8020029060
:101210004FF4881003900020049002A91E48FEF0AD
:1012200017FF4FF40070029000200390049002A971
:101230001A48FEF00DFF4FF48060029002200390E8
:101240000020049005900A20069002A91348FEF0A1
:10125000FFFE4FF4C0500290022003900020049043
:10126000059002A90D48FEF0F3FE02200290012035
:10127000039000200490059002A90548FEF0E8FEC6
:1012800007B000BD4045025800140258000402583F
:1012900000100258000802580018025800000258B6
:1012A00000BFFEE7704700002DE9F04104460E46FE
:1012B00000275548006800F00300032802D10120F0
:1012C000BDE8F08150482838006820F080504E4931
:1012D00028390860FEF0C4FF054606E0FEF0C0FFB6
:1012E000401B022801D90320EAE747482838006854
:1012F000C0F340700028F1D100BF4348006820F0DF
:101300007C70218840EA01503F490860A088401E57
:10131000C0F30800A168491E4FF47E4202EA412151
:101320000843A189491ED20102EA01410843217CF8
:10133000491E120202EA016108433349183108606C
:1013400000BF3148001D006820F440606169084317
:101350002D49091D08600846006820F40070A16945
:1013600008432949091D08600846006820F4807078
:10137000086025481C3000684FF6F8718843E16921
:1013800040EAC10020491C3108601F48001D006868
:1013900040F480701C49091D08602EB90846006899
:1013A00040F48000086012E0012E08D11648001DAC
:1013B000006840F400001449091D086007E0124865
:1013C000001D006840F080700F49091D08600E483C
:1013D0002838006840F080500B4928390860FEF03A
:1013E0003FFF054606E0FEF03BFF401B022801D907
:1013F000032065E7044828380068C0F340700028DF
:10140000F1D038465CE700002844025810B5FEF7DA
:10141000E9FF10BD00B59DB04C210AA8FEF009FE01
:10142000202102A8FEF005FE0420FFF78DF800BF82
:10143000002001902448006840F4404022490860A0
:101440000846006800F44040019000BF00BF00BFA4
:101450001D48006800F40050B0F5005FF8D121206D
:101460000A904FF4A0200B900120109002201390BE
:101470000221149101211591182116910221179131
:1014800004211891022119910C211A9100211B911C
:101490001C910AA8FFF7CAF908B1FEF0D6FD3F205B
:1014A000029003200390002004900590069007907E
:1014B00008900990022102A8FFF00AFF08B1FEF08F
:1014C000C4FD1DB000BD00001848025870B5456E3F
:1014D0002DB90125A0F86A50A0F868501CE010232F
:1014E00010240568AD68C5F342610568AD686A0FF0
:1014F0000A4DAD5C15FB04F5094EB65C95FBF6F59F
:10150000A0F86A50054D6D5C15FB03F5044E765C42
:1015100095FBF6F5A0F8685070BD0000E81C0008C7
:10152000F01C000890F8281001F0010139B10168A1
:10153000496821F40031C26A11430268516090F891
:10154000281001F00201022907D10168496821F43D
:101550008031026B11430268516090F8281001F04D
:101560000401042907D10168496821F48021426BF4
:1015700011430268516090F8281001F00801082911
:1015800007D10168496821F40041826B1143026868
:10159000516090F8281001F01001102907D101685E
:1015A000896821F48051C26B11430268916090F800
:1015B000281001F02001202907D10168896821F451
:1015C0000051026C11430268916090F8281001F0FC
:1015D0004001402913D10168496821F48011426C0F
:1015E000114302685160416CB1F5801F07D1016859
:1015F000496821F4C001826C11430268516090F87F
:10160000281001F08001802907D10168496821F480
:101610000021C26C11430268516070472DE9F04F00
:1016200089B0054600200890F8492868884200D112
:1016300000E000BF2969A868084369690843E969AF
:1016400040EA010828680068F149084040EA0800BB
:10165000296808602868406820F44050E968084319
:1016600029684860D5F81880E8492868884202D07F
:10167000286A40EA080828688068E649084040EA85
:101680000800296888602868C06A20F00F00696A2D
:1016900008432968C86200BFDF492868884220D112
:1016A000DE48006800F03800182811D005DC48B189
:1016B000082809D0102811D108E020280AD02828AD
:1016C0000CD109E001240BE0042409E0082407E020
:1016D000102405E0202403E0402401E0802400BF22
:1016E00042E1CF492868884219D1CC48006800F00F
:1016F0000700062810D2DFE800F0030507090B0DEC
:1017000000240BE0042409E0082407E0102405E08D
:10171000202403E0402401E0802400BF24E1C149EB
:101720002868884219D1BD48006800F007000628E3
:1017300010D2DFE800F0030507090B0D00240BE0D1
:10174000042409E0082407E0102405E0202403E035
:10175000402401E0802400BF06E1B34928688842A4
:1017600019D1AE48006800F00700062810D2DFE863
:1017700000F0030507090B0D00240BE0042409E029
:10178000082407E0102405E0202403E0402401E0C1
:10179000802400BFE8E0A5492868884219D19F4805
:1017A000006800F00700062810D2DFE800F003050B
:1017B00007090B0D00240BE0042409E0082407E0CE
:1017C000102405E0202403E0402401E0802400BF31
:1017D000CAE097492868884220D19048006800F004
:1017E0003800182811D005DC48B1082809D0102885
:1017F00011D108E020280AD028280CD109E00124C2
:101800000BE0042409E0082407E0102405E020246C
:1018100003E0402401E0802400BFA5E0854928685A
:10182000884219D17D48006800F00700062810D2D0
:10183000DFE800F0030507090B0D00240BE004248A
:1018400009E0082407E0102405E0202403E04024F8
:1018500001E0802400BF87E077492868884219D1D9
:101860006E48006800F00700062810D2DFE800F09C
:10187000030507090B0D00240BE0042409E00824EC
:1018800007E0102405E0202403E0402401E0802448
:1018900000BF69E069492868884220D15F48006834
:1018A00000F03800182811D005DC48B1082809D00C
:1018B000102811D108E020280AD028280CD109E0EE
:1018C00001240BE0042409E0082407E0102405E0CB
:1018D000202403E0402401E0802400BF44E0584974
:1018E0002868884220D14D48006800F03800182848
:1018F00011D005DC48B1082809D0102811D108E022
:1019000020280AD028280CD109E001240BE0042467
:1019100009E0082407E0102405E0202403E0402427
:1019200001E0802400BF1FE03849286888421AD1AE
:101930003A48001D006800F00700062810D2DFE8D2
:1019400000F0030507090B0D02240BE0042409E055
:10195000082407E0102405E0202403E0402401E0EF
:10196000802400BF00E0802400BF28492868884206
:101970004BD1102C1AD006DC022C09D0042C0BD031
:10198000082C29D10DE0202C21D0402C24D120E09E
:10199000FEF0EAFC064623E005A8FEF0F7FC069EF2
:1019A0001EE002A8FEF00AFE039E19E01B48543810
:1019B0000068C0F3401040B1184854380068C0F3C4
:1019C000C101204820FA01F600E01E4E08E01E4E3C
:1019D00006E04FF4004603E000260120089000BF17
:1019E00000BF002E10D01949686A31F81000B6FB0C
:1019F000F0F9686800EB4000484503D868680003C8
:101A0000484525D20120089007E153E0000C00581A
:101A1000F369FFCFFFF4FF11001001405444025856
:101A20000044004000480040004C0040005000408E
:101A30000014014000780040007C00400018014084
:101A4000001C01400090D00300093D00AE1C1008AE
:101A50007849686A31F810C062460023304619465A
:101A6000FEF72EFC4FF4807C00220346A3FB0C0BF8
:101A700001FB0CB103FB02136968490884461CEBA7
:101A8000010143EB0200CDE90010D5F804C0624625
:101A9000002308460199FEF713FC0746B7F5407F7F
:101AA00005D3B7F5801F02D22868C760B5E00120D2
:101AB0000890B2E0E869B0F5004F5BD1082C1AD06D
:101AC00005DC5CB1012C0DD0042C2DD10EE0102CC6
:101AD00016D0202C23D0402C26D122E0FFF0AEFDE2
:101AE000064625E0FEF77AFD064621E005A8FEF051
:101AF0004DFC069E1CE002A8FEF060FD039E17E070
:101B00004D480068C0F3401038B14B480068C0F33E
:101B1000C1014A4820FA01F600E0484E08E0484E6C
:101B200006E04FF4004603E000260120089000BFC5
:101B300000BF7EB33F49686A31F81000B6FBF0F091
:101B40004000696800EB5100B0FBF1F7102F0ED395
:101B5000B7F5803F0BD24FF6F07007EA000AC7F3E3
:101B600042004AEA000A2868C0F80CA055E00120AB
:101B7000089052E0082C1BD005DC64B1012C0ED07B
:101B8000042C2ED10FE0102C17D0202C24D0402C68
:101B900027D123E041E0FFF051FD064625E0FEF7A6
:101BA0001DFD064621E005A8FEF0F0FB069E1CE0A8
:101BB00002A8FEF003FD039E17E01F480068C0F373
:101BC000401038B11C480068C0F3C1011B4820FA1E
:101BD00001F600E0194E08E0194E06E04FF4004609
:101BE00003E000260120089000BF00BFAEB11149FC
:101BF000686A31F81000B6FBF0F0696800EB51003C
:101C0000B0FBF1F7102F06D3B7F5803F03D2B8B27F
:101C10002968C86001E0012008900120A5F86A0049
:101C2000A5F86800002028676867089809B0BDE833
:101C3000F08F0000AE1C1008004402580090D00342
:101C400000093D0000BFFEE702480068C0F3022023
:101C5000704700000CED00E002E008C8121F08C148
:101C6000002AFAD170477047002001E001C1121F1D
:101C7000002AFBD170470000FFF7FAF9FEF7BEFB20
:101C8000FFF7C8FBFFF720FAFFF0C0FDFFF0F4FDFF
:101C900025E0FEF0E5FA0546FEF74EFBFEF742FBB7
:101CA000032190FBF1F201FB1200401CC4B2012C95
:101CB00004D0022C07D0032C10D109E001210848E0
:101CC000FFF090FE0AE002210648FFF08BFE05E0DF
:101CD0004FF480410248FFF085FE00BF00BFD8E707
:101CE000000402580010025801010103070100001E
:101CF0000804020408010101181D00080000002466
:101D000018000000581C0008301D000818000024AE
:101D100090040000681C0008000000001000000093
:101D2000010000000090D0030090D00300000000EC
:020000040810E2
:100000000648804706480047FEE7FEE7FEE7FEE7B2
:10001000FEE7FEE7FEE7FEE7FEE7FEE7011A10084F
:10002000AD020008D2B201E000F8012B491EFBD25C
:1000300070470022F6E710B513460A4604461946F3
:10004000FFF7F0FF204610BD704772B600BFFEE715
:10005000F8B502460B4600216F4DD7E001278F40CF
:100060001E6806EA0704002C72D01E7906F003060B
:10007000012E04D01E7906F00306022E13D19068DB
:100080004F000326BE40B0434F00DE68BE40304301
:100090009060506801268E40B0431E79C6F300166A
:1000A0008E40304350601E7906F00306032E09D0BF
:1000B000D0684F000326BE40B0434F009E68BE404C
:1000C0003043D0601E7906F00306022E13D1CF080C
:1000D00002F1200656F827004E07F70E0F26BE4005
:1000E000B0434F07FF0E1E69BE403043CF0802F1F8
:1000F000200646F8270010684F000326BE40B04394
:100100001E7906F003064F00BE40304310605E6863
:1001100006F44036002E78D000BF404E366846F0D8
:1001200002063E4F3E603E46366806F002060096E6
:1001300000BF00BF3A4E8F0856F827008E07370FD2
:100140000F26BE40B043374EB24202D100262EE009
:100150005BE0354EB24201D1012628E0334EB24277
:1001600001D1022623E0324EB24201D103261EE025
:10017000304EB24201D1042619E02F4EB24201D1D5
:10018000052614E02D4EB24201D106260FE02C4E7A
:10019000B24201D107260AE02A4EB24201D1082616
:1001A00005E0294EB24201D1092600E00A268F0758
:1001B0003F0FBE4030431A4E8F0846F827004FF0DD
:1001C000B0463068A0435E6806F4801606B120434E
:1001D0004FF0B04630607068A0435E6806F40016C9
:1001E00006B120434FF0B04670606868A0435E6877
:1001F00006F4003606B1204368602868A0435E68B4
:1002000006F4803606B120432860491C1E68CE40A3
:10021000002E7FF423AFF8BD8000005854450258EB
:100220000804005800000258000402580008025850
:10023000000C02580010025800140258001802580E
:10024000001C0258002002580024025810B54269D0
:1002500021EA020302EA010443EA0443836110BD78
:1002600001480068704700000000002470B5044693
:100270001148007808B9012070BD0F4800784FF48C
:100280007A71B1FBF0F00D490968B1FBF0F5284631
:1002900000F798FE08B10120EEE7102C07D20022EB
:1002A0002146501E00F00EF80548046001E00120D0
:1002B000E2E70020E0E70000080000240C00002432
:1002C000040000242DE9F05F80460D46164601F734
:1002D000BBFC074639462A46334601F00700C0F109
:1002E000070ABAF1040F02D94FF0040A01E0C0F185
:1002F000070AD14600F1040ABAF1070F02D24FF003
:10030000000A01E0A0F1030AD4464FF0010A0AFAFC
:1003100009FAAAF1010A0AEA020A0AFA0CFA4FF0EB
:10032000010B0BFA0CFBABF1010B0BEA030B4AEAD6
:100330000B042146404601F08DFCBDE8F09F000013
:1003400000BF00F00702064B19684FF6FF03194083
:10035000044B0B4343EA0221014B196000BF704775
:100360000CED00E00000FA0510B501F041F9054977
:100370000968C1F30211044A515C01F01F01C84031
:1003800010BD000020440258C61C100870B501467C
:10039000844D2D6805F00303824D2D68C5F30530AB
:1003A000804D2D1D2D68C5F300147E4D14352D682C
:1003B000C5F3CC0515FB04F501EE105AB8EE411A51
:1003C000F0EE410A00286FD023B1012B4ED0022B52
:1003D0006BD16BE0734D283D2D68C5F340153DB3DF
:1003E000704D283D2D68C5F3C1066F4D25FA06F204
:1003F00001EE102AF8EE411A01EE100AB8EE411A89
:1004000081EE812A9FED691AC0EE811A654D103583
:100410002D68C5F3080501EE105AB8EE411A31EE09
:10042000811AF7EE001A31EE211A22EE010A1CE0C1
:1004300001EE100AB8EE411ADFED5D1A81EE812A55
:100440009FED5A1AC0EE811A564D10352D68C5F32E
:10045000080501EE105AB8EE411A31EE811AF7EE96
:10046000001A31EE211A22EE010A5BE001EE100AB9
:10047000B8EE411ADFED4F1A81EE812A9FED4B1A3B
:10048000C0EE811A474D10352D68C5F3080501EE01
:10049000105AB8EE411A31EE811AF7EE001A31EE19
:1004A000211A22EE010A3DE077E01DE001EE100A7C
:1004B000B8EE411A9FED402AC2EE011A9FED3B1A99
:1004C00080EE812A374D10352D68C5F3080501EE01
:1004D000105AB8EE411A32EE011AB7EE002A31EE88
:1004E000021A21EE810A1DE001EE100AB8EE411A4F
:1004F000DFED301A81EE812A9FED2C1AC0EE811AB1
:10050000284D10352D68C5F3080501EE105AB8EED8
:10051000411A31EE811AF7EE001A31EE211A22EE5D
:10052000010A00BF00BF1F4D10352D68C5F34625D9
:1005300001EE105AB8EE411AF7EE001A31EE211A08
:10054000C0EE011ABCEEE11A81ED001A154D10350E
:100550002D68C5F3064501EE105AB8EE411AF7EEC4
:10056000001A31EE211AC0EE011ABCEEE11A81ED3B
:10057000011A0C4D10352D68C5F3066501EE105AB1
:10058000B8EE411AF7EE001A31EE211AC0EE011A48
:10059000BCEEE11A81ED021A03E000250D604D600A
:1005A0008D6070BD284402580090D00300000046C2
:1005B0000024744C0024744A0024F44A70B50146A7
:1005C000844D2D6805F00303824D2D68C5F3055059
:1005D000804D2D1D2D68C5F300247E4D1C352D68E2
:1005E000C5F3CC0515FB04F501EE105AB8EE411A1F
:1005F000F0EE410A00286FD023B1012B4ED0022B20
:100600006BD16BE0734D283D2D68C5F340153DB3AC
:10061000704D283D2D68C5F3C1066F4D25FA06F2D1
:1006200001EE102AF8EE411A01EE100AB8EE411A56
:1006300081EE812A9FED691AC0EE811A654D183549
:100640002D68C5F3080501EE105AB8EE411A31EED7
:10065000811AF7EE001A31EE211A22EE010A1CE08F
:1006600001EE100AB8EE411ADFED5D1A81EE812A23
:100670009FED5A1AC0EE811A564D18352D68C5F3F4
:10068000080501EE105AB8EE411A31EE811AF7EE64
:10069000001A31EE211A22EE010A5BE001EE100A87
:1006A000B8EE411ADFED4F1A81EE812A9FED4B1A09
:1006B000C0EE811A474D18352D68C5F3080501EEC7
:1006C000105AB8EE411A31EE811AF7EE001A31EEE7
:1006D000211A22EE010A3DE077E01DE001EE100A4A
:1006E000B8EE411A9FED402AC2EE011A9FED3B1A67
:1006F00080EE812A374D18352D68C5F3080501EEC7
:10070000105AB8EE411A32EE011AB7EE002A31EE55
:10071000021A21EE810A1DE001EE100AB8EE411A1C
:10072000DFED301A81EE812A9FED2C1AC0EE811A7E
:10073000284D18352D68C5F3080501EE105AB8EE9E
:10074000411A31EE811AF7EE001A31EE211A22EE2B
:10075000010A00BF00BF1F4D18352D68C5F346259F
:1007600001EE105AB8EE411AF7EE001A31EE211AD6
:10077000C0EE011ABCEEE11A81ED001A154D1835D4
:100780002D68C5F3064501EE105AB8EE411AF7EE92
:10079000001A31EE211AC0EE011ABCEEE11A81ED09
:1007A000011A0C4D18352D68C5F3066501EE105A77
:1007B000B8EE411AF7EE001A31EE211AC0EE011A16
:1007C000BCEEE11A81ED021A03E000250D604D60D8
:1007D0008D6070BD284402580090D0030000004690
:1007E0000024744C0024744A0024F44A2DE9F0419A
:1007F00004460025A846206800F00060B0F1006FB4
:1008000030D1A06E48B1B0F5801F0DD0B0F5001FFB
:1008100010D0B0F5401F15D113E0F848006840F43F
:100820000030F64908600FE00221201D01F028F891
:10083000054609E0022104F1240000F735FD0546D4
:1008400002E001E0012500BF00BF55B9EB482430AC
:10085000006820F44010A16E0843E8492431086084
:1008600000E0A846208800F48070B0F5807F2DD18C
:10087000606D05281AD2DFE800F0030A101718008F
:10088000DE48006840F40030DC49086010E00021D8
:10089000201D00F0F5FF05460AE0002104F12400C8
:1008A00000F702FD054603E002E001E0012500BF7C
:1008B00000BF55B9D1482430006820F00700616DB1
:1008C0000843CE492431086000E0A846208800F49F
:1008D0000070B0F5007F37D1A06DC02821D005DCB5
:1008E00058B1402810D080281ED113E0B0F5807F89
:1008F00018D0B0F5A07F17D115E0C048006840F4CB
:100900000030BE49086011E00021201D00F0B8FF52
:1009100005460BE0002104F1240000F7C5FC054664
:1009200004E003E002E001E0012500BF00BF55B98B
:10093000B2482430006820F4E070A16D0843AF494C
:100940002431086000E0A846208800F48060B0F5FB
:10095000806F3AD1E06DB0F5C06F23D007DC68B18D
:10096000B0F5007F11D0B0F5806F1ED113E0B0F567
:10097000006F18D0B0F5206F17D115E09F480068C0
:1009800040F400309D49086011E00021201D00F076
:1009900077FF05460BE0002104F1240000F784FCFA
:1009A000054604E003E002E001E0012500BF00BFCE
:1009B00055B992482430006820F46060E16D084326
:1009C0008E492431086000E0A846206800F00070DD
:1009D000B0F1007F27D1A06CA0B1102804D020284E
:1009E00009D030280FD10CE08448006840F4003072
:1009F0008249086009E00221201D00F041FF054600
:100A000003E002E001E0012500BF00BF55B97B48CB
:100A10002030006820F03000A16C08437749203175
:100A2000086000E0A846208800F48050B0F5805FA0
:100A300036D1206EB0F5005F19D004DC50B1B0F5AE
:100A4000805F1DD10DE0B0F5405F17D0B0F5804F4D
:100A500016D114E06948006840F400306749086026
:100A600010E00021201D00F00BFF05460AE00021E8
:100A700004F1240000F718FC054603E002E001E061
:100A8000012500BF00BF55B95C482430006820F440
:100A9000E040216E084359492431086000E0A8462F
:100AA000208800F40050B0F5005F34D1606EB0F5DE
:100AB000403F1DD007DC68B1B0F5803F0BD0B0F5EA
:100AC000003F18D10DE0B0F5802F12D0B0F5A02F67
:100AD00011D10FE011E00121201D00F0D1FE0546EB
:100AE0000BE0012104F1240000F7DEFB054604E0E1
:100AF00003E002E001E0012500BF00BF55B93F4817
:100B00002430006820F4E020616E08433B49243122
:100B1000086000E0A846208800F48040B0F5804FCF
:100B200030D1D4F8AC0020F07041D1B900170728BB
:100B300017D2DFE800F004050B121314150012E0C1
:100B40000121201D00F09CFE05460CE0012104F16E
:100B5000240000F7A9FB054605E004E003E002E0FD
:100B600001E0012500BF00BF5DB924482C300068BA
:100B700020F0E040D4F8AC10084320492C31086044
:100B800000E0A846208800F40040B0F5004F26D1D0
:100B9000606F98B1B0F1805F03D0B0F1005F0ED10B
:100BA00006E01648006840F400301449086008E088
:100BB0000121201D00F064FE054602E001E0012550
:100BC00000BF00BF55B90D482430006820F04050E8
:100BD000616F084309492431086000E0A846206895
:100BE00000F08070B0F1807F29D1606CB0B1012835
:100BF00006D002280BD0032811D10EE02C44025855
:100C0000FE48006840F40030FC49086009E0022119
:100C1000201D00F035FE054603E002E001E001255D
:100C200000BF00BF55B9F5482030006820F0030030
:100C3000616C0843F1492031086000E0A846206853
:100C400000F48000B0F5800F7DD1ED48006840F4DD
:100C50008070EB490860FFF703FB064606E0FFF7EC
:100C6000FFFA801B642801D9032505E0E4480068E9
:100C700000F480700028F2D000BF85BBDF4844300C
:100C8000006800F44070B4F8B01001F4407188427C
:100C900013D0DA484430006820F44077D748443015
:100CA000006840F48030D549443108600846006847
:100CB00020F48030086008460760D4F8B000B0F532
:100CC000807F15D1FFF7CCFA064609E0FFF7C8FA96
:100CD000801B41F28831884202D9032507E035E0C4
:100CE000C64844300068C0F340000028EED000BF82
:100CF00055BB00BFB4F8B00000F44070B0F5407FC1
:100D00000ED1BE481C38006820F47C51BD4AD4F88E
:100D1000B000104041EA1010B8491C39086007E0E3
:100D2000B6481C38006820F47C50B4491C3908606F
:100D3000B24844300068B4F8B010C1F30B01084366
:100D4000AE494431086002E0A84600E0A846207899
:100D500000F0010078B3D4F88000182819D005DC21
:100D600048B1082808D0102816D10BE0202811D04F
:100D7000282811D10FE011E00121201D00F080FD95
:100D800005460BE0012104F1240000F78DFA054629
:100D900004E003E002E001E0012500BF00BF5DB90F
:100DA00096482830006820F03800D4F880100843B6
:100DB00092492831086000E0A846207800F002003F
:100DC000022828D1E06F062815D2DFE800F00304DE
:100DD0000A11121311E00121201D00F051FD0546FA
:100DE0000BE0012104F1240000F75EFA054604E05F
:100DF00003E002E001E0012500BF00BF55B97F48D4
:100E00002830006820F00700E16F08437B49283153
:100E1000086000E0A846207800F0040004282AD1E9
:100E2000D4F89800062815D2DFE800F003040A1170
:100E3000121311E00121201D00F022FD05460BE0F8
:100E4000012104F1240000F72FFA054604E003E035
:100E500002E001E0012500BF00BF5DB967482C300A
:100E6000006820F00700D4F89810084363492C313B
:100E7000086000E0A846207800F02000202836D145
:100E8000D4F89400B0F1405F1DD007DC68B1B0F138
:100E9000805F0BD0B0F1005F18D10DE0B0F1804F52
:100EA00012D0B0F1A04F11D10FE011E00021201DB0
:100EB00000F0E6FC05460BE0022104F1240000F7F7
:100EC000F3F9054604E003E002E001E0012500BF7C
:100ED00000BF5DB949482830006820F0E040D4F8F0
:100EE0009410084345492831086000E0A84620785E
:100EF00000F04000402836D1D4F8A000B0F5406F93
:100F00001DD007DC68B1B0F5806F0BD0B0F5006F75
:100F100018D10DE0B0F5805F12D0B0F5A05F11D10F
:100F20000FE011E00021201D00F0AAFC05460BE0B7
:100F3000022104F1240000F7B7F9054604E003E0BC
:100F400002E001E0012500BF00BF5DB92B482C3055
:100F5000006820F4E050D4F8A010084327492C3151
:100F6000086000E0A846207800F08000802836D194
:100F7000D4F8A400B0F5C04F1DD007DC68B1B0F5BF
:100F8000005F0BD0B0F5804F18D10DE0B0F5004FE9
:100F900012D0B0F5204F11D10FE011E00021201D3B
:100FA00000F06EFC05460BE0022104F1240000F77E
:100FB0007BF9054604E003E002E001E0012500BF03
:100FC00000BF5DB90D482C30006820F46040D4F8B3
:100FD000A410084309492C31086000E0A846207895
:100FE00000F0080008281DD1D4F88800B0F5805F13
:100FF0000FD1022104F1240006E000002C44025825
:1010000000480258FFFCFF0F00F74EF908B14FF0FF
:101010000108AE48006820F44050D4F88810084316
:10102000AA490860207800F01000102817D1D4F8E1
:101030009C00B0F5807F07D1022104F1240000F765
:1010400033F908B14FF00108A048001D006820F4F2
:101050004070D4F89C1008439C49091D0860206822
:1010600000F40020B0F5002F28D1D4F8A80030B14A
:10107000B0F5803F09D0B0F5003F0ED10CE0002163
:10108000201D00F0FDFB054609E0022104F12400CB
:1010900000F70AF9054602E001E0012500BF00BFA4
:1010A0005DB98A48001D006820F44030D4F8A810CB
:1010B00008438649091D086000E0A846206800F43E
:1010C0008020B0F5802F2BD1D4F88C00B0F5801F94
:1010D00006D0B0F5001F0CD0B0F5401F11D10FE0C5
:1010E0007A482838006840F4003078492839086088
:1010F00009E0012104F1240000F7D6F8054602E0DA
:1011000001E0012500BF00BF4DB97048006820F420
:101110004010D4F88C1008436C49086000E0A846E1
:10112000206800F48030B0F5803F24D1E06C18B125
:10113000B0F5803F0FD108E064482838006840F4DB
:10114000003062492839086007E00221201D00F0C4
:1011500097FB054601E0012500BF00BF55B95B487C
:101160000838006820F48030E16C0843574908399A
:10117000086000E0A846206800F00050B0F1005F71
:1011800007D1022104F1240000F78EF808B14FF0D6
:101190000108206800F40030B0F5003F27D1D4F8F2
:1011A0008400A0B1B0F5807F06D0B0F5007F0CD0F0
:1011B000B0F5407F0CD109E044482838006840F47D
:1011C000003042492839086004E003E002E001E011
:1011D000012500BF00BF4DB93C48006820F44070B5
:1011E000D4F8841008433949086000E0A846206814
:1011F00000F48010B0F5801F09D13448001F00684A
:1012000020F00040A16F08433049091F08602068A2
:1012100000F40010B0F5001F09D12C48001F006831
:1012200020F08070E16E08432849091F086020887B
:1012300000F40060B0F5006F09D12448001D00687B
:1012400020F00060216F08432049091D08602068D4
:1012500000F08040B0F1804F11D100BF1B484438EE
:10126000006820F4004019494439086008460068C5
:10127000D4F8B410084315494439086000BF206809
:1012800000F00040B0F1004F09D110480838006864
:1012900020F04050216D08430C490839086020684F
:1012A00000F40000B0F5000F08D10848006820F4F1
:1012B0004000D4F89010084304490860B8F1000FCA
:1012C00002D10020BDE8F0810120FBE75444025820
:1012D0002DE9F04104460D4614B90120BDE8F08126
:1012E000BD48006800F00F00A8420ED2BA4800685E
:1012F00020F00F002843B84908600846006800F055
:101300000F00A84201D00120E8E7207800F0040097
:1013100004280ED1B1492069096801F070018842A2
:1013200007D9AE48006820F0700021690843AB4936
:101330000860207800F00800082811D1A749091D8D
:101340006069096801F07001884209D9A348001D4D
:10135000006820F0700061690843A049091D086019
:10136000207800F01000102811D19C49091DA069B7
:10137000096801F4E061884209D99848001D0068B5
:1013800020F4E060A16908439449091D08602078B1
:1013900000F02000202811D190490831E069096847
:1013A00001F07001884209D98C480830006820F0AB
:1013B0007000E1690843894908310860207800F02D
:1013C000020002280ED18549E068096801F00F018A
:1013D000884207D98148006820F00F00E16808437F
:1013E0007E490860207800F00100002850D07B483A
:1013F000006820F47060A16808437849086060685C
:10140000022807D1754818380068C0F34040F8B981
:10141000012063E76068032807D170481838006826
:10142000C0F34060A0B9012058E76068012807D1E7
:101430006A4818380068C0F3002048B901204DE719
:10144000664818380068C0F3800008B9012045E7F5
:1014500062480838006820F00700616808435F4967
:1014600008390860FEF7FCFE064608E0FEF7F8FEC5
:10147000801B41F28831884201D903202EE757486A
:101480000838006800F038006168B0EBC10FEDD19A
:10149000207800F0020002280ED15049E068096867
:1014A00001F00F01884207D24C48006820F00F007D
:1014B000E1680843494908604748006800F00F00A8
:1014C000A8420ED94448006820F00F002843424942
:1014D00008600846006800F00F00A84201D0012013
:1014E000FCE6207800F0040004280ED13B49206976
:1014F000096801F07001884207D23848006820F07E
:1015000070002169084335490860207800F0080020
:10151000082811D13149091D6069096801F070017D
:10152000884209D22D48001D006820F070006169D2
:1015300008432A49091D0860207800F0100010288F
:1015400011D12649091DA069096801F4E0618842AA
:1015500009D22248001D006820F4E060A169084318
:101560001E49091D0860207800F02000202811D1B4
:101570001A490831E069096801F07001884209D20E
:1015800016480830006820F07000E16908431349EC
:1015900008310860FFF634F810490968C1F30321E7
:1015A0000F4A515C01F01F0120FA01F70B48006857
:1015B00000F00F001146085C00F01F0027FA00F051
:1015C000084908600848076008480068FEF74EFEB2
:1015D0008046404682E6000000200052184402582F
:1015E000C61C1008100000240C0000240400002475
:1015F00010B5FFF605F80D490968C1F303210C4A3F
:10160000515C01F01F0120FA01F40848006800F065
:101610000F001146085C00F01F0024FA00F0054995
:101620000860054804600846006810BD1844025868
:10163000C61C1008100000240C00002400B5FFF7A1
:10164000D7FF05490968C1F30211044A515C01F052
:101650001F01C84000BD00001C440258C61C1008F1
:10166000014600BF91F88000012801D10220704797
:10167000012081F8800000BF2420C1F884000868A0
:1016800002680868006820F001000B68186022F00A
:10169000005200204866086802602020C1F88400DB
:1016A00000BF002081F8800000BF00BFDFE770B5F9
:1016B00004460D4600BF94F88000012801D10220A5
:1016C00070BD012084F8800000BF2420C4F884008D
:1016D000206806682068006820F001002168086022
:1016E0002068806820F06060284321688860204678
:1016F000FFF6ECFE206806602020C4F8840000BFDE
:10170000002084F8800000BF00BFD9E770B5044610
:101710000D4600BF94F88000012801D1022070BD61
:10172000012084F8800000BF2420C4F884002068D1
:1017300006682068006820F00100216808602068C1
:10174000806820F060402843216888602046FFF6CA
:10175000BDFE206806602020C4F8840000BF002081
:1017600084F8800000BF00BFD9E7000010B5B4B016
:10177000044614212FA8FEF75CFCB82101A8FEF74F
:1017800058FC1E492068884235D102200190002073
:10179000209001A8FFF72AF808B1FEF756FC00BF19
:1017A0001748006840F48020154908600846006822
:1017B00000F48020009000BF00BF00BF1048083830
:1017C000006840F008000E490839086008460068C3
:1017D00000F00800009000BF00BF4FF440702F9051
:1017E00002203090002031903290072033902FA9B2
:1017F0000448FEF72DFC34B010BD00000048004046
:1018000048450258000C025800BFFEE710B51848C2
:10181000184908604FF4E1304860002115488160A4
:10182000C16001610C21416100218161C1610162DE
:10183000416200200F4988620846FFF6DDFB08B1CF
:10184000FEF703FC00210B48FFF760FF08B1FEF72D
:10185000FCFB00210748FFF72AFF08B1FEF7F5FB64
:101860000448FFF7FDFE08B1FEF7EFFB10BD0000D6
:101870000048004018000024704700BFFEE7000049
:101880002DE9F04104460E4600275548006800F057
:101890000300032802D10120BDE8F0815048283818
:1018A000006820F080604E4928390860FEF7D8FCB7
:1018B000054606E0FEF7D4FC401B022801D90320B0
:1018C000EAE7474828380068C0F3C0600028F1D133
:1018D00000BF4348006820F47C30216840EA0130B2
:1018E0003F490860A088401EC0F30800A168491E57
:1018F0004FF47E4202EA41210843A189491ED201E8
:1019000002EA01410843217C491E120202EA0161F8
:10191000084333491031086000BF3148001D00689A
:1019200020F0C000616908432D49091D0860084680
:10193000006820F02000A16908432949091D0860BA
:101940000846006820F01000086025481430006840
:101950004FF6F8718843E16940EAC100204914312B
:1019600008601F48001D006840F010001C49091D58
:1019700008602EB90846006840F40020086012E0B4
:10198000012E08D11648001D006840F4801014494B
:10199000091D086007E01248001D006840F40010AF
:1019A0000F49091D08600E482838006840F0806023
:1019B0000B4928390860FEF753FC054606E0FEF7A0
:1019C0004FFC401B022801D9032065E70448283852
:1019D0000068C0F3C0600028F1D038465CE7000022
:1019E0002844025870B504460D4629462046FEF7A5
:1019F0002DFC00F043F90646FEF6DAFC70BD704798
:101A00002F48006840F470002D4908602D48006898
:101A100000F00F00032806D22A48006820F00F00CB
:101A2000C01C284908602848006840F00100264989
:101A300008600020244910310860234800682349C9
:101A40000840214908601F48006800F00F00032883
:101A500006D91C48006820F00F00C01C1949086016
:101A60000020194918310860091D0860091D086027
:101A700017481549283108601648091D086016489E
:101A8000091D08600020091D08601348091D086031
:101A90000020091D08601048091D08600020091D6C
:101AA00008600948006820F4802007490860002089
:101AB00005496031086043F2D20008490860704768
:101AC00088ED00E000200052004402587FEDF6EA65
:101AD000000202020000FF018002010100400052EA
:101AE00038B504460020C4F88C00FEF7B9FB054663
:101AF0002068006800F0080008280CD16FF07E40D4
:101B00002B4600224FF400110090204600F023F8ED
:101B100008B1032038BD2068006800F004000428E4
:101B20000CD16FF07E402B4600224FF480010090D4
:101B3000204600F010F808B10320EBE72020C4F89D
:101B40008400C4F888000020E06600BF84F88000AC
:101B500000BF00BFDEE72DE9F04104460D46174601
:101B60009846069E6AE0701C002867D0FEF778FB56
:101B7000A0EB0800B04200D846BB00BF00BF216800
:101B800051E8001F21F4D070226842E800010029CA
:101B9000F5D100BF00BF00BF2168083151E8001F28
:101BA00021F001002168083141E80002002AF3D148
:101BB00000BF2020C4F88400C4F8880000BF0020C3
:101BC00084F8800000BF0320BDE8F0812068006831
:101BD00000F0040088B32068C069C0F3C02060B37F
:101BE0004FF400602168086200BF00BF216851E81F
:101BF000001F21F4D070226842E800010029F5D1CD
:101C000000BF00BF00BF2168083151E8001F21F06C
:101C100001002168083141E80002002AF3D100BF29
:101C2000202044F8840F6060A060843C00BF002046
:101C300084F8800000BF0320C6E7FFE72068C06982
:101C40002840A84201D1012000E00020B8428AD0FB
:101C50000020B9E710B5002804DB0A07130E054A77
:101C6000135406E00A07140E034A00F00F031B1F6B
:101C7000D45410BD00E400E018ED00E070B500247D
:101C800000260025FEF7ECFA05462846FEF654FB32
:101C9000FEF648FB0646FEF645FB40F6B83190FBE3
:101CA000F1F201FB120000F1C804204670BD0100F2
:101CB00002000400060008000A000C0010002000CA
:101CC0004000800000010000000001020304010246
:081CD0000304060708090000E7
:04000005080002AD40
:00000001FF
