:020000040800F2
:10000000F8040024C1020008B32F0008652D000881
:10001000AF2F0008CD030008FF41000800000000DA
:100020000000000000000000000000008132000815
:10003000D103000800000000B72F00088332000839
:10004000DB020008DB020008DB020008DB0200081C
:10005000DB020008DB020008DB020008DB0200080C
:10006000DB020008DB020008DB020008DB020008FC
:10007000DB020008DB020008DB020008DB020008EC
:10008000DB020008DB020008DB020008DB020008DC
:10009000DB020008DB020008DB020008DB020008CC
:1000A000DB020008DB020008DB020008DB020008BC
:1000B000DB020008DB020008DB020008DB020008AC
:1000C000DB020008DB020008DB020008DB0200089C
:1000D000DB020008DB020008DB020008DB0200088C
:1000E000DB020008DB020008DB020008DB0200087C
:1000F000DB020008DB020008DB020008DB0200086C
:10010000DB020008DB020008DB020008DB0200085B
:10011000DB020008DB020008DB020008DB0200084B
:10012000DB020008DB020008DB020008DB0200083B
:10013000DB0200080000000000000000DB020008F5
:10014000DB020008DB020008DB020008DB0200081B
:10015000DB020008DB020008DB020008DB0200080B
:10016000DB020008DB020008DB020008DB020008FB
:10017000DB020008DB020008DB02000800000000D0
:10018000DB020008DB020008DB020008DB020008DB
:10019000DB020008DB020008DB020008DB020008CB
:1001A000DB020008DB020008DB020008DB020008BB
:1001B000DB020008DB020008DB020008DB020008AB
:1001C000DB020008DB020008000000000000000065
:1001D0000000000000000000DB020008000000003A
:1001E000000000000000000000000000000000000F
:1001F0000000000000000000DB020008DB02000835
:10020000DB020008DB02000800000000DB0200083F
:10021000DB020008DB020008DB020008DB0200084A
:10022000DB020008DB020008DB020008000000001F
:10023000DB020008DB02000800000000DB0200080F
:10024000DB020008DB020008DB020008DB0200081A
:10025000DB020008DB020008DB020008DB0200080A
:10026000DB020008DB020008DB020008DB020008FA
:10027000DB020008DB020008DB02000800000000CF
:10028000DB020008DB02000800000000DB020008BF
:1002900000000000DB020008DB0200080000000094
:1002A00000000000DB020008DB020008DFF80CD0D1
:1002B00000F07AF80048004791480008F80400244C
:1002C0000648804706480047FEE7FEE7FEE7FEE7F0
:1002D000FEE7FEE7FEE7FEE7FEE7FEE75533000830
:1002E000AD0200082DE9F05F0546002092469B46CE
:1002F00088460646814640241BE02846414647463C
:10030000224600F041F853465A46C01A914110D394
:1003100011461846224600F028F82D1A67EB01080E
:100320004F4622460120002100F01FF817EB00097C
:100330004E41201EA4F10104DFDC484631462A4626
:100340004346BDE8F09FD2B201E000F8012B491E00
:10035000FBD270470022F6E710B513460A46044662
:100360001946FFF7F0FF204610BD202A04DB203A93
:1003700000FA02F1002070479140C2F1200320FAF8
:1003800003F3194390407047202A04DB203A21FAF6
:1003900002F00021704721FA02F3D040C2F120029E
:1003A0009140084319467047064C074D06E0E06847
:1003B00040F0010394E8070098471034AC42F6D3AC
:1003C000FFF778FF104900083049000800BFFEE73A
:1003D000704772B600BFFEE7F8B502460B46002133
:1003E0006F4DD7E001278F401E6806EA0704002CF6
:1003F00072D01E7906F00306012E04D01E7906F095
:100400000306022E13D190684F000326BE40B0436E
:100410004F00DE68BE4030439060506801268E4039
:10042000B0431E79C6F300168E40304350601E79EB
:1004300006F00306032E09D0D0684F000326BE4005
:10044000B0434F009E68BE403043D0601E7906F036
:100450000306022E13D1CF0802F1200656F827001A
:100460004E07F70E0F26BE40B0434F07FF0E1E6922
:10047000BE403043CF0802F1200646F8270010683E
:100480004F000326BE40B0431E7906F003064F001E
:10049000BE40304310605E6806F44036002E78D0CF
:1004A00000BF404E366846F002063E4F3E603E4674
:1004B000366806F00206009600BF00BF3A4E8F086D
:1004C00056F827008E07370F0F26BE40B043374E31
:1004D000B24202D100262EE05BE0354EB24201D19D
:1004E000012628E0334EB24201D1022623E0324EEB
:1004F000B24201D103261EE0304EB24201D10426A1
:1005000019E02F4EB24201D1052614E02D4EB24221
:1005100001D106260FE02C4EB24201D107260AE097
:100520002A4EB24201D1082605E0294EB24201D13D
:10053000092600E00A268F073F0FBE4030431A4EBF
:100540008F0846F827004FF0B0463068A0435E6839
:1005500006F4801606B120434FF0B0463060706854
:10056000A0435E6806F4001606B120434FF0B04683
:1005700070606868A0435E6806F4003606B12043E8
:1005800068602868A0435E6806F4803606B12043A0
:100590002860491C1E68CE40002E7FF423AFF8BDB2
:1005A00080000058544502580804005800000258C2
:1005B0000004025800080258000C025800100258AB
:1005C0000014025800180258001C0258002002585B
:1005D000002402580AB1816101E00B048361704775
:1005E00001480068704700000000002403480068CC
:1005F0000349097808440149086070470000002455
:100600000800002410B5032000F0A8F801F08EFBCC
:1006100010490968C1F303210F4A515C01F01F0121
:1006200020FA01F40B48006800F00F001146085C46
:1006300000F01F0024FA00F0084908600848046030
:10064000002000F00FF808B1012010BD00F036F8CE
:100650000020FAE718440258F0480008100000246F
:100660000C00002470B504461148007808B9012038
:1006700070BD0F4800784FF47A71B1FBF0F00D496E
:100680000968B1FBF0F5284602F05EF808B10120D8
:10069000EEE7102C07D200222146501E00F020F871
:1006A0000548046001E00120E2E70020E0E70000E7
:1006B000080000240C0000240400002408B500BF3A
:1006C0000648006840F002000449086008460068D7
:1006D00000F00200009000BF00BF08BD5445025862
:1006E0002DE9F05F80460D46164603F08BFD074668
:1006F00039462A46334601F00700C0F1070ABAF12D
:10070000040F02D94FF0040A01E0C0F1070AD146F4
:1007100000F1040ABAF1070F02D24FF0000A01E01B
:10072000A0F1030AD4464FF0010A0AFA09FAAAF125
:10073000010A0AEA020A0AFA0CFA4FF0010B0BFA54
:100740000CFBABF1010B0BEA030B4AEA0B0421464D
:10075000404603F05FFDBDE8F09F000000BF00F0E1
:100760000702064B19684FF6FF031940044B0B4371
:1007700043EA0221014B196000BF70470CED00E015
:100780000000FA0570B504462248006800F0070032
:10079000062809D01F48006800F03F00A04201D0A1
:1007A000012070BD0020FCE71A48006820F03F00DF
:1007B000204318490860FFF713FF054607E0FFF7DD
:1007C0000FFF401BB0F57A7F01D90120E9E71148FE
:1007D00008380068C0F340300028F0D01E2C05D047
:1007E0002E2C03D01D2C01D02D2C11D1FFF7F8FE9B
:1007F000054607E0FFF7F4FE401BB0F57A7F01D90C
:100800000120CEE703480068C0F300400028F1D083
:100810000020C6E70C48025810B501F03DFA054922
:100820000968C1F30211044A515C01F01F01C8407C
:1008300010BD000020440258F048000870B5014681
:10084000844D2D6805F00303824D2D68C5F30530F6
:10085000804D2D1D2D68C5F300147E4D14352D6877
:10086000C5F3CC0515FB04F501EE105AB8EE411A9C
:10087000F0EE410A00286FD023B1012B4ED0022B9D
:100880006BD16BE0734D283D2D68C5F340153DB32A
:10089000704D283D2D68C5F3C1066F4D25FA06F24F
:1008A00001EE102AF8EE411A01EE100AB8EE411AD4
:1008B00081EE812A9FED691AC0EE811A654D1035CF
:1008C0002D68C5F3080501EE105AB8EE411A31EE55
:1008D000811AF7EE001A31EE211A22EE010A1CE00D
:1008E00001EE100AB8EE411ADFED5D1A81EE812AA1
:1008F0009FED5A1AC0EE811A564D10352D68C5F37A
:10090000080501EE105AB8EE411A31EE811AF7EEE1
:10091000001A31EE211A22EE010A5BE001EE100A04
:10092000B8EE411ADFED4F1A81EE812A9FED4B1A86
:10093000C0EE811A474D10352D68C5F3080501EE4C
:10094000105AB8EE411A31EE811AF7EE001A31EE64
:10095000211A22EE010A3DE077E01DE001EE100AC7
:10096000B8EE411A9FED402AC2EE011A9FED3B1AE4
:1009700080EE812A374D10352D68C5F3080501EE4C
:10098000105AB8EE411A32EE011AB7EE002A31EED3
:10099000021A21EE810A1DE001EE100AB8EE411A9A
:1009A000DFED301A81EE812A9FED2C1AC0EE811AFC
:1009B000284D10352D68C5F3080501EE105AB8EE24
:1009C000411A31EE811AF7EE001A31EE211A22EEA9
:1009D000010A00BF00BF1F4D10352D68C5F3462525
:1009E00001EE105AB8EE411AF7EE001A31EE211A54
:1009F000C0EE011ABCEEE11A81ED001A154D10355A
:100A00002D68C5F3064501EE105AB8EE411AF7EE0F
:100A1000001A31EE211AC0EE011ABCEEE11A81ED86
:100A2000011A0C4D10352D68C5F3066501EE105AFC
:100A3000B8EE411AF7EE001A31EE211AC0EE011A93
:100A4000BCEEE11A81ED021A03E000250D604D6055
:100A50008D6070BD284402580090D003000000460D
:100A60000024744C0024744A0024F44A70B50146F2
:100A7000844D2D6805F00303824D2D68C5F30550A4
:100A8000804D2D1D2D68C5F300247E4D1C352D682D
:100A9000C5F3CC0515FB04F501EE105AB8EE411A6A
:100AA000F0EE410A00286FD023B1012B4ED0022B6B
:100AB0006BD16BE0734D283D2D68C5F340153DB3F8
:100AC000704D283D2D68C5F3C1066F4D25FA06F21D
:100AD00001EE102AF8EE411A01EE100AB8EE411AA2
:100AE00081EE812A9FED691AC0EE811A654D183595
:100AF0002D68C5F3080501EE105AB8EE411A31EE23
:100B0000811AF7EE001A31EE211A22EE010A1CE0DA
:100B100001EE100AB8EE411ADFED5D1A81EE812A6E
:100B20009FED5A1AC0EE811A564D18352D68C5F33F
:100B3000080501EE105AB8EE411A31EE811AF7EEAF
:100B4000001A31EE211A22EE010A5BE001EE100AD2
:100B5000B8EE411ADFED4F1A81EE812A9FED4B1A54
:100B6000C0EE811A474D18352D68C5F3080501EE12
:100B7000105AB8EE411A31EE811AF7EE001A31EE32
:100B8000211A22EE010A3DE077E01DE001EE100A95
:100B9000B8EE411A9FED402AC2EE011A9FED3B1AB2
:100BA00080EE812A374D18352D68C5F3080501EE12
:100BB000105AB8EE411A32EE011AB7EE002A31EEA1
:100BC000021A21EE810A1DE001EE100AB8EE411A68
:100BD000DFED301A81EE812A9FED2C1AC0EE811ACA
:100BE000284D18352D68C5F3080501EE105AB8EEEA
:100BF000411A31EE811AF7EE001A31EE211A22EE77
:100C0000010A00BF00BF1F4D18352D68C5F34625EA
:100C100001EE105AB8EE411AF7EE001A31EE211A21
:100C2000C0EE011ABCEEE11A81ED001A154D18351F
:100C30002D68C5F3064501EE105AB8EE411AF7EEDD
:100C4000001A31EE211AC0EE011ABCEEE11A81ED54
:100C5000011A0C4D18352D68C5F3066501EE105AC2
:100C6000B8EE411AF7EE001A31EE211AC0EE011A61
:100C7000BCEEE11A81ED021A03E000250D604D6023
:100C80008D6070BD284402580090D00300000046DB
:100C90000024744C0024744A0024F44A2DE9F041E5
:100CA00004460025A8464FF00063D4E9001019401F
:100CB000002059404040014331D1E06E48B1B0F5C9
:100CC000801F0DD0B0F5001F11D0B0F5401F16D118
:100CD00014E0F848006840F40030F649086010E07D
:100CE000022104F1080002F067F9054609E002213B
:100CF00004F1280002F012FA054602E001E00125A5
:100D000000BF00BF55B9EB482430006820F4401004
:100D1000E16E0843E7492431086000E0A8464FF43B
:100D20008072D4E900101140002013465940404021
:100D300001432ED1A06D05281BD2DFE800F0030A85
:100D400011181900DB48006840F40030D9490860E8
:100D500011E0002104F1080002F02EF905460AE036
:100D6000002104F1280002F0D9F9054603E002E071
:100D700001E0012500BF00BF55B9CE48243000680E
:100D800020F00700A16D0843CA492431086000E043
:100D9000A8464FF40073D4E90001184000215840E0
:100DA0004940084338D1E06DC02822D005DC58B155
:100DB000402810D080281FD114E0B0F5807F19D0D2
:100DC000B0F5A07F18D116E0BA48006840F40030B2
:100DD000B849086012E0002104F1080002F0ECF8C4
:100DE00005460BE0002104F1280002F097F90546C2
:100DF00004E003E002E001E0012500BF00BF55B9B7
:100E0000AC482430006820F4E070E16D0843A94943
:100E10002431086000E0A8464FF48062D4E9001055
:100E20001140002013465940404001433BD1206E01
:100E3000B0F5C06F24D007DC68B1B0F5007F11D0E9
:100E4000B0F5806F1FD114E0B0F5006F19D0B0F588
:100E5000206F18D116E09748006840F4003095499B
:100E6000086012E0002104F1080002F0A5F8054630
:100E70000BE0002104F1280002F050F9054604E0DF
:100E800003E002E001E0012500BF00BF55B9894839
:100E90002430006820F46060216E084385492431C5
:100EA000086000E0A8464FF00072D4E9001011403D
:100EB0000020134659404040014328D1E06CA8B1BE
:100EC000102804D0202809D0302810D10DE079480E
:100ED000006840F40030774908600AE0022104F11C
:100EE000080002F069F8054603E002E001E0012590
:100EF00000BF00BF55B96F482030006820F03000B7
:100F0000E16C08436B492031086000E0A8464FF4CB
:100F10008052D4E90010114000201346594040404F
:100F2000014337D1606EB0F5005F1AD004DC50B1D8
:100F3000B0F5805F1ED10DE0B0F5405F18D0B0F580
:100F4000804F17D115E05B48006840F400305949E4
:100F5000086011E0002104F1080002F02DF80546B8
:100F60000AE0002104F1280002F0D8F8054603E069
:100F700002E001E0012500BF00BF55B94D48243013
:100F8000006820F4E040616E08434A49243108605B
:100F900000E0A8464FF40053D4E9000118400021B6
:100FA00058404940084335D1A06EB0F5403F1ED0AF
:100FB00007DC68B1B0F5803F0BD0B0F5003F19D128
:100FC0000EE0B0F5802F13D0B0F5A02F12D110E0B5
:100FD00012E0012104F1080001F0EEFF05460BE0EC
:100FE000012104F1280002F099F8054604E003E02D
:100FF00002E001E0012500BF00BF55B92D482430B3
:10100000006820F4E020A16E08432A4924310860DA
:1010100000E0A8464FF48043D4E9000118400021C5
:1010200058404940084331D1D4F8B00020F0704115
:10103000D9B90017072818D2DFE800F004050C130F
:101040001415160013E0012104F1080001F0B4FFAB
:1010500005460CE0012104F1280002F05FF8054686
:1010600005E004E003E002E001E0012500BF00BF6D
:101070005DB910482C30006820F0E040D4F8B01082
:1010800008430C492C31086000E0A8464FF40043A7
:10109000D4E90001184000215840494008432AD1B2
:1010A000A06FB8B1B0F1805F06D0B0F1005F12D18F
:1010B00009E000002C440258F748006840F4003072
:1010C000F549086009E0012104F1080001F074FF0E
:1010D000054602E001E0012500BF00BF55B9EE481A
:1010E0002430006820F04050A16F0843EA492431C1
:1010F000086000E0A8464FF08072D4E9000110407B
:101100000021134658404940084328D1A06CA8B19B
:10111000012804D0022809D0032810D10DE0DE48B0
:10112000006840F40030DC4908600AE0022104F164
:10113000080001F041FF054603E002E001E001255F
:1011400000BF00BF55B9D4482030006820F003002C
:10115000A16C0843D0492031086000E0A8464FF454
:101160008003D4E900011840002158404940084359
:101170007DD1CA48006840F48070C8490860FFF714
:101180002FFA064606E0FFF72BFA801B642801D9E8
:10119000032505E0C148006800F480700028F2D003
:1011A00000BF85BBBC484430006800F44070B4F810
:1011B000B41001F44071884213D0B748443000683D
:1011C00020F44077B4484430006840F48030B2499D
:1011D000443108600846006820F480300860084602
:1011E0000760D4F8B400B0F5807F15D1FFF7F8F9A7
:1011F000064609E0FFF7F4F9801B41F28831884286
:1012000002D9032507E035E0A34844300068C0F365
:1012100040000028EED000BF55BB00BFB4F8B400BA
:1012200000F44070B0F5407F0ED19B481C38006838
:1012300020F47C519A4AD4F8B400104041EA1010CE
:1012400095491C39086007E093481C38006820F471
:101250007C5091491C3908608F4844300068B4F8CC
:10126000B410C1F30B0108438B494431086002E01C
:10127000A84600E0A8460122D4E900101140002051
:10128000134659404040014332D1D4F88400182815
:101290001AD005DC48B1082808D0102817D10CE076
:1012A000202812D0282812D110E012E0012104F1E8
:1012B000080001F081FE05460BE0012104F1280041
:1012C00001F02CFF054604E003E002E001E0012507
:1012D00000BF00BF5DB970482830006820F03800BA
:1012E000D4F8841008436C492831086000E0A8460F
:1012F0000222D4E90010114000201346594040401A
:1013000001432BD1D4F88000062816D2DFE800F084
:1013100003040B12131412E0012104F1080001F080
:101320004BFE05460BE0012104F1280001F0F6FE1A
:10133000054604E003E002E001E0012500BF00BF34
:101340005DB955482830006820F00700D4F88010B7
:10135000084351492831086000E0A8460422D4E936
:1013600000011040002113465840494008432BD14A
:10137000D4F89C00062816D2DFE800F003040B1214
:10138000131412E0012104F1080001F015FE0546D6
:101390000BE0012104F1280001F0C0FE054604E045
:1013A00003E002E001E0012500BF00BF5DB93A485B
:1013B0002C30006820F00700D4F89C100843364910
:1013C0002C31086000E0A8462023D4E90001184031
:1013D000002158404940084337D1D4F89800B0F173
:1013E000405F1ED007DC68B1B0F1805F0BD0B0F178
:1013F000005F19D10EE0B0F1804F13D0B0F1A04FD3
:1014000012D110E012E0002104F1080001F0D4FD37
:1014100005460BE0022104F1280001F07FFE05469D
:1014200004E003E002E001E0012500BF00BF5DB978
:1014300019482830006820F0E040D4F8981008439C
:1014400015492831086000E0A8464022D4E900018F
:101450001040002113465840494008433BD1D4F87E
:10146000A400B0F5406F24D007DC68B1B0F5806F00
:101470000BD0B0F5006F1FD114E0B0F5805F19D02C
:10148000B0F5A05F18D116E018E0002104F10800C3
:1014900001F092FD054611E02C4402580048025824
:1014A000FFFCFF0F022104F1280001F037FE054682
:1014B00004E003E002E001E0012500BF00BF4DB9F8
:1014C000FE48006820F4E050D4F8A4100843FB491B
:1014D000086000E0A8468022D4E9001011400020F6
:1014E000134659404040014335D1D4F8A800B0F527
:1014F000C04F1ED007DC68B1B0F5005F0BD0B0F56F
:10150000804F19D10EE0B0F5004F13D0B0F5204F49
:1015100012D110E012E0002104F1080001F04CFDAE
:1015200005460BE0022104F1280001F0F7FD054615
:1015300004E003E002E001E0012500BF00BF4DB977
:10154000DE48006820F46040D4F8A8100843DB4966
:10155000086000E0A8460822D4E9000110400021FC
:10156000134658404940084317D1D4F88C00B0F5D1
:10157000805F07D1022104F1280001F0CFFD08B1FE
:101580004FF00108CD48001F006820F44050D4F807
:101590008C100843C949091F08601022D4E90001D2
:1015A00010400021134658404940084315D1D4F853
:1015B000A000B0F5807F07D1022104F1280001F0DE
:1015C000ADFD08B14FF00108BC48006820F4407040
:1015D000D4F8A0100843B94908604FF40023D4E9B7
:1015E00000101940002059404040014327D1D4F851
:1015F000AC0030B1B0F5803F0AD0B0F5003F0FD15C
:101600000DE0002104F1080001F0D6FC054609E0D8
:10161000022104F1280001F081FD054602E001E00D
:10162000012500BF00BF4DB9A448006820F4403038
:10163000D4F8AC100843A149086000E0A8464FF474
:101640008023D4E900011840002158404940084354
:101650002DD1D4F89000B0F5801F06D0B0F5001F52
:101660000CD0B0F5401F11D10FE094482C38006821
:1016700040F4003091492C39086009E0012104F15F
:10168000280001F04BFD054602E001E0012500BF06
:1016900000BF5DB98948001F006820F44010D4F8ED
:1016A000901008438549091F086000E0A8464FF4E0
:1016B0008032D4E9000110400021134658404940CF
:1016C000084325D1206D18B1B0F5803F10D108E056
:1016D0007A482C38006840F4003078492C3908608A
:1016E00008E0022104F1080001F066FC054601E073
:1016F000012500BF00BF55B970480C38006820F4C0
:101700008030216D08436D490C39086000E0A8461F
:101710004FF00053D4E900101940002059404040D8
:10172000014307D1022104F1280001F0F7FC08B1C0
:101730004FF001084FF40033D4E9000118400021B4
:1017400058404940084329D1D4F88800A0B1B0F5E9
:10175000807F06D0B0F5007F0CD0B0F5407F0CD173
:1017600009E056482C38006840F4003053492C39C1
:10177000086004E003E002E001E0012500BF00BFD3
:101780005DB94E48001F006820F44070D4F88810FE
:1017900008434A49091F086000E0A8464FF4801337
:1017A000D4E900011840002158404940084309D1BC
:1017B00042480838006820F00040E16F08433F4984
:1017C000083908604FF40012D4E9001011400020DD
:1017D000134659404040014309D138480838006851
:1017E00020F08070216F08433449083908604FF4B5
:1017F0000063D4E9000118400021584049400843E3
:1018000007D12E48006820F00060616F08432B4923
:1018100008604FF08043D4E900011840002158408F
:101820004940084311D100BF24484838006820F4DB
:10183000004022494839086008460068D4F8B810CA
:1018400008431E494839086000BF4FF00043D4E9FF
:1018500000101940002059404040014309D1174869
:101860000C38006820F04050616D084313490C3972
:1018700008604FF40003D4E90010194000205940DB
:10188000404001430AD10D48001F006820F4400089
:10189000D4F8941008430949091F08600123002166
:1018A00060681840012249405040014309D104F1C9
:1018B000080001F081FB05461DB101E058440258C3
:1018C000A846022300216068184002224940504087
:1018D000014307D1012104F1080001F06DFB054629
:1018E00005B1A84604230020616819400422404045
:1018F0005140084307D1022104F1080001F05CFBCC
:10190000054605B1A84608220021606810404940FC
:101910005040014306D104F1280001F0FFFB0546C9
:1019200005B1A8461022002160681040494050408F
:10193000014307D1012104F1280001F0EFFB054626
:1019400005B1A846202300206168194020224040AC
:101950005140084307D1022104F1280001F0DEFBC9
:10196000054605B1A846B8F1000F02D10020BDE838
:10197000F0810120FBE700002DE9F04104460D460F
:1019800014B90120BDE8F081BD48006800F00F00E7
:10199000A8420ED2BA48006820F00F002843B84988
:1019A00008600846006800F00F00A84201D001203E
:1019B000E8E7207800F0040004280ED1B14920693E
:1019C000096801F07001884207D9AE48006820F02C
:1019D000700021690843AB490860207800F00800D6
:1019E000082811D1A749091D6069096801F0700133
:1019F000884209D9A348001D006820F07000616981
:101A00000843A049091D0860207800F01000102844
:101A100011D19C49091DA069096801F4E06188425F
:101A200009D99848001D006820F4E060A1690843C6
:101A30009449091D0860207800F02000202811D169
:101A400090490831E069096801F07001884209D9BC
:101A50008C480830006820F07000E169084389492B
:101A600008310860207800F0020002280ED1854974
:101A7000E068096801F00F01884207D981480068D1
:101A800020F00F00E16808437E490860207800F0EC
:101A90000100002850D07B48006820F47060A168E5
:101AA0000843784908606068022807D175481838EB
:101AB0000068C0F34040F8B9012063E7606803287C
:101AC00007D1704818380068C0F34060A0B9012001
:101AD00058E76068012807D16A4818380068C0F3E1
:101AE000002048B901204DE7664818380068C0F367
:101AF000800008B9012045E762480838006820F0F6
:101B00000700616808435F4908390860FEF768FD0F
:101B1000064608E0FEF764FD801B41F288318842EA
:101B200001D903202EE757480838006800F0380034
:101B30006168B0EBC10FEDD1207800F002000228FF
:101B40000ED15049E068096801F00F01884207D2C0
:101B50004C48006820F00F00E168084349490860DC
:101B60004748006800F00F00A8420ED944480068BA
:101B700020F00F002843424908600846006800F042
:101B80000F00A84201D00120FCE6207800F00400FC
:101B900004280ED13B492069096801F07001884290
:101BA00007D23848006820F07000216908433549A1
:101BB0000860207800F00800082811D13149091D7B
:101BC0006069096801F07001884209D22D48001D42
:101BD000006820F07000616908432A49091D086007
:101BE000207800F01000102811D12649091DA069A5
:101BF000096801F4E061884209D22248001D0068AA
:101C000020F4E060A16908431E49091D086020789E
:101C100000F02000202811D11A490831E069096834
:101C200001F07001884209D216480830006820F09F
:101C30007000E169084313490831086000F076F844
:101C400010490968C1F303210F4A515C01F01F01DB
:101C500020FA01F70B48006800F00F001146085CFD
:101C600000F01F0027FA00F00849086008480760E4
:101C700008480068FEF7F6FC8046404682E6000011
:101C80000020005218440258F048000810000024B8
:101C90000C0000240400002410B500F047F80D49A2
:101CA0000968C1F303210C4A515C01F01F0120FABD
:101CB00001F40848006800F00F001146085C00F0CD
:101CC0001F0024FA00F00549086005480460084632
:101CD000006810BD18440258F048000810000024A5
:101CE0000C00002400B5FFF7D7FF05490968C1F3D0
:101CF0000211044A515C01F01F01C84000BD000000
:101D00001C440258F048000800B5FFF7C5FF05491C
:101D10000968C1F30221044A515C01F01F01C84067
:101D200000BD00001C440258F0480008F0B5824E87
:101D3000366806F0380636B1082E15D0102E15D0AC
:101D4000182E7DD114E07C4E103E3668C6F3401646
:101D500046B1794E103E3668C6F3C107774E26FA73
:101D600007F000E07548E5E07548E3E07548E1E01C
:101D7000714E1836366806F003046F4E1836366812
:101D8000C6F305116C4E1C36366806F001056A4E26
:101D900024363668C6F3CC0616FB05F601EE106A4B
:101DA000B8EE410A002971D024B1012C50D0022C88
:101DB0006DD16DE0604E103E3668C6F340163EB3FE
:101DC0005D4E103E3668C6F3C1075C4E26FA07F337
:101DD00001EE103AF8EE411A01EE101AB8EE411A6F
:101DE00081EE812A9FED581AC0EE011A524E20361C
:101DF0003668C6F3080601EE106AB8EE411A31EEF5
:101E0000811AF7EE001A31EE211A62EE010A1EE085
:101E100001EE101AB8EE411ADFED4C1A81EE812A5C
:101E20009FED491AC0EE011A434E20363668C6F3BC
:101E3000080601EE106AB8EE411A31EE811A00E090
:101E400076E0F7EE001A31EE211A62EE010A5BE04D
:101E500001EE101AB8EE411A9FED3D2AC2EE011AAA
:101E60009FED391A80EE012A334E20363668C6F3CC
:101E7000080601EE106AB8EE411A32EE011AB7EE0A
:101E8000002A31EE021A61EE810A3DE04EE01DE0CB
:101E900001EE101AB8EE411ADFED2E1A81EE812AFA
:101EA0009FED291AC0EE011A234E20363668C6F37C
:101EB000080601EE106AB8EE411A31EE811AF7EE0B
:101EC000001A31EE211A62EE010A1DE001EE101A2D
:101ED000B8EE411A9FED1E2AC2EE011A9FED1A1AA2
:101EE00080EE012A144E20363668C6F3080601EE4D
:101EF000106AB8EE411A32EE011AB7EE002A31EE3E
:101F0000021A61EE810A00BF00BF0B4E2036366810
:101F1000C6F34626721C01EE102AB8EE411AC0EE36
:101F2000811ABCEEE11A11EE100A00E0002001E077
:101F3000034800BF00BFF0BD104402580090D0031A
:101F400000093D0000127A00000000460024744C95
:101F50000024744A0024F44A2DE9F047044614B9D9
:101F60000120BDE8F087207800F0010000286ED045
:101F7000FE48006800F03808FC481830D0F800909F
:101F8000B8F1100F06D0B8F1180F0FD109F0030007
:101F900002280BD1F54810380068C0F340400028F3
:101FA0006FD0606800286CD10120DAE700BF60685C
:101FB000B0F5803F08D1ED481038006840F480301B
:101FC000EA491039086055E0606890B9E748103870
:101FD000006820F48030E549103908600846006840
:101FE00020F4801008600846006820F48020086013
:101FF00040E06068B0F5A02F12D1DC4810380068CE
:1020000040F48020D949103908600846006820F45F
:10201000801008600846006840F48030086029E0BD
:102020006068B0F5A81F13D1D0481038006840F49C
:102030008020CE49103908600846006840F48010BE
:1020400008600846006840F48030086012E03BE019
:10205000C6481038006820F48030C4491039086040
:102060000846006820F4802008600846006820F4D4
:102070008010086000BF606898B1FEF7B1FA0546AD
:1020800007E020E0FEF7ACFA401B642801D90320EA
:1020900067E7B64810380068C0F340400028F1D028
:1020A00011E0FEF79DFA054606E0FEF799FA401B9F
:1020B000642801D9032054E7AC4810380068C0F305
:1020C00040400028F1D100BF207800F00200022833
:1020D00079D1A648006800F03808A4481830D0F834
:1020E0000090B8F1000F05D0B8F1180F35D109F004
:1020F000030088BB9D4810380068C0F3800018B109
:10210000E06808B901202CE798481038006820F0F2
:102110001900E1680843954910390860FEF760FA34
:10212000054606E0FEF75CFA401B022801D90320B1
:1021300017E78E4810380068C0F380000028F1D0FF
:102140008A480C38006820F0FE40217C40EA01609B
:1021500086490C39086045E0FFE7E06838B38348FA
:102160001038006820F01900E16808437F491039F1
:102170000860FEF735FA054606E0FEF731FA401B27
:10218000022801D90320ECE6784810380068C0F333
:1021900080000028F1D075480C38006820F0FE401F
:1021A000217C40EA016071490C3908601AE06F48EF
:1021B0001038006820F001006C4910390860FEF703
:1021C0000FFA054607E00EE0FEF70AFA401B022868
:1021D00001D90320C5E6654810380068C0F38000C7
:1021E0000028F1D100BF207800F0100010286FD136
:1021F0005E48006800F038085C481830D0F800905D
:10220000B8F1080F06D0B8F1180F1CD109F003007F
:10221000012818D1554810380068C0F3002020B1BB
:10222000E069802801D001209BE600BF4F48001FD5
:10223000006820F07C5094F8201040EA01604B497F
:10224000091F086043E0E06938B348481038006867
:1022500040F08000454910390860FEF7C1F9054695
:1022600006E0FEF7BDF9401B022801D9032078E6FD
:102270003E4810380068C0F300200028F1D000BFAD
:102280003A48001F006820F07C5094F8201040EA83
:1022900001603649091F086019E0344810380068A9
:1022A00020F08000314910390860FEF799F90546A1
:1022B00006E0FEF795F9401B022801D9032050E6FD
:1022C0002A4810380068C0F300200028F1D100BF70
:1022D000207800F00800082836D16069D0B1234882
:1022E0006430006840F00100204964310860FEF766
:1022F00077F9054606E0FEF773F9401B022801D97D
:1023000003202EE6194864300068C0F3400000281E
:10231000F1D019E015486430006820F0010013493D
:1023200064310860FEF75CF9054606E0FEF758F9EF
:10233000401B022801D9032013E60C4864300068D2
:10234000C0F340000028F1D1207800F020002028C0
:1023500035D1A069E0B105481038006840F48050DC
:10236000024910390860FEF73BF901E010440258B9
:10237000054606E0FEF734F9401B022801D9032088
:10238000EFE5EF480068C0F340300028F2D016E0D7
:10239000EB48006820F48050E9490860FEF720F916
:1023A000054606E0FEF71CF9401B022801D9032070
:1023B000D7E5E3480068C0F340300028F2D1207828
:1023C00000F0040004287DD1DE48006840F48070ED
:1023D000DC490860FEF704F9054606E0FEF700F95F
:1023E000401B642801D90320BBE5D648006800F4EF
:1023F00080700028F2D000BFA068012808D1D04822
:102400007030006840F00100CD497031086052E042
:10241000A06890B9CA487030006820F00100C8492F
:10242000703108600846006820F0800008600846A7
:10243000006820F0040008603DE0A068052812D183
:10244000BF487030006840F00400BD49703108603A
:102450000846006820F0800008600846006840F0E8
:102460000100086027E0A068852812D1B4487030C8
:10247000006840F00400B249703108600846006806
:1024800040F0800008600846006840F001000860E5
:1024900011E0AB487030006820F00100A8497031AD
:1024A00008600846006820F00400086008460068DC
:1024B00020F08000086000BFA068A8B1FEF790F887
:1024C000054609E024E0FEF78BF8401B41F2883115
:1024D000884201D9032044E5994870300068C0F370
:1024E00040000028EFD013E0FEF77AF8054608E038
:1024F000FEF776F8401B41F28831884201D903206B
:102500002FE58F4870300068C0F340000028EFD1FD
:10251000606A00287DD08A481030006800F03800DA
:10252000182877D0606A022875D18548006820F0A5
:10253000807083490860FEF753F8054606E0FEF711
:102540004FF8401B022801D903200AE57C480068A7
:10255000C0F340600028F2D100BFD4E90A1041EA7C
:10256000001077492831096840F2F332914308435B
:10257000734928310860208E401EC0F30800616B4B
:10258000491E4FF47E4202EA41210843218F491E31
:10259000D20102EA014108433C21095D491E1202B1
:1025A00002EA0161084366493031086000BF081F34
:1025B000006820F00100091F08606148343000689D
:1025C0004FF6F8718843A16C40EAC1005C49343190
:1025D00008605B482C30006820F00C00216C084338
:1025E00057492C3108600846006820F00200616CF1
:1025F000084353492C3108600846006840F4803095
:1026000008600846006840F400300860084600682A
:1026100002E092E038E01FE040F4802008600846C5
:10262000006840F0010008604548006840F0807094
:1026300043490860FDF7D4FF054606E0FDF7D0FFEB
:10264000401B022801D903208BE43D480068C0F3F9
:1026500040600028F2D070E03948006820F08070B7
:1026600037490860FDF7BCFF054606E0FDF7B8FFF7
:10267000401B022801D9032073E431480068C0F3ED
:1026800040600028F2D158E02D48283007682C48D7
:1026900030300668606A012821D007F00301A06A83
:1026A00081421CD1C7F30511E06A884217D1C6F3F5
:1026B0000801206B401E814211D1606B401EC6F3A1
:1026C000462188420BD1A06B401EC6F306418842CA
:1026D00005D1E06B401EC6F30661884201D001209F
:1026E0003FE4174834300068C0F3CC07A06CB84210
:1026F00023D013482C30006820F0010010492C3101
:102700000860FDF76DFF054600BFFDF769FF401B40
:10271000FBD00B48343000684FF6F8718843A16C49
:1027200040EAC10006493431086005482C30006891
:1027300040F0010002492C310860002011E4000043
:10274000004402580048025870B504462546681EE9
:10275000B0F1807F01D301200FE0681E4FF0E0212F
:1027600048610F214FF0FF3001F054FD00204FF081
:10277000E021886107200861002070BD2DE9F0414B
:1027800004460D461646002700BF94F83C00012879
:1027900002D10220BDE8F081012084F83C0000BF96
:1027A0000C2E51D005DC4EB1042E1ED0082E7AD14D
:1027B00033E0102E60D0142EF9D175E02946206840
:1027C00000F0B0FE2068806940F008002168886150
:1027D0002068806920F00400216888612068806991
:1027E000296908432168886178E02946206800F05B
:1027F000EFFE2068806940F40060216888612068ED
:10280000806920F480602168886120688069296976
:1028100040EA01202168886160E02946206800F0D4
:1028200031FF2068C06940F008002168C861206855
:10283000C06920F004002168C8612068C069296966
:1028400008432168C86149E02946206800F074FF08
:102850002068C06940F400602168C8612068C069D0
:1028600020F480602168C8612068C069296940EA55
:1028700001202168C86131E02946206800F096FFF8
:102880002068406D40F00800216848652068406D70
:1028900020F00400216848652068406D29690843DC
:1028A000216848651AE017E02946206800F0B6FF65
:1028B0002068406D40F40060216848652068406DE4
:1028C00020F48060216848652068406D296940EAED
:1028D00001202168486501E0012700BF00BF00BF5B
:1028E000002084F83C0000BF384653E710B504468A
:1028F000022084F83D0000BF2068006A41F21111F7
:10290000084050B92068006A8910084028B920683A
:10291000006820F001002168086000BF204600F038
:102920005CF8002084F8480000BF84F83E000021D5
:102930003F200155402001554120015542200155BD
:102940004320015500BF00BF002084F8440045200B
:102950000155462001554720015500BF002084F84D
:102960003D0000BF84F83C0000BF10BD10B5044618
:102970000CB9012010BD94F83D0028B9002084F85E
:102980003C00204600F02AF8022084F83D00211D7A
:10299000206800F04FFD012084F8480000BF84F853
:1029A0003E0001213F2001554020015541200155A5
:1029B000422001554320015500BF00BF012084F88B
:1029C000440045200155462001554720015500BFD0
:1029D000012084F83D000020CCE7704770470000DC
:1029E00070B504460D4615B994F83E0015E0042D67
:1029F00002D13F20005D10E0082D02D14020005D93
:102A00000BE00C2D02D14120005D06E0102D02D11B
:102A10004220005D01E04320005D012801D001203B
:102A200070BD1DB9022084F83E001AE0042D03D1C8
:102A300002213F20015514E0082D03D1022140203E
:102A400001550EE00C2D03D102214120015508E073
:102A5000102D03D102214220015502E00221432022
:102A6000015501222946206800F04AFD2B492068C3
:102A700088420FD02A49206888420BD02949206813
:102A8000884207D028492068884203D02749206817
:102A9000884201D1012000E0002028B12068406C6C
:102AA00040F40040216848641C49206888421BD0DB
:102AB0002068B0F1804F17D01D492068884213D09C
:102AC0001C49206888420FD01B49206888420BD0DF
:102AD00013492068884207D018492068884203D0EB
:102AE00010492068884210D120688068144900EAA3
:102AF0000106062E0FD0B6F5803F0CD02068006886
:102B000040F001002168086005E02068006840F09E
:102B1000010021680860002082E7000000000140F9
:102B200000040140004001400044014000480140D1
:102B30000004004000080040000C00400018004065
:102B400007000100014600BF91F88400012801D16F
:102B500002207047012081F8840000BF2420C1F8C2
:102B60008800086802680868006820F001000B68A7
:102B7000186022F000520020486608680260202099
:102B8000C1F8880000BF002081F8840000BF00BFAA
:102B9000DFE770B504460D4600BF94F884000128B5
:102BA00001D1022070BD012084F8840000BF2420E0
:102BB000C4F88800206806682068006820F00100DA
:102BC000216808602068806820F0606028432168E0
:102BD0008860204600F05AFE206806602020C4F875
:102BE000880000BF002084F8840000BF00BFD9E740
:102BF00070B504460D4600BF94F88400012801D149
:102C0000022070BD012084F8840000BF2420C4F895
:102C10008800206806682068006820F001002168AC
:102C200008602068806820F0604028432168886040
:102C3000204600F02BFE206806602020C4F88800A3
:102C400000BF002084F8840000BF00BFD9E710B5A2
:102C500004460CB9012010BDA06900B100E000BF1E
:102C6000D4F8880028B9002084F88400204600F0B9
:102C70002BF82420C4F888002068006820F00100A8
:102C800021680860204600F055FF012800D1E2E7E6
:102C9000A06A10B1204600F025FE2068406820F4AC
:102CA0009040216848602068806820F02A002168F0
:102CB00088602068006840F00100216808602046B4
:102CC00000F08CFEC7E7000010B5B8B00446142130
:102CD00032A8FDF73FFBC02102A8FDF73BFB1E49D0
:102CE0002068884236D102210020CDE902102290CE
:102CF00002A8FDF7D3FF08B1FDF76BFB00BF174833
:102D0000006840F48020154908600846006800F417
:102D10008020019000BF00BF00BF10480838006845
:102D200040F008000D49083908600846006800F0C6
:102D30000800019000BF00BF4FF4407032900220A5
:102D400033900020349035900720369032A9044803
:102D5000FDF742FB38B010BD00480040484502581E
:102D6000000C025800BFFEE700B587B0142102A88E
:102D7000FDF7F0FA00BF6B48006840F004006949B5
:102D800008600846006800F00400019000BF00BF22
:102D900000BF0846006840F0200008600846006850
:102DA00000F02000019000BF00BF00BF084600688F
:102DB00040F0800008600846006800F08000019044
:102DC00000BF00BF00BF0846006840F00200086076
:102DD0000846006800F00200019000BF00BF00BF7D
:102DE0000846006840F0080008600846006800F0E7
:102DF0000800019000BF00BF00BF0846006840F017
:102E0000400008600846006800F04000019000BFE4
:102E100000BF00BF0846006840F001000860084697
:102E2000006800F00100019000BF00BF00BF08462D
:102E3000006840F0100008600846006800F01000CC
:102E4000019000BF00BF00224FF480613648FDF7BB
:102E5000C1FB00224FF480413448FDF7BBFB002248
:102E600002213348FDF7B6FB4FF4005002900020DA
:102E70000390049002A92F48FDF7AEFA4FF480604A
:102E800002900120039000200490059002A926489A
:102E9000FDF7A2FA4FF48040029001200390002039
:102EA0000490059002A92148FDF796FA802002902F
:102EB0004FF4881003900020049002A91E48FDF7EB
:102EC0008BFA4FF40070029000200390049002A946
:102ED0001A48FDF781FA4FF48060029002200390B7
:102EE0000020049005900A20069002A91348FDF7DF
:102EF00073FA4FF4C0500290022003900020049017
:102F0000059002A90D48FDF767FA02200290012002
:102F1000039000200490059002A90548FDF75CFA93
:102F200007B000BD40450258001402580004025882
:102F300000100258000802580018025800000258F9
:102F400010B51848184908604FF4E1304860002176
:102F500015488160C16001610C21416100218161DE
:102F6000C1610162416200200F4988620846FFF793
:102F70006EFE08B1FDF72DFA00210B48FFF738FE71
:102F800008B1FDF726FA00210748FFF702FE08B155
:102F9000FDF71FFA0448FFF7D5FD08B1FDF719FA50
:102FA00010BD00000048004060000024704700BFD2
:102FB000FEE700BFFEE770472DE9F04104460E46EC
:102FC00000275548006800F00300032802D10120C3
:102FD000BDE8F08150482838006820F080604E49F4
:102FE00028390860FDF7FCFA054606E0FDF7F8FA17
:102FF000401B022801D90320EAE747482838006827
:10300000C0F3C0600028F1D100BF4348006820F43D
:103010007C30216840EA01303F490860A088401EAA
:10302000C0F30800A168491E4FF47E4202EA412124
:103030000843A189491ED20102EA01410843217CCB
:10304000491E120202EA0161084333491031086047
:1030500000BF3148001D006820F0C00061690843CE
:103060002D49091D08600846006820F02000A1696C
:1030700008432949091D08600846006820F010002F
:1030800008602548143000684FF6F8718843E169FC
:1030900040EAC1002049143108601F48001D006843
:1030A00040F010001C49091D08602EB90846006850
:1030B00040F40020086012E0012E08D11648001DDF
:1030C000006840F480101449091D086007E01248A8
:1030D000001D006840F400100F49091D08600E48EB
:1030E0002838006840F080600B4928390860FDF7F7
:1030F00077FA054606E0FDF773FA401B022801D96E
:10310000032065E7044828380068C0F3C060002841
:10311000F1D038465CE70000284402582DE9F04120
:1031200004460E4600275548006800F003000328B7
:1031300002D10120BDE8F08150482838006820F015
:1031400080504E4928390860FDF74AFA054606E0E6
:10315000FDF746FA401B022801D90320EAE7474859
:1031600028380068C0F340700028F1D100BF434800
:10317000006820F07C70218840EA01503F490860D7
:10318000A088401EC0F30800A168491E4FF47E428B
:1031900002EA41210843A189491ED20102EA014104
:1031A0000843217C491E120202EA016108433349A7
:1031B0001831086000BF3148001D006820F44060ED
:1031C000616908432D49091D08600846006820F41C
:1031D0000070A16908432949091D08600846006874
:1031E00020F48070086025481C3000684FF6F871A4
:1031F0008843E16940EAC10020491C3108601F484A
:10320000001D006840F480701C49091D08602EB93B
:103210000846006840F48000086012E0012E08D1E2
:103220001648001D006840F400001449091D08609C
:1032300007E01248001D006840F080700F49091D2A
:1032400008600E482838006840F080500B49283943
:103250000860FDF7C5F9054606E0FDF7C1F9401B1A
:10326000022801D9032065E7044828380068C0F324
:1032700040700028F1D038465CE70000284402582E
:10328000704710B5FDF7B2F910BD000000B59DB054
:103290004C210AA8FDF75EF8202102A8FDF75AF894
:1032A0004FF0FF30294908600420FDF76BFA00BF9A
:1032B000002001902648006840F4404024490860FE
:1032C0000846006800F44040019000BF00BF00BF06
:1032D0001F48006800F40050B0F5005FF8D12120CD
:1032E0000A904FF4A0200B90012010900220139020
:1032F0000221149101211591462116910221179165
:1033000004211891022119910C211A9100211B917D
:103310001C910AA8FEF720FE08B1FDF75AF83F20DD
:103320000290032003900020049005904020069016
:1033300007900001089040200990072102A8FEF79D
:103340001BFB08B1FDF745F81DB000BDB0440258A5
:10335000184802582F48006840F470002D49086052
:103360002D48006800F00F00032806D22A480068A4
:1033700020F00F00C01C284908602848006840F071
:1033800001002649086000202449103108602348C4
:10339000006823490840214908601F48006800F080
:1033A0000F00032806D91C48006820F00F00C01C3D
:1033B000194908600020194918310860091D086082
:1033C000091D086017481549283108601648091D6D
:1033D00008601648091D08600020091D0860134890
:1033E000091D08600020091D08601048091D0860BB
:1033F0000020091D08600948006820F48020074962
:103400000860002005496031086043F2D200084995
:103410000860704788ED00E0002000520044025828
:103420007FEDF6EA000202020000FF0180020101C6
:103430000040005210B50268294B98420ED0B0F1FE
:10344000804F0BD0274B984208D0274B984205D08D
:10345000264B984202D0264B984203D122F07002AC
:103460004B681A431E4B984217D0B0F1804F14D0CE
:103470001C4B984211D01C4B98420ED01B4B9842CB
:103480000BD01B4B984208D01A4B984205D01A4BD0
:10349000984202D0194B984203D122F44072CB6873
:1034A0001A4322F080034C6943EA040202608B68ED
:1034B000C3620B6883620A4B98420BD00C4B984254
:1034C00008D00C4B984205D00B4B984202D00B4BC6
:1034D000984201D10B6903630123436110BD0000D1
:1034E000000001400004004000080040000C0040C3
:1034F00000040140004001400044014000480140F8
:1035000030B501F01F05012404FA05F3046A9C4359
:103510000462046A01F01F0502FA05F52C430462F7
:1035200030BD000030B5056A25F001050562026A6C
:1035300043688469204D2C4024F003040D682C431B
:1035400022F002028D682A431C4DA84200D10FE0F0
:103550001B4DA84200D10BE01A4DA84200D107E054
:10356000194DA84200D103E0184DA84206D100BF72
:1035700022F00802CD682A4322F004020F4DA8422F
:103580000BD00F4DA84208D00E4DA84205D00E4DCD
:10359000A84202D00D4DA84207D123F4807323F432
:1035A00000734D692B438D692B43436084614D68E3
:1035B0004563026230BD00008FFFFEFF0000014046
:1035C0000004014000400140004401400048014027
:1035D00030B5056A25F010050562026A4368846902
:1035E000224D2C4024F440740D6844EA052422F056
:1035F00020028D6842EA05121D4DA84200D10FE05D
:103600001C4DA84200D10BE01B4DA84200D100BFC9
:103610001A4DA84200D100BF194DA84207D106E0BB
:1036200022F08002CD6842EA051222F04002104DDD
:10363000A8420BD00F4DA84208D00F4DA84205D08C
:103640000E4DA84202D00E4DA84209D123F480634A
:1036500023F400634D6943EA85038D6943EA8503DA
:10366000436084614D688563026230BDFF8FFFFE59
:1036700000000140000401400040014000440140BE
:103680000048014030B5056A25F480750562026A7C
:103690004368C469224D2C4024F003040D682C4378
:1036A00022F400728D6842EA05221E4DA84200D124
:1036B0000FE01D4DA84200D10BE01C4DA84200D1E7
:1036C00000BF1B4DA84200D100BF1A4DA84207D130
:1036D00006E022F40062CD6842EA052222F480620C
:1036E000104DA8420BD0104DA84208D00F4DA84253
:1036F00005D00F4DA84202D00E4DA84209D123F4A7
:10370000805323F400534D6943EA05138D6943EA5E
:1037100005134360C4614D68C563026230BD00009B
:103720008FFFFEFF00000140000401400040014007
:10373000004401400048014030B5056A25F4805539
:103740000562036A4468C269124D2A4022F440723D
:103750000D6842EA052223F400538D6843EA0533DD
:103760000D4DA8420BD00D4DA84208D00C4DA842DB
:1037700005D00C4DA84202D00B4DA84204D124F430
:1037800080444D6944EA85144460C2614D68056413
:10379000036230BDFF8FFFFE0000014000040140C6
:1037A00000400140004401400048014030B5056A36
:1037B00025F480350562026A4368446D114D2C4042
:1037C0000D682C4322F400320D8942EA05420E4D69
:1037D000A8420BD00D4DA84208D00D4DA84205D0EF
:1037E0000C4DA84202D00C4DA84204D123F48033E2
:1037F0004D6943EA0523436044654D68856502626F
:1038000030BD00008FFFFEFF0000014000040140BA
:1038100000400140004401400048014030B5056AC5
:1038200025F480150562026A4368446D114D2C40F1
:103830000D6844EA052422F400120D8942EA05527B
:103840000D4DA8420BD00D4DA84208D00C4DA842FA
:1038500005D00C4DA84202D00B4DA84204D123F450
:1038600080234D6943EA8523436044654D68C565FF
:10387000026230BDFF8FFFFE0000014000040140E6
:1038800000400140004401400048014070B5456ED1
:103890002DB90125A0F86A50A0F868501CE010234B
:1038A00010240568AD68C5F342610568AD686A0F0C
:1038B0000A4DAD5C15FB04F5094EB65C95FBF6F5BB
:1038C000A0F86A50054D6D5C15FB03F5044E765C5F
:1038D00095FBF6F5A0F8685070BD0000E0480008C0
:1038E000E848000890F8281001F0010139B101689A
:1038F000496821F40031C26A11430268516090F8AE
:10390000281001F00201022907D10168496821F459
:103910008031026B11430268516090F8281001F069
:103920000401042907D10168496821F48021426B10
:1039300011430268516090F8281001F0080108292D
:1039400007D10168496821F40041826B1143026884
:10395000516090F8281001F01001102907D101687A
:10396000896821F48051C26B11430268916090F81C
:10397000281001F02001202907D10168896821F46D
:103980000051026C11430268916090F8281001F018
:103990004001402913D10168496821F48011426C2B
:1039A000114302685160416CB1F5801F07D1016875
:1039B000496821F4C001826C11430268516090F89B
:1039C000281001F08001802907D10168496821F49D
:1039D0000021C26C114302685160704738B504463B
:1039E0000020C4F89000FCF7FBFD05462068006845
:1039F00000F00800082821D16FF07E402B460022FD
:103A00004FF400110090204600F0A8FBB0B100BFB9
:103A100000BF216851E8001F21F08000226842E8C1
:103A200000010029F5D100BF2020C4F8880000BFA4
:103A3000002084F8840000BF032038BD206800689F
:103A400000F00400042830D16FF07E402B460022A5
:103A50004FF480010090204600F080FB28B300BFA7
:103A600000BF216851E8001F21F49070226842E8ED
:103A700000010029F5D100BF00BF00BF2168083157
:103A800051E8001F21F001002168083141E80002DF
:103A9000002AF3D100BF2020C4F88C0000BF002012
:103AA00084F8840000BF0320C7E72020C4F8880002
:103AB000C4F88C000020E066206700BF84F8840012
:103AC00000BF00BFB9E7000000BF00BF026852E8B6
:103AD000002F22F49071036843E80012002AF5D108
:103AE00000BF00BF00BF0268083252E8002F104B31
:103AF00002EA03010268083242E80013002BF2D107
:103B000000BFC16E01290CD100BF00BF026852E89E
:103B1000002F22F01001036843E80012002AF5D1BB
:103B200000BF2021C0F88C100021C166416770479A
:103B3000FEFFFFEF2DE9F04F89B005460020089009
:103B4000F8492868884200D100E000BF2969A868C8
:103B5000084369690843E96940EA01082868006880
:103B6000F149084040EA0800296808602868406870
:103B700020F44050E968084329684860D5F8188067
:103B8000E8492868884202D0286A40EA080828687C
:103B90008068E649084040EA08002968886028688B
:103BA000C06A20F00F00696A08432968C86200BF34
:103BB000DF492868884220D1DE48006800F03800DC
:103BC000182811D005DC48B1082809D0102811D1D7
:103BD00008E020280AD028280CD109E001240BE0B5
:103BE000042409E0082407E0102405E0202403E071
:103BF000402401E0802400BF42E1CF492868884288
:103C000019D1CC48006800F00700062810D2DFE880
:103C100000F0030507090B0D00240BE0042409E064
:103C2000082407E0102405E0202403E0402401E0FC
:103C3000802400BF24E1C1492868884219D1BD48C9
:103C4000006800F00700062810D2DFE800F0030546
:103C500007090B0D00240BE0042409E0082407E009
:103C6000102405E0202403E0402401E0802400BF6C
:103C700006E1B3492868884219D1AE48006800F0CF
:103C80000700062810D2DFE800F0030507090B0D36
:103C900000240BE0042409E0082407E0102405E0D8
:103CA000202403E0402401E0802400BFE8E0A5498F
:103CB0002868884219D19F48006800F0070006284C
:103CC00010D2DFE800F0030507090B0D00240BE01C
:103CD000042409E0082407E0102405E0202403E080
:103CE000402401E0802400BFCAE097492868884248
:103CF00020D19048006800F03800182811D005DC69
:103D000048B1082809D0102811D108E020280AD08D
:103D100028280CD109E001240BE0042409E0082440
:103D200007E0102405E0202403E0402401E0802483
:103D300000BFA5E085492868884219D17D48006800
:103D400000F00700062810D2DFE800F0030507099D
:103D50000B0D00240BE0042409E0082407E01024E4
:103D600005E0202403E0402401E0802400BF87E038
:103D700077492868884219D16E48006800F007002A
:103D8000062810D2DFE800F0030507090B0D002418
:103D90000BE0042409E0082407E0102405E02024B7
:103DA00003E0402401E0802400BF69E069492868FD
:103DB000884220D15F48006800F03800182811D0F0
:103DC00005DC48B1082809D0102811D108E02028C6
:103DD0000AD028280CD109E001240BE0042409E0D2
:103DE000082407E0102405E0202403E0402401E03B
:103DF000802400BF44E058492868884220D14D48BB
:103E0000006800F03800182811D005DC48B10828F7
:103E100009D0102811D108E020280AD028280CD178
:103E200009E001240BE0042409E0082407E0102441
:103E300005E0202403E0402401E0802400BF1FE0CF
:103E40003849286888421AD13A48001D006800F0B5
:103E50000700062810D2DFE800F0030507090B0D64
:103E600002240BE0042409E0082407E0102405E004
:103E7000202403E0402401E0802400BF00E08024EF
:103E800000BF2849286888424BD1102C1AD006DC84
:103E9000022C09D0042C0BD0082C29D10DE0202CA9
:103EA00021D0402C24D120E0FCF7B6FC064623E0CC
:103EB00005A8FCF7C3FC069E1EE002A8FCF7D6FD91
:103EC000039E19E01B4854380068C0F3401040B10D
:103ED000184854380068C0F3C101204820FA01F6A0
:103EE00000E01E4E08E01E4E06E04FF4004603E0E0
:103EF00000260120089000BF00BF002E10D01949F5
:103F0000686A31F81000B6FBF0F9686800EB400011
:103F1000484503D868680003484525D20120089029
:103F200007E153E0000C0058F369FFCFFFF4FF11E5
:103F30000010014054440258004400400048004032
:103F4000004C004000500040001401400078004048
:103F5000007C004000180140001C01400090D0038C
:103F600000093D00C84800087849686A31F810C067
:103F70006246002330461946FCF7B4F94FF4807CC2
:103F800000220346A3FB0C0B01FB0CB103FB021345
:103F90006968490884461CEB010143EB0200CDE946
:103FA0000010D5F804C06246002308460199FCF7CA
:103FB00099F90746B7F5407F05D3B7F5801F02D2C0
:103FC0002868C760B5E001200890B2E0E869B0F564
:103FD000004F5BD1082C1AD005DC5CB1012C0DD050
:103FE000042C2DD10EE0102C16D0202C23D0402CE8
:103FF00026D122E0FDF776FE064625E0FDF784FE99
:10400000064621E005A8FCF719FC069E1CE002A864
:10401000FCF72CFD039E17E04D480068C0F34010EC
:1040200038B14B480068C0F3C1014A4820FA01F694
:1040300000E0484E08E0484E06E04FF4004603E03A
:1040400000260120089000BF00BF7EB33F49686A88
:1040500031F81000B6FBF0F04000696800EB510049
:10406000B0FBF1F7102F0ED3B7F5803F0BD24FF610
:10407000F07007EA000AC7F342004AEA000A28681B
:10408000C0F80CA055E00120089052E0082C1BD08D
:1040900005DC64B1012C0ED0042C2ED10FE0102CC5
:1040A00017D0202C24D0402C27D123E041E0FDF76D
:1040B00019FE064625E0FDF727FE064621E005A885
:1040C000FCF7BCFB069E1CE002A8FCF7CFFC039E9D
:1040D00017E01F480068C0F3401038B11C48006862
:1040E000C0F3C1011B4820FA01F600E0194E08E0B8
:1040F000194E06E04FF4004603E000260120089028
:1041000000BF00BFAEB11149686A31F81000B6FBBC
:10411000F0F0696800EB5100B0FBF1F7102F06D307
:10412000B7F5803F03D2B8B22968C86001E001202A
:1041300008900120A5F86A00A5F8680000206867CB
:10414000A867089809B0BDE8F08F0000C8480008CB
:10415000004402580090D00300093D002DE9F041D1
:1041600004460D4617469846069E3CE0701CC8B3B0
:10417000FCF736FAA0EB0800B04200D816B90320CD
:10418000BDE8F0812068006800F0040050B32068AA
:10419000C069C0F3C00078B10820216808622046D9
:1041A000FFF792FC0820C4F8900000BF002084F8BC
:1041B000840000BF0120E3E72068C069C0F3C0208D
:1041C00080B14FF40060216808622046FFF77CFC54
:1041D0002020C4F8900000BF002084F8840000BFB5
:1041E0000320CDE7FFE72068C0692840A84201D13D
:1041F000012000E00020B842B8D00020C0E700BF96
:10420000FEE7000002480068C0F30220704700008B
:104210000CED00E010B5002804DB0A07130E054A78
:10422000135406E00A07140E034A00F00F031B1F85
:10423000D45410BD00E400E018ED00E002E008C82E
:10424000121F08C1002AFAD170477047002001E010
:1042500001C1121F002AFBD1704730B585B0054659
:104260000C46284600F07EF80120019000200290C4
:1042700003200390009469462846FCF7ADF805B08A
:1042800030BD70B586B006460C461546304600F087
:1042900069F8284600F03CF90220029001200390C2
:1042A00003200490284600F009F80590019401A924
:1042B0003046FCF791F806B070BD000001460020C2
:1042C0001D4A914201D1012035E0B1F1804F01D169
:1042D000012030E0194A914201D102202BE0184A16
:1042E000914201D1022026E0164A914201D10220DA
:1042F00021E0154A914201D103201CE0134A91426A
:1043000001D1022017E0124A914201D1092012E0A6
:10431000104A914201D109200DE00F4A914201D18A
:10432000042008E00D4A914201D1012003E00C4A2B
:10433000914200D10120704700000140000400407C
:1043400000080040000C004000040140001800403C
:10435000001C00400020004000400140004401409B
:104360000048014008B55E4988420DD100BF5D4953
:10437000096841F001015B4A11601146096801F0CA
:104380000101009100BFA9E0574988420DD100BF4B
:104390005449096841F00201524A11601146096806
:1043A00001F00201009100BF98E0504988420DD110
:1043B00000BF4C49096841F004014A4A11601146A6
:1043C000096801F00401009100BF87E04849884274
:1043D0000DD100BF4349096841F00801414A11600D
:1043E0001146096801F00801009100BF76E04149DB
:1043F00088420DD100BF3B49096841F01001394A9C
:1044000011601146096801F01001009100BF65E0DC
:10441000394988420DD100BF3249096841F0200175
:10442000304A11601146096801F02001009100BF77
:1044300054E0324988420DD100BF2A49096841F051
:104440004001284A11601146096801F040010091BD
:1044500000BF43E02A4988420DD100BF21490968C5
:1044600041F080011F4A11601146096801F0800186
:10447000009100BF32E0234988420DD100BF1949A5
:10448000096841F48071174A11601146096801F406
:104490008071009100BF21E01B4988420DD100BF0F
:1044A0001049096841F400710E4A1160114609680B
:1044B00001F40071009100BF10E0144988420DD151
:1044C00000BF0849096841F48061064A116011463D
:1044D000096801F48061009100BF00BF08BD0000C1
:1044E00000000258404502580004025800080258D3
:1044F000000C02580010025800140258001802580C
:10450000001C0258002002580024025800280258BB
:1045100008B5804988420DD100BF7F49096841F044
:1045200001017D4A11601146096801F00101009105
:1045300000BFEEE0B0F1804F0FD100BF76490839DF
:10454000096841F00101744A083A1160114609688E
:1045500001F00101009100BFDBE0704988420FD1FA
:1045600000BF6D490839096841F002016A4A083AFA
:1045700011601146096801F00201009100BFC8E016
:10458000674988420FD100BF63490839096841F083
:104590000401614A083A11601146096801F00401FA
:1045A000009100BFB5E05F4988420FD100BF5A4972
:1045B0000839096841F00801574A083A1160114664
:1045C000096801F00801009100BFA2E05649884245
:1045D0000FD100BF50490839096841F010014E4A17
:1045E000083A11601146096801F01001009100BFFE
:1045F0008FE04E4988420FD100BF4749083909680A
:1046000041F02001444A083A11601146096801F05E
:104610002001009100BF7CE0454988420DD100BFD8
:104620003D49096841F002013B4A116011460968A1
:1046300001F00201009100BF6BE03E4988420FD1BA
:1046400000BF35490839096841F04001324A083A4B
:1046500011601146096801F04001009100BF58E067
:10466000354988420FD100BF2B490839096841F00C
:104670008001294A083A11601146096801F0800159
:10468000009100BF45E02D4988420FD100BF22496B
:104690000839096841F480711F4A083A11601146CF
:1046A000096801F48071009100BF32E0244988421A
:1046B0000DD100BF1849096841F48031164A1160D4
:1046C0001146096801F48031009100BF21E01D49C5
:1046D00088420DD100BF1049096841F400310E4AEB
:1046E00011601146096801F40031009100BF10E02B
:1046F000154988420DD100BF0749096841F480215E
:10470000054A11601146096801F48021009100BF3B
:1047100000BF08BD000001405045025800040040A1
:1047200000080040000C0040001000400014004051
:104730000004014000180040001C00400020004020
:104740000040014000440140004801402DE9F04F85
:104750009FB081468A4614469B46289D4C210CA852
:10476000FBF7F8FD1C2105A8FBF7F4FD414B0FCB2F
:104770008DE80F00299840B951464846FFF76DFD76
:10478000C9F818A01FB0BDE8F08F42F21071299847
:10479000884206D151464846FFF75FFDC9F818A088
:1047A000F0E7224651464846FFF76BFD3248844207
:1047B0000BD03248844208D03148844205D0314879
:1047C000844202D03048844203D130480068470810
:1047D00002E02E4800684708642D0AD242F20F78A2
:1047E00042F21070B7FBF0F0B0FBF5F0401E86B25D
:1047F00013E040F6B830854209D24FF063086420D8
:10480000B7FBF0F0B0FBF5F0401E86B205E04FF0CC
:104810000008B7FBF5F0401E86B22998704342F2BB
:104820001071B0FBF1F004900CA8FEF75FF80C9447
:10483000CDF834800F96002110910E9111911291B4
:104840000CA8FEF793F860200590002007900990CF
:1048500008900B900A90049806903DF81B2005A93B
:104860000CA8FDF78BFF3DF81B100CA8FEF7B8F85D
:1048700000BF87E700490008000001400004014034
:104880000040014000440140004801400C00002469
:104890001CB5FBF7B7FEFEF7F9FCFEF765FAFEF76D
:1048A0004FFBFEF783FB41F2883041000323044AAB
:1048B000CDE9001001210348FFF748FF00BFFEE7E4
:1048C0000004004000040258010002000400060039
:1048D00008000A000C0010002000400080000001C9
:1048E000010101030701000008040204080101019D
:1048F0000000000001020304010203040607080986
:1049000000000000040008000C001000140000006B
:104910003049000800000024140000003C42000858
:104920004449000814000024E40400004C4200083C
:104930000000000010000000010000000090D00303
:044940000090D00310
:04000005080002AD40
:00000001FF
