:020000040800F2
:100000000005002401001008611C1008E71A100800
:10001000C7110008250210081D1900080000000083
:10002000000000000000000000000000851D100816
:100030004D06000800000000C9110008ED1200087C
:100040001B0010081B0010081B0010081B001008E4
:100050001B0010081B0010081B0010081B001008D4
:100060001B0010081B0010081B0010081B001008C4
:100070001B0010081B0010081B0010081B001008B4
:100080001B0010081B0010081B0010081B001008A4
:100090001B0010081B0010081B0010081B00100894
:1000A0001B0010081B0010081B0010081B00100884
:1000B0001B0010081B0010081B0010081B00100874
:1000C0001B0010081B0010081B0010081B00100864
:1000D0001B0010081B0010081B0010081B00100854
:1000E0001B0010081B0010081B0010081B00100844
:1000F0001B0010081B0010081B0010081B00100834
:100100001B0010081B001008F11E10081B0010082F
:100110001B0010081B0010081B0010081B00100813
:100120001B0010081B0010081B0010081B00100803
:100130001B00100800000000000000001B00100859
:100140001B0010081B0010081B0010081B001008E3
:100150001B0010081B0010081B0010081B001008D3
:100160001B0010081B0010081B0010081B001008C3
:100170001B0010081B0010081B00100800000000E6
:100180001B0010081B0010081B0010081B001008A3
:100190001B0010081B0010081B0010081B00100893
:1001A0001B0010081B0010081B0010081B00100883
:1001B0001B0010081B0010081B0010081B00100873
:1001C0001B0010081B0010080000000000000000C9
:1001D00000000000000000001B00100800000000EC
:1001E000000000000000000000000000000000000F
:1001F00000000000000000001B0010081B00100899
:100200001B0010081B001008000000001B00100855
:100210001B0010081B0010081B0010081B00100812
:100220001B0010081B0010081B0010080000000035
:100230001B0010081B001008000000001B00100825
:100240001B0010081B0010081B0010081B001008E2
:100250001B0010081B0010081B0010081B001008D2
:100260001B0010081B0010081B0010081B001008C2
:100270001B0010081B0010081B00100800000000E5
:100280001B0010081B001008000000001B001008D5
:10029000000000001B0010081B00100800000000F8
:1002A000000000001B0010081B001008DFF80CD035
:1002B00000F0BAF900480047FD21000800050024BD
:1002C00030B50B46014600202022012409E021FA26
:1002D00002F59D4205D303FA02F5491B04FA02F523
:1002E0002844151EA2F10102F1DC30BD202A04DBF6
:1002F000203A00FA02F1002070479140C2F1200339
:1003000020FA03F319439040704710B5141E73F19F
:10031000000408DA401C41F1000192185B411A43C5
:1003200001D120F0010010BD2DE9F04D92469B4611
:1003300011B1B1FA81F202E0B0FA80F220329046B7
:10034000FFF7D4FF04460F4640EA0A0041EA0B01DA
:1003500053465A46084313D0114653EA010019D0B8
:10036000C8F140025046FFF0B4FE05460E46504626
:1003700059464246FFF7BAFF084305D0012004E082
:1003800020463946BDE8F08D0020054346EAE07678
:100390002C4337430A986305E40AA0EB08000022C7
:1003A000FD0A44EA47540A3002D500200146E9E735
:1003B000010510196941DDE9084500196941BDE8E9
:1003C000F04DA2E72DE9FE4F804681EA0300C00F01
:1003D0000C46009021F0004123F00045B8EB0200EC
:1003E000A94105D24046214690461C460B4602468E
:1003F00023F00040104347D0270DC7F30A00C3F392
:100400000A510290401A019040286BDAC3F313009E
:1004100040F4801B0098924620B10023D2EB030ADF
:1004200063EB0B0B01985946C0F140025046FFF7B1
:100430005DFF06460D4650465946019AFFF0E0FE24
:1004400010EB08006141002487EA115284EAE77347
:100450001A4340D0009A62B3019A012A4FEA075228
:1004600015DC001B61EB02014FF0004202EA07526B
:10047000CDE90042001C41F5801132462B46FFF7C2
:1004800053FF03B0BDE8F08F40462146F9E7001B5B
:1004900061EB0201001C41F5801300185B4120183C
:1004A000A2F5001747EB030140EAD570B6196D417C
:1004B00011E06D084FEA360645EAC0754FEA07526B
:1004C000001B61EB0201001C41F5801149084FEA55
:1004D00030000019514132462B4603B0BDE8F04FC1
:1004E000FFF713BF0098012240000023D0EB020267
:1004F00063EBE073009821464FEAE074B8EB00002C
:1005000061EB0401E9E783F000435BE781F0004120
:1005100058E72DE9FE4F81EA030404F0004421F07E
:10052000004100944FF0000B23F0004350EA010417
:100530005ED052EA03045BD0C3F30A54C1F30A55F8
:100540002C44A4F2F3340194A0FB0254C1F3130130
:1005500041F48011C3F3130343F4801301FB0244FD
:1005600000FB034E840A970A44EA815447EA835702
:10057000A4FB076802958D0A05FB07854FEA932CBB
:1005800004FB0C542705029D4FEA065847EA16372C
:10059000B5EB08056EEB070C870E920E47EA811744
:1005A00042EA8312A7FB0201B6EB0B0164EB0004E5
:1005B0002B0D43EA0C335E1844EB1C50DA465146CF
:1005C000E7FB0201C5F313044FEA0B3343EA14536C
:1005D0004FEA0432019C43EA0603A4F10C0402949E
:1005E000009CCDE900B4FFF79FFE03B0BDE8F08F9B
:1005F00000200146F9E7000030B5041E71F1000447
:1006000004DB4FF00044404264EB0101141E73F11F
:10061000000405DB1C464FF00043524263EB040329
:10062000994208BF904230BD064C074D06E0E06895
:1006300040F0010394E8070098471034AC42F6D329
:10064000FFF738FE5C2200087C220008704772B673
:10065000FEE70000014880687047000000000024A9
:1006600002488168027811448160704700000024CC
:10067000032010B500F078F800F17AFC0F4A104919
:1006800014681368C4F3032203F00F038A5CC95C87
:1006900002F01F0201F01F01D0400A4A20FA01F1C6
:1006A000116009490860002000F010F808B101202D
:1006B00010BD00F02BF8002010BD000018440258B7
:1006C0004C220008100000240C00002470B50D4DD1
:1006D00004462878A0B14FF47A71B1FBF0F00A49D2
:1006E0000968B1FBF0F000F087FA48B9102C07D286
:1006F00000222146501E00F017F800206C6070BDEB
:10070000012070BD000000240C000024054808B53D
:10071000016841F002010160006800F002000090F1
:1007200008BD0000544502580E4BF0B41B680D463E
:10073000C3F30223C3F10706042E00D90426191DB2
:10074000072901D2002300E0DB1E012404FA06F190
:100750009C40491E2940641E994014402143F0BC2E
:1007600001F0DDB80CED00E0064900F0070210B51D
:100770004FF6FF040868044B204040EA022018436B
:10078000086010BD0CED00E00000FA052DE9F04115
:100790001E4C0546206800F007000628206804D09B
:1007A00000F03F00A84228D12EE020F03F0028436F
:1007B0002060FFF74FFF154F4FF47A780646083F49
:1007C00005E000BFFFF746FF801B404515D838689D
:1007D000C0438004F6D41E2D05D02E2D03D01D2D30
:1007E00001D02D2D10D1FFF735FF0546464607E015
:1007F000FFF730FF401BB04202D90120BDE8F08175
:100800002068C043C003F3D40020F7E70C48025827
:1008100010B500F179FB05490968054AC1F30211D9
:10082000515C01F01F01C84010BD00002044025877
:100830004C220008494930B5484C0B1D0A681C344D
:1008400009681D68246802F00303C5F30022C1F3A0
:100850000551C4F3CC04002914FB02F200EE102A67
:10086000F8EE400A75D03F4A9FED3D1AB7EE000AF8
:100870006BB1DFED3D1A012B01D0022B64D002EEEB
:10088000101A1168F8EE422A81EEA22A21E0334CB8
:10089000283C23689B0612D5344B246801EE901A3D
:1008A0001168C4F3C104F8EE612AE34001EE903A06
:1008B000C1F30801F8EE611A81EEA22A0BE001EE05
:1008C000901ADFED2B2A00BFF8EE611A116882EE54
:1008D000A12AC1F3080101EE901A1168F8EE611A1D
:1008E00040EE811A71EE800A62EE200AC1F34621C1
:1008F00001EE101AB8EE411A31EE001AC0EE811A5C
:10090000BCEEE11A80ED001A1168C1F3064101EE58
:10091000101AB8EE411A31EE001AC0EE811ABCEE80
:10092000E11A80ED011A1168C1F3066101EE101A97
:10093000B8EE411A31EE000A80EE801ABCEEC10A10
:1009400080ED020A30BD04E001EE901ADFED092AC5
:10095000BAE70021016041608160F3E72844025852
:1009600000000039404402580024744A0090D0032B
:100970000024744C0024F44A2DE9F05F04000F4673
:100980007ED0DFF83882D8F8000000F00F00B842BF
:100990000CD2D8F8001021F00F013943C8F800102C
:1009A000D8F8000000F00F00B84269D12078844DDB
:1009B00040070AD52069296801F07001884204D9EE
:1009C000296821F070010143296020787C4E361D92
:1009D00000070AD56069316801F07001884204D9C6
:1009E000316821F07001014331602078C0060AD5DA
:1009F000A069316801F4E061884204D9316821F4CA
:100A0000E061014331602078DFF8B4B180060BF17A
:100A1000080B0CD5E1695846DBF8002002F07002A3
:100A2000914204D9026822F070020A4302602078E1
:100A300080070AD5E068296801F00F01884204D9CF
:100A4000296821F00F01014329602078C0073ED0BA
:100A50005B49A2682868183920F470601043286048
:100A60006068022818D0032819D00968012819D015
:100A7000490700294ADADFF848A1AAF1080A00E08C
:100A800044E0DAF8002022F007020243CAF800200E
:100A9000FFF7E0FD814612E009688903E9E709688C
:100AA0008901E6E7C905E4E7FFF7D4FDA0EB0901FA
:100AB00041F28830814202D90320BDE8F09F61688D
:100AC000DAF8000000F03800B0EBC10FECD120786C
:100AD00080070AD5E068296801F00F01884204D236
:100AE000296821F00F0101432960D8F80010404621
:100AF00001F00F01B9420BD9016821F00F01394310
:100B00000160006800F00F00B84201D00120D4E776
:100B1000207840070AD52069296801F070018842D1
:100B200004D2296821F07001014329602078000770
:100B30000AD56069316801F07001884204D23168D9
:100B400021F07001014331602078C0060AD5A06908
:100B5000316801F4E061884204D2316821F4E06137
:100B600001433160207880060CD5E1695846DBF8F6
:100B7000002002F07002914204D2026822F070025A
:100B80000A43026000F1F4F90E492A682B68C2F3A7
:100B9000032203F00F038A5CC95C02F01F0201F01C
:100BA0001F01D040084A20FA01F11160074908608E
:100BB00007480068BDE8F05FFFF788BD00200052DD
:100BC000184402584C220008100000240C00002495
:100BD0000400002400B500F197F905490968054AA9
:100BE000C1F30211515C01F01F01C84000BD0000BB
:100BF0001C4402584C220008401EB0F1807F10B502
:100C000001D3012010BD4FF0E02460610F21601777
:100C100000F085FE0020A0610721216110BD704712
:100C200070B51D4C6078002825D1227801211B4D1C
:100C3000012A21D0606041F21113217029680A6AEB
:100C40001A4207D10A6A9B101A4203D10A6822F09D
:100C500001020A60296848622868016A21F00A01D5
:100C600001622868016A41F0020101622868016896
:100C700041F00101016070BD2070084861700021E1
:100C800000F073F960602868016A21F00A010162CE
:100C90002868016A016270BD14000024200000244D
:100CA0002DE9F047054690F83C0000260C46012847
:100CB00010D0012085F83C0072B1042A1CD0082A0B
:100CC0002CD00C2A52D00126002085F83C0030465A
:100CD000BDE8F0870220FBE7E3682868D4E900124A
:100CE00001F12CF92868816921F00C0181612868E3
:100CF0008169A26811430FE0E3682868D4E9001213
:100D000001F16EF92868816921F4406181612868E8
:100D10008169A26841EA02218161D5E728684FF420
:100D2000206CD4E90032217B076AD0F820800CEADD
:100D30000323090727F4206728F4807CC0F820C02B
:100D4000D0F81CC03B432CF00307174327F0F002F8
:100D500042EA1161C16103622868C16921F00C0196
:100D6000C1612868A268C169114328E0D4E9002361
:100D700028684FF42048E1684FF6FF7C9946036AE3
:100D8000076A08EA023223F420431A430CEA0131CD
:100D900027F480570762C36923F4407747EA0923A1
:100DA00023F470431943C16102622868C16921F4C8
:100DB0004061C1612868A168C26942EA0121C1613C
:100DC00082E710B5040003D094F83D0010B107E0AD
:100DD000012010BD002084F83C00204600F174FD85
:100DE000022084F83D002068211D00F081FA0120D6
:100DF00084F8480084F83E0084F83F0084F84000FE
:100E000084F8410084F8420084F8430084F84400E8
:100E100084F8450084F8460084F8470084F83D00D3
:100E2000002010BD30B504464FF0000579B104290B
:100E300012D0082915D00C2918D0102919D094F8EF
:100E4000430000BF94F84720012817D114E094F81C
:100E50003E0094F84420F7E794F83F0094F84520CA
:100E6000F2E794F8400094F84620EDE794F841004A
:100E7000E8E794F84200E5E7012A01D0012030BDFF
:100E80004FF0020079B1042916D008291DD00C2991
:100E90004FD0102950D084F843000C2984F8470023
:100EA0004DD0012543E084F83E0084F844002068DA
:100EB000C26842F0020210E084F83F0084F8450066
:100EC0002068C26842F0040207E084F8400084F819
:100ED00046002068C26842F00802C2602068012211
:100EE00001F10CF818492068884214D0B0F1804F05
:100EF00011D0164988420ED0154988420BD01549A9
:100F0000884208D01449884205D01449884202D04A
:100F10001349884207D18168124A1140062906D038
:100F2000B1F5803F03D0016841F00101016028461E
:100F300030BD84F84100B0E784F84200ADE7206896
:100F4000C26842F01002C8E70000014000040040FF
:100F500000080040000C0040000401400018004060
:100F60000040014007000100704702464FF00000BA
:100F700041B1042909D008290AD00C2901D11068EF
:100F8000006C70471068406B70471068806B70474A
:100F90001068C06B7047704770B5044690F88400C5
:100FA00001281DD0012284F884202420C4F8880060
:100FB00020680568026822F00102026020688268E9
:100FC00022F060620A438260204601F125F822681F
:100FD000202100201560C4F8881084F8840070BDBA
:100FE000022070BD70B5044690F8840001281DD021
:100FF000012284F884202420C4F888002068056831
:10100000026822F0010202602068826822F06042D9
:101010000A438260204600F1FFFF22682021002061
:101020001560C4F8881084F8840070BD022070BD7B
:1010300010B5B6B00446142130A8FFF02BF8C0213B
:101040006846FFF027F81949206888422BD1002014
:10105000209002210446CDE900106846FFF0AEFA68
:1010600008B1FFF7F4FA1248016841F480210160E9
:10107000006800F4802035900D480838016841F080
:1010800008010160006830AB022100F008003590D3
:101090004FF44070072283E81300064830A9CDE9D9
:1010A0003342FFF0C1F836B010BD000000480040E8
:1010B00048450258000C025830B58BB0254C00252D
:1010C0002548C72100956A1E019502950395049550
:1010D000059506950795089509950A9584E82300D6
:1010E000C4E903252046A56100F104FB08B1FFF720
:1010F000AEFA4FF4805000901648694600F166FB46
:1011000008B1FFF7A4FA1348FFF75BFE08B1FFF739
:101110009EFA104804A90495069500F199FA08B1C1
:10112000FFF795FA0120002207A9CDE907500948E9
:1011300009950A95FFF7B4FD08B1FFF788FA05484D
:101140000021FFF76FFE2068C16841F00101C16016
:101150000BB030BD20000024000C004018480021D6
:1011600010B5164C0C224FF4E1330460C0E9013194
:10117000C160C0E904128161C161016241628162A2
:1011800000F17CFC08B1FFF762FA0D480021FFF77F
:1011900029FF08B1FFF75BFA09480021FFF7FCFEC1
:1011A00008B1FFF754FA064800F148FC002803D0C4
:1011B000BDE81040FFF74BBA10BD000000480040EA
:1011C0006C0000247047FEE7704700002DE9F047EF
:1011D000454D044689464FF0000A2868C043800701
:1011E0000AD0414E283E306820F080503060FFF732
:1011F00031FA0746B04608E00120BDE8F08700BF9D
:10120000FFF728FAC01B022867D8D8F80000800032
:10121000F6D4208829684FF4FE0721F07C713E0245
:1012200041EA00502860207AA389B4F804C0400243
:101230002D4D2D495B1E227CACF1010C1835091D8A
:10124000A0F5007080B2521ECCF3080C07EA0343ED
:1012500040EA0C00184306EA02621043286008685E
:10126000626920F44060104308600A68A06922F4B3
:10127000007202430A60281D0A6822F480720A6024
:1012800002684FF6F873E4699A4342EAC4020260C6
:101290000868B9F1000F40F480720A6011D0086844
:1012A000B9F1010F11D040F080700860D8F800004B
:1012B000444640F08050C8F80000FFF7CBF90546DF
:1012C0000DE0086840F48000EFE740F40000ECE730
:1012D000FFF7C0F9401B022801D903208DE72068E1
:1012E0008000F5D5504688E728440258FFF7B8B982
:1012F0002DE9F0472A4B4FF0804A2A4D0268984268
:10130000294E2A4F2A4C09D0504507D0A84205D073
:10131000B04203D0B84201D0A04205D1D1F804C0F8
:1013200022F070024CEA0202DFF888C0DFF8888001
:101330009842DFF888900FD050450DD0A8420BD0CE
:10134000B04209D0B84207D0A04205D0604503D0D2
:10135000404501D0484503D1CD6822F440722A436C
:101360004D6922F080022A43026098428A68C26274
:101370000A68826207D0A04205D0604503D040458C
:1013800001D0484501D10969016301214161016929
:10139000C90703D0016921F001010161BDE8F087AF
:1013A000000001400004004000080040000C004024
:1013B0000004014000400140004401400048014059
:1013C00010B5036A046A23F00A0324F001040462DE
:1013D00084690B4324F0F00141EA02118161036248
:1013E00010BD90F82810090706D50168836B4A687C
:1013F00022F400421A434A6090F82810C90706D028
:101400000168C36A4A6822F400321A434A6090F8BD
:101410002810890706D50168036B4A6822F48032D8
:101420001A434A6090F82810490706D50168436BB3
:101430004A6822F480221A434A6090F82810C906AC
:1014400006D50168C36B8A6822F480521A438A6009
:1014500090F82810890606D50168036C8A6822F482
:1014600000521A438A6090F82810490611D5016885
:10147000436C4A6822F480121A434A60416CB1F509
:10148000801F06D10168836C4A6822F4C0021A43A7
:101490004A6090F82810090606D50168C26C4868B1
:1014A00020F4002010434860704700002DE9F0430D
:1014B00004468068E24E87B0E24B2168D4E90427F5
:1014C000D4F81CC010430A68002547EA0C073843CB
:1014D000324002430A602068E268416821F44051CA
:1014E000114341602268A1699A4201D0206A0143F8
:1014F0009668DFF854C3D54FD54806EA0C060E436C
:1015000096602168666ACA6A22F00F023243CA6294
:101510002268BA420ED1006800F0380018286FD057
:101520007ADCB8B308286CD010286BD18BE028285F
:1015300068D18EE0C7498A4209D1006800F00700EF
:1015400006285FD2DFE800F0507D7F818385C249A5
:101550008A4209D1006800F0070006287BD2DFE844
:1015600000F0437072747678BC498A4209D10068F1
:1015700000F0070006286ED2DFE800F036636567EA
:10158000696BB7498A420BD1006800F00700062852
:1015900061D200E043E0DFE800F0275456585A5C7F
:1015A000B0498A4206D1006800F0380018284CD0B3
:1015B000B7DD31E0AC498A4209D1006800F007008C
:1015C000062848D2DFE800F0103D3F414345A749D7
:1015D0008A420BD1006800F0070006283BD2DFE802
:1015E00000F0033032343638002035E0A0498A421A
:1015F00009D1006800F03800182826D091DD0BE0F2
:1016000023E01EE027E09B498A420AD1006800F0EF
:101610003800182819D084DD202888D11CE001204A
:101620001AE09A4217D18A48001D006800F00700AE
:10163000062810D2DFE800F0030507090B0D022091
:101640000AE0042008E0082006E0102004E0202042
:1016500002E0402000E080208749DFF820829A42A3
:10166000874A4FF400434FEA21174FF000064ED14E
:1016700010281AD006DC022809D004280BD008282C
:101680007ED10DE020283ED0402879D13DE0FFF703
:10169000BFF8014610E06846FEF0EEFE01990BE04F
:1016A00003A8FFF7C7F8049906E01068800605D57F
:1016B0001068C0F3C100C140002970D0606A67683B
:1016C00038F8102007EB4703B1FBF2F0834257D8FC
:1016D000B0EB073F54D8002308461946FEF0A2FCA1
:1016E00002467808130E120243EA012110183A4606
:1016F00071410023FEF096FC624AA0F540719142D0
:101700003ED821688FE03946D8E71946D6E7D4F8A5
:101710001CC04FF6EF799C4546D1082819D005DC4E
:1017200058B101280CD0042875D10DE0102815D02F
:10173000202835D040286ED134E0FFF74BFA01E085
:10174000FFF004FC014610E06846FEF095FE0199AA
:101750000BE003A8FFF76EF8049906E01068800616
:1017600004D51068C0F3C100C140C1B1636A6068AC
:1017700038F81330B1FBF3F1490001EB500100E000
:1017800049E0B1FBF0F0A0F11001494543D84FF614
:10179000F0732168C0F342021840104343E043E075
:1017A0003946E3E71946E1E7082819D005DC58B1C6
:1017B00001280CD004282ED10DE0102815D02028A7
:1017C0002BD0402827D12AE0FFF704FA01E0FFF0F0
:1017D000BDFB014610E06846FEF04EFE01990BE0AD
:1017E00003A8FFF727F8049906E01068800604D5DF
:1017F0001068C0F3C100C140B1B1636A606838F8D5
:101800001330B1FBF3F101EB5001B1FBF0F0A0F1AB
:101810001001494505D9012506E03946EDE719468D
:10182000EBE7216880B2C8600120A4F86A00A4F840
:10183000680028466667A66707B0BDE8F083000029
:10184000F369FFCF000C0058FFF4FF1100100140B6
:10185000544402580044004000480040004C0040FE
:10186000005000400014014000780040007C00401F
:1018700000180140001C01400090D00334220008F1
:1018800000440258FFFC0F002DE9F0479946174627
:101890000D460446089E4FF0000833E0701C31D01E
:1018A000FEF7D8FEA0EB0900B04218D8BEB1206800
:1018B0000168490726D5802D24D0402D22D0C1694A
:1018C000C94309070DD408250562204600F11CFC18
:1018D000C4F89050012084F88480BDE8F08703208C
:1018E000FBE7C069C04300050CD421684FF40060D9
:1018F0000862204600F108FC2021C4F8901084F80A
:101900008480ECE72068C06935EA000004D000203C
:10191000B842C3D00020E0E70120F9E7FEE709075D
:1019200000284FEA116104DB00F1E02080F8001488
:10193000704700F00F0000F1E02080F8141D7047A0
:1019400002E008C8121F08C1002AFAD17047704788
:10195000002001E001C1121F002AFBD170470000E6
:101960002DE9FF5F82B00021DDE90430020DDDF8D2
:1019700040B0034318D044F61050A2F2FF32424365
:101980001514119801281FD0A5EB0B00401C5FEA2D
:10199000000A4FF000064E4FDFF83891B04650462F
:1019A00015D5CAF1000413E0119801244AA30128B7
:1019B00001D16FEA0B010298119AC0E90031C0E928
:1019C000024206B0BDE8F09FCBF10000DFE704461D
:1019D0000021404A491842EB0450CDE9001012E0C2
:1019E000E00707D032463B4640464946FEF791FDA8
:1019F0008046894632463B4610461946FEF789FD29
:101A000006460F466410002CEAD1DDE90401DDE949
:101A10000023BAF1000F06DAFEF77BFD42464B4683
:101A2000FEF777FD05E0FEF064FB42464B46FEF014
:101A300060FB04460E460022284BFEF7DDFD03D86E
:101A40004FF0FF30014607E00022254B204631468B
:101A5000FEF7B8FCFEF0BCFB102409E0002C0ADB0A
:101A60000A220023FEF0DEFA039B30321A55641E70
:101A700050EA0102F2D1641C039AC4F11103144428
:101A8000119A012A03D0012208430DD10AE008432C
:101A900004D000204FF0110B119072E7A3EB0B055F
:101AA0006D1E0DE05B4504DD4FF0000205F1010500
:101AB00004E003DA4FF00002A5F10105002AECD0A2
:101AC00002981199C0E90231C0E9004579E70000A8
:101AD000000014400000F03F300000000000F04320
:101AE0000000E03F2DE9FF4F95B09B468946064632
:101AF00000250FE2252877D100242746F84A012146
:101B0000059400E0044316F8013F203B01FA03F07E
:101B10001042F7D130782A2811D06FF02F03307897
:101B2000A0F13002092A16D8059A44F0020402EB0B
:101B3000820203EB42021044761C0590EFE759F84D
:101B4000042B0592002A03DA504244F40054059015
:101B500044F00204761C30782E2816D116F8010FB6
:101B600044F004042A280DD06FF02F023078A0F141
:101B70003003092B09D807EB870302EB4303C7188F
:101B8000761CF3E759F8047B761C30786C280FD06C
:101B900006DC4C2817D068280DD06A2814D104E040
:101BA000742810D07A280FD10DE044F400140AE014
:101BB00044F4801401E044F440147278824202D16B
:101BC00004F58014761C761C307866280BD013DC64
:101BD000582877D009DC002875D04528F6D046284B
:101BE000F4D047281AD19DE118E0632835D0642845
:101BF00079D0652812D195E1702873D008DC672868
:101C0000F1D069286FD06E280DD06F2806D1B5E0CD
:101C100073282CD0752875D0782874D05A46179917
:101C200090476D1C75E1C4F30250022809D00328C7
:101C30000DD0D9F8001004280DD00D6009F1040969
:101C400067E1D9F80010EA17C1E90052F6E7D9F8C0
:101C500000100D80F2E70D70F0E719F8041B8DF805
:101C6000001000208DF80100EA46012003E059F839
:101C700004AB4FF0FF3061074FF0000102D40DE0DC
:101C800008F101018846B9420FDA8045F8DB1AF8FD
:101C900008100029F4D108E008F1010188468142CA
:101CA000FADB1AF808100029F6D105985B46A0EB7C
:101CB000080721463846179A00F160FA284400EBDD
:101CC000080507E04DE029E10DE01AF8010B5A463E
:101CD00017999047B8F10108F7D25B46214638467C
:101CE000179A13E142E00A220092C4F302524FF025
:101CF000000A022A08D059F804CB032A4FEAEC71F3
:101D00000AD00DE029E02AE009F1070121F00702DD
:101D1000F2E802C1914609E00FFA8CFC4FEAEC713F
:101D2000042A03D14FFA8CFC4FEAEC71002907DA40
:101D30000A460021DCF1000C61EB02012D2202E0D9
:101D4000220504D52B228DF80420012203E0E207AE
:101D500001D02022F7E7904659E00A2102E0102244
:101D60000DE010214FF0000A00910BE010224FF01F
:101D7000000A44F004040827009203E008224FF010
:101D8000000A0092C4F30252022A05D059F804CB8B
:101D90000021032A08D009E009F1070121F0070218
:101DA000F2E802C1914605E01FFA8CFC042A01D139
:101DB0000CF0FF0C4FF00008220728D5702806D041
:101DC000009B83F0100353EA0A0305D00EE0402283
:101DD0008DF80420012208E05CEA010206D03022DE
:101DE0008DF804208DF8050002229046009B83F0B8
:101DF000080353EA0A030AD15CEA010201D162072F
:101E000005D530228DF804204FF001087F1E582898
:101E100004D034A003900EA802900DE036A0F9E79C
:101E200053466046009AFEF0FDF884460398825CB3
:101E30000298401E029002705CEA0100F0D1029804
:101E400006A9081A00F1200A600702D524F480349C
:101E500000E00127574502DDA7EB0A0000E0002063
:101E600000EB0A01009005984144401A0590E003F8
:101E700006D45B462146179A059800F17FF9054480
:101E8000002706E001A85A46C05D179990476D1CCF
:101E90007F1C4745F6DBE0030CD55B462146179ACD
:101EA000059800F16BF9054404E030205A46179973
:101EB00090476D1C0099481E00900029F5DC08E051
:101EC000029802995A460078491C02911799904746
:101ED0006D1CBAF10001AAF1010AF1DC65E1000014
:101EE00009280100303132333435363738396162F0
:101EF00063646566000000003031323334353637B4
:101F000038394142434445460000000000F058F98A
:101F10000544761C307800287FF4ECAD19B02846D3
:101F2000BDE8F08F620700D4062709F1070222F00E
:101F3000070CFCE80223E14603F000485FEA080CC6
:101F400002D00FF2702C0DE05FEA045C02D50FF2B4
:101F5000682C07E05FEAC47C02D00FF2602C01E03D
:101F6000AFF2700C4FF0FF3823F00043CDF850C0B3
:101F700065280CD006DC452809D046281DD0472806
:101F80003DD13DE0662818D067287ED138E0002199
:101F9000112F01DB112000E0781CCDE9000106A91A
:101FA0000EA8FFF7DDFCDDE90F010E9A0391002179
:101FB000009207F1010A04914DE04FF000400097B4
:101FC000CDE9011006A90EA8FFF7CAFCDDE90F0252
:101FD00003920E9B11990022DDF80CA0009304924D
:101FE00011B9791C00EB010AB7EB0A0004D4C0F167
:101FF000FF3007F1010A0490AAEB0700019044E0CA
:10200000012F00DA01270021112F01DD112000E04E
:102010003846CDE9000106A90EA8FFF7A1FCDDE9CD
:102020000F010E9A0391002104910092BA462107F4
:102030000CD40399514500DA8A46BAF1010F05DD47
:10204000009AAAF10101515C302908D0B84202DAA5
:1020500010F1040F06DA0121CDE9011015E0AAF113
:102060000101E9E7002805DC049901440491AAEB89
:10207000000102E0411C514500DD8A460499401AE6
:10208000401C01904FF000400290200704D40198BA
:10209000504501DBCDF8048000208DF84F000298F8
:1020A0000DF14F07B0F1004F25D02B200E90029874
:1020B0004FF0020800280CDA404202902D200E90CA
:1020C00007E00A210298FEF7FBF83031029007F88A
:1020D000011DB8F10001A8F10108F2DC0298002806
:1020E000EFD1791E0E980870307800F0200040F093
:1020F000450007F8020D12A8C01B00F1070814984C
:10210000007800B1012000EB0A01019801EBE071B9
:1021100005984144401A401E0590E00306D45B46F2
:102120002146179A059800F129F80544149800787B
:1021300018B15A46179990476D1CE00324D55B46A9
:102140002146179A059800F119F805441CE00498F7
:10215000002807DBDDE90301884203DD0098405CCD
:10216000179901E0179930205A469047049805F1D5
:102170000105401C04900198401E019004D12E20BE
:102180005A46179990476D1CBAF10001AAF1010A4D
:10219000DDDC05E017F8010B5A46179990476D1CD6
:1021A000B8F10001A8F10108F4DC5B462146179A5A
:1021B0000598ABE62D0000002B0000002000000079
:1021C0002DE9F041044600251E461746880404D434
:1021D00005E039462020B0476D1C641EF9D528461D
:1021E000BDE8F08104490A685206FCD5024AC1B232
:1021F0000C321160704700001C480040FEF738FAAE
:10220000FFF0C2FDFFF070FCFEF756FFFEF7A6FFE1
:10221000FEF7D8FF03A0FFF0A1FF00BFFFF0C6FF4D
:10222000FCE7000053797374656D204F4E200D0A52
:1022300000000000010002000400060008000A007F
:102240000C00100020004000800000010000000091
:102250000102030401020304060708097C220008A6
:102260000000002420000000401900089C22000803
:1022700020000024E00400005019000801000000C4
:1022800010000000000000000090D0030090D00378
:0C22900000000000000000000000000042
:020000040810E2
:100000000648804706480047FEE7FEE7FEE7FEE7B2
:10001000FEE7FEE7FEE7FEE7FEE7FEE7311E10081B
:10002000AD0200082DE9F05F0546002092469B4690
:1000300088460646814640241BE0284641464746FE
:10004000224600F046F853465A46C01A914110D352
:1000500011461846224600F749F92D1A67EB0108A8
:100060004F4622460120002100F740F917EB000916
:100070004E41201EA4F10104DFDC484631462A46E9
:100080004346BDE8F09FD2B201E000F8012B491EC3
:10009000FBD270470022F6E710B513460A46044625
:1000A0001946FFF7F0FF204610BD3EB5CA17CB0F2B
:1000B000002450405140C0186141DA0740F23343F8
:1000C0000094CDE901232246234600F72DF903B021
:1000D00030BD202A04DB203A21FA02F000217047CB
:1000E00021FA02F3D040C2F12002914008431946A0
:1000F00070472DE9F04D81EA030404F0004B21F034
:10010000004514464FF0000A23F0004150EA050272
:1001100020D054EA01021DD0C5F30A570246C5F3A8
:100120001303C1F31300C1F30A5640F4801543F4DE
:100130008013A7EB0608101BD64608F2FD3873EBB8
:10014000050002D308F1010801E092185B41B8F103
:10015000000F03DA00200146BDE8F08D00204FF4C7
:100160008011064684460EE0171B73EB050705D386
:10017000121B63EB050306434CEA010C49084FEAE6
:10018000300092185B4150EA0107EDD152EA0300BA
:1001900012D082EA040083EA0501084305D0101B4F
:1001A000AB4106D20122002306E000224FF00043BB
:1001B00002E06FF0010253101AEB06004CEB0851FD
:1001C00010EB0A0041EB0B01BDE8F04D00F79DB8C4
:1001D000C1F30A52C1F3130140F2FF3341F480111D
:1001E0009A4202DA00200146704740F233439A42B5
:1001F000A2F2334202DC5242FFF76BBF00F776B83F
:10020000202A06DBCB17203A41FA02F043EAE073DA
:1002100006E041FA02F3D040C2F1200291400843C7
:1002200019467047FEE700002DE9F84F03247D4D85
:1002300000234FF001094FF0B04B4FF00F0AE9E0F7
:1002400009FA03F73A4076D00E7906F00306012E3C
:1002500001D0022E18D1D0F808C04FEA430ECE6864
:1002600004FA0EF82CEA080C06FA0EF646EA0C061A
:100270008660D0F804C00E792CEA070CC6F300168D
:100280009E4046EA0C0646600E79F643B6070BD050
:10029000C6684FEA43088F6804FA08FC26EA0C0691
:1002A00007FA08F73743C7600E7906F00306022EF7
:1002B00012D1DE080F694FEA437C00EB8606B64692
:1002C000366A4FEADC6C0AFA0CF807FA0CF726EAF1
:1002D00008063743CEF820700F7906684FEA4308C6
:1002E00007F0030704FA08FC07FA08F726EA0C06E9
:1002F000374307604E6816F4403F1CD04A4E3768BB
:1003000047F00207376036689F0706F0020600963E
:1003100023F0030606F1B046B6463F0FD6F8086450
:10032000DFF808810AFA07FC404526EA0C0603D1EB
:100330004FF0000C41E06CE0DFF8F4C0604502D102
:100340004FF0010C39E0DFF8ECC0604502D14FF00E
:10035000020C32E0DFF8E0C0604502D14FF0030C40
:100360002BE0DFF8D8C0604502D14FF0040C24E048
:10037000DFF8CCC0604502D14FF0050C1DE0DFF87E
:10038000C4C0604502D14FF0060C16E0DFF8B8C0DB
:10039000604502D14FF0070C0FE0DFF8B0C06045B8
:1003A00002D14FF0080C08E0DFF8A4C0604502D18C
:1003B0004FF0090C01E04FF00A0C0CFA07FC4CEA74
:1003C000060CCEF808C44F68DBF80060FF0226EA8E
:1003D000020600D516435F46CBF80060D1F804C092
:1003E000DBF804605FEA8C2C26EA020600D516438F
:1003F0007E606E684F6826EA0206BF0300D516438A
:100400006E602E684F6826EA0206FF0300D5164389
:100410002E605B1C0A6832FA03F67FF411AFBDE868
:10042000F88F000080000058544502580000025820
:100430000004025800080258000C0258001002582C
:100440000014025800180258001C025800200258DC
:10045000002402580AB1816170470904FBE70028B3
:1004600009DB410900F01F028900012001F1E021B0
:100470009040C1F800017047494930B5484C0B1D08
:100480000A68143409681D68246802F00303C5F380
:100490000012C1F30531C4F3CC04002914FB02F2AD
:1004A00000EE102AF8EE400A75D03F4A9FED3D1A43
:1004B000B7EE000A6BB1DFED3D1A012B01D0022B24
:1004C00064D002EE101A1168F8EE422A81EEA22AD8
:1004D00021E0334C283C23689B0612D5344B24681A
:1004E00001EE901A1168C4F3C104F8EE612AE340EA
:1004F00001EE903AC1F30801F8EE611A81EEA22AEA
:100500000BE001EE901ADFED2B2A00BFF8EE611A26
:10051000116882EEA12AC1F3080101EE901A116858
:10052000F8EE611A40EE811A71EE800A62EE200A3E
:10053000C1F3462101EE101AB8EE411A31EE001A4D
:10054000C0EE811ABCEEE11A80ED001A1168C1F309
:10055000064101EE101AB8EE411A31EE001AC0EE53
:10056000811ABCEEE11A80ED011A1168C1F306612F
:1005700001EE101AB8EE411A31EE000A80EE801A30
:10058000BCEEC10A80ED020A30BD04E001EE901A13
:10059000DFED092ABAE70021016041608160F3E7DD
:1005A0002844025800000039384402580024744A94
:1005B0000090D0030024744C0024F44A2DE9FE4F2F
:1005C0000546DFF8F88350F8081B0024FB4FC943A9
:1005D000019005F12800264608F124080090080142
:1005E0001DD4E86E50B1B0F5801F0CD0B0F5001FDF
:1005F0000ED0B0F5401F1ED001240FE0386840F443
:100600000030386017E00198022101F02BFB03E075
:100610000098022100F7DAFD04000CD02646288855
:10062000C043C00523D4A86D05281ED2DFE800F022
:100630000C11161B1B00EA6ED8F8001021F44011B3
:100640001143C8F80010EAE7386840F40030386019
:1006500009E00198002101F005FB03E0009800216A
:1006600000F7B4FD044684B100E001242646288842
:10067000C04380052BD4E86DC02826D00EDCA8B17D
:10068000402818D080280FD11AE0AA6DD8F80010A1
:1006900021F007011143C8F80010E8E7B0F5807FAA
:1006A00013D0B0F5A07F10D001240FE0386840F4DB
:1006B0000030386009E00198002101F0D3FA03E02E
:1006C0000098002100F782FD04468CB12646288858
:1006D000C04340052ED4286EB0F5C06F28D010DC82
:1006E000B8B1B0F5007F19D0B0F5806F0FD11AE026
:1006F000EA6DD8F8001021F4E0711143C8F8001039
:10070000E5E7B0F5006F13D0B0F5206F10D00124ED
:100710000FE0386840F40030386009E001980021AB
:1007200001F0A0FA03E00098002100F74FFD044615
:1007300094B126462868DFF884B2C0430BF1200B41
:1007400080011ED4E86CD0B110280ED0202811D022
:10075000302814D0012413E02A6ED8F8001021F4B8
:1007600060611143C8F80010E4E7386840F40030D5
:10077000386004E00198022101F074FA044674B173
:1007800026462888C043C0042BD4686EB0F5005FAD
:1007900020D00DDCA0B1B0F5805F0FD115E0EA6C80
:1007A000DBF8001021F030011143CBF80010E8E72E
:1007B000B0F5405F13D0B0F5804F10D001240FE0AA
:1007C000386840F40030386009E00198002101F0F9
:1007D00049FA03E00098002100F7F8FC04468CB1C8
:1007E00026462888C043800429D4A86EB0F5403F2F
:1007F00023D010DC08B3B0F5803F14D0B0F5003F33
:100800000FD115E06A6ED8F8001021F4E0411143D1
:10081000C8F80010E5E7B0F5802F0ED0B0F5A02F96
:100820000BD001240AE00198012101F01BFA03E03A
:100830000098012100F7CAFC044674B126462888B6
:10084000DFF878A1C0430AF12C0A400425D4D5F87A
:10085000B00030F0704109D01DE0AA6ED8F8001049
:1008600021F4E0211143C8F80010E8E70017072839
:1008700011D2DFE800F00E04090E0E0E0E000198F2
:10088000012101F0EFF903E00098012100F79EFC3F
:10089000044684B100E0012426462888C0430004B1
:1008A0001FD4A86FD8B1B0F1805F0ED0B0F1005F57
:1008B00010D0012414E0D5F8B020DAF8001021F0AF
:1008C000E0411143CAF80010E7E7386840F400300F
:1008D000386004E00198012101F0C4F9044674B1C4
:1008E00026462868C043C0011ED4A86CD0B1012898
:1008F0000ED0022811D0032814D0012413E0AA6FCF
:10090000D8F8001021F040511143C8F80010E8E772
:10091000386840F40030386004E00198022101F0AA
:10092000A1F904466CB126462868C043400255D45C
:100930002348016841F480710160FFF68BFE814617
:100940000EE0AA6CDBF8001021F003011143CBF894
:100950000010E9E7FFF67EFEA0EB090064283BD813
:1009600017480068C005F5D564BBDFF85090B5F8AE
:10097000B41009F14409D9F8000001F4407100F401
:100980004070884211D0D9F80010D9F8002021F425
:10099000407142F48032C9F80020D9F8002022F4D6
:1009A0008032C9F80020C9F80010D5F8B400B0F5BD
:1009B000807F1ED1FFF64EFE029016E02C440258B6
:1009C0000048025809E000BFFFF644FE0299411AB0
:1009D00041F28830814208D9032426462878DFF87E
:1009E0001494C043C00721D03DE0D9F8000080072F
:1009F000EAD5D5F8B410C1F301200328FE480DD084
:100A0000016821F47C510160B5F8B420D9F80010D8
:100A1000C2F30B021143C9F80010DFE7F74A03687D
:100A200002EA111223F47C511143ECE7D5F884005B
:100A3000182816D005DCA0B1082808D0102804D149
:100A40000AE020280DD028280BD001240AE00198C4
:100A5000012101F007F903E00098012100F7B6FB3E
:100A600004466CB126462878C043800720D4D5F8C8
:100A7000800006281AD2DFE800F0170D12171717AA
:100A8000D5F88420D9F8001021F038011143C9F8B5
:100A90000010E8E70198012101F0E4F803E0009874
:100AA000012100F793FB04467CB100E001242646B7
:100AB0002878C043400720D4D5F89C0006281AD2D5
:100AC000DFE800F0170D12171717D5F88020D9F8B6
:100AD000001021F007011143C9F80010E8E7019860
:100AE000012101F0BFF803E00098012100F76EFB3F
:100AF0000446A4B100E0012426462878C0438006BD
:100B00002BD4D5F89800B0F1405F24D011DC10B39D
:100B1000B0F1805F15D0B0F1005F10D116E0D5F8CC
:100B20009C20DAF8001021F007011143CAF80010E8
:100B3000E3E7B0F1804F0ED0B0F1A04F0BD001240D
:100B40000AE00198002101F08DF803E000980221ED
:100B500000F73CFB044694B126462878C043400683
:100B60002BD4D5F8A400B0F5406F24D011DC10B31D
:100B7000B0F5806F15D0B0F5006F10D116E0D5F844
:100B80009820D9F8001021F0E0411143C9F8001075
:100B9000E3E7B0F5805F0ED0B0F5A05F0BD0012485
:100BA0000AE00198002101F05DF803E000980221BD
:100BB00000F70CFB044694B126462878C043000693
:100BC0002BD4D5F8A800B0F5C04F24D011DC10B359
:100BD000B0F5005F15D0B0F5804F10D116E0D5F814
:100BE000A420DAF8001021F4E0511143CAF80010F3
:100BF000E3E7B0F5004F0ED0B0F5204F0BD0012445
:100C00000AE00198002101F02DF803E0009802218C
:100C100000F7DCFA044654B126462878C0430007A2
:100C20001ED4D5F88C00B0F5805F0AD00FE0D5F85F
:100C3000A820DAF8001021F460411143CAF800102E
:100C4000EBE70098022100F7C1FA00B10126D5F8C0
:100C50008C20D9F8001021F440511143C9F800103C
:100C60002878C043C00613D4D5F8A000B0F5807F23
:100C700005D10098022100F7A9FA00B10126D5F8A4
:100C8000A020DAF8001021F440711143CAF80010D6
:100C90002868C043000316D4D5F8AC0038B1B0F5CD
:100CA000803F09D0B0F5003F0BD001240AE0019845
:100CB000002100F0D7FF03E00098022100F786FA38
:100CC00004468CB126462868C043400322D4D5F898
:100CD0009000B0F5801F11D0B0F5001F13D0B0F513
:100CE000401F15D0012414E0D5F8AC20DAF800102C
:100CF00021F440311143CAF80010E4E7386840F4A9
:100D00000030386004E00098012100F75FFA0446E3
:100D10005CB126462868C043C0031CD4286D70B15E
:100D2000B0F5803F10D0012414E0D5F89020D9F818
:100D3000001021F440111143C9F80010EAE73868A7
:100D400040F40030386004E00198022100F08AFF8E
:100D50000446E4B126462868C043800005D40098C4
:100D6000022100F733FA00B101262868C04380034E
:100D70001CD4D5F88800B8B1B0F5807F10D0B0F59C
:100D8000007F11D0B0F5407F0ED001240DE02A6D18
:100D9000DBF8001021F480311143CBF80010DAE7C2
:100DA000386840F4003038601CB326462868C043D9
:100DB000C00207D4EA6FD8F8001021F000411143B7
:100DC000C8F800102868C043800207D42A6FD8F8FA
:100DD000001021F080711143C8F800102888C0432A
:100DE00000050FD46A6FDAF8001021F0006111439A
:100DF00006E035E05444025810440258CFFFFF008B
:100E0000CAF800102868C043400009D43D48016872
:100E100021F4004101600168D5F8B8201143016058
:100E20002868C04307D46A6DDBF8001021F04051F8
:100E30001143CBF800102868C043000208D4D5F84D
:100E40009420D9F8001021F440011143C9F8001092
:100E500028790024C04300F0010020430AD00FE0AD
:100E6000D5F88820D9F8001021F440711143C9F851
:100E700000109BE70198002100F0F4FE00B1064647
:100E80002879C04300F00200204305D101980121D8
:100E900000F0E8FE00B106462879C04300F00400E7
:100EA000204305D10198022100F0DCFE00B1064686
:100EB0002879C04300F00800204305D100980021A4
:100EC00000F784F900B106462879C04300F010000D
:100ED000204305D10098012100F778F900B10646BA
:100EE0002879C04300F02000044304D10098022177
:100EF00000F76CF900B916B10120BDE8FE8F0020A3
:100F0000FBE700001044025830B500F031F80B4AFE
:100F10000B490C4B15681468C5F3032204F00F0449
:100F20008A5C095D02F01F0201F01F01D040064AF1
:100F300020FA01F119601060084630BD18440258CB
:100F40004C220008100000240C00002400B5FFF71C
:100F5000DBFF05490968054AC1F30221515C01F034
:100F60001F01C84000BD00001C4402584C2200086C
:100F7000454970B545480968434B103B11F03802AC
:100F800008D00111082A03D0102A0BD0182A0BD040
:100F9000084670BD19688906FBD51968C1F3C101FF
:100FA000C84070BD3A4870BD3749374D18310C1DE7
:100FB00024350A68096826682D6802F0030406F0E3
:100FC0000102C1F30511C5F3CC0515FB02F200EED9
:100FD000102AB8EE400AE9B32F4ADFED2E0AB7EE29
:100FE000001A6CB1DFED2D1A012C01D0022C43D078
:100FF00002EE101A1068F8EE422A81EEA22A1EE0D4
:101000001C68A40611D51B6801EE901A1168C3F381
:10101000C103F8EE612AD84001EE900AC1F308003E
:10102000F8EE611A81EEA22A0BE001EE901ADFEDD4
:101030001C2A00BFF8EE611A106882EEA12AC0F3E4
:10104000080001EE900AF8EE611A40EE201A31EE27
:10105000810A00E015E022EE000A1068C0F3462085
:10106000401C00EE900AF8EE600A80EE201ABCEEFA
:10107000C10A10EE100A70BD01EE901ADFED092AC8
:10108000D8E7002070BD0000104402580090D00343
:1010900000127A0000000039304402580024744ADB
:1010A0000024744C0024F44A2DE9F05F04007DD044
:1010B000FB4F2078FA4D1837DFF8E483103DC00766
:1010C00066D0D8F80000396800F03800102822D027
:1010D000182803D101F0030002281CD06068B0F585
:1010E000803F1FD010B3B0F5A02F2BD0B0F5A81FB4
:1010F00028682FD020F480302860286820F48020D1
:101100002860286820F480102860606898B3FFF693
:10111000A1FA06462BE02868800339D560680028CC
:10112000C5D035E0286840F48030EDE7286820F429
:1011300080302860286820F480102860286820F417
:101140008020E1E7286840F480202860286820F4A7
:10115000801005E040F480202860286840F480106A
:101160002860DFE7FFF676FA801B64287ED82868BF
:101170008003F7D50CE0FFE7FFF66CFA064604E0C3
:10118000FFF668FA801B6428F0D828688003F7D43B
:101190002078800756D5D8F80000DFF80493396826
:1011A00010F03800A9F10C0910D000E0F0E0182888
:1011B00001D188070AD0E06898B3296821F01901A5
:1011C00001432960FFF646FA064626E028684007F4
:1011D00002D5E0680028A3D0E168286820F0190053
:1011E00008432860FFF636FA064604E0FFF632FAB6
:1011F000801B0228BAD828684007F7D5217CD9F887
:10120000002022F0FE4242EA0161C9F8001019E014
:10121000FFF620FA801B0228A8D828684007F7D5D7
:10122000ECE7FFE7286820F001002860FFF612FADB
:10123000064604E0FFF60EFA801B022896D82868BE
:101240004007F7D42078C00646D5D8F80000DFF86C
:101250005092396800F03800A9F10409082812D02A
:10126000182805D101F00300012800E0ECE00AD0C5
:10127000E0690028286820D040F080002860FFF650
:10128000E9F9064615E02868C00502D5E06980281E
:101290007ED194F82010D9F8002022F07C5242EA46
:1012A0000161C9F8001017E0FFF6D4F9801B02288D
:1012B000A0D82868C005F7D5EBE720F080002860AB
:1012C000FFF6C8F9064604E0FFF6C4F9801B0228C1
:1012D00090D82868C005F7D42078000729D5704831
:1012E0006169643000298146016811D041F0010133
:1012F0000160FFF6AFF9064605E000BFFFF6AAF968
:10130000801B022888D8D9F800008007F6D510E0A5
:1013100021F001010160FFF69DF9064605E000BFDE
:10132000FFF698F9801B022888D8D9F800008007BA
:10133000F6D42078800623D5A0690028286810D02C
:1013400040F480502860FFF685F9064605E000BFAE
:10135000FFF680F9801B022876D828688004F7D52C
:101360000EE020F480502860FFF674F9064604E091
:10137000FFF670F9801B022866D828688004F7D42D
:10138000207840076FD5DFF81C91D9F8001000E0F5
:1013900035E141F48071C9F80010FFF65BF90646AB
:1013A00005E000BFFFF656F9801B64284CD8D9F839
:1013B0000000C005F6D53A4EA0686036012818D066
:1013C000D8B1052825D0852830682AD020F0010022
:1013D0003060306820F004003060306820F0800019
:1013E0003060A06841F2883A78B3FFF633F981465D
:1013F00026E0306840F00100F2E7306820F001009C
:101400003060306820F080003060306820F00400E8
:10141000E6E7306840F004003060306820F080007B
:1014200005E040F004003060306840F0800030603B
:10143000DFE700BFFFF60EF9A0EB0901514503D825
:1014400030688007F6D50EE088E0FFE7FFF602F986
:10145000814605E0FFF6FEF8A0EB090151457DD875
:1014600030688007F6D4606AF0B34146DFF8308018
:1014700008F12008096808F10409A8F1040A4FF6E8
:10148000F87BC1F3C201032969D00228286820F043
:101490008070286008D0FFF6DDF8044684E0000084
:1014A0001044025800480258FFF6D4F8064604E0FB
:1014B000FFF6D0F8801B022873D828688001F7D483
:1014C000E26A40F2F331386854F8283F884340EA32
:1014D000021018433860217B4FF4FE0C22894FF034
:1014E000FE47208A267D00E0ADE049024346521EB9
:1014F000401EA1F50071C2F308088AB2761E0CEAFC
:10150000004042EA08020243504607EA06610A43E5
:101510001A60DAF8002022F00102CAF80020D9F897
:101520000020266A22EA0B0242EAC602C9F800201D
:10153000DAF80010A26921F00C011143CAF800107A
:101540000168E26921F0020111430160016841F480
:1015500080310160016841F4003101E021E027E0C1
:101560000160016841F480210160016841F00101DE
:101570000160286840F080702860FFF66BF8044630
:1015800005E000BFFFF666F8001B022809D82868AE
:101590008001F7D557E000BFFFF65CF8001B02287A
:1015A00002D90320BDE8F09F28688001F4D44AE006
:1015B00039680128D8F8000021D0A26A01F003039D
:1015C00093421CD1E26AC1F305118A4217D1216B03
:1015D000C0F30802491E8A4211D1616BC0F3462252
:1015E000491E91420BD1A16BC0F30642491E9142A4
:1015F00005D1E16BC0F30660491E814201D0012094
:10160000D0E7A16C4E46D9F80000C0F3CC0081426F
:1016100019D0DAF80000554620F00100CAF80000A1
:10162000FFF618F84FEA0007FFF614F8B842FBD0AF
:10163000A26C306820EA0B0040EAC20030602868E3
:1016400040F0010028600020ACE7704770470000C0
:10165000F0B590F83C20012A3BD01F4E012480F8C1
:101660003C40022280F83D2002681C4D5368B24283
:10167000D2F808C001D0AA4203D14F6823F4700306
:101680003B430F6823F070031F4357600268B24268
:1016900013D0B2F1804F10D0114B9A420DD0114BA4
:1016A0009A420AD0104B9A4207D0AA4205D00F4B5B
:1016B0009A4202D00E4B9A4204D189682CF08003E2
:1016C00019439160002180F83D4080F83C100846A5
:1016D000F0BD0220F0BD0000000001400004014008
:1016E0000004004000080040000C004000180040CA
:1016F0000040014010B5040003D094F83D0010B143
:1017000007E0012010BD002084F83C00204600F0D6
:1017100023F8022084F83D002068211DFFF6E8FD33
:10172000012084F8480084F83E0084F83F0084F8E3
:10173000400084F8410084F8420084F8430084F8B3
:10174000440084F8450084F8460084F8470084F893
:101750003D00002010BD000010B586B004461421E5
:101760006846FEF797FC16492068884226D115483E
:10177000016841F008010160006800F00800059070
:1017800010480838016841F0010101600068032237
:10179000012100F00100059002200490CDE9020231
:1017A000CDE9001008486946FEF73EFD00223220D0
:1017B0001146FEF6B9FF3220FEF751FE06B010BD0D
:1017C000000C0040484502580000025870B504461D
:1017D00090F83C000025012814D03A4B012684F8EB
:1017E0003C60022084F83D0022689068184020F494
:1017F0007F409060086870282FD010DC10F00F0F29
:1018000003D022E04FF0020070BD4FEA2012072AF9
:101810001BD2DFE802F0535353534B394100B0F170
:10182000101F4BD009DCB0F5805F0FD0B0F5005F22
:101830001ED0B0F5801F08D140E0A0F580112039FE
:101840003CD010293AD0202938D0012584F83D60B9
:10185000002084F83C00284670BD4A682068D1E921
:10186000021300F058FB2068816841F0770109E01D
:101870004A682068D1E9021300F04DFB20688168B6
:1018800041F480418160E1E7CA6849682068FFF659
:1018900097FD2068502106E0CA684968206800F07A
:1018A0008DFB2068602100F03FFBCFE7CA684968E4
:1018B0002068FFF685FD20684021F4E72268014694
:1018C0001046F0E788FFCEFF70472DE9F04104464F
:1018D00000680027C6680569A90713D5B10711D5A7
:1018E000FA1E026101212177206880698007204665
:1018F00002D0FFF695F904E0FFF636FB204600F033
:1019000088F82777680716D5700714D52268022053
:101910006FF00401116120772068806910F4407F26
:10192000204602D0FFF67CF904E0FFF61DFB2046BE
:1019300000F06FF82777280715D5300713D52268F0
:1019400004206FF00801116120772068C0698007CA
:10195000204602D0FFF664F904E0FFF605FB2046BE
:1019600000F057F82777E80616D5F00614D5226858
:1019700008206FF01001116120772068C06910F411
:10198000407F204602D0FFF64BF904E0FFF6ECFA68
:10199000204600F03EF82777E80708D0F00706D089
:1019A00021686FF001000861204600F033F8280636
:1019B00001D4A80408D5300606D521686FF402507A
:1019C00008612046FFF62BF9E80508D5300606D554
:1019D00021686FF4807008612046FFF736FE6806C4
:1019E00008D5700606D521686FF0400008612046D2
:1019F000FFF6D1FAA8060AD5B00608D521686FF01F
:101A0000200008612046BDE8F041FFF71FBEBDE899
:101A1000F081704708484178002907D101780129F1
:101A200004D18178FF2902D0491C817070470121BF
:101A300041708A1E426070471400002430B590F84F
:101A40008410012918D0012280F884202421C0F8B4
:101A500088100022202401680B680D6823F00053D1
:101A600025F001050D60426601680B60C0F88840F2
:101A700080F88420104630BD022030BD10B504002F
:101A800003D0D4F8880010B107E0012010BD002079
:101A900084F884002046FFF6CBFA2420C4F888009E
:101AA0002068016821F001010160A06A10B12046A0
:101AB000FFF697FC2046FFF6F9FC0128E6D02068E7
:101AC000416821F4904141602068816821F02A0139
:101AD00081602068016841F0010101602046BDE895
:101AE000104000F0BBBAFEE72DE9F04786B01421A4
:101AF0006846FEF7CFFA5348016841F004010160DF
:101B0000016801F004010591016841F020010160C4
:101B1000016801F020010591016841F08001016038
:101B2000016801F080010591016841F00101016047
:101B3000016801F001010591016841F002010160B5
:101B4000016801F002010591016841F0080101609E
:101B5000016801F008010591016841F04001016050
:101B6000016801F040010591016841F01001016038
:101B700000684FF48067DFF8D080002200F010008A
:101B8000394605904046FEF765FCDFF8C09044F208
:101B90000106002231464846FEF75CFCDFF8B0A0A3
:101BA000002202215046FEF755FC002469467010C1
:101BB0000294CDE900042748FEF736FB0125009783
:101BC000CDE90154694640460394FEF72DFB00968B
:101BD0006946CDE9015448460394FEF725FB802071
:101BE0004FF488118DE813001B486946FEF71CFB73
:101BF000DFF868806802CDE9000469464046029437
:101C0000FEF712FB0A20009702266946CDE901641F
:101C1000CDE903404046FEF707FB4FF4C05000906B
:101C2000CDE90164694640460394FEF7FDFA00964B
:101C30006946CDE9015450460394FEF7F5FA06B023
:101C4000BDE8F087404502580014025800040258CD
:101C500000100258000802580018025800000258EC
:101C6000FEE700002DE9F047454D044689464FF058
:101C7000000A2868C04380070AD0414E283E3068D9
:101C800020F080603060FEF6E5FC0746B04608E0D4
:101C90000120BDE8F08700BFFEF6DCFCC01B022877
:101CA00067D8D8F800000001F6D4206829684FF4FE
:101CB000FE0721F47C313E0241EA00302860207AA0
:101CC000A389B4F804C040022D4D2D495B1E227C2F
:101CD000ACF1010C1035091DA0F5007080B2521E48
:101CE000CCF3080C07EA034340EA0C00184306EA69
:101CF0000262104328600868626920F0C000104347
:101D000008600A68A06922F0200202430A60281DC8
:101D10000A6822F010020A6002684FF6F873E4695C
:101D20009A4342EAC40202600868B9F1000F40F029
:101D300010020A6011D00868B9F1010F11D040F407
:101D400000100860D8F80000444640F08060C8F8F1
:101D50000000FEF67FFC05460DE0086840F4002018
:101D6000EFE740F48010ECE7FEF674FC401B02281D
:101D700001D903208DE720680001F5D5504688E79A
:101D8000284402587047000030B59DB04C21684689
:101D9000FEF780F9202113A8FEF77CF922494FF0C5
:101DA000FF3008600420FEF6F1FC2048016841F491
:101DB000404101600168002401F440411B91016829
:101DC0008904FCD50DF1280C212200924FF4A023A8
:101DD0000193012106910220099032258CE823000D
:101DE00004220FA90C23CDE90D0281E819006846F1
:101DF0001294FFF759F908B172B6FEE713AD40200F
:101E00003F21032285E8160003011A90CDE9164010
:101E10000421CDE9180313A8FEF6AEFD002801D079
:101E200072B6FEE71DB030BDB044025818480258E3
:101E30002748F0B5274A016841F470010160106835
:101E400000F00F00032804D2106820F00F00C01C1F
:101E5000106021490020204C10340B681F4D43F0C6
:101E600001030B6020600B682B400B60136803F0CC
:101E70000F03032B04D9136823F00F03DB1C13603B
:101E8000154C174A1834174B261D371D2060124C6D
:101E9000154D28343060261D3860371D23603B1DEA
:101EA00035601C1D3A60251D2E1D1860331D2260F3
:101EB0002860326018600A6843F2D204064B0B4D6A
:101EC00022F4802260330A6018602C60F0BD0000AC
:101ED00088ED00E000200052004402587FEDF6EA51
:101EE00080020101000202020000FF0100400052D6
:101EF0000148FFF7EABC00002000002410B5046A86
:101F0000012301F01F018B409C4304628A40016A57
:101F10001143016210BD42EA032283680A4323F49D
:101F20007F410A4382607047034B82681A400A432C
:101F300042F00701816070478FFFCFFF70B5184CEA
:101F4000056A066AA04226F001040462846914D07E
:101F5000B0F1804F11D0134EB0420ED0124EB042AD
:101F60000BD0124EB04208D0114EB04205D0114EE7
:101F7000B04202D0104EB04203D124F00304144307
:101F800001E044F001041A0724F0F00325F00A04EC
:101F900001F00A01214343EA12628261016270BDCD
:101FA000000001400004004000080040000C004018
:101FB00000040140001800400040014010B5036AD1
:101FC000046A23F0A00324F010040462846943EA45
:101FD000011124F4704343EA02328261016210BDB0
:101FE00070B54FF6FF7404EA0333046AA025066A4D
:101FF00005EA011126F01006066224F0A0058469A6
:10200000294324F4407444EA022222F47042134328
:102010008361016270BD000030B5416EB9B10168E5
:102020000D4B03F108048A688968C2F34262490FC4
:102030005D5C615C2D01B5FBF1F1A0F86A10995C63
:10204000A25C0901B1FBF2F1A0F8681030BD0121DA
:10205000A0F86A10F8E70000342210082DE9F843D0
:1020600000250446C0F89050FEF6F4FA8046206839
:1020700020266FF07E470068000713D500224346F4
:10208000310420460097FFF6FFFB58B1216851E864
:10209000000F20F0800041E80002002AF6D1C4F8C9
:1020A000886021E020680068400722D5002243466E
:1020B0004FF4800120460097FFF6E6FBC8B1206888
:1020C00050E8001F21F4907140E80012002AF6D178
:1020D0002068083050E8001F21F0010140E800129C
:1020E000002AF5D1C4F88C60032084F88450BDE840
:1020F000F883C4F88860C4F88C60E5662567002022
:1021000084F88450F3E7000010B5026852E8001F1D
:1021100021F4907142E80013002BF6D10E4B0268B7
:10212000083252E8001F194042E80014002CF6D192
:10213000C16E012908D1026852E8001F21F0100188
:1021400042E80013002BF6D100212022C0F88C2099
:10215000C166416710BD0000FEFFFFEF0FB4054BE5
:1021600010B503A9044A0298FFF6BCFC10BC5DF848
:1021700014FB0000E52100081C0000242DE9F041BB
:10218000044600251E469046C80301D5302700E0CE
:102190002027880404D505E041463846B0476D1C29
:1021A000641EF9D52846BDE8F08100002DE9F04114
:1021B000164D2DED028B6878012822D1A8780024D5
:1021C000631EA0FB032604FB036300FB0431686865
:1021D0001018614106460F46FDF767FF41EC100BF2
:1021E0009FED0B1B0CA032463B4680EE018BFFF7A8
:1021F000B5FF53EC182B0AA0FFF7B0FF6C70AC7062
:102200006C60BDEC028BBDE8F0810000140000247E
:102210000000000080842E41256C6C64090D0A00CA
:102220005365636F6E643A20252E334C66200D0A89
:10223000000000000101010307010000080402047E
:04224000080101018F
:04000005080002AD40
:00000001FF
